{
  "contractName": "DataAccess",
  "abi": [
    {
      "constant": true,
      "inputs": [
        {
          "name": "",
          "type": "uint256"
        }
      ],
      "name": "dataReqPool",
      "outputs": [
        {
          "name": "addr",
          "type": "address"
        },
        {
          "name": "encryptCode",
          "type": "string"
        },
        {
          "name": "dataURL",
          "type": "string"
        },
        {
          "name": "dataHash",
          "type": "string"
        },
        {
          "name": "isApproved",
          "type": "bool"
        },
        {
          "name": "timeStamp",
          "type": "uint256"
        },
        {
          "name": "dataOwner",
          "type": "address"
        }
      ],
      "payable": false,
      "stateMutability": "view",
      "type": "function"
    },
    {
      "constant": false,
      "inputs": [
        {
          "name": "dataOwner",
          "type": "address"
        },
        {
          "name": "encryptCode",
          "type": "string"
        }
      ],
      "name": "sendDataRequest",
      "outputs": [
        {
          "name": "index",
          "type": "uint256"
        }
      ],
      "payable": false,
      "stateMutability": "nonpayable",
      "type": "function"
    },
    {
      "constant": false,
      "inputs": [
        {
          "name": "index",
          "type": "uint256"
        },
        {
          "name": "dataURL",
          "type": "string"
        },
        {
          "name": "dataHash",
          "type": "string"
        }
      ],
      "name": "approveDataRequest",
      "outputs": [],
      "payable": false,
      "stateMutability": "nonpayable",
      "type": "function"
    },
    {
      "constant": true,
      "inputs": [],
      "name": "getRequestCount",
      "outputs": [
        {
          "name": "count",
          "type": "uint256"
        }
      ],
      "payable": false,
      "stateMutability": "view",
      "type": "function"
    }
  ],
  "bytecode": "0x608060405234801561001057600080fd5b50610c74806100206000396000f300608060405260043610610062576000357c0100000000000000000000000000000000000000000000000000000000900463ffffffff1680633fad1834146100675780638d75e8db14610092578063b357b5a91461012f578063d3585136146101e8575b600080fd5b34801561007357600080fd5b5061007c6103de565b6040518082815260200191505060405180910390f35b34801561009e57600080fd5b50610119600480360381019080803573ffffffffffffffffffffffffffffffffffffffff169060200190929190803590602001908201803590602001908080601f01602080910402602001604051908101604052809392919081815260200183838082843782019150505050505091929192905050506103ea565b6040518082815260200191505060405180910390f35b34801561013b57600080fd5b506101e660048036038101908080359060200190929190803590602001908201803590602001908080601f0160208091040260200160405190810160405280939291908181526020018383808284378201915050505050509192919290803590602001908201803590602001908080601f01602080910402602001604051908101604052809392919081815260200183838082843782019150505050505091929192905050506105ce565b005b3480156101f457600080fd5b50610213600480360381019080803590602001909291905050506108bd565b604051808873ffffffffffffffffffffffffffffffffffffffff1673ffffffffffffffffffffffffffffffffffffffff168152602001806020018060200180602001871515151581526020018681526020018573ffffffffffffffffffffffffffffffffffffffff1673ffffffffffffffffffffffffffffffffffffffff16815260200184810384528a818151815260200191508051906020019080838360005b838110156102cf5780820151818401526020810190506102b4565b50505050905090810190601f1680156102fc5780820380516001836020036101000a031916815260200191505b50848103835289818151815260200191508051906020019080838360005b8381101561033557808201518184015260208101905061031a565b50505050905090810190601f1680156103625780820380516001836020036101000a031916815260200191505b50848103825288818151815260200191508051906020019080838360005b8381101561039b578082015181840152602081019050610380565b50505050905090810190601f1680156103c85780820380516001836020036101000a031916815260200191505b509a505050505050505050505060405180910390f35b60008080549050905090565b60008082511115156103fb57600080fd5b600060e0604051908101604052803373ffffffffffffffffffffffffffffffffffffffff16815260200184815260200160206040519081016040528060008152508152602001602060405190810160405280600081525081526020016000151581526020014281526020018573ffffffffffffffffffffffffffffffffffffffff168152509080600181540180825580915050906001820390600052602060002090600702016000909192909190915060008201518160000160006101000a81548173ffffffffffffffffffffffffffffffffffffffff021916908373ffffffffffffffffffffffffffffffffffffffff160217905550602082015181600101908051906020019061050e929190610b23565b50604082015181600201908051906020019061052b929190610b23565b506060820151816003019080519060200190610548929190610b23565b5060808201518160040160006101000a81548160ff02191690831515021790555060a0820151816005015560c08201518160060160006101000a81548173ffffffffffffffffffffffffffffffffffffffff021916908373ffffffffffffffffffffffffffffffffffffffff160217905550505050600160008054905003905092915050565b6000805490508310151561064a576040517f08c379a000000000000000000000000000000000000000000000000000000000815260040180806020018281038252600d8152602001807f496e76616c696420696e6465780000000000000000000000000000000000000081525060200191505060405180910390fd5b60008381548110151561065957fe5b906000526020600020906007020160040160009054906101000a900460ff161515156106ed576040517f08c379a00000000000000000000000000000000000000000000000000000000081526004018080602001828103825260108152602001807f5265717565737420617070726f7665640000000000000000000000000000000081525060200191505060405180910390fd5b6000838154811015156106fc57fe5b906000526020600020906007020160060160009054906101000a900473ffffffffffffffffffffffffffffffffffffffff1673ffffffffffffffffffffffffffffffffffffffff163373ffffffffffffffffffffffffffffffffffffffff161415156107d0576040517f08c379a000000000000000000000000000000000000000000000000000000000815260040180806020018281038252600e8152602001807f4e6f742064617461206f776e657200000000000000000000000000000000000081525060200191505060405180910390fd5b600082511115156107e057600080fd5b600081511115156107f057600080fd5b8160008481548110151561080057fe5b90600052602060002090600702016002019080519060200190610824929190610ba3565b508060008481548110151561083557fe5b90600052602060002090600702016003019080519060200190610859929190610ba3565b50600160008481548110151561086b57fe5b906000526020600020906007020160040160006101000a81548160ff021916908315150217905550426000848154811015156108a357fe5b906000526020600020906007020160050181905550505050565b6000818154811015156108cc57fe5b90600052602060002090600702016000915090508060000160009054906101000a900473ffffffffffffffffffffffffffffffffffffffff1690806001018054600181600116156101000203166002900480601f01602080910402602001604051908101604052809291908181526020018280546001816001161561010002031660029004801561099e5780601f106109735761010080835404028352916020019161099e565b820191906000526020600020905b81548152906001019060200180831161098157829003601f168201915b505050505090806002018054600181600116156101000203166002900480601f016020809104026020016040519081016040528092919081815260200182805460018160011615610100020316600290048015610a3c5780601f10610a1157610100808354040283529160200191610a3c565b820191906000526020600020905b815481529060010190602001808311610a1f57829003601f168201915b505050505090806003018054600181600116156101000203166002900480601f016020809104026020016040519081016040528092919081815260200182805460018160011615610100020316600290048015610ada5780601f10610aaf57610100808354040283529160200191610ada565b820191906000526020600020905b815481529060010190602001808311610abd57829003601f168201915b5050505050908060040160009054906101000a900460ff16908060050154908060060160009054906101000a900473ffffffffffffffffffffffffffffffffffffffff16905087565b828054600181600116156101000203166002900490600052602060002090601f016020900481019282601f10610b6457805160ff1916838001178555610b92565b82800160010185558215610b92579182015b82811115610b91578251825591602001919060010190610b76565b5b509050610b9f9190610c23565b5090565b828054600181600116156101000203166002900490600052602060002090601f016020900481019282601f10610be457805160ff1916838001178555610c12565b82800160010185558215610c12579182015b82811115610c11578251825591602001919060010190610bf6565b5b509050610c1f9190610c23565b5090565b610c4591905b80821115610c41576000816000905550600101610c29565b5090565b905600a165627a7a72305820dcb255c6637c1bb267e968cdc3b8974f501fc30ed4c3cbf85575e7124bce39030029",
  "source": "/* For HealthChainHack, Sep 2018\n * Author: Xinghua Liang\n * Copyright: BlockTEST LLC\n */\n pragma solidity ^0.4.24;\n\nimport \"./Owned.sol\";\n\ncontract DataAccess {\n    /* struct for a new request */\n    struct Request {\n        address addr;\n        string  encryptCode;\n        string  dataURL;\n        string  dataHash;\n        bool    isApproved;\n        uint    timeStamp;\n        address dataOwner;\n    }\n\n    /* store all data requests */\n    Request[] public dataReqPool;\n\n    function sendDataRequest(address dataOwner, string encryptCode)\n        public returns (uint index) {\n        require(bytes(encryptCode).length > 0);\n        dataReqPool.push(Request(msg.sender, encryptCode, \"\", \"\", false, now, dataOwner));\n        return dataReqPool.length - 1;\n    }\n    \n    function approveDataRequest(uint index, string dataURL, string dataHash)\n        public {\n        require(index < dataReqPool.length,\n                \"Invalid index\");\n        require(!dataReqPool[index].isApproved,\n                \"Request approved\");\n        require(msg.sender == dataReqPool[index].dataOwner,\n                \"Not data owner\");\n        require(bytes(dataURL).length > 0);\n        require(bytes(dataHash).length > 0);\n        \n        dataReqPool[index].dataURL = dataURL;\n        dataReqPool[index].dataHash = dataHash;\n        dataReqPool[index].isApproved = true;\n        dataReqPool[index].timeStamp = now;\n    }\n\n    function getRequestCount()\n        public view returns (uint count) {\n        return dataReqPool.length;\n    }\n}",
  "sourcePath": "/home/juicebox/test_webpack/contracts/DataAccess.sol",
  "compiler": {
    "name": "solc",
    "version": "0.4.24+commit.e67f0147.Emscripten.clang"
  },
  "schemaVersion": "2.0.1",
  "updatedAt": "2018-09-20T19:57:17.186Z"
}