{
  "contractName": "DrugTask",
  "abi": [
    {
      "constant": true,
      "inputs": [],
      "name": "name",
      "outputs": [
        {
          "name": "",
          "type": "string"
        }
      ],
      "payable": false,
      "stateMutability": "view",
      "type": "function"
    },
    {
      "constant": false,
      "inputs": [
        {
          "name": "_spender",
          "type": "address"
        },
        {
          "name": "_value",
          "type": "uint256"
        }
      ],
      "name": "approve",
      "outputs": [
        {
          "name": "success",
          "type": "bool"
        }
      ],
      "payable": false,
      "stateMutability": "nonpayable",
      "type": "function"
    },
    {
      "constant": false,
      "inputs": [
        {
          "name": "_newOwner",
          "type": "address"
        }
      ],
      "name": "setOwner",
      "outputs": [],
      "payable": false,
      "stateMutability": "nonpayable",
      "type": "function"
    },
    {
      "constant": true,
      "inputs": [
        {
          "name": "",
          "type": "address"
        }
      ],
      "name": "LegiFiles",
      "outputs": [
        {
          "name": "fileURL",
          "type": "string"
        },
        {
          "name": "hashCode",
          "type": "string"
        },
        {
          "name": "signature",
          "type": "string"
        },
        {
          "name": "timeStamp",
          "type": "uint256"
        },
        {
          "name": "isSigned",
          "type": "bool"
        }
      ],
      "payable": false,
      "stateMutability": "view",
      "type": "function"
    },
    {
      "constant": true,
      "inputs": [],
      "name": "totalSupply",
      "outputs": [
        {
          "name": "",
          "type": "uint256"
        }
      ],
      "payable": false,
      "stateMutability": "view",
      "type": "function"
    },
    {
      "constant": false,
      "inputs": [
        {
          "name": "playerId",
          "type": "uint256"
        }
      ],
      "name": "approvePlayerResult",
      "outputs": [],
      "payable": false,
      "stateMutability": "nonpayable",
      "type": "function"
    },
    {
      "constant": false,
      "inputs": [
        {
          "name": "_from",
          "type": "address"
        },
        {
          "name": "_to",
          "type": "address"
        },
        {
          "name": "_value",
          "type": "uint256"
        }
      ],
      "name": "transferFrom",
      "outputs": [
        {
          "name": "success",
          "type": "bool"
        }
      ],
      "payable": false,
      "stateMutability": "nonpayable",
      "type": "function"
    },
    {
      "constant": true,
      "inputs": [],
      "name": "decimals",
      "outputs": [
        {
          "name": "",
          "type": "uint8"
        }
      ],
      "payable": false,
      "stateMutability": "view",
      "type": "function"
    },
    {
      "constant": true,
      "inputs": [],
      "name": "task",
      "outputs": [
        {
          "name": "taskName",
          "type": "string"
        },
        {
          "name": "toolName",
          "type": "string"
        },
        {
          "name": "numPlayers",
          "type": "uint8"
        },
        {
          "name": "maxPlayers",
          "type": "uint8"
        },
        {
          "name": "playerSalary",
          "type": "uint256"
        },
        {
          "name": "isFinished",
          "type": "bool"
        },
        {
          "name": "timeStamp",
          "type": "uint256"
        }
      ],
      "payable": false,
      "stateMutability": "view",
      "type": "function"
    },
    {
      "constant": true,
      "inputs": [],
      "name": "getRequestCount",
      "outputs": [
        {
          "name": "count",
          "type": "uint256"
        }
      ],
      "payable": false,
      "stateMutability": "view",
      "type": "function"
    },
    {
      "constant": false,
      "inputs": [
        {
          "name": "_totalSupply",
          "type": "uint256"
        },
        {
          "name": "_bonus",
          "type": "uint256"
        },
        {
          "name": "_name",
          "type": "string"
        },
        {
          "name": "_symbol",
          "type": "string"
        },
        {
          "name": "_decimal",
          "type": "uint8"
        }
      ],
      "name": "initiateToken",
      "outputs": [],
      "payable": false,
      "stateMutability": "nonpayable",
      "type": "function"
    },
    {
      "constant": false,
      "inputs": [
        {
          "name": "playerId",
          "type": "uint256"
        },
        {
          "name": "dataOutputId",
          "type": "uint256"
        }
      ],
      "name": "approvePlayerRequest",
      "outputs": [],
      "payable": false,
      "stateMutability": "nonpayable",
      "type": "function"
    },
    {
      "constant": false,
      "inputs": [
        {
          "name": "toolName",
          "type": "string"
        },
        {
          "name": "maxPlayers",
          "type": "uint8"
        },
        {
          "name": "playerSalary",
          "type": "uint256"
        }
      ],
      "name": "initiateTask",
      "outputs": [],
      "payable": true,
      "stateMutability": "payable",
      "type": "function"
    },
    {
      "constant": true,
      "inputs": [],
      "name": "isTokenInitialized",
      "outputs": [
        {
          "name": "",
          "type": "bool"
        }
      ],
      "payable": false,
      "stateMutability": "view",
      "type": "function"
    },
    {
      "constant": true,
      "inputs": [
        {
          "name": "",
          "type": "address"
        }
      ],
      "name": "balanceOf",
      "outputs": [
        {
          "name": "",
          "type": "uint256"
        }
      ],
      "payable": false,
      "stateMutability": "view",
      "type": "function"
    },
    {
      "constant": true,
      "inputs": [],
      "name": "bonus",
      "outputs": [
        {
          "name": "",
          "type": "uint256"
        }
      ],
      "payable": false,
      "stateMutability": "view",
      "type": "function"
    },
    {
      "constant": false,
      "inputs": [
        {
          "name": "dataOwner",
          "type": "address"
        },
        {
          "name": "encryptCode",
          "type": "string"
        }
      ],
      "name": "sendDataRequest",
      "outputs": [
        {
          "name": "index",
          "type": "uint256"
        }
      ],
      "payable": false,
      "stateMutability": "nonpayable",
      "type": "function"
    },
    {
      "constant": true,
      "inputs": [],
      "name": "owner",
      "outputs": [
        {
          "name": "",
          "type": "address"
        }
      ],
      "payable": false,
      "stateMutability": "view",
      "type": "function"
    },
    {
      "constant": true,
      "inputs": [],
      "name": "symbol",
      "outputs": [
        {
          "name": "",
          "type": "string"
        }
      ],
      "payable": false,
      "stateMutability": "view",
      "type": "function"
    },
    {
      "constant": false,
      "inputs": [
        {
          "name": "_to",
          "type": "address"
        },
        {
          "name": "_value",
          "type": "uint256"
        }
      ],
      "name": "transfer",
      "outputs": [],
      "payable": false,
      "stateMutability": "nonpayable",
      "type": "function"
    },
    {
      "constant": false,
      "inputs": [
        {
          "name": "index",
          "type": "uint256"
        },
        {
          "name": "dataURL",
          "type": "string"
        },
        {
          "name": "dataHash",
          "type": "string"
        }
      ],
      "name": "approveDataRequest",
      "outputs": [],
      "payable": false,
      "stateMutability": "nonpayable",
      "type": "function"
    },
    {
      "constant": false,
      "inputs": [
        {
          "name": "dataInputId",
          "type": "uint256"
        }
      ],
      "name": "submitPlayerRequest",
      "outputs": [
        {
          "name": "playerId",
          "type": "uint256"
        }
      ],
      "payable": false,
      "stateMutability": "nonpayable",
      "type": "function"
    },
    {
      "constant": true,
      "inputs": [],
      "name": "isTaskInitialized",
      "outputs": [
        {
          "name": "",
          "type": "bool"
        }
      ],
      "payable": false,
      "stateMutability": "view",
      "type": "function"
    },
    {
      "constant": false,
      "inputs": [
        {
          "name": "playerId",
          "type": "uint256"
        }
      ],
      "name": "rejectPlayerResult",
      "outputs": [],
      "payable": false,
      "stateMutability": "nonpayable",
      "type": "function"
    },
    {
      "constant": true,
      "inputs": [],
      "name": "getPlayerCount",
      "outputs": [
        {
          "name": "count",
          "type": "uint256"
        }
      ],
      "payable": false,
      "stateMutability": "view",
      "type": "function"
    },
    {
      "constant": true,
      "inputs": [
        {
          "name": "",
          "type": "uint256"
        }
      ],
      "name": "dataReqPool",
      "outputs": [
        {
          "name": "addr",
          "type": "address"
        },
        {
          "name": "encryptCode",
          "type": "string"
        },
        {
          "name": "dataURL",
          "type": "string"
        },
        {
          "name": "dataHash",
          "type": "string"
        },
        {
          "name": "isApproved",
          "type": "bool"
        },
        {
          "name": "timeStamp",
          "type": "uint256"
        },
        {
          "name": "dataOwner",
          "type": "address"
        }
      ],
      "payable": false,
      "stateMutability": "view",
      "type": "function"
    },
    {
      "constant": true,
      "inputs": [
        {
          "name": "",
          "type": "address"
        },
        {
          "name": "",
          "type": "address"
        }
      ],
      "name": "allowance",
      "outputs": [
        {
          "name": "",
          "type": "uint256"
        }
      ],
      "payable": false,
      "stateMutability": "view",
      "type": "function"
    },
    {
      "constant": true,
      "inputs": [
        {
          "name": "",
          "type": "uint256"
        }
      ],
      "name": "playerPool",
      "outputs": [
        {
          "name": "addr",
          "type": "address"
        },
        {
          "name": "dataInputId",
          "type": "uint256"
        },
        {
          "name": "dataOutputId",
          "type": "uint256"
        },
        {
          "name": "result",
          "type": "int256"
        },
        {
          "name": "status",
          "type": "uint8"
        },
        {
          "name": "timeStamp",
          "type": "uint256"
        }
      ],
      "payable": false,
      "stateMutability": "view",
      "type": "function"
    },
    {
      "constant": false,
      "inputs": [
        {
          "name": "fileURL",
          "type": "string"
        },
        {
          "name": "hashCode",
          "type": "string"
        },
        {
          "name": "signature",
          "type": "string"
        }
      ],
      "name": "signAgreement",
      "outputs": [],
      "payable": false,
      "stateMutability": "nonpayable",
      "type": "function"
    },
    {
      "constant": false,
      "inputs": [
        {
          "name": "playerId",
          "type": "uint256"
        },
        {
          "name": "result",
          "type": "int256"
        }
      ],
      "name": "submitPlayerResult",
      "outputs": [],
      "payable": false,
      "stateMutability": "nonpayable",
      "type": "function"
    },
    {
      "constant": false,
      "inputs": [
        {
          "name": "_to",
          "type": "address"
        },
        {
          "name": "_value",
          "type": "uint256"
        }
      ],
      "name": "transferBonus",
      "outputs": [],
      "payable": false,
      "stateMutability": "nonpayable",
      "type": "function"
    },
    {
      "anonymous": false,
      "inputs": [
        {
          "indexed": true,
          "name": "from",
          "type": "address"
        },
        {
          "indexed": true,
          "name": "to",
          "type": "address"
        },
        {
          "indexed": false,
          "name": "value",
          "type": "uint256"
        }
      ],
      "name": "Transfer",
      "type": "event"
    },
    {
      "anonymous": false,
      "inputs": [
        {
          "indexed": true,
          "name": "tokenOwner",
          "type": "address"
        },
        {
          "indexed": true,
          "name": "spender",
          "type": "address"
        },
        {
          "indexed": false,
          "name": "tokens",
          "type": "uint256"
        }
      ],
      "name": "Approval",
      "type": "event"
    },
    {
      "anonymous": false,
      "inputs": [
        {
          "indexed": true,
          "name": "signee",
          "type": "address"
        },
        {
          "indexed": false,
          "name": "fileName",
          "type": "string"
        },
        {
          "indexed": false,
          "name": "hashCode",
          "type": "string"
        },
        {
          "indexed": false,
          "name": "signature",
          "type": "string"
        },
        {
          "indexed": false,
          "name": "timeStamp",
          "type": "uint256"
        }
      ],
      "name": "SignLawAgreement",
      "type": "event"
    },
    {
      "constant": false,
      "inputs": [
        {
          "name": "dataOwner",
          "type": "address"
        },
        {
          "name": "encryptCode",
          "type": "string"
        }
      ],
      "name": "submitTaskRequest",
      "outputs": [
        {
          "name": "dataId",
          "type": "uint256"
        },
        {
          "name": "playerId",
          "type": "uint256"
        }
      ],
      "payable": false,
      "stateMutability": "nonpayable",
      "type": "function"
    },
    {
      "constant": false,
      "inputs": [
        {
          "name": "playerId",
          "type": "uint256"
        },
        {
          "name": "encryptCode",
          "type": "string"
        },
        {
          "name": "dataURL",
          "type": "string"
        },
        {
          "name": "dataHash",
          "type": "string"
        }
      ],
      "name": "approveTaskRequest",
      "outputs": [],
      "payable": false,
      "stateMutability": "nonpayable",
      "type": "function"
    },
    {
      "constant": false,
      "inputs": [
        {
          "name": "playerId",
          "type": "uint256"
        },
        {
          "name": "dataURL",
          "type": "string"
        },
        {
          "name": "dataHash",
          "type": "string"
        },
        {
          "name": "result",
          "type": "int256"
        }
      ],
      "name": "submitTaskResult",
      "outputs": [],
      "payable": false,
      "stateMutability": "nonpayable",
      "type": "function"
    },
    {
      "constant": false,
      "inputs": [
        {
          "name": "playerId",
          "type": "uint256"
        }
      ],
      "name": "approveTaskResult",
      "outputs": [],
      "payable": false,
      "stateMutability": "nonpayable",
      "type": "function"
    },
    {
      "constant": false,
      "inputs": [
        {
          "name": "playerId",
          "type": "uint256"
        }
      ],
      "name": "rejectTaskResult",
      "outputs": [],
      "payable": false,
      "stateMutability": "nonpayable",
      "type": "function"
    }
  ],
  "bytecode": "0x608060405233600160006101000a81548173ffffffffffffffffffffffffffffffffffffffff021916908373ffffffffffffffffffffffffffffffffffffffff1602179055506148ae806100546000396000f3006080604052600436106101c2576000357c0100000000000000000000000000000000000000000000000000000000900463ffffffff16806306fdde03146101c7578063095ea7b31461025757806313af4035146102bc578063159adab0146102ff57806318160ddd146104a55780631a8c089b146104d05780631f64cacb1461057457806323b872dd146105a1578063313ce567146106265780633283f641146106575780633d3b92b2146107865780633fad1834146107b35780635013d068146107de5780635d6bc64a146108ae57806361bc8c88146108e55780636cc248511461095857806370a082311461098757806375b4d78c146109de5780638d75e8db14610a095780638da5cb5b14610aa657806395d89b4114610afd578063a9059cbb14610b8d578063af92baa414610bda578063b357b5a914610c07578063bb76a2a814610cc0578063bbef6a8914610d01578063bc91cfa014610d30578063c2e5220614610d5d578063c7d86e0414610d88578063d358513614610e4b578063dd399a5714611041578063dd62ed3e14611140578063e0ad5502146111b7578063e250c1851461124d578063e583f04914611342578063f9fb3c9514611379575b600080fd5b3480156101d357600080fd5b506101dc6113c6565b6040518080602001828103825283818151815260200191508051906020019080838360005b8381101561021c578082015181840152602081019050610201565b50505050905090810190601f1680156102495780820380516001836020036101000a031916815260200191505b509250505060405180910390f35b34801561026357600080fd5b506102a2600480360381019080803573ffffffffffffffffffffffffffffffffffffffff16906020019092919080359060200190929190505050611464565b604051808215151515815260200191505060405180910390f35b3480156102c857600080fd5b506102fd600480360381019080803573ffffffffffffffffffffffffffffffffffffffff1690602001909291905050506115da565b005b34801561030b57600080fd5b50610340600480360381019080803573ffffffffffffffffffffffffffffffffffffffff1690602001909291905050506116e3565b6040518080602001806020018060200186815260200185151515158152602001848103845289818151815260200191508051906020019080838360005b8381101561039857808201518184015260208101905061037d565b50505050905090810190601f1680156103c55780820380516001836020036101000a031916815260200191505b50848103835288818151815260200191508051906020019080838360005b838110156103fe5780820151818401526020810190506103e3565b50505050905090810190601f16801561042b5780820380516001836020036101000a031916815260200191505b50848103825287818151815260200191508051906020019080838360005b83811015610464578082015181840152602081019050610449565b50505050905090810190601f1680156104915780820380516001836020036101000a031916815260200191505b509850505050505050505060405180910390f35b3480156104b157600080fd5b506104ba6118ee565b6040518082815260200191505060405180910390f35b3480156104dc57600080fd5b50610557600480360381019080803573ffffffffffffffffffffffffffffffffffffffff169060200190929190803590602001908201803590602001908080601f01602080910402602001604051908101604052809392919081815260200183838082843782019150505050505091929192905050506118f4565b604051808381526020018281526020019250505060405180910390f35b34801561058057600080fd5b5061059f60048036038101908080359060200190929190505050611915565b005b3480156105ad57600080fd5b5061060c600480360381019080803573ffffffffffffffffffffffffffffffffffffffff169060200190929190803573ffffffffffffffffffffffffffffffffffffffff16906020019092919080359060200190929190505050611cec565b604051808215151515815260200191505060405180910390f35b34801561063257600080fd5b5061063b61201b565b604051808260ff1660ff16815260200191505060405180910390f35b34801561066357600080fd5b5061066c61202e565b6040518080602001806020018860ff1660ff1681526020018760ff1660ff1681526020018681526020018515151515815260200184815260200183810383528a818151815260200191508051906020019080838360005b838110156106de5780820151818401526020810190506106c3565b50505050905090810190601f16801561070b5780820380516001836020036101000a031916815260200191505b50838103825289818151815260200191508051906020019080838360005b83811015610744578082015181840152602081019050610729565b50505050905090810190601f1680156107715780820380516001836020036101000a031916815260200191505b50995050505050505050505060405180910390f35b34801561079257600080fd5b506107b1600480360381019080803590602001909291905050506121b5565b005b3480156107bf57600080fd5b506107c861220d565b6040518082815260200191505060405180910390f35b3480156107ea57600080fd5b506108ac6004803603810190808035906020019092919080359060200190929190803590602001908201803590602001908080601f0160208091040260200160405190810160405280939291908181526020018383808284378201915050505050509192919290803590602001908201803590602001908080601f0160208091040260200160405190810160405280939291908181526020018383808284378201915050505050509192919290803560ff16906020019092919050505061221a565b005b3480156108ba57600080fd5b506108e36004803603810190808035906020019092919080359060200190929190505050612433565b005b610956600480360381019080803590602001908201803590602001908080601f0160208091040260200160405190810160405280939291908181526020018383808284378201915050505050509192919290803560ff16906020019092919080359060200190929190505050612754565b005b34801561096457600080fd5b5061096d612a9e565b604051808215151515815260200191505060405180910390f35b34801561099357600080fd5b506109c8600480360381019080803573ffffffffffffffffffffffffffffffffffffffff169060200190929190505050612ab1565b6040518082815260200191505060405180910390f35b3480156109ea57600080fd5b506109f3612ac9565b6040518082815260200191505060405180910390f35b348015610a1557600080fd5b50610a90600480360381019080803573ffffffffffffffffffffffffffffffffffffffff169060200190929190803590602001908201803590602001908080601f0160208091040260200160405190810160405280939291908181526020018383808284378201915050505050509192919290505050612acf565b6040518082815260200191505060405180910390f35b348015610ab257600080fd5b50610abb612cb3565b604051808273ffffffffffffffffffffffffffffffffffffffff1673ffffffffffffffffffffffffffffffffffffffff16815260200191505060405180910390f35b348015610b0957600080fd5b50610b12612cd9565b6040518080602001828103825283818151815260200191508051906020019080838360005b83811015610b52578082015181840152602081019050610b37565b50505050905090810190601f168015610b7f5780820380516001836020036101000a031916815260200191505b509250505060405180910390f35b348015610b9957600080fd5b50610bd8600480360381019080803573ffffffffffffffffffffffffffffffffffffffff16906020019092919080359060200190929190505050612d77565b005b348015610be657600080fd5b50610c0560048036038101908080359060200190929190505050612f8e565b005b348015610c1357600080fd5b50610cbe60048036038101908080359060200190929190803590602001908201803590602001908080601f0160208091040260200160405190810160405280939291908181526020018383808284378201915050505050509192919290803590602001908201803590602001908080601f0160208091040260200160405190810160405280939291908181526020018383808284378201915050505050509192919290505050612f9a565b005b348015610ccc57600080fd5b50610ceb60048036038101908080359060200190929190505050613289565b6040518082815260200191505060405180910390f35b348015610d0d57600080fd5b50610d16613590565b604051808215151515815260200191505060405180910390f35b348015610d3c57600080fd5b50610d5b600480360381019080803590602001909291905050506135a3565b005b348015610d6957600080fd5b50610d726138a5565b6040518082815260200191505060405180910390f35b348015610d9457600080fd5b50610e4960048036038101908080359060200190929190803590602001908201803590602001908080601f0160208091040260200160405190810160405280939291908181526020018383808284378201915050505050509192919290803590602001908201803590602001908080601f0160208091040260200160405190810160405280939291908181526020018383808284378201915050505050509192919290803590602001909291905050506138b2565b005b348015610e5757600080fd5b50610e7660048036038101908080359060200190929190505050613977565b604051808873ffffffffffffffffffffffffffffffffffffffff1673ffffffffffffffffffffffffffffffffffffffff168152602001806020018060200180602001871515151581526020018681526020018573ffffffffffffffffffffffffffffffffffffffff1673ffffffffffffffffffffffffffffffffffffffff16815260200184810384528a818151815260200191508051906020019080838360005b83811015610f32578082015181840152602081019050610f17565b50505050905090810190601f168015610f5f5780820380516001836020036101000a031916815260200191505b50848103835289818151815260200191508051906020019080838360005b83811015610f98578082015181840152602081019050610f7d565b50505050905090810190601f168015610fc55780820380516001836020036101000a031916815260200191505b50848103825288818151815260200191508051906020019080838360005b83811015610ffe578082015181840152602081019050610fe3565b50505050905090810190601f16801561102b5780820380516001836020036101000a031916815260200191505b509a505050505050505050505060405180910390f35b34801561104d57600080fd5b5061113e60048036038101908080359060200190929190803590602001908201803590602001908080601f0160208091040260200160405190810160405280939291908181526020018383808284378201915050505050509192919290803590602001908201803590602001908080601f0160208091040260200160405190810160405280939291908181526020018383808284378201915050505050509192919290803590602001908201803590602001908080601f0160208091040260200160405190810160405280939291908181526020018383808284378201915050505050509192919290505050613bdd565b005b34801561114c57600080fd5b506111a1600480360381019080803573ffffffffffffffffffffffffffffffffffffffff169060200190929190803573ffffffffffffffffffffffffffffffffffffffff169060200190929190505050613db3565b6040518082815260200191505060405180910390f35b3480156111c357600080fd5b506111e260048036038101908080359060200190929190505050613dd8565b604051808773ffffffffffffffffffffffffffffffffffffffff1673ffffffffffffffffffffffffffffffffffffffff1681526020018681526020018581526020018481526020018360ff1660ff168152602001828152602001965050505050505060405180910390f35b34801561125957600080fd5b50611340600480360381019080803590602001908201803590602001908080601f0160208091040260200160405190810160405280939291908181526020018383808284378201915050505050509192919290803590602001908201803590602001908080601f0160208091040260200160405190810160405280939291908181526020018383808284378201915050505050509192919290803590602001908201803590602001908080601f0160208091040260200160405190810160405280939291908181526020018383808284378201915050505050509192919290505050613e50565b005b34801561134e57600080fd5b5061137760048036038101908080359060200190929190803590602001909291905050506141cb565b005b34801561138557600080fd5b506113c4600480360381019080803573ffffffffffffffffffffffffffffffffffffffff169060200190929190803590602001909291905050506144e0565b005b60028054600181600116156101000203166002900480601f01602080910402602001604051908101604052809291908181526020018280546001816001161561010002031660029004801561145c5780601f106114315761010080835404028352916020019161145c565b820191906000526020600020905b81548152906001019060200180831161143f57829003601f168201915b505050505081565b6000600760009054906101000a900460ff1615156114ea576040517f08c379a000000000000000000000000000000000000000000000000000000000815260040180806020018281038252600f8152602001807f4e6f7420696e697469616c697a6564000000000000000000000000000000000081525060200191505060405180910390fd5b81600960003373ffffffffffffffffffffffffffffffffffffffff1673ffffffffffffffffffffffffffffffffffffffff16815260200190815260200160002060008573ffffffffffffffffffffffffffffffffffffffff1673ffffffffffffffffffffffffffffffffffffffff168152602001908152602001600020819055508273ffffffffffffffffffffffffffffffffffffffff163373ffffffffffffffffffffffffffffffffffffffff167f8c5be1e5ebec7d5bd14f71427d1e84f3dd0314c0f7b2291e5b200ac8c7c3b925846040518082815260200191505060405180910390a36001905092915050565b600160009054906101000a900473ffffffffffffffffffffffffffffffffffffffff1673ffffffffffffffffffffffffffffffffffffffff163373ffffffffffffffffffffffffffffffffffffffff1614151561169f576040517f08c379a00000000000000000000000000000000000000000000000000000000081526004018080602001828103825260098152602001807f4e6f74206f776e6572000000000000000000000000000000000000000000000081525060200191505060405180910390fd5b80600160006101000a81548173ffffffffffffffffffffffffffffffffffffffff021916908373ffffffffffffffffffffffffffffffffffffffff16021790555050565b6000602052806000526040600020600091509050806000018054600181600116156101000203166002900480601f01602080910402602001604051908101604052809291908181526020018280546001816001161561010002031660029004801561178f5780601f106117645761010080835404028352916020019161178f565b820191906000526020600020905b81548152906001019060200180831161177257829003601f168201915b505050505090806001018054600181600116156101000203166002900480601f01602080910402602001604051908101604052809291908181526020018280546001816001161561010002031660029004801561182d5780601f106118025761010080835404028352916020019161182d565b820191906000526020600020905b81548152906001019060200180831161181057829003601f168201915b505050505090806002018054600181600116156101000203166002900480601f0160208091040260200160405190810160405280929190818152602001828054600181600116156101000203166002900480156118cb5780601f106118a0576101008083540402835291602001916118cb565b820191906000526020600020905b8154815290600101906020018083116118ae57829003601f168201915b5050505050908060030154908060040160009054906101000a900460ff16905085565b60055481565b6000806119018484612acf565b915061190c82613289565b90509250929050565b600160009054906101000a900473ffffffffffffffffffffffffffffffffffffffff1673ffffffffffffffffffffffffffffffffffffffff163373ffffffffffffffffffffffffffffffffffffffff161415156119da576040517f08c379a00000000000000000000000000000000000000000000000000000000081526004018080602001828103825260098152602001807f4e6f74206f776e6572000000000000000000000000000000000000000000000081525060200191505060405180910390fd5b8060118054905081101515611a57576040517f08c379a00000000000000000000000000000000000000000000000000000000081526004018080602001828103825260108152602001807f496e76616c696420706c6179657249640000000000000000000000000000000081525060200191505060405180910390fd5b601260009054906101000a900460ff161515611adb576040517f08c379a00000000000000000000000000000000000000000000000000000000081526004018080602001828103825260148152602001807f5461736b206e6f7420696e697469616c697a656400000000000000000000000081525060200191505060405180910390fd5b6003601183815481101515611aec57fe5b906000526020600020906006020160040160009054906101000a900460ff1660ff16141515611b83576040517f08c379a000000000000000000000000000000000000000000000000000000000815260040180806020018281038252600e8152602001807f496e76616c69642073746174757300000000000000000000000000000000000081525060200191505060405180910390fd5b6004601183815481101515611b9457fe5b906000526020600020906006020160040160006101000a81548160ff021916908360ff1602179055506001600b60020160008282829054906101000a900460ff160392506101000a81548160ff021916908360ff1602179055506001600b60020160018282829054906101000a900460ff160392506101000a81548160ff021916908360ff160217905550601182815481101515611c2e57fe5b906000526020600020906006020160000160009054906101000a900473ffffffffffffffffffffffffffffffffffffffff1673ffffffffffffffffffffffffffffffffffffffff166108fc600b600301549081150290604051600060405180830381858888f19350505050158015611caa573d6000803e3d6000fd5b50600b60020160019054906101000a900460ff1660ff1660001415611ce8576001600b60040160006101000a81548160ff0219169083151502179055505b5050565b6000600760009054906101000a900460ff161515611d72576040517f08c379a000000000000000000000000000000000000000000000000000000000815260040180806020018281038252600f8152602001807f4e6f7420696e697469616c697a6564000000000000000000000000000000000081525060200191505060405180910390fd5b611dc482600860008773ffffffffffffffffffffffffffffffffffffffff1673ffffffffffffffffffffffffffffffffffffffff168152602001908152602001600020546146dd90919063ffffffff16565b600860008673ffffffffffffffffffffffffffffffffffffffff1673ffffffffffffffffffffffffffffffffffffffff16815260200190815260200160002081905550611e9682600960008773ffffffffffffffffffffffffffffffffffffffff1673ffffffffffffffffffffffffffffffffffffffff16815260200190815260200160002060003373ffffffffffffffffffffffffffffffffffffffff1673ffffffffffffffffffffffffffffffffffffffff168152602001908152602001600020546146dd90919063ffffffff16565b600960008673ffffffffffffffffffffffffffffffffffffffff1673ffffffffffffffffffffffffffffffffffffffff16815260200190815260200160002060003373ffffffffffffffffffffffffffffffffffffffff1673ffffffffffffffffffffffffffffffffffffffff16815260200190815260200160002081905550611f6882600860008673ffffffffffffffffffffffffffffffffffffffff1673ffffffffffffffffffffffffffffffffffffffff168152602001908152602001600020546146fe90919063ffffffff16565b600860008573ffffffffffffffffffffffffffffffffffffffff1673ffffffffffffffffffffffffffffffffffffffff168152602001908152602001600020819055508273ffffffffffffffffffffffffffffffffffffffff168473ffffffffffffffffffffffffffffffffffffffff167fddf252ad1be2c89b69c2b068fc378daa952ba7f163c4a11628f55a4df523b3ef846040518082815260200191505060405180910390a3600190509392505050565b600460009054906101000a900460ff1681565b600b806000018054600181600116156101000203166002900480601f0160208091040260200160405190810160405280929190818152602001828054600181600116156101000203166002900480156120c85780601f1061209d576101008083540402835291602001916120c8565b820191906000526020600020905b8154815290600101906020018083116120ab57829003601f168201915b505050505090806001018054600181600116156101000203166002900480601f0160208091040260200160405190810160405280929190818152602001828054600181600116156101000203166002900480156121665780601f1061213b57610100808354040283529160200191612166565b820191906000526020600020905b81548152906001019060200180831161214957829003601f168201915b5050505050908060020160009054906101000a900460ff16908060020160019054906101000a900460ff16908060030154908060040160009054906101000a900460ff16908060050154905087565b6121be81611915565b61220a6011828154811015156121d057fe5b906000526020600020906006020160000160009054906101000a900473ffffffffffffffffffffffffffffffffffffffff166006546144e0565b50565b6000600a80549050905090565b600160009054906101000a900473ffffffffffffffffffffffffffffffffffffffff1673ffffffffffffffffffffffffffffffffffffffff163373ffffffffffffffffffffffffffffffffffffffff161415156122df576040517f08c379a00000000000000000000000000000000000000000000000000000000081526004018080602001828103825260098152602001807f4e6f74206f776e6572000000000000000000000000000000000000000000000081525060200191505060405180910390fd5b600760009054906101000a900460ff16151515612364576040517f08c379a00000000000000000000000000000000000000000000000000000000081526004018080602001828103825260118152602001807f546f6b656e20696e697469616c697a656400000000000000000000000000000081525060200191505060405180910390fd5b8460058190555061237e84866146dd90919063ffffffff16565b600860003373ffffffffffffffffffffffffffffffffffffffff1673ffffffffffffffffffffffffffffffffffffffff168152602001908152602001600020819055508360068190555082600290805190602001906123de92919061475d565b5081600390805190602001906123f592919061475d565b5080600460006101000a81548160ff021916908360ff1602179055506001600760006101000a81548160ff0219169083151502179055505050505050565b600160009054906101000a900473ffffffffffffffffffffffffffffffffffffffff1673ffffffffffffffffffffffffffffffffffffffff163373ffffffffffffffffffffffffffffffffffffffff161415156124f8576040517f08c379a00000000000000000000000000000000000000000000000000000000081526004018080602001828103825260098152602001807f4e6f74206f776e6572000000000000000000000000000000000000000000000081525060200191505060405180910390fd5b8160118054905081101515612575576040517f08c379a00000000000000000000000000000000000000000000000000000000081526004018080602001828103825260108152602001807f496e76616c696420706c6179657249640000000000000000000000000000000081525060200191505060405180910390fd5b601260009054906101000a900460ff1615156125f9576040517f08c379a00000000000000000000000000000000000000000000000000000000081526004018080602001828103825260148152602001807f5461736b206e6f7420696e697469616c697a656400000000000000000000000081525060200191505060405180910390fd5b600b60020160019054906101000a900460ff1660ff16600b60020160009054906101000a900460ff1660ff1610151561269a576040517f08c379a00000000000000000000000000000000000000000000000000000000081526004018080602001828103825260138152602001807f4d617820706c617965727320726561636865640000000000000000000000000081525060200191505060405180910390fd5b816011848154811015156126aa57fe5b90600052602060002090600602016002018190555060026011848154811015156126d057fe5b906000526020600020906006020160040160006101000a81548160ff021916908360ff1602179055504260118481548110151561270957fe5b9060005260206000209060060201600501819055506001600b60020160008282829054906101000a900460ff160192506101000a81548160ff021916908360ff160217905550505050565b600160009054906101000a900473ffffffffffffffffffffffffffffffffffffffff1673ffffffffffffffffffffffffffffffffffffffff163373ffffffffffffffffffffffffffffffffffffffff16141515612819576040517f08c379a00000000000000000000000000000000000000000000000000000000081526004018080602001828103825260098152602001807f4e6f74206f776e6572000000000000000000000000000000000000000000000081525060200191505060405180910390fd5b601260009054906101000a900460ff1615151561289e576040517f08c379a00000000000000000000000000000000000000000000000000000000081526004018080602001828103825260108152602001807f5461736b20696e697469616c697a65640000000000000000000000000000000081525060200191505060405180910390fd5b60008260ff16111515612919576040517f08c379a000000000000000000000000000000000000000000000000000000000815260040180806020018281038252600f8152602001807f506c61796572206d757374203e2030000000000000000000000000000000000081525060200191505060405180910390fd5b61292f8260ff168261471f90919063ffffffff16565b34101515156129a6576040517f08c379a000000000000000000000000000000000000000000000000000000000815260040180806020018281038252600e8152602001807f4e6f7420656e6f7567682045544800000000000000000000000000000000000081525060200191505060405180910390fd5b6040805190810160405280600e81526020017f414920436f6d7075746174696f6e000000000000000000000000000000000000815250600b60000190805190602001906129f492919061475d565b5082600b6001019080519060200190612a0e92919061475d565b506000600b60020160006101000a81548160ff021916908360ff16021790555081600b60020160016101000a81548160ff021916908360ff16021790555080600b600301819055506000600b60040160006101000a81548160ff02191690831515021790555042600b600501819055506001601260006101000a81548160ff021916908315150217905550505050565b600760009054906101000a900460ff1681565b60086020528060005260406000206000915090505481565b60065481565b6000808251111515612ae057600080fd5b600a60e0604051908101604052803373ffffffffffffffffffffffffffffffffffffffff16815260200184815260200160206040519081016040528060008152508152602001602060405190810160405280600081525081526020016000151581526020014281526020018573ffffffffffffffffffffffffffffffffffffffff168152509080600181540180825580915050906001820390600052602060002090600702016000909192909190915060008201518160000160006101000a81548173ffffffffffffffffffffffffffffffffffffffff021916908373ffffffffffffffffffffffffffffffffffffffff1602179055506020820151816001019080519060200190612bf39291906147dd565b506040820151816002019080519060200190612c109291906147dd565b506060820151816003019080519060200190612c2d9291906147dd565b5060808201518160040160006101000a81548160ff02191690831515021790555060a0820151816005015560c08201518160060160006101000a81548173ffffffffffffffffffffffffffffffffffffffff021916908373ffffffffffffffffffffffffffffffffffffffff1602179055505050506001600a8054905003905092915050565b600160009054906101000a900473ffffffffffffffffffffffffffffffffffffffff1681565b60038054600181600116156101000203166002900480601f016020809104026020016040519081016040528092919081815260200182805460018160011615610100020316600290048015612d6f5780601f10612d4457610100808354040283529160200191612d6f565b820191906000526020600020905b815481529060010190602001808311612d5257829003601f168201915b505050505081565b600760009054906101000a900460ff161515612dfb576040517f08c379a000000000000000000000000000000000000000000000000000000000815260040180806020018281038252600f8152602001807f4e6f7420696e697469616c697a6564000000000000000000000000000000000081525060200191505060405180910390fd5b612e4d81600860003373ffffffffffffffffffffffffffffffffffffffff1673ffffffffffffffffffffffffffffffffffffffff168152602001908152602001600020546146dd90919063ffffffff16565b600860003373ffffffffffffffffffffffffffffffffffffffff1673ffffffffffffffffffffffffffffffffffffffff16815260200190815260200160002081905550612ee281600860008573ffffffffffffffffffffffffffffffffffffffff1673ffffffffffffffffffffffffffffffffffffffff168152602001908152602001600020546146fe90919063ffffffff16565b600860008473ffffffffffffffffffffffffffffffffffffffff1673ffffffffffffffffffffffffffffffffffffffff168152602001908152602001600020819055508173ffffffffffffffffffffffffffffffffffffffff163373ffffffffffffffffffffffffffffffffffffffff167fddf252ad1be2c89b69c2b068fc378daa952ba7f163c4a11628f55a4df523b3ef836040518082815260200191505060405180910390a35050565b612f97816135a3565b50565b600a8054905083101515613016576040517f08c379a000000000000000000000000000000000000000000000000000000000815260040180806020018281038252600d8152602001807f496e76616c696420696e6465780000000000000000000000000000000000000081525060200191505060405180910390fd5b600a8381548110151561302557fe5b906000526020600020906007020160040160009054906101000a900460ff161515156130b9576040517f08c379a00000000000000000000000000000000000000000000000000000000081526004018080602001828103825260108152602001807f5265717565737420617070726f7665640000000000000000000000000000000081525060200191505060405180910390fd5b600a838154811015156130c857fe5b906000526020600020906007020160060160009054906101000a900473ffffffffffffffffffffffffffffffffffffffff1673ffffffffffffffffffffffffffffffffffffffff163373ffffffffffffffffffffffffffffffffffffffff1614151561319c576040517f08c379a000000000000000000000000000000000000000000000000000000000815260040180806020018281038252600e8152602001807f4e6f742064617461206f776e657200000000000000000000000000000000000081525060200191505060405180910390fd5b600082511115156131ac57600080fd5b600081511115156131bc57600080fd5b81600a848154811015156131cc57fe5b906000526020600020906007020160020190805190602001906131f092919061475d565b5080600a8481548110151561320157fe5b9060005260206000209060070201600301908051906020019061322592919061475d565b506001600a8481548110151561323757fe5b906000526020600020906007020160040160006101000a81548160ff02191690831515021790555042600a8481548110151561326f57fe5b906000526020600020906007020160050181905550505050565b6000601260009054906101000a900460ff16151561330f576040517f08c379a00000000000000000000000000000000000000000000000000000000081526004018080602001828103825260148152602001807f5461736b206e6f7420696e697469616c697a656400000000000000000000000081525060200191505060405180910390fd5b600160009054906101000a900473ffffffffffffffffffffffffffffffffffffffff1673ffffffffffffffffffffffffffffffffffffffff163373ffffffffffffffffffffffffffffffffffffffff16141515156133d5576040517f08c379a000000000000000000000000000000000000000000000000000000000815260040180806020018281038252600f8152602001807f4f776e657220697320706c61796572000000000000000000000000000000000081525060200191505060405180910390fd5b600b60020160019054906101000a900460ff1660ff16600b60020160009054906101000a900460ff1660ff16101515613476576040517f08c379a00000000000000000000000000000000000000000000000000000000081526004018080602001828103825260138152602001807f4d617820706c617965727320726561636865640000000000000000000000000081525060200191505060405180910390fd5b601160c0604051908101604052803373ffffffffffffffffffffffffffffffffffffffff1681526020018481526020016000815260200160008152602001600160ff168152602001428152509080600181540180825580915050906001820390600052602060002090600602016000909192909190915060008201518160000160006101000a81548173ffffffffffffffffffffffffffffffffffffffff021916908373ffffffffffffffffffffffffffffffffffffffff16021790555060208201518160010155604082015181600201556060820151816003015560808201518160040160006101000a81548160ff021916908360ff16021790555060a082015181600501555050506001601180549050039050919050565b601260009054906101000a900460ff1681565b600160009054906101000a900473ffffffffffffffffffffffffffffffffffffffff1673ffffffffffffffffffffffffffffffffffffffff163373ffffffffffffffffffffffffffffffffffffffff16141515613668576040517f08c379a00000000000000000000000000000000000000000000000000000000081526004018080602001828103825260098152602001807f4e6f74206f776e6572000000000000000000000000000000000000000000000081525060200191505060405180910390fd5b80601180549050811015156136e5576040517f08c379a00000000000000000000000000000000000000000000000000000000081526004018080602001828103825260108152602001807f496e76616c696420706c6179657249640000000000000000000000000000000081525060200191505060405180910390fd5b601260009054906101000a900460ff161515613769576040517f08c379a00000000000000000000000000000000000000000000000000000000081526004018080602001828103825260148152602001807f5461736b206e6f7420696e697469616c697a656400000000000000000000000081525060200191505060405180910390fd5b600360118381548110151561377a57fe5b906000526020600020906006020160040160009054906101000a900460ff1660ff16141515613811576040517f08c379a000000000000000000000000000000000000000000000000000000000815260040180806020018281038252600e8152602001807f496e76616c69642073746174757300000000000000000000000000000000000081525060200191505060405180910390fd5b606360118381548110151561382257fe5b906000526020600020906006020160040160006101000a81548160ff021916908360ff1602179055504260118381548110151561385b57fe5b9060005260206000209060060201600501819055506001600b60020160008282829054906101000a900460ff160392506101000a81548160ff021916908360ff1602179055505050565b6000601180549050905090565b6000601260009054906101000a900460ff161515613938576040517f08c379a00000000000000000000000000000000000000000000000000000000081526004018080602001828103825260148152602001807f5461736b206e6f7420696e697469616c697a656400000000000000000000000081525060200191505060405180910390fd5b60118581548110151561394757fe5b9060005260206000209060060201600201549050613966818585612f9a565b61397085836141cb565b5050505050565b600a8181548110151561398657fe5b90600052602060002090600702016000915090508060000160009054906101000a900473ffffffffffffffffffffffffffffffffffffffff1690806001018054600181600116156101000203166002900480601f016020809104026020016040519081016040528092919081815260200182805460018160011615610100020316600290048015613a585780601f10613a2d57610100808354040283529160200191613a58565b820191906000526020600020905b815481529060010190602001808311613a3b57829003601f168201915b505050505090806002018054600181600116156101000203166002900480601f016020809104026020016040519081016040528092919081815260200182805460018160011615610100020316600290048015613af65780601f10613acb57610100808354040283529160200191613af6565b820191906000526020600020905b815481529060010190602001808311613ad957829003601f168201915b505050505090806003018054600181600116156101000203166002900480601f016020809104026020016040519081016040528092919081815260200182805460018160011615610100020316600290048015613b945780601f10613b6957610100808354040283529160200191613b94565b820191906000526020600020905b815481529060010190602001808311613b7757829003601f168201915b5050505050908060040160009054906101000a900460ff16908060050154908060060160009054906101000a900473ffffffffffffffffffffffffffffffffffffffff16905087565b6000600160009054906101000a900473ffffffffffffffffffffffffffffffffffffffff1673ffffffffffffffffffffffffffffffffffffffff163373ffffffffffffffffffffffffffffffffffffffff16141515613ca4576040517f08c379a00000000000000000000000000000000000000000000000000000000081526004018080602001828103825260098152602001807f4e6f74206f776e6572000000000000000000000000000000000000000000000081525060200191505060405180910390fd5b601260009054906101000a900460ff161515613d28576040517f08c379a00000000000000000000000000000000000000000000000000000000081526004018080602001828103825260148152602001807f5461736b206e6f7420696e697469616c697a656400000000000000000000000081525060200191505060405180910390fd5b601185815481101515613d3757fe5b9060005260206000209060060201600101549050613d56818484612f9a565b613da0601186815481101515613d6857fe5b906000526020600020906006020160000160009054906101000a900473ffffffffffffffffffffffffffffffffffffffff1685612acf565b9050613dac8582612433565b5050505050565b6009602052816000526040600020602052806000526040600020600091509150505481565b601181815481101515613de757fe5b90600052602060002090600602016000915090508060000160009054906101000a900473ffffffffffffffffffffffffffffffffffffffff16908060010154908060020154908060030154908060040160009054906101000a900460ff16908060050154905086565b6000803373ffffffffffffffffffffffffffffffffffffffff1673ffffffffffffffffffffffffffffffffffffffff16815260200190815260200160002060040160009054906101000a900460ff16151515613f14576040517f08c379a000000000000000000000000000000000000000000000000000000000815260040180806020018281038252600b8152602001807f46696c65207369676e656400000000000000000000000000000000000000000081525060200191505060405180910390fd5b60008351111515613f2457600080fd5b60008251111515613f3457600080fd5b60008151111515613f4457600080fd5b60a060405190810160405280848152602001838152602001828152602001428152602001600115158152506000803373ffffffffffffffffffffffffffffffffffffffff1673ffffffffffffffffffffffffffffffffffffffff1681526020019081526020016000206000820151816000019080519060200190613fc99291906147dd565b506020820151816001019080519060200190613fe69291906147dd565b5060408201518160020190805190602001906140039291906147dd565b506060820151816003015560808201518160040160006101000a81548160ff0219169083151502179055509050503373ffffffffffffffffffffffffffffffffffffffff167ffc1b6bdf5e8cb6fb293ae1be4b0fc5a2f6ff21f2a9565ff5c816e91d13bba78f8484844260405180806020018060200180602001858152602001848103845288818151815260200191508051906020019080838360005b838110156140bb5780820151818401526020810190506140a0565b50505050905090810190601f1680156140e85780820380516001836020036101000a031916815260200191505b50848103835287818151815260200191508051906020019080838360005b83811015614121578082015181840152602081019050614106565b50505050905090810190601f16801561414e5780820380516001836020036101000a031916815260200191505b50848103825286818151815260200191508051906020019080838360005b8381101561418757808201518184015260208101905061416c565b50505050905090810190601f1680156141b45780820380516001836020036101000a031916815260200191505b5097505050505050505060405180910390a2505050565b8160118054905081101515614248576040517f08c379a00000000000000000000000000000000000000000000000000000000081526004018080602001828103825260108152602001807f496e76616c696420706c6179657249640000000000000000000000000000000081525060200191505060405180910390fd5b601260009054906101000a900460ff1615156142cc576040517f08c379a00000000000000000000000000000000000000000000000000000000081526004018080602001828103825260148152602001807f5461736b206e6f7420696e697469616c697a656400000000000000000000000081525060200191505060405180910390fd5b6011838154811015156142db57fe5b906000526020600020906006020160000160009054906101000a900473ffffffffffffffffffffffffffffffffffffffff1673ffffffffffffffffffffffffffffffffffffffff163373ffffffffffffffffffffffffffffffffffffffff161415156143af576040517f08c379a00000000000000000000000000000000000000000000000000000000081526004018080602001828103825260118152602001807f4e6f74206f726967696e20706c6179657200000000000000000000000000000081525060200191505060405180910390fd5b60026011848154811015156143c057fe5b906000526020600020906006020160040160009054906101000a900460ff1660ff16141515614457576040517f08c379a000000000000000000000000000000000000000000000000000000000815260040180806020018281038252600e8152602001807f496e76616c69642073746174757300000000000000000000000000000000000081525060200191505060405180910390fd5b8160118481548110151561446757fe5b906000526020600020906006020160030181905550600360118481548110151561448d57fe5b906000526020600020906006020160040160006101000a81548160ff021916908360ff160217905550426011848154811015156144c657fe5b906000526020600020906006020160050181905550505050565b600160009054906101000a900473ffffffffffffffffffffffffffffffffffffffff1673ffffffffffffffffffffffffffffffffffffffff163373ffffffffffffffffffffffffffffffffffffffff161415156145a5576040517f08c379a00000000000000000000000000000000000000000000000000000000081526004018080602001828103825260098152602001807f4e6f74206f776e6572000000000000000000000000000000000000000000000081525060200191505060405180910390fd5b600760009054906101000a900460ff161515614629576040517f08c379a000000000000000000000000000000000000000000000000000000000815260040180806020018281038252600f8152602001807f4e6f7420696e697469616c697a6564000000000000000000000000000000000081525060200191505060405180910390fd5b61463e816006546146dd90919063ffffffff16565b60068190555061469681600860008573ffffffffffffffffffffffffffffffffffffffff1673ffffffffffffffffffffffffffffffffffffffff168152602001908152602001600020546146fe90919063ffffffff16565b600860008473ffffffffffffffffffffffffffffffffffffffff1673ffffffffffffffffffffffffffffffffffffffff168152602001908152602001600020819055505050565b6000808383111515156146ef57600080fd5b82840390508091505092915050565b600080828401905083811015151561471557600080fd5b8091505092915050565b60008060008414156147345760009150614756565b828402905082848281151561474557fe5b0414151561475257600080fd5b8091505b5092915050565b828054600181600116156101000203166002900490600052602060002090601f016020900481019282601f1061479e57805160ff19168380011785556147cc565b828001600101855582156147cc579182015b828111156147cb5782518255916020019190600101906147b0565b5b5090506147d9919061485d565b5090565b828054600181600116156101000203166002900490600052602060002090601f016020900481019282601f1061481e57805160ff191683800117855561484c565b8280016001018555821561484c579182015b8281111561484b578251825591602001919060010190614830565b5b509050614859919061485d565b5090565b61487f91905b8082111561487b576000816000905550600101614863565b5090565b905600a165627a7a72305820b08e5fed299377c9698487e6b5e60362b6eb1233c2fac733d91e14ab4905b2ee0029",
  "source": "/* For HealthChainHack, Sep 2018\n * Author: Xinghua Liang\n * Copyright: BlockTEST LLC\n */\n pragma solidity ^0.4.24;\n\nimport \"./Legitimation.sol\";\nimport \"./LoyaltyToken.sol\";\nimport \"./DataAccess.sol\";\nimport \"./TaskManage.sol\";\n\ncontract DrugTask is Legitimation, LoyaltyToken, DataAccess, TaskManage {\n    function submitTaskRequest(address dataOwner,\n                               string encryptCode)\n        public returns (uint dataId,\n                        uint playerId) {\n        dataId = sendDataRequest(dataOwner, encryptCode);\n        playerId = submitPlayerRequest(dataId);\n    }\n\n    function approveTaskRequest(uint playerId,\n                                string encryptCode,\n                                string dataURL,\n                                string dataHash)\n        public onlyOwner validTask {\n        uint dataId = playerPool[playerId].dataInputId;\n        approveDataRequest(dataId, dataURL, dataHash);\n        dataId = sendDataRequest(playerPool[playerId].addr, encryptCode);\n        approvePlayerRequest(playerId, dataId);\n    }\n\n    function submitTaskResult(uint playerId,\n                              string dataURL,\n                              string dataHash,\n                              int result)\n        public validTask {\n        uint dataId = playerPool[playerId].dataOutputId;\n        approveDataRequest(dataId, dataURL, dataHash);\n        submitPlayerResult(playerId, result);\n    }\n\n    function approveTaskResult(uint playerId) public {\n        approvePlayerResult(playerId);\n        transferBonus(playerPool[playerId].addr, bonus);\n    }\n\n    function rejectTaskResult(uint playerId) public {\n        rejectPlayerResult(playerId);\n    }\n}\n",
  "sourcePath": "/home/juicebox/test_webpack/contracts/DrugTask.sol",
  "compiler": {
    "name": "solc",
    "version": "0.4.24+commit.e67f0147.Emscripten.clang"
  },
  "schemaVersion": "2.0.1",
  "updatedAt": "2018-09-20T19:57:24.547Z"
}