{
  "contractName": "Legitimation",
  "abi": [
    {
      "constant": true,
      "inputs": [
        {
          "name": "",
          "type": "address"
        }
      ],
      "name": "LegiFiles",
      "outputs": [
        {
          "name": "fileURL",
          "type": "string"
        },
        {
          "name": "hashCode",
          "type": "string"
        },
        {
          "name": "signature",
          "type": "string"
        },
        {
          "name": "timeStamp",
          "type": "uint256"
        },
        {
          "name": "isSigned",
          "type": "bool"
        }
      ],
      "payable": false,
      "stateMutability": "view",
      "type": "function"
    },
    {
      "anonymous": false,
      "inputs": [
        {
          "indexed": true,
          "name": "signee",
          "type": "address"
        },
        {
          "indexed": false,
          "name": "fileName",
          "type": "string"
        },
        {
          "indexed": false,
          "name": "hashCode",
          "type": "string"
        },
        {
          "indexed": false,
          "name": "signature",
          "type": "string"
        },
        {
          "indexed": false,
          "name": "timeStamp",
          "type": "uint256"
        }
      ],
      "name": "SignLawAgreement",
      "type": "event"
    },
    {
      "constant": false,
      "inputs": [
        {
          "name": "fileURL",
          "type": "string"
        },
        {
          "name": "hashCode",
          "type": "string"
        },
        {
          "name": "signature",
          "type": "string"
        }
      ],
      "name": "signAgreement",
      "outputs": [],
      "payable": false,
      "stateMutability": "nonpayable",
      "type": "function"
    }
  ],
  "bytecode": "0x608060405234801561001057600080fd5b50610943806100206000396000f30060806040526004361061004c576000357c0100000000000000000000000000000000000000000000000000000000900463ffffffff168063159adab014610051578063e250c185146101f7575b600080fd5b34801561005d57600080fd5b50610092600480360381019080803573ffffffffffffffffffffffffffffffffffffffff1690602001909291905050506102ec565b6040518080602001806020018060200186815260200185151515158152602001848103845289818151815260200191508051906020019080838360005b838110156100ea5780820151818401526020810190506100cf565b50505050905090810190601f1680156101175780820380516001836020036101000a031916815260200191505b50848103835288818151815260200191508051906020019080838360005b83811015610150578082015181840152602081019050610135565b50505050905090810190601f16801561017d5780820380516001836020036101000a031916815260200191505b50848103825287818151815260200191508051906020019080838360005b838110156101b657808201518184015260208101905061019b565b50505050905090810190601f1680156101e35780820380516001836020036101000a031916815260200191505b509850505050505050505060405180910390f35b34801561020357600080fd5b506102ea600480360381019080803590602001908201803590602001908080601f0160208091040260200160405190810160405280939291908181526020018383808284378201915050505050509192919290803590602001908201803590602001908080601f0160208091040260200160405190810160405280939291908181526020018383808284378201915050505050509192919290803590602001908201803590602001908080601f01602080910402602001604051908101604052809392919081815260200183838082843782019150505050505091929192905050506104f7565b005b6000602052806000526040600020600091509050806000018054600181600116156101000203166002900480601f0160208091040260200160405190810160405280929190818152602001828054600181600116156101000203166002900480156103985780601f1061036d57610100808354040283529160200191610398565b820191906000526020600020905b81548152906001019060200180831161037b57829003601f168201915b505050505090806001018054600181600116156101000203166002900480601f0160208091040260200160405190810160405280929190818152602001828054600181600116156101000203166002900480156104365780601f1061040b57610100808354040283529160200191610436565b820191906000526020600020905b81548152906001019060200180831161041957829003601f168201915b505050505090806002018054600181600116156101000203166002900480601f0160208091040260200160405190810160405280929190818152602001828054600181600116156101000203166002900480156104d45780601f106104a9576101008083540402835291602001916104d4565b820191906000526020600020905b8154815290600101906020018083116104b757829003601f168201915b5050505050908060030154908060040160009054906101000a900460ff16905085565b6000803373ffffffffffffffffffffffffffffffffffffffff1673ffffffffffffffffffffffffffffffffffffffff16815260200190815260200160002060040160009054906101000a900460ff161515156105bb576040517f08c379a000000000000000000000000000000000000000000000000000000000815260040180806020018281038252600b8152602001807f46696c65207369676e656400000000000000000000000000000000000000000081525060200191505060405180910390fd5b600083511115156105cb57600080fd5b600082511115156105db57600080fd5b600081511115156105eb57600080fd5b60a060405190810160405280848152602001838152602001828152602001428152602001600115158152506000803373ffffffffffffffffffffffffffffffffffffffff1673ffffffffffffffffffffffffffffffffffffffff1681526020019081526020016000206000820151816000019080519060200190610670929190610872565b50602082015181600101908051906020019061068d929190610872565b5060408201518160020190805190602001906106aa929190610872565b506060820151816003015560808201518160040160006101000a81548160ff0219169083151502179055509050503373ffffffffffffffffffffffffffffffffffffffff167ffc1b6bdf5e8cb6fb293ae1be4b0fc5a2f6ff21f2a9565ff5c816e91d13bba78f8484844260405180806020018060200180602001858152602001848103845288818151815260200191508051906020019080838360005b83811015610762578082015181840152602081019050610747565b50505050905090810190601f16801561078f5780820380516001836020036101000a031916815260200191505b50848103835287818151815260200191508051906020019080838360005b838110156107c85780820151818401526020810190506107ad565b50505050905090810190601f1680156107f55780820380516001836020036101000a031916815260200191505b50848103825286818151815260200191508051906020019080838360005b8381101561082e578082015181840152602081019050610813565b50505050905090810190601f16801561085b5780820380516001836020036101000a031916815260200191505b5097505050505050505060405180910390a2505050565b828054600181600116156101000203166002900490600052602060002090601f016020900481019282601f106108b357805160ff19168380011785556108e1565b828001600101855582156108e1579182015b828111156108e05782518255916020019190600101906108c5565b5b5090506108ee91906108f2565b5090565b61091491905b808211156109105760008160009055506001016108f8565b5090565b905600a165627a7a7230582070002090199f3615389b04a57d0422aa89f3d75d9e72f2cd489d34504bd180040029",
  "source": "/* For HealthChainHack, Sep 2018\n * Author: Xinghua Liang\n * Copyright: BlockTEST LLC\n */\n pragma solidity ^0.4.24;\n\ncontract Legitimation {\n    struct LegiFile {\n        string fileURL;\n        string hashCode;\n        string signature;\n        uint   timeStamp;\n        bool   isSigned;\n    }\n\n    /* This creates an array with all legal info */\n    mapping (address => LegiFile) public LegiFiles;\n\n    modifier notSigned() {\n        require(!LegiFiles[msg.sender].isSigned,\n                \"File signed\");\n        _;\n    }\n\n    /* This generates a public event on the blockchain that will notify clients */\n    event SignLawAgreement(address indexed signee, string fileName, string hashCode, string signature, uint256 timeStamp);\n    \n    function signAgreement(string fileURL, string hashCode, string signature)\n        public notSigned {\n        require(bytes(fileURL).length > 0);\n        require(bytes(hashCode).length > 0);\n        require(bytes(signature).length > 0);\n\n        LegiFiles[msg.sender] = LegiFile(fileURL, hashCode, signature, now, true);\n        emit SignLawAgreement(msg.sender, fileURL, hashCode, signature, now);\n    }\n}\n",
  "sourcePath": "/home/juicebox/test_webpack/contracts/Legitimation.sol",
  "compiler": {
    "name": "solc",
    "version": "0.4.24+commit.e67f0147.Emscripten.clang"
  },
  "schemaVersion": "2.0.1",
  "updatedAt": "2018-09-20T19:57:17.201Z"
}