{
  "contractName": "LoyaltyToken",
  "abi": [
    {
      "constant": true,
      "inputs": [],
      "name": "name",
      "outputs": [
        {
          "name": "",
          "type": "string"
        }
      ],
      "payable": false,
      "stateMutability": "view",
      "type": "function"
    },
    {
      "constant": false,
      "inputs": [
        {
          "name": "_newOwner",
          "type": "address"
        }
      ],
      "name": "setOwner",
      "outputs": [],
      "payable": false,
      "stateMutability": "nonpayable",
      "type": "function"
    },
    {
      "constant": true,
      "inputs": [],
      "name": "totalSupply",
      "outputs": [
        {
          "name": "",
          "type": "uint256"
        }
      ],
      "payable": false,
      "stateMutability": "view",
      "type": "function"
    },
    {
      "constant": true,
      "inputs": [],
      "name": "decimals",
      "outputs": [
        {
          "name": "",
          "type": "uint8"
        }
      ],
      "payable": false,
      "stateMutability": "view",
      "type": "function"
    },
    {
      "constant": true,
      "inputs": [],
      "name": "isTokenInitialized",
      "outputs": [
        {
          "name": "",
          "type": "bool"
        }
      ],
      "payable": false,
      "stateMutability": "view",
      "type": "function"
    },
    {
      "constant": true,
      "inputs": [
        {
          "name": "",
          "type": "address"
        }
      ],
      "name": "balanceOf",
      "outputs": [
        {
          "name": "",
          "type": "uint256"
        }
      ],
      "payable": false,
      "stateMutability": "view",
      "type": "function"
    },
    {
      "constant": true,
      "inputs": [],
      "name": "bonus",
      "outputs": [
        {
          "name": "",
          "type": "uint256"
        }
      ],
      "payable": false,
      "stateMutability": "view",
      "type": "function"
    },
    {
      "constant": true,
      "inputs": [],
      "name": "owner",
      "outputs": [
        {
          "name": "",
          "type": "address"
        }
      ],
      "payable": false,
      "stateMutability": "view",
      "type": "function"
    },
    {
      "constant": true,
      "inputs": [],
      "name": "symbol",
      "outputs": [
        {
          "name": "",
          "type": "string"
        }
      ],
      "payable": false,
      "stateMutability": "view",
      "type": "function"
    },
    {
      "constant": true,
      "inputs": [
        {
          "name": "",
          "type": "address"
        },
        {
          "name": "",
          "type": "address"
        }
      ],
      "name": "allowance",
      "outputs": [
        {
          "name": "",
          "type": "uint256"
        }
      ],
      "payable": false,
      "stateMutability": "view",
      "type": "function"
    },
    {
      "anonymous": false,
      "inputs": [
        {
          "indexed": true,
          "name": "from",
          "type": "address"
        },
        {
          "indexed": true,
          "name": "to",
          "type": "address"
        },
        {
          "indexed": false,
          "name": "value",
          "type": "uint256"
        }
      ],
      "name": "Transfer",
      "type": "event"
    },
    {
      "anonymous": false,
      "inputs": [
        {
          "indexed": true,
          "name": "tokenOwner",
          "type": "address"
        },
        {
          "indexed": true,
          "name": "spender",
          "type": "address"
        },
        {
          "indexed": false,
          "name": "tokens",
          "type": "uint256"
        }
      ],
      "name": "Approval",
      "type": "event"
    },
    {
      "constant": false,
      "inputs": [
        {
          "name": "_totalSupply",
          "type": "uint256"
        },
        {
          "name": "_bonus",
          "type": "uint256"
        },
        {
          "name": "_name",
          "type": "string"
        },
        {
          "name": "_symbol",
          "type": "string"
        },
        {
          "name": "_decimal",
          "type": "uint8"
        }
      ],
      "name": "initiateToken",
      "outputs": [],
      "payable": false,
      "stateMutability": "nonpayable",
      "type": "function"
    },
    {
      "constant": false,
      "inputs": [
        {
          "name": "_to",
          "type": "address"
        },
        {
          "name": "_value",
          "type": "uint256"
        }
      ],
      "name": "transfer",
      "outputs": [],
      "payable": false,
      "stateMutability": "nonpayable",
      "type": "function"
    },
    {
      "constant": false,
      "inputs": [
        {
          "name": "_spender",
          "type": "address"
        },
        {
          "name": "_value",
          "type": "uint256"
        }
      ],
      "name": "approve",
      "outputs": [
        {
          "name": "success",
          "type": "bool"
        }
      ],
      "payable": false,
      "stateMutability": "nonpayable",
      "type": "function"
    },
    {
      "constant": false,
      "inputs": [
        {
          "name": "_from",
          "type": "address"
        },
        {
          "name": "_to",
          "type": "address"
        },
        {
          "name": "_value",
          "type": "uint256"
        }
      ],
      "name": "transferFrom",
      "outputs": [
        {
          "name": "success",
          "type": "bool"
        }
      ],
      "payable": false,
      "stateMutability": "nonpayable",
      "type": "function"
    },
    {
      "constant": false,
      "inputs": [
        {
          "name": "_to",
          "type": "address"
        },
        {
          "name": "_value",
          "type": "uint256"
        }
      ],
      "name": "transferBonus",
      "outputs": [],
      "payable": false,
      "stateMutability": "nonpayable",
      "type": "function"
    }
  ],
  "bytecode": "0x6080604052336000806101000a81548173ffffffffffffffffffffffffffffffffffffffff021916908373ffffffffffffffffffffffffffffffffffffffff16021790555061152c806100536000396000f3006080604052600436106100db576000357c0100000000000000000000000000000000000000000000000000000000900463ffffffff16806306fdde03146100e0578063095ea7b31461017057806313af4035146101d557806318160ddd1461021857806323b872dd14610243578063313ce567146102c85780635013d068146102f95780636cc24851146103c957806370a08231146103f857806375b4d78c1461044f5780638da5cb5b1461047a57806395d89b41146104d1578063a9059cbb14610561578063dd62ed3e146105ae578063f9fb3c9514610625575b600080fd5b3480156100ec57600080fd5b506100f5610672565b6040518080602001828103825283818151815260200191508051906020019080838360005b8381101561013557808201518184015260208101905061011a565b50505050905090810190601f1680156101625780820380516001836020036101000a031916815260200191505b509250505060405180910390f35b34801561017c57600080fd5b506101bb600480360381019080803573ffffffffffffffffffffffffffffffffffffffff16906020019092919080359060200190929190505050610710565b604051808215151515815260200191505060405180910390f35b3480156101e157600080fd5b50610216600480360381019080803573ffffffffffffffffffffffffffffffffffffffff169060200190929190505050610886565b005b34801561022457600080fd5b5061022d61098d565b6040518082815260200191505060405180910390f35b34801561024f57600080fd5b506102ae600480360381019080803573ffffffffffffffffffffffffffffffffffffffff169060200190929190803573ffffffffffffffffffffffffffffffffffffffff16906020019092919080359060200190929190505050610993565b604051808215151515815260200191505060405180910390f35b3480156102d457600080fd5b506102dd610cc2565b604051808260ff1660ff16815260200191505060405180910390f35b34801561030557600080fd5b506103c76004803603810190808035906020019092919080359060200190929190803590602001908201803590602001908080601f0160208091040260200160405190810160405280939291908181526020018383808284378201915050505050509192919290803590602001908201803590602001908080601f0160208091040260200160405190810160405280939291908181526020018383808284378201915050505050509192919290803560ff169060200190929190505050610cd5565b005b3480156103d557600080fd5b506103de610eed565b604051808215151515815260200191505060405180910390f35b34801561040457600080fd5b50610439600480360381019080803573ffffffffffffffffffffffffffffffffffffffff169060200190929190505050610f00565b6040518082815260200191505060405180910390f35b34801561045b57600080fd5b50610464610f18565b6040518082815260200191505060405180910390f35b34801561048657600080fd5b5061048f610f1e565b604051808273ffffffffffffffffffffffffffffffffffffffff1673ffffffffffffffffffffffffffffffffffffffff16815260200191505060405180910390f35b3480156104dd57600080fd5b506104e6610f43565b6040518080602001828103825283818151815260200191508051906020019080838360005b8381101561052657808201518184015260208101905061050b565b50505050905090810190601f1680156105535780820380516001836020036101000a031916815260200191505b509250505060405180910390f35b34801561056d57600080fd5b506105ac600480360381019080803573ffffffffffffffffffffffffffffffffffffffff16906020019092919080359060200190929190505050610fe1565b005b3480156105ba57600080fd5b5061060f600480360381019080803573ffffffffffffffffffffffffffffffffffffffff169060200190929190803573ffffffffffffffffffffffffffffffffffffffff1690602001909291905050506111f8565b6040518082815260200191505060405180910390f35b34801561063157600080fd5b50610670600480360381019080803573ffffffffffffffffffffffffffffffffffffffff1690602001909291908035906020019092919050505061121d565b005b60018054600181600116156101000203166002900480601f0160208091040260200160405190810160405280929190818152602001828054600181600116156101000203166002900480156107085780601f106106dd57610100808354040283529160200191610708565b820191906000526020600020905b8154815290600101906020018083116106eb57829003601f168201915b505050505081565b6000600660009054906101000a900460ff161515610796576040517f08c379a000000000000000000000000000000000000000000000000000000000815260040180806020018281038252600f8152602001807f4e6f7420696e697469616c697a6564000000000000000000000000000000000081525060200191505060405180910390fd5b81600860003373ffffffffffffffffffffffffffffffffffffffff1673ffffffffffffffffffffffffffffffffffffffff16815260200190815260200160002060008573ffffffffffffffffffffffffffffffffffffffff1673ffffffffffffffffffffffffffffffffffffffff168152602001908152602001600020819055508273ffffffffffffffffffffffffffffffffffffffff163373ffffffffffffffffffffffffffffffffffffffff167f8c5be1e5ebec7d5bd14f71427d1e84f3dd0314c0f7b2291e5b200ac8c7c3b925846040518082815260200191505060405180910390a36001905092915050565b6000809054906101000a900473ffffffffffffffffffffffffffffffffffffffff1673ffffffffffffffffffffffffffffffffffffffff163373ffffffffffffffffffffffffffffffffffffffff1614151561094a576040517f08c379a00000000000000000000000000000000000000000000000000000000081526004018080602001828103825260098152602001807f4e6f74206f776e6572000000000000000000000000000000000000000000000081525060200191505060405180910390fd5b806000806101000a81548173ffffffffffffffffffffffffffffffffffffffff021916908373ffffffffffffffffffffffffffffffffffffffff16021790555050565b60045481565b6000600660009054906101000a900460ff161515610a19576040517f08c379a000000000000000000000000000000000000000000000000000000000815260040180806020018281038252600f8152602001807f4e6f7420696e697469616c697a6564000000000000000000000000000000000081525060200191505060405180910390fd5b610a6b82600760008773ffffffffffffffffffffffffffffffffffffffff1673ffffffffffffffffffffffffffffffffffffffff1681526020019081526020016000205461141990919063ffffffff16565b600760008673ffffffffffffffffffffffffffffffffffffffff1673ffffffffffffffffffffffffffffffffffffffff16815260200190815260200160002081905550610b3d82600860008773ffffffffffffffffffffffffffffffffffffffff1673ffffffffffffffffffffffffffffffffffffffff16815260200190815260200160002060003373ffffffffffffffffffffffffffffffffffffffff1673ffffffffffffffffffffffffffffffffffffffff1681526020019081526020016000205461141990919063ffffffff16565b600860008673ffffffffffffffffffffffffffffffffffffffff1673ffffffffffffffffffffffffffffffffffffffff16815260200190815260200160002060003373ffffffffffffffffffffffffffffffffffffffff1673ffffffffffffffffffffffffffffffffffffffff16815260200190815260200160002081905550610c0f82600760008673ffffffffffffffffffffffffffffffffffffffff1673ffffffffffffffffffffffffffffffffffffffff1681526020019081526020016000205461143a90919063ffffffff16565b600760008573ffffffffffffffffffffffffffffffffffffffff1673ffffffffffffffffffffffffffffffffffffffff168152602001908152602001600020819055508273ffffffffffffffffffffffffffffffffffffffff168473ffffffffffffffffffffffffffffffffffffffff167fddf252ad1be2c89b69c2b068fc378daa952ba7f163c4a11628f55a4df523b3ef846040518082815260200191505060405180910390a3600190509392505050565b600360009054906101000a900460ff1681565b6000809054906101000a900473ffffffffffffffffffffffffffffffffffffffff1673ffffffffffffffffffffffffffffffffffffffff163373ffffffffffffffffffffffffffffffffffffffff16141515610d99576040517f08c379a00000000000000000000000000000000000000000000000000000000081526004018080602001828103825260098152602001807f4e6f74206f776e6572000000000000000000000000000000000000000000000081525060200191505060405180910390fd5b600660009054906101000a900460ff16151515610e1e576040517f08c379a00000000000000000000000000000000000000000000000000000000081526004018080602001828103825260118152602001807f546f6b656e20696e697469616c697a656400000000000000000000000000000081525060200191505060405180910390fd5b84600481905550610e38848661141990919063ffffffff16565b600760003373ffffffffffffffffffffffffffffffffffffffff1673ffffffffffffffffffffffffffffffffffffffff16815260200190815260200160002081905550836005819055508260019080519060200190610e9892919061145b565b508160029080519060200190610eaf92919061145b565b5080600360006101000a81548160ff021916908360ff1602179055506001600660006101000a81548160ff0219169083151502179055505050505050565b600660009054906101000a900460ff1681565b60076020528060005260406000206000915090505481565b60055481565b6000809054906101000a900473ffffffffffffffffffffffffffffffffffffffff1681565b60028054600181600116156101000203166002900480601f016020809104026020016040519081016040528092919081815260200182805460018160011615610100020316600290048015610fd95780601f10610fae57610100808354040283529160200191610fd9565b820191906000526020600020905b815481529060010190602001808311610fbc57829003601f168201915b505050505081565b600660009054906101000a900460ff161515611065576040517f08c379a000000000000000000000000000000000000000000000000000000000815260040180806020018281038252600f8152602001807f4e6f7420696e697469616c697a6564000000000000000000000000000000000081525060200191505060405180910390fd5b6110b781600760003373ffffffffffffffffffffffffffffffffffffffff1673ffffffffffffffffffffffffffffffffffffffff1681526020019081526020016000205461141990919063ffffffff16565b600760003373ffffffffffffffffffffffffffffffffffffffff1673ffffffffffffffffffffffffffffffffffffffff1681526020019081526020016000208190555061114c81600760008573ffffffffffffffffffffffffffffffffffffffff1673ffffffffffffffffffffffffffffffffffffffff1681526020019081526020016000205461143a90919063ffffffff16565b600760008473ffffffffffffffffffffffffffffffffffffffff1673ffffffffffffffffffffffffffffffffffffffff168152602001908152602001600020819055508173ffffffffffffffffffffffffffffffffffffffff163373ffffffffffffffffffffffffffffffffffffffff167fddf252ad1be2c89b69c2b068fc378daa952ba7f163c4a11628f55a4df523b3ef836040518082815260200191505060405180910390a35050565b6008602052816000526040600020602052806000526040600020600091509150505481565b6000809054906101000a900473ffffffffffffffffffffffffffffffffffffffff1673ffffffffffffffffffffffffffffffffffffffff163373ffffffffffffffffffffffffffffffffffffffff161415156112e1576040517f08c379a00000000000000000000000000000000000000000000000000000000081526004018080602001828103825260098152602001807f4e6f74206f776e6572000000000000000000000000000000000000000000000081525060200191505060405180910390fd5b600660009054906101000a900460ff161515611365576040517f08c379a000000000000000000000000000000000000000000000000000000000815260040180806020018281038252600f8152602001807f4e6f7420696e697469616c697a6564000000000000000000000000000000000081525060200191505060405180910390fd5b61137a8160055461141990919063ffffffff16565b6005819055506113d281600760008573ffffffffffffffffffffffffffffffffffffffff1673ffffffffffffffffffffffffffffffffffffffff1681526020019081526020016000205461143a90919063ffffffff16565b600760008473ffffffffffffffffffffffffffffffffffffffff1673ffffffffffffffffffffffffffffffffffffffff168152602001908152602001600020819055505050565b60008083831115151561142b57600080fd5b82840390508091505092915050565b600080828401905083811015151561145157600080fd5b8091505092915050565b828054600181600116156101000203166002900490600052602060002090601f016020900481019282601f1061149c57805160ff19168380011785556114ca565b828001600101855582156114ca579182015b828111156114c95782518255916020019190600101906114ae565b5b5090506114d791906114db565b5090565b6114fd91905b808211156114f95760008160009055506001016114e1565b5090565b905600a165627a7a72305820550a4a7b681fd6e73699b0065686d2c52cd8b2fe4523071f800a7e19efcddc790029",
  "source": "/* For HealthChainHack, Sep 2018\n * Author: Xinghua Liang\n * Copyright: BlockTEST LLC\n */\n pragma solidity ^0.4.24;\n\nimport \"./Owned.sol\";\nimport \"./SafeMath.sol\";\n\ncontract LoyaltyToken is Owned {\n    using SafeMath for uint256;\n\n    /* Public variables of the token */\n    string  public name;\n    string  public symbol;\n    uint8   public decimals;\n    uint256 public totalSupply;\n    uint256 public bonus;\n    bool    public isTokenInitialized;\n\n    /* This creates an array with all balances */\n    mapping (address => uint256) public balanceOf;\n    mapping (address => mapping (address => uint256)) public allowance;\n\n    modifier validToken() {\n        require(isTokenInitialized,\n                \"Not initialized\");\n        _;\n    }\n\n    /* This generates a public event on the blockchain that will notify clients */\n    event Transfer(address indexed from, address indexed to, uint256 value);\n    event Approval(address indexed tokenOwner, address indexed spender, uint tokens);\n\n\n    /* Initializes contract with initial supply tokens to the creator of the contract */\n    function initiateToken (uint256 _totalSupply, \n                            uint256 _bonus, \n                            string _name, \n                            string _symbol, \n                            uint8 _decimal) public onlyOwner {\n        require(!isTokenInitialized,\n                \"Token initialized\");\n        totalSupply = _totalSupply;                         // Update total supply\n        balanceOf[msg.sender] = _totalSupply.sub(_bonus);   // Give the creator all initial tokens\n        bonus = _bonus;                                     // bonus for AI tool providers\n        name = _name;                                       // Set the name for display purposes\n        symbol = _symbol;                                   // Set the symbol for display purposes\n        decimals = _decimal;                                // Amount of decimals for display purposes\n        isTokenInitialized = true;                          // Prevent furture initialization\n    }\n\n    /* Send coins */\n    function transfer(address _to, uint256 _value)\n        public validToken {\n        balanceOf[msg.sender] = balanceOf[msg.sender].sub(_value);\n        balanceOf[_to] = balanceOf[_to].add(_value);\n        emit Transfer(msg.sender, _to, _value);\n    }\n\n    /* Allow another contract to spend some tokens in your behalf */\n    function approve(address _spender, uint256 _value)\n        public validToken returns (bool success) {\n        allowance[msg.sender][_spender] = _value;\n        emit Approval(msg.sender, _spender, _value);\n        return true;\n    }\n\n    /* A contract attempts to get the coins */\n    function transferFrom(address _from, address _to, uint256 _value)\n        public validToken returns (bool success) {\n        balanceOf[_from] = balanceOf[_from].sub(_value);\n        allowance[_from][msg.sender] = allowance[_from][msg.sender].sub(_value);\n        balanceOf[_to] = balanceOf[_to].add(_value);\n        emit Transfer(_from, _to, _value);\n        return true;\n    }\n\n    /* Award bonus to an address */\n    function transferBonus(address _to, uint256 _value)\n        public onlyOwner validToken {\n        bonus = bonus.sub(_value);\n        balanceOf[_to] = balanceOf[_to].add(_value);\n    }\n}\n",
  "sourcePath": "/home/juicebox/test_webpack/contracts/LoyaltyToken.sol",
  "compiler": {
    "name": "solc",
    "version": "0.4.24+commit.e67f0147.Emscripten.clang"
  },
  "schemaVersion": "2.0.1",
  "updatedAt": "2018-09-20T19:57:17.208Z"
}