{
  "contractName": "TaskManage",
  "abi": [
    {
      "constant": false,
      "inputs": [
        {
          "name": "_newOwner",
          "type": "address"
        }
      ],
      "name": "setOwner",
      "outputs": [],
      "payable": false,
      "stateMutability": "nonpayable",
      "type": "function"
    },
    {
      "constant": true,
      "inputs": [],
      "name": "task",
      "outputs": [
        {
          "name": "taskName",
          "type": "string"
        },
        {
          "name": "toolName",
          "type": "string"
        },
        {
          "name": "numPlayers",
          "type": "uint8"
        },
        {
          "name": "maxPlayers",
          "type": "uint8"
        },
        {
          "name": "playerSalary",
          "type": "uint256"
        },
        {
          "name": "isFinished",
          "type": "bool"
        },
        {
          "name": "timeStamp",
          "type": "uint256"
        }
      ],
      "payable": false,
      "stateMutability": "view",
      "type": "function"
    },
    {
      "constant": true,
      "inputs": [],
      "name": "owner",
      "outputs": [
        {
          "name": "",
          "type": "address"
        }
      ],
      "payable": false,
      "stateMutability": "view",
      "type": "function"
    },
    {
      "constant": true,
      "inputs": [],
      "name": "isTaskInitialized",
      "outputs": [
        {
          "name": "",
          "type": "bool"
        }
      ],
      "payable": false,
      "stateMutability": "view",
      "type": "function"
    },
    {
      "constant": true,
      "inputs": [
        {
          "name": "",
          "type": "uint256"
        }
      ],
      "name": "playerPool",
      "outputs": [
        {
          "name": "addr",
          "type": "address"
        },
        {
          "name": "dataInputId",
          "type": "uint256"
        },
        {
          "name": "dataOutputId",
          "type": "uint256"
        },
        {
          "name": "result",
          "type": "int256"
        },
        {
          "name": "status",
          "type": "uint8"
        },
        {
          "name": "timeStamp",
          "type": "uint256"
        }
      ],
      "payable": false,
      "stateMutability": "view",
      "type": "function"
    },
    {
      "constant": false,
      "inputs": [
        {
          "name": "toolName",
          "type": "string"
        },
        {
          "name": "maxPlayers",
          "type": "uint8"
        },
        {
          "name": "playerSalary",
          "type": "uint256"
        }
      ],
      "name": "initiateTask",
      "outputs": [],
      "payable": true,
      "stateMutability": "payable",
      "type": "function"
    },
    {
      "constant": false,
      "inputs": [
        {
          "name": "dataInputId",
          "type": "uint256"
        }
      ],
      "name": "submitPlayerRequest",
      "outputs": [
        {
          "name": "playerId",
          "type": "uint256"
        }
      ],
      "payable": false,
      "stateMutability": "nonpayable",
      "type": "function"
    },
    {
      "constant": false,
      "inputs": [
        {
          "name": "playerId",
          "type": "uint256"
        },
        {
          "name": "dataOutputId",
          "type": "uint256"
        }
      ],
      "name": "approvePlayerRequest",
      "outputs": [],
      "payable": false,
      "stateMutability": "nonpayable",
      "type": "function"
    },
    {
      "constant": false,
      "inputs": [
        {
          "name": "playerId",
          "type": "uint256"
        },
        {
          "name": "result",
          "type": "int256"
        }
      ],
      "name": "submitPlayerResult",
      "outputs": [],
      "payable": false,
      "stateMutability": "nonpayable",
      "type": "function"
    },
    {
      "constant": false,
      "inputs": [
        {
          "name": "playerId",
          "type": "uint256"
        }
      ],
      "name": "approvePlayerResult",
      "outputs": [],
      "payable": false,
      "stateMutability": "nonpayable",
      "type": "function"
    },
    {
      "constant": false,
      "inputs": [
        {
          "name": "playerId",
          "type": "uint256"
        }
      ],
      "name": "rejectPlayerResult",
      "outputs": [],
      "payable": false,
      "stateMutability": "nonpayable",
      "type": "function"
    },
    {
      "constant": true,
      "inputs": [],
      "name": "getPlayerCount",
      "outputs": [
        {
          "name": "count",
          "type": "uint256"
        }
      ],
      "payable": false,
      "stateMutability": "view",
      "type": "function"
    }
  ],
  "bytecode": "0x6080604052336000806101000a81548173ffffffffffffffffffffffffffffffffffffffff021916908373ffffffffffffffffffffffffffffffffffffffff160217905550611ca3806100536000396000f3006080604052600436106100ba576000357c0100000000000000000000000000000000000000000000000000000000900463ffffffff16806313af4035146100bf5780631f64cacb146101025780633283f6411461012f5780635d6bc64a1461025e57806361bc8c88146102955780638da5cb5b14610308578063bb76a2a81461035f578063bbef6a89146103a0578063bc91cfa0146103cf578063c2e52206146103fc578063e0ad550214610427578063e583f049146104bd575b600080fd5b3480156100cb57600080fd5b50610100600480360381019080803573ffffffffffffffffffffffffffffffffffffffff1690602001909291905050506104f4565b005b34801561010e57600080fd5b5061012d600480360381019080803590602001909291905050506105fb565b005b34801561013b57600080fd5b506101446109ce565b6040518080602001806020018860ff1660ff1681526020018760ff1660ff1681526020018681526020018515151515815260200184815260200183810383528a818151815260200191508051906020019080838360005b838110156101b657808201518184015260208101905061019b565b50505050905090810190601f1680156101e35780820380516001836020036101000a031916815260200191505b50838103825289818151815260200191508051906020019080838360005b8381101561021c578082015181840152602081019050610201565b50505050905090810190601f1680156102495780820380516001836020036101000a031916815260200191505b50995050505050505050505060405180910390f35b34801561026a57600080fd5b506102936004803603810190808035906020019092919080359060200190929190505050610b55565b005b610306600480360381019080803590602001908201803590602001908080601f0160208091040260200160405190810160405280939291908181526020018383808284378201915050505050509192919290803560ff16906020019092919080359060200190929190505050610e74565b005b34801561031457600080fd5b5061031d6111bc565b604051808273ffffffffffffffffffffffffffffffffffffffff1673ffffffffffffffffffffffffffffffffffffffff16815260200191505060405180910390f35b34801561036b57600080fd5b5061038a600480360381019080803590602001909291905050506111e1565b6040518082815260200191505060405180910390f35b3480156103ac57600080fd5b506103b56114e7565b604051808215151515815260200191505060405180910390f35b3480156103db57600080fd5b506103fa600480360381019080803590602001909291905050506114fa565b005b34801561040857600080fd5b506104116117fa565b6040518082815260200191505060405180910390f35b34801561043357600080fd5b5061045260048036038101908080359060200190929190505050611807565b604051808773ffffffffffffffffffffffffffffffffffffffff1673ffffffffffffffffffffffffffffffffffffffff1681526020018681526020018581526020018481526020018360ff1660ff168152602001828152602001965050505050505060405180910390f35b3480156104c957600080fd5b506104f2600480360381019080803590602001909291908035906020019092919050505061187f565b005b6000809054906101000a900473ffffffffffffffffffffffffffffffffffffffff1673ffffffffffffffffffffffffffffffffffffffff163373ffffffffffffffffffffffffffffffffffffffff161415156105b8576040517f08c379a00000000000000000000000000000000000000000000000000000000081526004018080602001828103825260098152602001807f4e6f74206f776e6572000000000000000000000000000000000000000000000081525060200191505060405180910390fd5b806000806101000a81548173ffffffffffffffffffffffffffffffffffffffff021916908373ffffffffffffffffffffffffffffffffffffffff16021790555050565b6000809054906101000a900473ffffffffffffffffffffffffffffffffffffffff1673ffffffffffffffffffffffffffffffffffffffff163373ffffffffffffffffffffffffffffffffffffffff161415156106bf576040517f08c379a00000000000000000000000000000000000000000000000000000000081526004018080602001828103825260098152602001807f4e6f74206f776e6572000000000000000000000000000000000000000000000081525060200191505060405180910390fd5b806007805490508110151561073c576040517f08c379a00000000000000000000000000000000000000000000000000000000081526004018080602001828103825260108152602001807f496e76616c696420706c6179657249640000000000000000000000000000000081525060200191505060405180910390fd5b600860009054906101000a900460ff1615156107c0576040517f08c379a00000000000000000000000000000000000000000000000000000000081526004018080602001828103825260148152602001807f5461736b206e6f7420696e697469616c697a656400000000000000000000000081525060200191505060405180910390fd5b60036007838154811015156107d157fe5b906000526020600020906006020160040160009054906101000a900460ff1660ff16141515610868576040517f08c379a000000000000000000000000000000000000000000000000000000000815260040180806020018281038252600e8152602001807f496e76616c69642073746174757300000000000000000000000000000000000081525060200191505060405180910390fd5b600460078381548110151561087957fe5b906000526020600020906006020160040160006101000a81548160ff021916908360ff16021790555060018060020160008282829054906101000a900460ff160392506101000a81548160ff021916908360ff16021790555060018060020160018282829054906101000a900460ff160392506101000a81548160ff021916908360ff16021790555060078281548110151561091157fe5b906000526020600020906006020160000160009054906101000a900473ffffffffffffffffffffffffffffffffffffffff1673ffffffffffffffffffffffffffffffffffffffff166108fc6001600301549081150290604051600060405180830381858888f1935050505015801561098d573d6000803e3d6000fd5b50600160020160019054906101000a900460ff1660ff16600014156109ca5760018060040160006101000a81548160ff0219169083151502179055505b5050565b6001806000018054600181600116156101000203166002900480601f016020809104026020016040519081016040528092919081815260200182805460018160011615610100020316600290048015610a685780601f10610a3d57610100808354040283529160200191610a68565b820191906000526020600020905b815481529060010190602001808311610a4b57829003601f168201915b505050505090806001018054600181600116156101000203166002900480601f016020809104026020016040519081016040528092919081815260200182805460018160011615610100020316600290048015610b065780601f10610adb57610100808354040283529160200191610b06565b820191906000526020600020905b815481529060010190602001808311610ae957829003601f168201915b5050505050908060020160009054906101000a900460ff16908060020160019054906101000a900460ff16908060030154908060040160009054906101000a900460ff16908060050154905087565b6000809054906101000a900473ffffffffffffffffffffffffffffffffffffffff1673ffffffffffffffffffffffffffffffffffffffff163373ffffffffffffffffffffffffffffffffffffffff16141515610c19576040517f08c379a00000000000000000000000000000000000000000000000000000000081526004018080602001828103825260098152602001807f4e6f74206f776e6572000000000000000000000000000000000000000000000081525060200191505060405180910390fd5b8160078054905081101515610c96576040517f08c379a00000000000000000000000000000000000000000000000000000000081526004018080602001828103825260108152602001807f496e76616c696420706c6179657249640000000000000000000000000000000081525060200191505060405180910390fd5b600860009054906101000a900460ff161515610d1a576040517f08c379a00000000000000000000000000000000000000000000000000000000081526004018080602001828103825260148152602001807f5461736b206e6f7420696e697469616c697a656400000000000000000000000081525060200191505060405180910390fd5b600160020160019054906101000a900460ff1660ff16600160020160009054906101000a900460ff1660ff16101515610dbb576040517f08c379a00000000000000000000000000000000000000000000000000000000081526004018080602001828103825260138152602001807f4d617820706c617965727320726561636865640000000000000000000000000081525060200191505060405180910390fd5b81600784815481101515610dcb57fe5b9060005260206000209060060201600201819055506002600784815481101515610df157fe5b906000526020600020906006020160040160006101000a81548160ff021916908360ff16021790555042600784815481101515610e2a57fe5b90600052602060002090600602016005018190555060018060020160008282829054906101000a900460ff160192506101000a81548160ff021916908360ff160217905550505050565b6000809054906101000a900473ffffffffffffffffffffffffffffffffffffffff1673ffffffffffffffffffffffffffffffffffffffff163373ffffffffffffffffffffffffffffffffffffffff16141515610f38576040517f08c379a00000000000000000000000000000000000000000000000000000000081526004018080602001828103825260098152602001807f4e6f74206f776e6572000000000000000000000000000000000000000000000081525060200191505060405180910390fd5b600860009054906101000a900460ff16151515610fbd576040517f08c379a00000000000000000000000000000000000000000000000000000000081526004018080602001828103825260108152602001807f5461736b20696e697469616c697a65640000000000000000000000000000000081525060200191505060405180910390fd5b60008260ff16111515611038576040517f08c379a000000000000000000000000000000000000000000000000000000000815260040180806020018281038252600f8152602001807f506c61796572206d757374203e2030000000000000000000000000000000000081525060200191505060405180910390fd5b61104e8260ff1682611b9490919063ffffffff16565b34101515156110c5576040517f08c379a000000000000000000000000000000000000000000000000000000000815260040180806020018281038252600e8152602001807f4e6f7420656e6f7567682045544800000000000000000000000000000000000081525060200191505060405180910390fd5b6040805190810160405280600e81526020017f414920436f6d7075746174696f6e00000000000000000000000000000000000081525060016000019080519060200190611113929190611bd2565b508260018001908051906020019061112c929190611bd2565b506000600160020160006101000a81548160ff021916908360ff16021790555081600160020160016101000a81548160ff021916908360ff160217905550806001600301819055506000600160040160006101000a81548160ff021916908315150217905550426001600501819055506001600860006101000a81548160ff021916908315150217905550505050565b6000809054906101000a900473ffffffffffffffffffffffffffffffffffffffff1681565b6000600860009054906101000a900460ff161515611267576040517f08c379a00000000000000000000000000000000000000000000000000000000081526004018080602001828103825260148152602001807f5461736b206e6f7420696e697469616c697a656400000000000000000000000081525060200191505060405180910390fd5b6000809054906101000a900473ffffffffffffffffffffffffffffffffffffffff1673ffffffffffffffffffffffffffffffffffffffff163373ffffffffffffffffffffffffffffffffffffffff161415151561132c576040517f08c379a000000000000000000000000000000000000000000000000000000000815260040180806020018281038252600f8152602001807f4f776e657220697320706c61796572000000000000000000000000000000000081525060200191505060405180910390fd5b600160020160019054906101000a900460ff1660ff16600160020160009054906101000a900460ff1660ff161015156113cd576040517f08c379a00000000000000000000000000000000000000000000000000000000081526004018080602001828103825260138152602001807f4d617820706c617965727320726561636865640000000000000000000000000081525060200191505060405180910390fd5b600760c0604051908101604052803373ffffffffffffffffffffffffffffffffffffffff1681526020018481526020016000815260200160008152602001600160ff168152602001428152509080600181540180825580915050906001820390600052602060002090600602016000909192909190915060008201518160000160006101000a81548173ffffffffffffffffffffffffffffffffffffffff021916908373ffffffffffffffffffffffffffffffffffffffff16021790555060208201518160010155604082015181600201556060820151816003015560808201518160040160006101000a81548160ff021916908360ff16021790555060a082015181600501555050506001600780549050039050919050565b600860009054906101000a900460ff1681565b6000809054906101000a900473ffffffffffffffffffffffffffffffffffffffff1673ffffffffffffffffffffffffffffffffffffffff163373ffffffffffffffffffffffffffffffffffffffff161415156115be576040517f08c379a00000000000000000000000000000000000000000000000000000000081526004018080602001828103825260098152602001807f4e6f74206f776e6572000000000000000000000000000000000000000000000081525060200191505060405180910390fd5b806007805490508110151561163b576040517f08c379a00000000000000000000000000000000000000000000000000000000081526004018080602001828103825260108152602001807f496e76616c696420706c6179657249640000000000000000000000000000000081525060200191505060405180910390fd5b600860009054906101000a900460ff1615156116bf576040517f08c379a00000000000000000000000000000000000000000000000000000000081526004018080602001828103825260148152602001807f5461736b206e6f7420696e697469616c697a656400000000000000000000000081525060200191505060405180910390fd5b60036007838154811015156116d057fe5b906000526020600020906006020160040160009054906101000a900460ff1660ff16141515611767576040517f08c379a000000000000000000000000000000000000000000000000000000000815260040180806020018281038252600e8152602001807f496e76616c69642073746174757300000000000000000000000000000000000081525060200191505060405180910390fd5b606360078381548110151561177857fe5b906000526020600020906006020160040160006101000a81548160ff021916908360ff160217905550426007838154811015156117b157fe5b90600052602060002090600602016005018190555060018060020160008282829054906101000a900460ff160392506101000a81548160ff021916908360ff1602179055505050565b6000600780549050905090565b60078181548110151561181657fe5b90600052602060002090600602016000915090508060000160009054906101000a900473ffffffffffffffffffffffffffffffffffffffff16908060010154908060020154908060030154908060040160009054906101000a900460ff16908060050154905086565b81600780549050811015156118fc576040517f08c379a00000000000000000000000000000000000000000000000000000000081526004018080602001828103825260108152602001807f496e76616c696420706c6179657249640000000000000000000000000000000081525060200191505060405180910390fd5b600860009054906101000a900460ff161515611980576040517f08c379a00000000000000000000000000000000000000000000000000000000081526004018080602001828103825260148152602001807f5461736b206e6f7420696e697469616c697a656400000000000000000000000081525060200191505060405180910390fd5b60078381548110151561198f57fe5b906000526020600020906006020160000160009054906101000a900473ffffffffffffffffffffffffffffffffffffffff1673ffffffffffffffffffffffffffffffffffffffff163373ffffffffffffffffffffffffffffffffffffffff16141515611a63576040517f08c379a00000000000000000000000000000000000000000000000000000000081526004018080602001828103825260118152602001807f4e6f74206f726967696e20706c6179657200000000000000000000000000000081525060200191505060405180910390fd5b6002600784815481101515611a7457fe5b906000526020600020906006020160040160009054906101000a900460ff1660ff16141515611b0b576040517f08c379a000000000000000000000000000000000000000000000000000000000815260040180806020018281038252600e8152602001807f496e76616c69642073746174757300000000000000000000000000000000000081525060200191505060405180910390fd5b81600784815481101515611b1b57fe5b9060005260206000209060060201600301819055506003600784815481101515611b4157fe5b906000526020600020906006020160040160006101000a81548160ff021916908360ff16021790555042600784815481101515611b7a57fe5b906000526020600020906006020160050181905550505050565b6000806000841415611ba95760009150611bcb565b8284029050828482811515611bba57fe5b04141515611bc757600080fd5b8091505b5092915050565b828054600181600116156101000203166002900490600052602060002090601f016020900481019282601f10611c1357805160ff1916838001178555611c41565b82800160010185558215611c41579182015b82811115611c40578251825591602001919060010190611c25565b5b509050611c4e9190611c52565b5090565b611c7491905b80821115611c70576000816000905550600101611c58565b5090565b905600a165627a7a723058201fb086d210e27472cf7fba948af84a7778f5c129816b896a6f00a0d8893382d80029",
  "source": "/* For HealthChainHack, Sep 2018\n * Author: Xinghua Liang\n * Copyright: BlockTEST LLC\n */\n pragma solidity ^0.4.24;\n\nimport \"./Owned.sol\";\nimport \"./SafeMath.sol\";\n\ncontract TaskManage is Owned {\n    using SafeMath for uint256;\n\n    /* struct for a tool provider */\n    struct Player {\n        address addr;\n        uint    dataInputId;\n        uint    dataOutputId;\n        int     result;\n        uint8   status;\n        uint    timeStamp;\n    }\n\n    struct Task {\n        string  taskName;\n        string  toolName;\n        uint8   numPlayers;\n        uint8   maxPlayers;\n        uint    playerSalary;\n        bool    isFinished;\n        uint    timeStamp;\n    }\n    \n    Task public task;\n    Player[] public playerPool;\n    bool   public isTaskInitialized;\n\n    modifier validTask() {\n        require(isTaskInitialized,\n                \"Task not initialized\");\n        _;\n    }\n\n    modifier validPlayer(uint playerId) {\n        require(playerId < playerPool.length,\n                \"Invalid playerId\");\n        _;\n    }\n\n    function initiateTask (string toolName, \n                           uint8 maxPlayers,\n                           uint playerSalary)\n        public payable onlyOwner {\n        require(!isTaskInitialized,\n                \"Task initialized\");\n        require(maxPlayers > 0,\n                \"Player must > 0\");\n        require(msg.value >= playerSalary.mul(maxPlayers),\n                \"Not enough ETH\");\n        task.taskName = \"AI Computation\";\n        task.toolName = toolName;\n        task.numPlayers = 0;\n        task.maxPlayers = maxPlayers;\n        task.playerSalary = playerSalary;\n        task.isFinished = false;\n        task.timeStamp = now;\n        isTaskInitialized = true;\n    }\n\n    function submitPlayerRequest(uint dataInputId)\n        public validTask returns (uint playerId) {\n        require(msg.sender != owner,\n                \"Owner is player\");\n        require(task.numPlayers < task.maxPlayers,\n                \"Max players reached\");\n        playerPool.push(Player(msg.sender, dataInputId, 0, 0, 1, now));\n        return playerPool.length - 1;\n    }\n    \n    function approvePlayerRequest(uint playerId, uint dataOutputId)\n        public onlyOwner validPlayer(playerId) validTask {\n        require(task.numPlayers < task.maxPlayers,\n                \"Max players reached\");\n        playerPool[playerId].dataOutputId = dataOutputId;\n        playerPool[playerId].status = 2;\n        playerPool[playerId].timeStamp = now;\n        task.numPlayers += 1;\n    }\n\n    function submitPlayerResult(uint playerId, int result) \n        public validPlayer(playerId) validTask {\n        require(msg.sender == playerPool[playerId].addr,\n                \"Not origin player\");\n        require(playerPool[playerId].status == 2,\n                \"Invalid status\");\n        playerPool[playerId].result = result;\n        playerPool[playerId].status = 3;\n        playerPool[playerId].timeStamp = now;\n    }\n\n    function approvePlayerResult(uint playerId) \n        public onlyOwner validPlayer(playerId) validTask {\n        require(playerPool[playerId].status == 3,\n                \"Invalid status\");\n        playerPool[playerId].status = 4;\n        task.numPlayers -= 1;\n        task.maxPlayers -= 1;\n        playerPool[playerId].addr.transfer(task.playerSalary);\n        if (0 == task.maxPlayers)\n            task.isFinished = true;\n    }\n\n    function rejectPlayerResult(uint playerId) \n        public onlyOwner validPlayer(playerId) validTask {\n        require(playerPool[playerId].status == 3,\n                \"Invalid status\");\n        playerPool[playerId].status = 99;\n        playerPool[playerId].timeStamp = now;\n        task.numPlayers -= 1;\n    }\n\n    function getPlayerCount()\n        public view returns (uint count) {\n        return playerPool.length;\n    }\n}",
  "sourcePath": "/home/juicebox/test_webpack/contracts/TaskManage.sol",
  "compiler": {
    "name": "solc",
    "version": "0.4.24+commit.e67f0147.Emscripten.clang"
  },
  "schemaVersion": "2.0.1",
  "updatedAt": "2018-09-20T19:57:17.222Z"
}