{
  "contractName": "TestOwned",
  "abi": [
    {
      "constant": false,
      "inputs": [
        {
          "name": "_newOwner",
          "type": "address"
        }
      ],
      "name": "setOwner",
      "outputs": [],
      "payable": false,
      "stateMutability": "nonpayable",
      "type": "function"
    },
    {
      "constant": true,
      "inputs": [],
      "name": "owner",
      "outputs": [
        {
          "name": "",
          "type": "address"
        }
      ],
      "payable": false,
      "stateMutability": "view",
      "type": "function"
    },
    {
      "constant": false,
      "inputs": [],
      "name": "testSetOwner",
      "outputs": [],
      "payable": false,
      "stateMutability": "nonpayable",
      "type": "function"
    }
  ],
  "bytecode": "0x6080604052336000806101000a81548173ffffffffffffffffffffffffffffffffffffffff021916908373ffffffffffffffffffffffffffffffffffffffff160217905550610336806100536000396000f300608060405260043610610057576000357c0100000000000000000000000000000000000000000000000000000000900463ffffffff16806313af40351461005c57806342cb4a451461009f5780638da5cb5b146100b6575b600080fd5b34801561006857600080fd5b5061009d600480360381019080803573ffffffffffffffffffffffffffffffffffffffff16906020019092919050505061010d565b005b3480156100ab57600080fd5b506100b4610214565b005b3480156100c257600080fd5b506100cb6102e5565b604051808273ffffffffffffffffffffffffffffffffffffffff1673ffffffffffffffffffffffffffffffffffffffff16815260200191505060405180910390f35b6000809054906101000a900473ffffffffffffffffffffffffffffffffffffffff1673ffffffffffffffffffffffffffffffffffffffff163373ffffffffffffffffffffffffffffffffffffffff161415156101d1576040517f08c379a00000000000000000000000000000000000000000000000000000000081526004018080602001828103825260098152602001807f4e6f74206f776e6572000000000000000000000000000000000000000000000081525060200191505060405180910390fd5b806000806101000a81548173ffffffffffffffffffffffffffffffffffffffff021916908373ffffffffffffffffffffffffffffffffffffffff16021790555050565b6000336000806101000a81548173ffffffffffffffffffffffffffffffffffffffff021916908373ffffffffffffffffffffffffffffffffffffffff16021790555073f5b475fc347c4ba87e863f0b5269db08af18f24890506102768161010d565b73f5b475fc347c4ba87e863f0b5269db08af18f24873ffffffffffffffffffffffffffffffffffffffff166000809054906101000a900473ffffffffffffffffffffffffffffffffffffffff1673ffffffffffffffffffffffffffffffffffffffff161415156102e257fe5b50565b6000809054906101000a900473ffffffffffffffffffffffffffffffffffffffff16815600a165627a7a723058203684ebe52c81060451a2e6ce6ab7a4ee5f37fe9d6ce741190a2f764760e3a6d00029",
  "source": "/* For HealthChainHack, Sep 2018\n * Author: Xinghua Liang\n * Copyright: BlockTEST LLC\n */\n pragma solidity ^0.4.24;\n\nimport \"./Owned.sol\";\n\ncontract TestOwned is Owned {\n    function testSetOwner() public {\n        owner = msg.sender;\n        address newOwner = 0xf5b475Fc347C4BA87E863f0b5269db08Af18f248;\n        \n        setOwner(newOwner);\n        \n        assert(owner == 0xf5b475Fc347C4BA87E863f0b5269db08Af18f248);\n    }\n}\n",
  "sourcePath": "/home/juicebox/test_webpack/contracts/TestOwned.sol",
  "compiler": {
    "name": "solc",
    "version": "0.4.24+commit.e67f0147.Emscripten.clang"
  },
  "schemaVersion": "2.0.1",
  "updatedAt": "2018-09-20T19:26:30.049Z"
}