{
  "contractName": "TestDrugTask",
  "abi": [
    {
      "constant": true,
      "inputs": [],
      "name": "name",
      "outputs": [
        {
          "name": "",
          "type": "string"
        }
      ],
      "payable": false,
      "stateMutability": "view",
      "type": "function"
    },
    {
      "constant": false,
      "inputs": [
        {
          "name": "_spender",
          "type": "address"
        },
        {
          "name": "_value",
          "type": "uint256"
        }
      ],
      "name": "approve",
      "outputs": [
        {
          "name": "success",
          "type": "bool"
        }
      ],
      "payable": false,
      "stateMutability": "nonpayable",
      "type": "function"
    },
    {
      "constant": false,
      "inputs": [
        {
          "name": "_newOwner",
          "type": "address"
        }
      ],
      "name": "setOwner",
      "outputs": [],
      "payable": false,
      "stateMutability": "nonpayable",
      "type": "function"
    },
    {
      "constant": true,
      "inputs": [
        {
          "name": "",
          "type": "address"
        }
      ],
      "name": "LegiFiles",
      "outputs": [
        {
          "name": "fileURL",
          "type": "string"
        },
        {
          "name": "hashCode",
          "type": "string"
        },
        {
          "name": "signature",
          "type": "string"
        },
        {
          "name": "timeStamp",
          "type": "uint256"
        },
        {
          "name": "isSigned",
          "type": "bool"
        }
      ],
      "payable": false,
      "stateMutability": "view",
      "type": "function"
    },
    {
      "constant": true,
      "inputs": [],
      "name": "totalSupply",
      "outputs": [
        {
          "name": "",
          "type": "uint256"
        }
      ],
      "payable": false,
      "stateMutability": "view",
      "type": "function"
    },
    {
      "constant": false,
      "inputs": [
        {
          "name": "dataOwner",
          "type": "address"
        },
        {
          "name": "encryptCode",
          "type": "string"
        }
      ],
      "name": "submitTaskRequest",
      "outputs": [
        {
          "name": "dataId",
          "type": "uint256"
        },
        {
          "name": "playerId",
          "type": "uint256"
        }
      ],
      "payable": false,
      "stateMutability": "nonpayable",
      "type": "function"
    },
    {
      "constant": false,
      "inputs": [
        {
          "name": "playerId",
          "type": "uint256"
        }
      ],
      "name": "approvePlayerResult",
      "outputs": [],
      "payable": false,
      "stateMutability": "nonpayable",
      "type": "function"
    },
    {
      "constant": false,
      "inputs": [
        {
          "name": "_from",
          "type": "address"
        },
        {
          "name": "_to",
          "type": "address"
        },
        {
          "name": "_value",
          "type": "uint256"
        }
      ],
      "name": "transferFrom",
      "outputs": [
        {
          "name": "success",
          "type": "bool"
        }
      ],
      "payable": false,
      "stateMutability": "nonpayable",
      "type": "function"
    },
    {
      "constant": true,
      "inputs": [],
      "name": "decimals",
      "outputs": [
        {
          "name": "",
          "type": "uint8"
        }
      ],
      "payable": false,
      "stateMutability": "view",
      "type": "function"
    },
    {
      "constant": true,
      "inputs": [],
      "name": "task",
      "outputs": [
        {
          "name": "taskName",
          "type": "string"
        },
        {
          "name": "toolName",
          "type": "string"
        },
        {
          "name": "numPlayers",
          "type": "uint8"
        },
        {
          "name": "maxPlayers",
          "type": "uint8"
        },
        {
          "name": "playerSalary",
          "type": "uint256"
        },
        {
          "name": "isFinished",
          "type": "bool"
        },
        {
          "name": "timeStamp",
          "type": "uint256"
        }
      ],
      "payable": false,
      "stateMutability": "view",
      "type": "function"
    },
    {
      "constant": false,
      "inputs": [
        {
          "name": "playerId",
          "type": "uint256"
        }
      ],
      "name": "approveTaskResult",
      "outputs": [],
      "payable": false,
      "stateMutability": "nonpayable",
      "type": "function"
    },
    {
      "constant": true,
      "inputs": [],
      "name": "getRequestCount",
      "outputs": [
        {
          "name": "count",
          "type": "uint256"
        }
      ],
      "payable": false,
      "stateMutability": "view",
      "type": "function"
    },
    {
      "constant": false,
      "inputs": [
        {
          "name": "_totalSupply",
          "type": "uint256"
        },
        {
          "name": "_bonus",
          "type": "uint256"
        },
        {
          "name": "_name",
          "type": "string"
        },
        {
          "name": "_symbol",
          "type": "string"
        },
        {
          "name": "_decimal",
          "type": "uint8"
        }
      ],
      "name": "initiateToken",
      "outputs": [],
      "payable": false,
      "stateMutability": "nonpayable",
      "type": "function"
    },
    {
      "constant": false,
      "inputs": [
        {
          "name": "playerId",
          "type": "uint256"
        },
        {
          "name": "dataOutputId",
          "type": "uint256"
        }
      ],
      "name": "approvePlayerRequest",
      "outputs": [],
      "payable": false,
      "stateMutability": "nonpayable",
      "type": "function"
    },
    {
      "constant": false,
      "inputs": [
        {
          "name": "toolName",
          "type": "string"
        },
        {
          "name": "maxPlayers",
          "type": "uint8"
        },
        {
          "name": "playerSalary",
          "type": "uint256"
        }
      ],
      "name": "initiateTask",
      "outputs": [],
      "payable": true,
      "stateMutability": "payable",
      "type": "function"
    },
    {
      "constant": true,
      "inputs": [],
      "name": "isTokenInitialized",
      "outputs": [
        {
          "name": "",
          "type": "bool"
        }
      ],
      "payable": false,
      "stateMutability": "view",
      "type": "function"
    },
    {
      "constant": true,
      "inputs": [
        {
          "name": "",
          "type": "address"
        }
      ],
      "name": "balanceOf",
      "outputs": [
        {
          "name": "",
          "type": "uint256"
        }
      ],
      "payable": false,
      "stateMutability": "view",
      "type": "function"
    },
    {
      "constant": true,
      "inputs": [],
      "name": "bonus",
      "outputs": [
        {
          "name": "",
          "type": "uint256"
        }
      ],
      "payable": false,
      "stateMutability": "view",
      "type": "function"
    },
    {
      "constant": false,
      "inputs": [
        {
          "name": "dataOwner",
          "type": "address"
        },
        {
          "name": "encryptCode",
          "type": "string"
        }
      ],
      "name": "sendDataRequest",
      "outputs": [
        {
          "name": "index",
          "type": "uint256"
        }
      ],
      "payable": false,
      "stateMutability": "nonpayable",
      "type": "function"
    },
    {
      "constant": true,
      "inputs": [],
      "name": "owner",
      "outputs": [
        {
          "name": "",
          "type": "address"
        }
      ],
      "payable": false,
      "stateMutability": "view",
      "type": "function"
    },
    {
      "constant": true,
      "inputs": [],
      "name": "symbol",
      "outputs": [
        {
          "name": "",
          "type": "string"
        }
      ],
      "payable": false,
      "stateMutability": "view",
      "type": "function"
    },
    {
      "constant": false,
      "inputs": [
        {
          "name": "_to",
          "type": "address"
        },
        {
          "name": "_value",
          "type": "uint256"
        }
      ],
      "name": "transfer",
      "outputs": [],
      "payable": false,
      "stateMutability": "nonpayable",
      "type": "function"
    },
    {
      "constant": false,
      "inputs": [
        {
          "name": "playerId",
          "type": "uint256"
        }
      ],
      "name": "rejectTaskResult",
      "outputs": [],
      "payable": false,
      "stateMutability": "nonpayable",
      "type": "function"
    },
    {
      "constant": false,
      "inputs": [
        {
          "name": "index",
          "type": "uint256"
        },
        {
          "name": "dataURL",
          "type": "string"
        },
        {
          "name": "dataHash",
          "type": "string"
        }
      ],
      "name": "approveDataRequest",
      "outputs": [],
      "payable": false,
      "stateMutability": "nonpayable",
      "type": "function"
    },
    {
      "constant": false,
      "inputs": [
        {
          "name": "dataInputId",
          "type": "uint256"
        }
      ],
      "name": "submitPlayerRequest",
      "outputs": [
        {
          "name": "playerId",
          "type": "uint256"
        }
      ],
      "payable": false,
      "stateMutability": "nonpayable",
      "type": "function"
    },
    {
      "constant": true,
      "inputs": [],
      "name": "isTaskInitialized",
      "outputs": [
        {
          "name": "",
          "type": "bool"
        }
      ],
      "payable": false,
      "stateMutability": "view",
      "type": "function"
    },
    {
      "constant": false,
      "inputs": [
        {
          "name": "playerId",
          "type": "uint256"
        }
      ],
      "name": "rejectPlayerResult",
      "outputs": [],
      "payable": false,
      "stateMutability": "nonpayable",
      "type": "function"
    },
    {
      "constant": true,
      "inputs": [],
      "name": "getPlayerCount",
      "outputs": [
        {
          "name": "count",
          "type": "uint256"
        }
      ],
      "payable": false,
      "stateMutability": "view",
      "type": "function"
    },
    {
      "constant": false,
      "inputs": [
        {
          "name": "playerId",
          "type": "uint256"
        },
        {
          "name": "dataURL",
          "type": "string"
        },
        {
          "name": "dataHash",
          "type": "string"
        },
        {
          "name": "result",
          "type": "int256"
        }
      ],
      "name": "submitTaskResult",
      "outputs": [],
      "payable": false,
      "stateMutability": "nonpayable",
      "type": "function"
    },
    {
      "constant": true,
      "inputs": [
        {
          "name": "",
          "type": "uint256"
        }
      ],
      "name": "dataReqPool",
      "outputs": [
        {
          "name": "addr",
          "type": "address"
        },
        {
          "name": "encryptCode",
          "type": "string"
        },
        {
          "name": "dataURL",
          "type": "string"
        },
        {
          "name": "dataHash",
          "type": "string"
        },
        {
          "name": "isApproved",
          "type": "bool"
        },
        {
          "name": "timeStamp",
          "type": "uint256"
        },
        {
          "name": "dataOwner",
          "type": "address"
        }
      ],
      "payable": false,
      "stateMutability": "view",
      "type": "function"
    },
    {
      "constant": false,
      "inputs": [
        {
          "name": "playerId",
          "type": "uint256"
        },
        {
          "name": "encryptCode",
          "type": "string"
        },
        {
          "name": "dataURL",
          "type": "string"
        },
        {
          "name": "dataHash",
          "type": "string"
        }
      ],
      "name": "approveTaskRequest",
      "outputs": [],
      "payable": false,
      "stateMutability": "nonpayable",
      "type": "function"
    },
    {
      "constant": true,
      "inputs": [
        {
          "name": "",
          "type": "address"
        },
        {
          "name": "",
          "type": "address"
        }
      ],
      "name": "allowance",
      "outputs": [
        {
          "name": "",
          "type": "uint256"
        }
      ],
      "payable": false,
      "stateMutability": "view",
      "type": "function"
    },
    {
      "constant": true,
      "inputs": [
        {
          "name": "",
          "type": "uint256"
        }
      ],
      "name": "playerPool",
      "outputs": [
        {
          "name": "addr",
          "type": "address"
        },
        {
          "name": "dataInputId",
          "type": "uint256"
        },
        {
          "name": "dataOutputId",
          "type": "uint256"
        },
        {
          "name": "result",
          "type": "int256"
        },
        {
          "name": "status",
          "type": "uint8"
        },
        {
          "name": "timeStamp",
          "type": "uint256"
        }
      ],
      "payable": false,
      "stateMutability": "view",
      "type": "function"
    },
    {
      "constant": false,
      "inputs": [
        {
          "name": "fileURL",
          "type": "string"
        },
        {
          "name": "hashCode",
          "type": "string"
        },
        {
          "name": "signature",
          "type": "string"
        }
      ],
      "name": "signAgreement",
      "outputs": [],
      "payable": false,
      "stateMutability": "nonpayable",
      "type": "function"
    },
    {
      "constant": false,
      "inputs": [
        {
          "name": "playerId",
          "type": "uint256"
        },
        {
          "name": "result",
          "type": "int256"
        }
      ],
      "name": "submitPlayerResult",
      "outputs": [],
      "payable": false,
      "stateMutability": "nonpayable",
      "type": "function"
    },
    {
      "constant": false,
      "inputs": [
        {
          "name": "_to",
          "type": "address"
        },
        {
          "name": "_value",
          "type": "uint256"
        }
      ],
      "name": "transferBonus",
      "outputs": [],
      "payable": false,
      "stateMutability": "nonpayable",
      "type": "function"
    },
    {
      "anonymous": false,
      "inputs": [
        {
          "indexed": true,
          "name": "from",
          "type": "address"
        },
        {
          "indexed": true,
          "name": "to",
          "type": "address"
        },
        {
          "indexed": false,
          "name": "value",
          "type": "uint256"
        }
      ],
      "name": "Transfer",
      "type": "event"
    },
    {
      "anonymous": false,
      "inputs": [
        {
          "indexed": true,
          "name": "tokenOwner",
          "type": "address"
        },
        {
          "indexed": true,
          "name": "spender",
          "type": "address"
        },
        {
          "indexed": false,
          "name": "tokens",
          "type": "uint256"
        }
      ],
      "name": "Approval",
      "type": "event"
    },
    {
      "anonymous": false,
      "inputs": [
        {
          "indexed": true,
          "name": "signee",
          "type": "address"
        },
        {
          "indexed": false,
          "name": "fileName",
          "type": "string"
        },
        {
          "indexed": false,
          "name": "hashCode",
          "type": "string"
        },
        {
          "indexed": false,
          "name": "signature",
          "type": "string"
        },
        {
          "indexed": false,
          "name": "timeStamp",
          "type": "uint256"
        }
      ],
      "name": "SignLawAgreement",
      "type": "event"
    },
    {
      "constant": false,
      "inputs": [],
      "name": "testSubmitTaskRequest",
      "outputs": [],
      "payable": false,
      "stateMutability": "nonpayable",
      "type": "function"
    },
    {
      "constant": false,
      "inputs": [],
      "name": "testApproveTaskRequest",
      "outputs": [],
      "payable": false,
      "stateMutability": "nonpayable",
      "type": "function"
    },
    {
      "constant": false,
      "inputs": [],
      "name": "testSubmitTaskResult",
      "outputs": [],
      "payable": false,
      "stateMutability": "nonpayable",
      "type": "function"
    },
    {
      "constant": false,
      "inputs": [],
      "name": "testApproveTaskResult",
      "outputs": [],
      "payable": true,
      "stateMutability": "payable",
      "type": "function"
    },
    {
      "constant": false,
      "inputs": [],
      "name": "testRejectTaskResult",
      "outputs": [],
      "payable": false,
      "stateMutability": "nonpayable",
      "type": "function"
    }
  ],
  "bytecode": "0x608060405233600160006101000a81548173ffffffffffffffffffffffffffffffffffffffff021916908373ffffffffffffffffffffffffffffffffffffffff160217905550615cd8806100546000396000f3006080604052600436106101f9576000357c0100000000000000000000000000000000000000000000000000000000900463ffffffff16806306e53fa2146101fe57806306fdde0314610215578063095ea7b3146102a557806313af40351461030a578063159adab01461034d57806318160ddd146104f35780631a8c089b1461051e5780631f64cacb146105c257806323b872dd146105ef578063313ce567146106745780633283f641146106a55780633d3b92b2146107d45780633fad1834146108015780635013d0681461082c5780635d6bc64a146108fc57806361bc8c8814610933578063676de7e5146109a65780636cc24851146109bd5780636f7a2253146109ec57806370a08231146109f657806375b4d78c14610a4d57806385fe9dde14610a785780638d75e8db14610a8f5780638da5cb5b14610b2c57806395d89b4114610b83578063a9059cbb14610c13578063af92baa414610c60578063b357b5a914610c8d578063bb76a2a814610d46578063bbef6a8914610d87578063bc91cfa014610db6578063c2e5220614610de3578063c7d86e0414610e0e578063cf98b50314610ed1578063d358513614610ee8578063dd399a57146110de578063dd62ed3e146111dd578063e0ad550214611254578063e250c185146112ea578063e583f049146113df578063f9fb3c9514611416575b600080fd5b34801561020a57600080fd5b50610213611463565b005b34801561022157600080fd5b5061022a6114f8565b6040518080602001828103825283818151815260200191508051906020019080838360005b8381101561026a57808201518184015260208101905061024f565b50505050905090810190601f1680156102975780820380516001836020036101000a031916815260200191505b509250505060405180910390f35b3480156102b157600080fd5b506102f0600480360381019080803573ffffffffffffffffffffffffffffffffffffffff16906020019092919080359060200190929190505050611596565b604051808215151515815260200191505060405180910390f35b34801561031657600080fd5b5061034b600480360381019080803573ffffffffffffffffffffffffffffffffffffffff16906020019092919050505061170c565b005b34801561035957600080fd5b5061038e600480360381019080803573ffffffffffffffffffffffffffffffffffffffff169060200190929190505050611815565b6040518080602001806020018060200186815260200185151515158152602001848103845289818151815260200191508051906020019080838360005b838110156103e65780820151818401526020810190506103cb565b50505050905090810190601f1680156104135780820380516001836020036101000a031916815260200191505b50848103835288818151815260200191508051906020019080838360005b8381101561044c578082015181840152602081019050610431565b50505050905090810190601f1680156104795780820380516001836020036101000a031916815260200191505b50848103825287818151815260200191508051906020019080838360005b838110156104b2578082015181840152602081019050610497565b50505050905090810190601f1680156104df5780820380516001836020036101000a031916815260200191505b509850505050505050505060405180910390f35b3480156104ff57600080fd5b50610508611a20565b6040518082815260200191505060405180910390f35b34801561052a57600080fd5b506105a5600480360381019080803573ffffffffffffffffffffffffffffffffffffffff169060200190929190803590602001908201803590602001908080601f0160208091040260200160405190810160405280939291908181526020018383808284378201915050505050509192919290505050611a26565b604051808381526020018281526020019250505060405180910390f35b3480156105ce57600080fd5b506105ed60048036038101908080359060200190929190505050611a47565b005b3480156105fb57600080fd5b5061065a600480360381019080803573ffffffffffffffffffffffffffffffffffffffff169060200190929190803573ffffffffffffffffffffffffffffffffffffffff16906020019092919080359060200190929190505050611e1e565b604051808215151515815260200191505060405180910390f35b34801561068057600080fd5b5061068961214d565b604051808260ff1660ff16815260200191505060405180910390f35b3480156106b157600080fd5b506106ba612160565b6040518080602001806020018860ff1660ff1681526020018760ff1660ff1681526020018681526020018515151515815260200184815260200183810383528a818151815260200191508051906020019080838360005b8381101561072c578082015181840152602081019050610711565b50505050905090810190601f1680156107595780820380516001836020036101000a031916815260200191505b50838103825289818151815260200191508051906020019080838360005b83811015610792578082015181840152602081019050610777565b50505050905090810190601f1680156107bf5780820380516001836020036101000a031916815260200191505b50995050505050505050505060405180910390f35b3480156107e057600080fd5b506107ff600480360381019080803590602001909291905050506122e7565b005b34801561080d57600080fd5b5061081661233f565b6040518082815260200191505060405180910390f35b34801561083857600080fd5b506108fa6004803603810190808035906020019092919080359060200190929190803590602001908201803590602001908080601f0160208091040260200160405190810160405280939291908181526020018383808284378201915050505050509192919290803590602001908201803590602001908080601f0160208091040260200160405190810160405280939291908181526020018383808284378201915050505050509192919290803560ff16906020019092919050505061234c565b005b34801561090857600080fd5b506109316004803603810190808035906020019092919080359060200190929190505050612565565b005b6109a4600480360381019080803590602001908201803590602001908080601f0160208091040260200160405190810160405280939291908181526020018383808284378201915050505050509192919290803560ff16906020019092919080359060200190929190505050612886565b005b3480156109b257600080fd5b506109bb612bd0565b005b3480156109c957600080fd5b506109d2612d35565b604051808215151515815260200191505060405180910390f35b6109f4612d48565b005b348015610a0257600080fd5b50610a37600480360381019080803573ffffffffffffffffffffffffffffffffffffffff169060200190929190505050612ec9565b6040518082815260200191505060405180910390f35b348015610a5957600080fd5b50610a62612ee1565b6040518082815260200191505060405180910390f35b348015610a8457600080fd5b50610a8d612ee7565b005b348015610a9b57600080fd5b50610b16600480360381019080803573ffffffffffffffffffffffffffffffffffffffff169060200190929190803590602001908201803590602001908080601f0160208091040260200160405190810160405280939291908181526020018383808284378201915050505050509192919290505050613099565b6040518082815260200191505060405180910390f35b348015610b3857600080fd5b50610b4161327d565b604051808273ffffffffffffffffffffffffffffffffffffffff1673ffffffffffffffffffffffffffffffffffffffff16815260200191505060405180910390f35b348015610b8f57600080fd5b50610b986132a3565b6040518080602001828103825283818151815260200191508051906020019080838360005b83811015610bd8578082015181840152602081019050610bbd565b50505050905090810190601f168015610c055780820380516001836020036101000a031916815260200191505b509250505060405180910390f35b348015610c1f57600080fd5b50610c5e600480360381019080803573ffffffffffffffffffffffffffffffffffffffff16906020019092919080359060200190929190505050613341565b005b348015610c6c57600080fd5b50610c8b60048036038101908080359060200190929190505050613558565b005b348015610c9957600080fd5b50610d4460048036038101908080359060200190929190803590602001908201803590602001908080601f0160208091040260200160405190810160405280939291908181526020018383808284378201915050505050509192919290803590602001908201803590602001908080601f0160208091040260200160405190810160405280939291908181526020018383808284378201915050505050509192919290505050613564565b005b348015610d5257600080fd5b50610d7160048036038101908080359060200190929190505050613853565b6040518082815260200191505060405180910390f35b348015610d9357600080fd5b50610d9c613b5a565b604051808215151515815260200191505060405180910390f35b348015610dc257600080fd5b50610de160048036038101908080359060200190929190505050613b6d565b005b348015610def57600080fd5b50610df8613e6f565b6040518082815260200191505060405180910390f35b348015610e1a57600080fd5b50610ecf60048036038101908080359060200190929190803590602001908201803590602001908080601f0160208091040260200160405190810160405280939291908181526020018383808284378201915050505050509192919290803590602001908201803590602001908080601f016020809104026020016040519081016040528093929190818152602001838380828437820191505050505050919291929080359060200190929190505050613e7c565b005b348015610edd57600080fd5b50610ee6613f41565b005b348015610ef457600080fd5b50610f1360048036038101908080359060200190929190505050613fb6565b604051808873ffffffffffffffffffffffffffffffffffffffff1673ffffffffffffffffffffffffffffffffffffffff168152602001806020018060200180602001871515151581526020018681526020018573ffffffffffffffffffffffffffffffffffffffff1673ffffffffffffffffffffffffffffffffffffffff16815260200184810384528a818151815260200191508051906020019080838360005b83811015610fcf578082015181840152602081019050610fb4565b50505050905090810190601f168015610ffc5780820380516001836020036101000a031916815260200191505b50848103835289818151815260200191508051906020019080838360005b8381101561103557808201518184015260208101905061101a565b50505050905090810190601f1680156110625780820380516001836020036101000a031916815260200191505b50848103825288818151815260200191508051906020019080838360005b8381101561109b578082015181840152602081019050611080565b50505050905090810190601f1680156110c85780820380516001836020036101000a031916815260200191505b509a505050505050505050505060405180910390f35b3480156110ea57600080fd5b506111db60048036038101908080359060200190929190803590602001908201803590602001908080601f0160208091040260200160405190810160405280939291908181526020018383808284378201915050505050509192919290803590602001908201803590602001908080601f0160208091040260200160405190810160405280939291908181526020018383808284378201915050505050509192919290803590602001908201803590602001908080601f016020809104026020016040519081016040528093929190818152602001838380828437820191505050505050919291929050505061421c565b005b3480156111e957600080fd5b5061123e600480360381019080803573ffffffffffffffffffffffffffffffffffffffff169060200190929190803573ffffffffffffffffffffffffffffffffffffffff1690602001909291905050506143f2565b6040518082815260200191505060405180910390f35b34801561126057600080fd5b5061127f60048036038101908080359060200190929190505050614417565b604051808773ffffffffffffffffffffffffffffffffffffffff1673ffffffffffffffffffffffffffffffffffffffff1681526020018681526020018581526020018481526020018360ff1660ff168152602001828152602001965050505050505060405180910390f35b3480156112f657600080fd5b506113dd600480360381019080803590602001908201803590602001908080601f0160208091040260200160405190810160405280939291908181526020018383808284378201915050505050509192919290803590602001908201803590602001908080601f0160208091040260200160405190810160405280939291908181526020018383808284378201915050505050509192919290803590602001908201803590602001908080601f016020809104026020016040519081016040528093929190818152602001838380828437820191505050505050919291929050505061448f565b005b3480156113eb57600080fd5b50611414600480360381019080803590602001909291908035906020019092919050505061480a565b005b34801561142257600080fd5b50611461600480360381019080803573ffffffffffffffffffffffffffffffffffffffff16906020019092919080359060200190929190505050614b1f565b005b61146d6003614d1c565b6114776000613558565b60636011600081548110151561148957fe5b906000526020600020906006020160040160009054906101000a900460ff1660ff161415156114b457fe5b6000600b60020160009054906101000a900460ff1660ff161415156114d557fe5b6002600b60020160019054906101000a900460ff1660ff161415156114f657fe5b565b60028054600181600116156101000203166002900480601f01602080910402602001604051908101604052809291908181526020018280546001816001161561010002031660029004801561158e5780601f106115635761010080835404028352916020019161158e565b820191906000526020600020905b81548152906001019060200180831161157157829003601f168201915b505050505081565b6000600760009054906101000a900460ff16151561161c576040517f08c379a000000000000000000000000000000000000000000000000000000000815260040180806020018281038252600f8152602001807f4e6f7420696e697469616c697a6564000000000000000000000000000000000081525060200191505060405180910390fd5b81600960003373ffffffffffffffffffffffffffffffffffffffff1673ffffffffffffffffffffffffffffffffffffffff16815260200190815260200160002060008573ffffffffffffffffffffffffffffffffffffffff1673ffffffffffffffffffffffffffffffffffffffff168152602001908152602001600020819055508273ffffffffffffffffffffffffffffffffffffffff163373ffffffffffffffffffffffffffffffffffffffff167f8c5be1e5ebec7d5bd14f71427d1e84f3dd0314c0f7b2291e5b200ac8c7c3b925846040518082815260200191505060405180910390a36001905092915050565b600160009054906101000a900473ffffffffffffffffffffffffffffffffffffffff1673ffffffffffffffffffffffffffffffffffffffff163373ffffffffffffffffffffffffffffffffffffffff161415156117d1576040517f08c379a00000000000000000000000000000000000000000000000000000000081526004018080602001828103825260098152602001807f4e6f74206f776e6572000000000000000000000000000000000000000000000081525060200191505060405180910390fd5b80600160006101000a81548173ffffffffffffffffffffffffffffffffffffffff021916908373ffffffffffffffffffffffffffffffffffffffff16021790555050565b6000602052806000526040600020600091509050806000018054600181600116156101000203166002900480601f0160208091040260200160405190810160405280929190818152602001828054600181600116156101000203166002900480156118c15780601f10611896576101008083540402835291602001916118c1565b820191906000526020600020905b8154815290600101906020018083116118a457829003601f168201915b505050505090806001018054600181600116156101000203166002900480601f01602080910402602001604051908101604052809291908181526020018280546001816001161561010002031660029004801561195f5780601f106119345761010080835404028352916020019161195f565b820191906000526020600020905b81548152906001019060200180831161194257829003601f168201915b505050505090806002018054600181600116156101000203166002900480601f0160208091040260200160405190810160405280929190818152602001828054600181600116156101000203166002900480156119fd5780601f106119d2576101008083540402835291602001916119fd565b820191906000526020600020905b8154815290600101906020018083116119e057829003601f168201915b5050505050908060030154908060040160009054906101000a900460ff16905085565b60055481565b600080611a338484613099565b9150611a3e82613853565b90509250929050565b600160009054906101000a900473ffffffffffffffffffffffffffffffffffffffff1673ffffffffffffffffffffffffffffffffffffffff163373ffffffffffffffffffffffffffffffffffffffff16141515611b0c576040517f08c379a00000000000000000000000000000000000000000000000000000000081526004018080602001828103825260098152602001807f4e6f74206f776e6572000000000000000000000000000000000000000000000081525060200191505060405180910390fd5b8060118054905081101515611b89576040517f08c379a00000000000000000000000000000000000000000000000000000000081526004018080602001828103825260108152602001807f496e76616c696420706c6179657249640000000000000000000000000000000081525060200191505060405180910390fd5b601260009054906101000a900460ff161515611c0d576040517f08c379a00000000000000000000000000000000000000000000000000000000081526004018080602001828103825260148152602001807f5461736b206e6f7420696e697469616c697a656400000000000000000000000081525060200191505060405180910390fd5b6003601183815481101515611c1e57fe5b906000526020600020906006020160040160009054906101000a900460ff1660ff16141515611cb5576040517f08c379a000000000000000000000000000000000000000000000000000000000815260040180806020018281038252600e8152602001807f496e76616c69642073746174757300000000000000000000000000000000000081525060200191505060405180910390fd5b6004601183815481101515611cc657fe5b906000526020600020906006020160040160006101000a81548160ff021916908360ff1602179055506001600b60020160008282829054906101000a900460ff160392506101000a81548160ff021916908360ff1602179055506001600b60020160018282829054906101000a900460ff160392506101000a81548160ff021916908360ff160217905550601182815481101515611d6057fe5b906000526020600020906006020160000160009054906101000a900473ffffffffffffffffffffffffffffffffffffffff1673ffffffffffffffffffffffffffffffffffffffff166108fc600b600301549081150290604051600060405180830381858888f19350505050158015611ddc573d6000803e3d6000fd5b50600b60020160019054906101000a900460ff1660ff1660001415611e1a576001600b60040160006101000a81548160ff0219169083151502179055505b5050565b6000600760009054906101000a900460ff161515611ea4576040517f08c379a000000000000000000000000000000000000000000000000000000000815260040180806020018281038252600f8152602001807f4e6f7420696e697469616c697a6564000000000000000000000000000000000081525060200191505060405180910390fd5b611ef682600860008773ffffffffffffffffffffffffffffffffffffffff1673ffffffffffffffffffffffffffffffffffffffff1681526020019081526020016000205461592890919063ffffffff16565b600860008673ffffffffffffffffffffffffffffffffffffffff1673ffffffffffffffffffffffffffffffffffffffff16815260200190815260200160002081905550611fc882600960008773ffffffffffffffffffffffffffffffffffffffff1673ffffffffffffffffffffffffffffffffffffffff16815260200190815260200160002060003373ffffffffffffffffffffffffffffffffffffffff1673ffffffffffffffffffffffffffffffffffffffff1681526020019081526020016000205461592890919063ffffffff16565b600960008673ffffffffffffffffffffffffffffffffffffffff1673ffffffffffffffffffffffffffffffffffffffff16815260200190815260200160002060003373ffffffffffffffffffffffffffffffffffffffff1673ffffffffffffffffffffffffffffffffffffffff1681526020019081526020016000208190555061209a82600860008673ffffffffffffffffffffffffffffffffffffffff1673ffffffffffffffffffffffffffffffffffffffff1681526020019081526020016000205461594990919063ffffffff16565b600860008573ffffffffffffffffffffffffffffffffffffffff1673ffffffffffffffffffffffffffffffffffffffff168152602001908152602001600020819055508273ffffffffffffffffffffffffffffffffffffffff168473ffffffffffffffffffffffffffffffffffffffff167fddf252ad1be2c89b69c2b068fc378daa952ba7f163c4a11628f55a4df523b3ef846040518082815260200191505060405180910390a3600190509392505050565b600460009054906101000a900460ff1681565b600b806000018054600181600116156101000203166002900480601f0160208091040260200160405190810160405280929190818152602001828054600181600116156101000203166002900480156121fa5780601f106121cf576101008083540402835291602001916121fa565b820191906000526020600020905b8154815290600101906020018083116121dd57829003601f168201915b505050505090806001018054600181600116156101000203166002900480601f0160208091040260200160405190810160405280929190818152602001828054600181600116156101000203166002900480156122985780601f1061226d57610100808354040283529160200191612298565b820191906000526020600020905b81548152906001019060200180831161227b57829003601f168201915b5050505050908060020160009054906101000a900460ff16908060020160019054906101000a900460ff16908060030154908060040160009054906101000a900460ff16908060050154905087565b6122f081611a47565b61233c60118281548110151561230257fe5b906000526020600020906006020160000160009054906101000a900473ffffffffffffffffffffffffffffffffffffffff16600654614b1f565b50565b6000600a80549050905090565b600160009054906101000a900473ffffffffffffffffffffffffffffffffffffffff1673ffffffffffffffffffffffffffffffffffffffff163373ffffffffffffffffffffffffffffffffffffffff16141515612411576040517f08c379a00000000000000000000000000000000000000000000000000000000081526004018080602001828103825260098152602001807f4e6f74206f776e6572000000000000000000000000000000000000000000000081525060200191505060405180910390fd5b600760009054906101000a900460ff16151515612496576040517f08c379a00000000000000000000000000000000000000000000000000000000081526004018080602001828103825260118152602001807f546f6b656e20696e697469616c697a656400000000000000000000000000000081525060200191505060405180910390fd5b846005819055506124b0848661592890919063ffffffff16565b600860003373ffffffffffffffffffffffffffffffffffffffff1673ffffffffffffffffffffffffffffffffffffffff168152602001908152602001600020819055508360068190555082600290805190602001906125109291906159a8565b5081600390805190602001906125279291906159a8565b5080600460006101000a81548160ff021916908360ff1602179055506001600760006101000a81548160ff0219169083151502179055505050505050565b600160009054906101000a900473ffffffffffffffffffffffffffffffffffffffff1673ffffffffffffffffffffffffffffffffffffffff163373ffffffffffffffffffffffffffffffffffffffff1614151561262a576040517f08c379a00000000000000000000000000000000000000000000000000000000081526004018080602001828103825260098152602001807f4e6f74206f776e6572000000000000000000000000000000000000000000000081525060200191505060405180910390fd5b81601180549050811015156126a7576040517f08c379a00000000000000000000000000000000000000000000000000000000081526004018080602001828103825260108152602001807f496e76616c696420706c6179657249640000000000000000000000000000000081525060200191505060405180910390fd5b601260009054906101000a900460ff16151561272b576040517f08c379a00000000000000000000000000000000000000000000000000000000081526004018080602001828103825260148152602001807f5461736b206e6f7420696e697469616c697a656400000000000000000000000081525060200191505060405180910390fd5b600b60020160019054906101000a900460ff1660ff16600b60020160009054906101000a900460ff1660ff161015156127cc576040517f08c379a00000000000000000000000000000000000000000000000000000000081526004018080602001828103825260138152602001807f4d617820706c617965727320726561636865640000000000000000000000000081525060200191505060405180910390fd5b816011848154811015156127dc57fe5b906000526020600020906006020160020181905550600260118481548110151561280257fe5b906000526020600020906006020160040160006101000a81548160ff021916908360ff1602179055504260118481548110151561283b57fe5b9060005260206000209060060201600501819055506001600b60020160008282829054906101000a900460ff160192506101000a81548160ff021916908360ff160217905550505050565b600160009054906101000a900473ffffffffffffffffffffffffffffffffffffffff1673ffffffffffffffffffffffffffffffffffffffff163373ffffffffffffffffffffffffffffffffffffffff1614151561294b576040517f08c379a00000000000000000000000000000000000000000000000000000000081526004018080602001828103825260098152602001807f4e6f74206f776e6572000000000000000000000000000000000000000000000081525060200191505060405180910390fd5b601260009054906101000a900460ff161515156129d0576040517f08c379a00000000000000000000000000000000000000000000000000000000081526004018080602001828103825260108152602001807f5461736b20696e697469616c697a65640000000000000000000000000000000081525060200191505060405180910390fd5b60008260ff16111515612a4b576040517f08c379a000000000000000000000000000000000000000000000000000000000815260040180806020018281038252600f8152602001807f506c61796572206d757374203e2030000000000000000000000000000000000081525060200191505060405180910390fd5b612a618260ff168261596a90919063ffffffff16565b3410151515612ad8576040517f08c379a000000000000000000000000000000000000000000000000000000000815260040180806020018281038252600e8152602001807f4e6f7420656e6f7567682045544800000000000000000000000000000000000081525060200191505060405180910390fd5b6040805190810160405280600e81526020017f414920436f6d7075746174696f6e000000000000000000000000000000000000815250600b6000019080519060200190612b269291906159a8565b5082600b6001019080519060200190612b409291906159a8565b506000600b60020160006101000a81548160ff021916908360ff16021790555081600b60020160016101000a81548160ff021916908360ff16021790555080600b600301819055506000600b60040160006101000a81548160ff02191690831515021790555042600b600501819055506001601260006101000a81548160ff021916908315150217905550505050565b606080606060405190810160405280603481526020017f68747470733a2f2f64726976652e676f6f676c652e636f6d2f6f70656e3f696481526020017f3d36373839305f6f70717273742d55565758595a00000000000000000000000081525091506040805190810160405280601d81526020017f32646231323061303431363437626136363039393065363836323463640000008152509050612c746002614d1c565b612c89600083836706f05b59d3b20000613e7c565b6706f05b59d3b2000060116000815481101515612ca257fe5b906000526020600020906006020160030154141515612cbd57fe5b600360116000815481101515612ccf57fe5b906000526020600020906006020160040160009054906101000a900460ff1660ff16141515612cfa57fe5b600a6001815481101515612d0a57fe5b906000526020600020906007020160040160009054906101000a900460ff161515612d3157fe5b5050565b600760009054906101000a900460ff1681565b600066b1a2bc2ec500003410151515612dc9576040517f08c379a000000000000000000000000000000000000000000000000000000000815260040180806020018281038252600f8152602001807f302e303520455448206e6565646564000000000000000000000000000000000081525060200191505060405180910390fd5b73f5b475fc347c4ba87e863f0b5269db08af18f2489050612dea6003614d1c565b612df460006122e7565b600460116000815481101515612e0657fe5b906000526020600020906006020160040160009054906101000a900460ff1660ff16141515612e3157fe5b6000600b60020160009054906101000a900460ff1660ff16141515612e5257fe5b6001600b60020160019054906101000a900460ff1660ff16141515612e7357fe5b681b1ae4d6e2ef500000600860008373ffffffffffffffffffffffffffffffffffffffff1673ffffffffffffffffffffffffffffffffffffffff16815260200190815260200160002054141515612ec657fe5b50565b60086020528060005260406000206000915090505481565b60065481565b60608060606040805190810160405280601d81526020017f30326234323030366663646634343339353165646632363230383161330000008152509250606060405190810160405280603381526020017f68747470733a2f2f64726976652e676f6f676c652e636f6d2f6f70656e3f696481526020017f3d31323334355f616263646566672d48494a4b0000000000000000000000000081525091506040805190810160405280602081526020017f63386531663038393435656235353230383934376362316337366439313165648152509050612fc56001614d1c565b612fd2600084848461421c565b6001600b60020160009054906101000a900460ff1660ff16141515612ff357fe5b60016011600081548110151561300557fe5b90600052602060002090600602016002015414151561302057fe5b60026011600081548110151561303257fe5b906000526020600020906006020160040160009054906101000a900460ff1660ff1614151561305d57fe5b600a600081548110151561306d57fe5b906000526020600020906007020160040160009054906101000a900460ff16151561309457fe5b505050565b60008082511115156130aa57600080fd5b600a60e0604051908101604052803373ffffffffffffffffffffffffffffffffffffffff16815260200184815260200160206040519081016040528060008152508152602001602060405190810160405280600081525081526020016000151581526020014281526020018573ffffffffffffffffffffffffffffffffffffffff168152509080600181540180825580915050906001820390600052602060002090600702016000909192909190915060008201518160000160006101000a81548173ffffffffffffffffffffffffffffffffffffffff021916908373ffffffffffffffffffffffffffffffffffffffff16021790555060208201518160010190805190602001906131bd929190615a28565b5060408201518160020190805190602001906131da929190615a28565b5060608201518160030190805190602001906131f7929190615a28565b5060808201518160040160006101000a81548160ff02191690831515021790555060a0820151816005015560c08201518160060160006101000a81548173ffffffffffffffffffffffffffffffffffffffff021916908373ffffffffffffffffffffffffffffffffffffffff1602179055505050506001600a8054905003905092915050565b600160009054906101000a900473ffffffffffffffffffffffffffffffffffffffff1681565b60038054600181600116156101000203166002900480601f0160208091040260200160405190810160405280929190818152602001828054600181600116156101000203166002900480156133395780601f1061330e57610100808354040283529160200191613339565b820191906000526020600020905b81548152906001019060200180831161331c57829003601f168201915b505050505081565b600760009054906101000a900460ff1615156133c5576040517f08c379a000000000000000000000000000000000000000000000000000000000815260040180806020018281038252600f8152602001807f4e6f7420696e697469616c697a6564000000000000000000000000000000000081525060200191505060405180910390fd5b61341781600860003373ffffffffffffffffffffffffffffffffffffffff1673ffffffffffffffffffffffffffffffffffffffff1681526020019081526020016000205461592890919063ffffffff16565b600860003373ffffffffffffffffffffffffffffffffffffffff1673ffffffffffffffffffffffffffffffffffffffff168152602001908152602001600020819055506134ac81600860008573ffffffffffffffffffffffffffffffffffffffff1673ffffffffffffffffffffffffffffffffffffffff1681526020019081526020016000205461594990919063ffffffff16565b600860008473ffffffffffffffffffffffffffffffffffffffff1673ffffffffffffffffffffffffffffffffffffffff168152602001908152602001600020819055508173ffffffffffffffffffffffffffffffffffffffff163373ffffffffffffffffffffffffffffffffffffffff167fddf252ad1be2c89b69c2b068fc378daa952ba7f163c4a11628f55a4df523b3ef836040518082815260200191505060405180910390a35050565b61356181613b6d565b50565b600a80549050831015156135e0576040517f08c379a000000000000000000000000000000000000000000000000000000000815260040180806020018281038252600d8152602001807f496e76616c696420696e6465780000000000000000000000000000000000000081525060200191505060405180910390fd5b600a838154811015156135ef57fe5b906000526020600020906007020160040160009054906101000a900460ff16151515613683576040517f08c379a00000000000000000000000000000000000000000000000000000000081526004018080602001828103825260108152602001807f5265717565737420617070726f7665640000000000000000000000000000000081525060200191505060405180910390fd5b600a8381548110151561369257fe5b906000526020600020906007020160060160009054906101000a900473ffffffffffffffffffffffffffffffffffffffff1673ffffffffffffffffffffffffffffffffffffffff163373ffffffffffffffffffffffffffffffffffffffff16141515613766576040517f08c379a000000000000000000000000000000000000000000000000000000000815260040180806020018281038252600e8152602001807f4e6f742064617461206f776e657200000000000000000000000000000000000081525060200191505060405180910390fd5b6000825111151561377657600080fd5b6000815111151561378657600080fd5b81600a8481548110151561379657fe5b906000526020600020906007020160020190805190602001906137ba9291906159a8565b5080600a848154811015156137cb57fe5b906000526020600020906007020160030190805190602001906137ef9291906159a8565b506001600a8481548110151561380157fe5b906000526020600020906007020160040160006101000a81548160ff02191690831515021790555042600a8481548110151561383957fe5b906000526020600020906007020160050181905550505050565b6000601260009054906101000a900460ff1615156138d9576040517f08c379a00000000000000000000000000000000000000000000000000000000081526004018080602001828103825260148152602001807f5461736b206e6f7420696e697469616c697a656400000000000000000000000081525060200191505060405180910390fd5b600160009054906101000a900473ffffffffffffffffffffffffffffffffffffffff1673ffffffffffffffffffffffffffffffffffffffff163373ffffffffffffffffffffffffffffffffffffffff161415151561399f576040517f08c379a000000000000000000000000000000000000000000000000000000000815260040180806020018281038252600f8152602001807f4f776e657220697320706c61796572000000000000000000000000000000000081525060200191505060405180910390fd5b600b60020160019054906101000a900460ff1660ff16600b60020160009054906101000a900460ff1660ff16101515613a40576040517f08c379a00000000000000000000000000000000000000000000000000000000081526004018080602001828103825260138152602001807f4d617820706c617965727320726561636865640000000000000000000000000081525060200191505060405180910390fd5b601160c0604051908101604052803373ffffffffffffffffffffffffffffffffffffffff1681526020018481526020016000815260200160008152602001600160ff168152602001428152509080600181540180825580915050906001820390600052602060002090600602016000909192909190915060008201518160000160006101000a81548173ffffffffffffffffffffffffffffffffffffffff021916908373ffffffffffffffffffffffffffffffffffffffff16021790555060208201518160010155604082015181600201556060820151816003015560808201518160040160006101000a81548160ff021916908360ff16021790555060a082015181600501555050506001601180549050039050919050565b601260009054906101000a900460ff1681565b600160009054906101000a900473ffffffffffffffffffffffffffffffffffffffff1673ffffffffffffffffffffffffffffffffffffffff163373ffffffffffffffffffffffffffffffffffffffff16141515613c32576040517f08c379a00000000000000000000000000000000000000000000000000000000081526004018080602001828103825260098152602001807f4e6f74206f776e6572000000000000000000000000000000000000000000000081525060200191505060405180910390fd5b8060118054905081101515613caf576040517f08c379a00000000000000000000000000000000000000000000000000000000081526004018080602001828103825260108152602001807f496e76616c696420706c6179657249640000000000000000000000000000000081525060200191505060405180910390fd5b601260009054906101000a900460ff161515613d33576040517f08c379a00000000000000000000000000000000000000000000000000000000081526004018080602001828103825260148152602001807f5461736b206e6f7420696e697469616c697a656400000000000000000000000081525060200191505060405180910390fd5b6003601183815481101515613d4457fe5b906000526020600020906006020160040160009054906101000a900460ff1660ff16141515613ddb576040517f08c379a000000000000000000000000000000000000000000000000000000000815260040180806020018281038252600e8152602001807f496e76616c69642073746174757300000000000000000000000000000000000081525060200191505060405180910390fd5b6063601183815481101515613dec57fe5b906000526020600020906006020160040160006101000a81548160ff021916908360ff16021790555042601183815481101515613e2557fe5b9060005260206000209060060201600501819055506001600b60020160008282829054906101000a900460ff160392506101000a81548160ff021916908360ff1602179055505050565b6000601180549050905090565b6000601260009054906101000a900460ff161515613f02576040517f08c379a00000000000000000000000000000000000000000000000000000000081526004018080602001828103825260148152602001807f5461736b206e6f7420696e697469616c697a656400000000000000000000000081525060200191505060405180910390fd5b601185815481101515613f1157fe5b9060005260206000209060060201600201549050613f30818585613564565b613f3a858361480a565b5050505050565b60606040805190810160405280602081526020017f30336335373235366563326661663834383238323837373130646665613234658152509050613f856000614d1c565b613fb1600160009054906101000a900473ffffffffffffffffffffffffffffffffffffffff1682611a26565b505050565b600a81815481101515613fc557fe5b90600052602060002090600702016000915090508060000160009054906101000a900473ffffffffffffffffffffffffffffffffffffffff1690806001018054600181600116156101000203166002900480601f0160208091040260200160405190810160405280929190818152602001828054600181600116156101000203166002900480156140975780601f1061406c57610100808354040283529160200191614097565b820191906000526020600020905b81548152906001019060200180831161407a57829003601f168201915b505050505090806002018054600181600116156101000203166002900480601f0160208091040260200160405190810160405280929190818152602001828054600181600116156101000203166002900480156141355780601f1061410a57610100808354040283529160200191614135565b820191906000526020600020905b81548152906001019060200180831161411857829003601f168201915b505050505090806003018054600181600116156101000203166002900480601f0160208091040260200160405190810160405280929190818152602001828054600181600116156101000203166002900480156141d35780601f106141a8576101008083540402835291602001916141d3565b820191906000526020600020905b8154815290600101906020018083116141b657829003601f168201915b5050505050908060040160009054906101000a900460ff16908060050154908060060160009054906101000a900473ffffffffffffffffffffffffffffffffffffffff16905087565b6000600160009054906101000a900473ffffffffffffffffffffffffffffffffffffffff1673ffffffffffffffffffffffffffffffffffffffff163373ffffffffffffffffffffffffffffffffffffffff161415156142e3576040517f08c379a00000000000000000000000000000000000000000000000000000000081526004018080602001828103825260098152602001807f4e6f74206f776e6572000000000000000000000000000000000000000000000081525060200191505060405180910390fd5b601260009054906101000a900460ff161515614367576040517f08c379a00000000000000000000000000000000000000000000000000000000081526004018080602001828103825260148152602001807f5461736b206e6f7420696e697469616c697a656400000000000000000000000081525060200191505060405180910390fd5b60118581548110151561437657fe5b9060005260206000209060060201600101549050614395818484613564565b6143df6011868154811015156143a757fe5b906000526020600020906006020160000160009054906101000a900473ffffffffffffffffffffffffffffffffffffffff1685613099565b90506143eb8582612565565b5050505050565b6009602052816000526040600020602052806000526040600020600091509150505481565b60118181548110151561442657fe5b90600052602060002090600602016000915090508060000160009054906101000a900473ffffffffffffffffffffffffffffffffffffffff16908060010154908060020154908060030154908060040160009054906101000a900460ff16908060050154905086565b6000803373ffffffffffffffffffffffffffffffffffffffff1673ffffffffffffffffffffffffffffffffffffffff16815260200190815260200160002060040160009054906101000a900460ff16151515614553576040517f08c379a000000000000000000000000000000000000000000000000000000000815260040180806020018281038252600b8152602001807f46696c65207369676e656400000000000000000000000000000000000000000081525060200191505060405180910390fd5b6000835111151561456357600080fd5b6000825111151561457357600080fd5b6000815111151561458357600080fd5b60a060405190810160405280848152602001838152602001828152602001428152602001600115158152506000803373ffffffffffffffffffffffffffffffffffffffff1673ffffffffffffffffffffffffffffffffffffffff1681526020019081526020016000206000820151816000019080519060200190614608929190615a28565b506020820151816001019080519060200190614625929190615a28565b506040820151816002019080519060200190614642929190615a28565b506060820151816003015560808201518160040160006101000a81548160ff0219169083151502179055509050503373ffffffffffffffffffffffffffffffffffffffff167ffc1b6bdf5e8cb6fb293ae1be4b0fc5a2f6ff21f2a9565ff5c816e91d13bba78f8484844260405180806020018060200180602001858152602001848103845288818151815260200191508051906020019080838360005b838110156146fa5780820151818401526020810190506146df565b50505050905090810190601f1680156147275780820380516001836020036101000a031916815260200191505b50848103835287818151815260200191508051906020019080838360005b83811015614760578082015181840152602081019050614745565b50505050905090810190601f16801561478d5780820380516001836020036101000a031916815260200191505b50848103825286818151815260200191508051906020019080838360005b838110156147c65780820151818401526020810190506147ab565b50505050905090810190601f1680156147f35780820380516001836020036101000a031916815260200191505b5097505050505050505060405180910390a2505050565b8160118054905081101515614887576040517f08c379a00000000000000000000000000000000000000000000000000000000081526004018080602001828103825260108152602001807f496e76616c696420706c6179657249640000000000000000000000000000000081525060200191505060405180910390fd5b601260009054906101000a900460ff16151561490b576040517f08c379a00000000000000000000000000000000000000000000000000000000081526004018080602001828103825260148152602001807f5461736b206e6f7420696e697469616c697a656400000000000000000000000081525060200191505060405180910390fd5b60118381548110151561491a57fe5b906000526020600020906006020160000160009054906101000a900473ffffffffffffffffffffffffffffffffffffffff1673ffffffffffffffffffffffffffffffffffffffff163373ffffffffffffffffffffffffffffffffffffffff161415156149ee576040517f08c379a00000000000000000000000000000000000000000000000000000000081526004018080602001828103825260118152602001807f4e6f74206f726967696e20706c6179657200000000000000000000000000000081525060200191505060405180910390fd5b60026011848154811015156149ff57fe5b906000526020600020906006020160040160009054906101000a900460ff1660ff16141515614a96576040517f08c379a000000000000000000000000000000000000000000000000000000000815260040180806020018281038252600e8152602001807f496e76616c69642073746174757300000000000000000000000000000000000081525060200191505060405180910390fd5b81601184815481101515614aa657fe5b9060005260206000209060060201600301819055506003601184815481101515614acc57fe5b906000526020600020906006020160040160006101000a81548160ff021916908360ff16021790555042601184815481101515614b0557fe5b906000526020600020906006020160050181905550505050565b600160009054906101000a900473ffffffffffffffffffffffffffffffffffffffff1673ffffffffffffffffffffffffffffffffffffffff163373ffffffffffffffffffffffffffffffffffffffff16141515614be4576040517f08c379a00000000000000000000000000000000000000000000000000000000081526004018080602001828103825260098152602001807f4e6f74206f776e6572000000000000000000000000000000000000000000000081525060200191505060405180910390fd5b600760009054906101000a900460ff161515614c68576040517f08c379a000000000000000000000000000000000000000000000000000000000815260040180806020018281038252600f8152602001807f4e6f7420696e697469616c697a6564000000000000000000000000000000000081525060200191505060405180910390fd5b614c7d8160065461592890919063ffffffff16565b600681905550614cd581600860008573ffffffffffffffffffffffffffffffffffffffff1673ffffffffffffffffffffffffffffffffffffffff1681526020019081526020016000205461594990919063ffffffff16565b600860008473ffffffffffffffffffffffffffffffffffffffff1673ffffffffffffffffffffffffffffffffffffffff168152602001908152602001600020819055505050565b600060608060608060608060008860ff1610158015614d3e575060048860ff16105b1515614d4957600080fd5b73f5b475fc347c4ba87e863f0b5269db08af18f24896506040805190810160405280600a81526020017f414920436f6d7075746500000000000000000000000000000000000000000000815250600b6000019080519060200190614dae9291906159a8565b506040805190810160405280600581526020017f41444d4554000000000000000000000000000000000000000000000000000000815250600b6001019080519060200190614dfd9291906159a8565b506000600b60020160006101000a81548160ff021916908360ff1602179055506002600b60020160016101000a81548160ff021916908360ff16021790555066b1a2bc2ec50000600b600301819055506000600b60040160006101000a81548160ff021916908315150217905550635b9eecfc600b600501819055506001601260006101000a81548160ff02191690831515021790555060008860ff161480614ea9575060028860ff16145b15614ef75786600160006101000a81548173ffffffffffffffffffffffffffffffffffffffff021916908373ffffffffffffffffffffffffffffffffffffffff160217905550339650614f39565b33600160006101000a81548173ffffffffffffffffffffffffffffffffffffffff021916908373ffffffffffffffffffffffffffffffffffffffff1602179055505b60008860ff161115615295576040805190810160405280602081526020017f303363353732353665633266616638343832383238373731306466656132346581525095506000601181614f8c9190615aa8565b506000600a81614f9c9190615ada565b50601160c0604051908101604052808973ffffffffffffffffffffffffffffffffffffffff168152602001600081526020016000815260200160008152602001600160ff168152602001635b9eee498152509080600181540180825580915050906001820390600052602060002090600602016000909192909190915060008201518160000160006101000a81548173ffffffffffffffffffffffffffffffffffffffff021916908373ffffffffffffffffffffffffffffffffffffffff16021790555060208201518160010155604082015181600201556060820151816003015560808201518160040160006101000a81548160ff021916908360ff16021790555060a08201518160050155505050600a60e0604051908101604052808973ffffffffffffffffffffffffffffffffffffffff1681526020018881526020016020604051908101604052806000815250815260200160206040519081016040528060008152508152602001600015158152602001635b9eee498152602001600160009054906101000a900473ffffffffffffffffffffffffffffffffffffffff1673ffffffffffffffffffffffffffffffffffffffff168152509080600181540180825580915050906001820390600052602060002090600702016000909192909190915060008201518160000160006101000a81548173ffffffffffffffffffffffffffffffffffffffff021916908373ffffffffffffffffffffffffffffffffffffffff16021790555060208201518160010190805190602001906151e5929190615a28565b506040820151816002019080519060200190615202929190615a28565b50606082015181600301908051906020019061521f929190615a28565b5060808201518160040160006101000a81548160ff02191690831515021790555060a0820151816005015560c08201518160060160006101000a81548173ffffffffffffffffffffffffffffffffffffffff021916908373ffffffffffffffffffffffffffffffffffffffff1602179055505050505b60018860ff16111561568057606060405190810160405280603381526020017f68747470733a2f2f64726976652e676f6f676c652e636f6d2f6f70656e3f696481526020017f3d31323334355f616263646566672d48494a4b0000000000000000000000000081525094506040805190810160405280602081526020017f633865316630383934356562353532303839343763623163373664393131656481525093506040805190810160405280601d81526020017f3032623432303036666364663434333935316564663236323038316133000000815250925060016011600081548110151561538257fe5b9060005260206000209060060201600201819055506002601160008154811015156153a957fe5b906000526020600020906006020160040160006101000a81548160ff021916908360ff1602179055506001600b60020160006101000a81548160ff021916908360ff16021790555084600a600081548110151561540257fe5b906000526020600020906007020160020190805190602001906154269291906159a8565b5083600a600081548110151561543857fe5b9060005260206000209060070201600301908051906020019061545c9291906159a8565b506001600a600081548110151561546f57fe5b906000526020600020906007020160040160006101000a81548160ff021916908315150217905550600a60e060405190810160405280600160009054906101000a900473ffffffffffffffffffffffffffffffffffffffff1673ffffffffffffffffffffffffffffffffffffffff1681526020018581526020016020604051908101604052806000815250815260200160206040519081016040528060008152508152602001600015158152602001635b9eeed081526020018973ffffffffffffffffffffffffffffffffffffffff168152509080600181540180825580915050906001820390600052602060002090600702016000909192909190915060008201518160000160006101000a81548173ffffffffffffffffffffffffffffffffffffffff021916908373ffffffffffffffffffffffffffffffffffffffff16021790555060208201518160010190805190602001906155d0929190615a28565b5060408201518160020190805190602001906155ed929190615a28565b50606082015181600301908051906020019061560a929190615a28565b5060808201518160040160006101000a81548160ff02191690831515021790555060a0820151816005015560c08201518160060160006101000a81548173ffffffffffffffffffffffffffffffffffffffff021916908373ffffffffffffffffffffffffffffffffffffffff1602179055505050505b60028860ff16111561591e57606060405190810160405280603481526020017f68747470733a2f2f64726976652e676f6f676c652e636f6d2f6f70656e3f696481526020017f3d36373839305f6f70717273742d55565758595a00000000000000000000000081525091506040805190810160405280601d81526020017f326462313230613034313634376261363630393930653638363234636400000081525090506000600760006101000a81548160ff0219169083151502179055506000600860008973ffffffffffffffffffffffffffffffffffffffff1673ffffffffffffffffffffffffffffffffffffffff1681526020019081526020016000208190555061580e69021e19e0c9bab2400000681b1ae4d6e2ef5000006040805190810160405280600a81526020017f4c6f79616c546f6b656e000000000000000000000000000000000000000000008152506040805190810160405280600281526020017f4c54000000000000000000000000000000000000000000000000000000000000815250601261234c565b6706f05b59d3b200006011600081548110151561582757fe5b90600052602060002090600602016003018190555060036011600081548110151561584e57fe5b906000526020600020906006020160040160006101000a81548160ff021916908360ff16021790555081600a600181548110151561588857fe5b906000526020600020906007020160020190805190602001906158ac9291906159a8565b5080600a60018154811015156158be57fe5b906000526020600020906007020160030190805190602001906158e29291906159a8565b506001600a60018154811015156158f557fe5b906000526020600020906007020160040160006101000a81548160ff0219169083151502179055505b5050505050505050565b60008083831115151561593a57600080fd5b82840390508091505092915050565b600080828401905083811015151561596057600080fd5b8091505092915050565b600080600084141561597f57600091506159a1565b828402905082848281151561599057fe5b0414151561599d57600080fd5b8091505b5092915050565b828054600181600116156101000203166002900490600052602060002090601f016020900481019282601f106159e957805160ff1916838001178555615a17565b82800160010185558215615a17579182015b82811115615a165782518255916020019190600101906159fb565b5b509050615a249190615b0c565b5090565b828054600181600116156101000203166002900490600052602060002090601f016020900481019282601f10615a6957805160ff1916838001178555615a97565b82800160010185558215615a97579182015b82811115615a96578251825591602001919060010190615a7b565b5b509050615aa49190615b0c565b5090565b815481835581811115615ad557600602816006028360005260206000209182019101615ad49190615b31565b5b505050565b815481835581811115615b0757600702816007028360005260206000209182019101615b069190615bab565b5b505050565b615b2e91905b80821115615b2a576000816000905550600101615b12565b5090565b90565b615ba891905b80821115615ba457600080820160006101000a81549073ffffffffffffffffffffffffffffffffffffffff02191690556001820160009055600282016000905560038201600090556004820160006101000a81549060ff0219169055600582016000905550600601615b37565b5090565b90565b615c6191905b80821115615c5d57600080820160006101000a81549073ffffffffffffffffffffffffffffffffffffffff0219169055600182016000615bf19190615c64565b600282016000615c019190615c64565b600382016000615c119190615c64565b6004820160006101000a81549060ff021916905560058201600090556006820160006101000a81549073ffffffffffffffffffffffffffffffffffffffff021916905550600701615bb1565b5090565b90565b50805460018160011615610100020316600290046000825580601f10615c8a5750615ca9565b601f016020900490600052602060002090810190615ca89190615b0c565b5b505600a165627a7a723058202e7b608f2347fea472c0c14e4e3beaef6068746e319fbaf55dd2b7407d0209850029",
  "source": "/* For HealthChainHack, Sep 2018\n * Author: Xinghua Liang\n * Copyright: BlockTEST LLC\n */\npragma solidity ^0.4.24;\n\nimport \"./DrugTask.sol\";\n\ncontract TestDrugTask is DrugTask {\n    /* Notice:\n     * Due to contract size limit of 2KB (see EIP-170),\n     * only part of encryptCode and dataHash values are used in the unit test */\n\n    function testInitiateTaskStatus(uint8 status) private {\n        require(status >= 0 && status < 4);\n        address playerAddr = 0xf5b475Fc347C4BA87E863f0b5269db08Af18f248;\n        /* Initiate Task */\n        task.taskName = \"AI Compute\";\n        task.toolName = \"ADMET\";\n        task.numPlayers = 0;\n        task.maxPlayers = 2;\n        task.playerSalary = 0.05 ether;\n        task.isFinished = false;\n        task.timeStamp = 1537142012;\n        isTaskInitialized = true;\n\n        if (status == 0 || status == 2) {\n            owner = playerAddr;\n            playerAddr = msg.sender;\n        } else {\n            owner = msg.sender;\n        }\n        \n        if (status > 0) {\n            string memory encryptCode_0 = \"03c57256ec2faf84828287710dfea24e\";\n            // Clean playerPool and dataReqPool\n            playerPool.length = 0;\n            dataReqPool.length = 0;\n            // Initiate player pool\n            playerPool.push(Player(playerAddr, 0, 0, 0, 1, 1537142345));\n            // Initiate data request pool\n            dataReqPool.push(Request(playerAddr, encryptCode_0, \"\", \"\", false, 1537142345, owner));\n        }\n\n        if (status > 1) {\n            string memory dataURL_0 = \"https://drive.google.com/open?id=12345_abcdefg-HIJK\";\n            string memory dataHash_0 = \"c8e1f08945eb55208947cb1c76d911ed\";\n            string memory encryptCode_1 = \"02b42006fcdf443951edf262081a3\";\n            // Initiate player pool\n            playerPool[0].dataOutputId = 1;\n            playerPool[0].status = 2;\n            task.numPlayers = 1;\n            // Initiate data request pool\n            dataReqPool[0].dataURL = dataURL_0;\n            dataReqPool[0].dataHash = dataHash_0;\n            dataReqPool[0].isApproved = true;\n            dataReqPool.push(Request(owner, encryptCode_1, \"\", \"\", false, 1537142480, playerAddr));\n        }\n   \n        if (status > 2) {\n            string memory dataURL_1 = \"https://drive.google.com/open?id=67890_opqrst-UVWXYZ\";\n            string memory dataHash_1 = \"2db120a041647ba660990e68624cd\";\n            // Initiate Token\n            isTokenInitialized = false;\n            balanceOf[playerAddr] = 0;\n            initiateToken(10000 ether, 500 ether, \"LoyalToken\", \"LT\", 18);\n            // Initiate player pool\n            playerPool[0].result = 0.5 ether;\n            playerPool[0].status = 3;\n            //*\n            // Initiate data request pool\n            dataReqPool[1].dataURL = dataURL_1;\n            dataReqPool[1].dataHash = dataHash_1;\n            dataReqPool[1].isApproved = true;\n            //*/\n        }\n    }\n    \n    function testSubmitTaskRequest() public {\n        string memory encryptCode_0 = \"03c57256ec2faf84828287710dfea24e\";\n        testInitiateTaskStatus(0);\n        \n        submitTaskRequest(owner, encryptCode_0);\n    }\n    \n    function testApproveTaskRequest() public {\n        string memory encryptCode_1 = \"02b42006fcdf443951edf262081a3\";\n        string memory dataURL_0 = \"https://drive.google.com/open?id=12345_abcdefg-HIJK\";\n        string memory dataHash_0 = \"c8e1f08945eb55208947cb1c76d911ed\";\n        testInitiateTaskStatus(1);\n        \n        approveTaskRequest(0, encryptCode_1, dataURL_0, dataHash_0);\n\n        assert(task.numPlayers == 1);\n        assert(playerPool[0].dataOutputId == 1);\n        assert(playerPool[0].status == 2);\n        assert(dataReqPool[0].isApproved);\n    }\n    \n    function testSubmitTaskResult() public {\n        string memory dataURL_1 = \"https://drive.google.com/open?id=67890_opqrst-UVWXYZ\";\n        string memory dataHash_1 = \"2db120a041647ba660990e68624cd\";\n        testInitiateTaskStatus(2);\n        \n        submitTaskResult(0, dataURL_1, dataHash_1, 0.5 ether);\n\n        assert(playerPool[0].result == 0.5 ether);\n        assert(playerPool[0].status == 3);\n        assert(dataReqPool[1].isApproved);\n    }\n    \n    function testApproveTaskResult() public payable {\n        require(msg.value >= 0.05 ether, \"0.05 ETH needed\");\n        address playerAddr = 0xf5b475Fc347C4BA87E863f0b5269db08Af18f248;\n        testInitiateTaskStatus(3);\n        \n        approveTaskResult(0);\n\n        assert(playerPool[0].status == 4);\n        assert(task.numPlayers == 0);\n        assert(task.maxPlayers == 1);\n        assert(balanceOf[playerAddr] == 500 ether);\n    }\n    \n    function testRejectTaskResult() public  {\n        testInitiateTaskStatus(3);\n        \n        rejectTaskResult(0);\n\n        assert(playerPool[0].status == 99);\n        assert(task.numPlayers == 0);\n        assert(task.maxPlayers == 2);\n    }\n}\n",
  "sourcePath": "/home/juicebox/test_webpack/contracts/TestDrugTask.sol",
  "compiler": {
    "name": "solc",
    "version": "0.4.24+commit.e67f0147.Emscripten.clang"
  },
  "schemaVersion": "2.0.1",
  "updatedAt": "2018-09-20T19:57:24.576Z"
}