{
  "contractName": "TestDataAccess",
  "abi": [
    {
      "constant": true,
      "inputs": [],
      "name": "getRequestCount",
      "outputs": [
        {
          "name": "count",
          "type": "uint256"
        }
      ],
      "payable": false,
      "stateMutability": "view",
      "type": "function"
    },
    {
      "constant": false,
      "inputs": [
        {
          "name": "dataOwner",
          "type": "address"
        },
        {
          "name": "encryptCode",
          "type": "string"
        }
      ],
      "name": "sendDataRequest",
      "outputs": [
        {
          "name": "index",
          "type": "uint256"
        }
      ],
      "payable": false,
      "stateMutability": "nonpayable",
      "type": "function"
    },
    {
      "constant": false,
      "inputs": [
        {
          "name": "index",
          "type": "uint256"
        },
        {
          "name": "dataURL",
          "type": "string"
        },
        {
          "name": "dataHash",
          "type": "string"
        }
      ],
      "name": "approveDataRequest",
      "outputs": [],
      "payable": false,
      "stateMutability": "nonpayable",
      "type": "function"
    },
    {
      "constant": true,
      "inputs": [
        {
          "name": "",
          "type": "uint256"
        }
      ],
      "name": "dataReqPool",
      "outputs": [
        {
          "name": "addr",
          "type": "address"
        },
        {
          "name": "encryptCode",
          "type": "string"
        },
        {
          "name": "dataURL",
          "type": "string"
        },
        {
          "name": "dataHash",
          "type": "string"
        },
        {
          "name": "isApproved",
          "type": "bool"
        },
        {
          "name": "timeStamp",
          "type": "uint256"
        },
        {
          "name": "dataOwner",
          "type": "address"
        }
      ],
      "payable": false,
      "stateMutability": "view",
      "type": "function"
    },
    {
      "constant": false,
      "inputs": [],
      "name": "testSendDataRequest",
      "outputs": [],
      "payable": false,
      "stateMutability": "nonpayable",
      "type": "function"
    },
    {
      "constant": false,
      "inputs": [],
      "name": "testApproveDataRequest",
      "outputs": [],
      "payable": false,
      "stateMutability": "nonpayable",
      "type": "function"
    },
    {
      "constant": false,
      "inputs": [],
      "name": "testGetRequestCount",
      "outputs": [],
      "payable": false,
      "stateMutability": "nonpayable",
      "type": "function"
    }
  ],
  "bytecode": "0x608060405234801561001057600080fd5b50611406806100206000396000f300608060405260043610610083576000357c0100000000000000000000000000000000000000000000000000000000900463ffffffff1680633724ed6f146100885780633fad18341461009f5780638d75e8db146100ca57806390267be914610167578063983f51701461017e578063b357b5a914610195578063d35851361461024e575b600080fd5b34801561009457600080fd5b5061009d610444565b005b3480156100ab57600080fd5b506100b461072a565b6040518082815260200191505060405180910390f35b3480156100d657600080fd5b50610151600480360381019080803573ffffffffffffffffffffffffffffffffffffffff169060200190929190803590602001908201803590602001908080601f0160208091040260200160405190810160405280939291908181526020018383808284378201915050505050509192919290505050610736565b6040518082815260200191505060405180910390f35b34801561017357600080fd5b5061017c61091a565b005b34801561018a57600080fd5b50610193610b25565b005b3480156101a157600080fd5b5061024c60048036038101908080359060200190929190803590602001908201803590602001908080601f0160208091040260200160405190810160405280939291908181526020018383808284378201915050505050509192919290803590602001908201803590602001908080601f0160208091040260200160405190810160405280939291908181526020018383808284378201915050505050509192919290505050610c2d565b005b34801561025a57600080fd5b5061027960048036038101908080359060200190929190505050610f1c565b604051808873ffffffffffffffffffffffffffffffffffffffff1673ffffffffffffffffffffffffffffffffffffffff168152602001806020018060200180602001871515151581526020018681526020018573ffffffffffffffffffffffffffffffffffffffff1673ffffffffffffffffffffffffffffffffffffffff16815260200184810384528a818151815260200191508051906020019080838360005b8381101561033557808201518184015260208101905061031a565b50505050905090810190601f1680156103625780820380516001836020036101000a031916815260200191505b50848103835289818151815260200191508051906020019080838360005b8381101561039b578082015181840152602081019050610380565b50505050905090810190601f1680156103c85780820380516001836020036101000a031916815260200191505b50848103825288818151815260200191508051906020019080838360005b838110156104015780820151818401526020810190506103e6565b50505050905090810190601f16801561042e5780820380516001836020036101000a031916815260200191505b509a505050505050505050505060405180910390f35b600080606073f5b475fc347c4ba87e863f0b5269db08af18f2489150608060405190810160405280604281526020017f303363353732353665633266616638343832383238373731306466656132346581526020017f356565626131633336636234326339326435333061613436306237616631653481526020017f363200000000000000000000000000000000000000000000000000000000000081525090506104ef8282610736565b92506001600080549050038314151561050457fe5b3373ffffffffffffffffffffffffffffffffffffffff1660008481548110151561052a57fe5b906000526020600020906007020160000160009054906101000a900473ffffffffffffffffffffffffffffffffffffffff1673ffffffffffffffffffffffffffffffffffffffff1614151561057b57fe5b8173ffffffffffffffffffffffffffffffffffffffff166000848154811015156105a157fe5b906000526020600020906007020160060160009054906101000a900473ffffffffffffffffffffffffffffffffffffffff1673ffffffffffffffffffffffffffffffffffffffff161415156105f257fe5b806040518082805190602001908083835b6020831015156106285780518252602082019150602081019050602083039250610603565b6001836020036101000a03801982511681845116808217855250505050505090500191505060405180910390206000191660008481548110151561066857fe5b906000526020600020906007020160010160405180828054600181600116156101000203166002900480156106d45780601f106106b25761010080835404028352918201916106d4565b820191906000526020600020905b8154815290600101906020018083116106c0575b50509150506040518091039020600019161415156106ee57fe5b6000838154811015156106fd57fe5b906000526020600020906007020160040160009054906101000a900460ff1615151561072557fe5b505050565b60008080549050905090565b600080825111151561074757600080fd5b600060e0604051908101604052803373ffffffffffffffffffffffffffffffffffffffff16815260200184815260200160206040519081016040528060008152508152602001602060405190810160405280600081525081526020016000151581526020014281526020018573ffffffffffffffffffffffffffffffffffffffff168152509080600181540180825580915050906001820390600052602060002090600702016000909192909190915060008201518160000160006101000a81548173ffffffffffffffffffffffffffffffffffffffff021916908373ffffffffffffffffffffffffffffffffffffffff160217905550602082015181600101908051906020019061085a929190611182565b506040820151816002019080519060200190610877929190611182565b506060820151816003019080519060200190610894929190611182565b5060808201518160040160006101000a81548160ff02191690831515021790555060a0820151816005015560c08201518160060160006101000a81548173ffffffffffffffffffffffffffffffffffffffff021916908373ffffffffffffffffffffffffffffffffffffffff160217905550505050600160008054905003905092915050565b606080606060405190810160405280603381526020017f68747470733a2f2f64726976652e676f6f676c652e636f6d2f6f70656e3f696481526020017f3d31323334355f616263646566672d48494a4b000000000000000000000000008152509150606060405190810160405280604081526020017f633865316630383934356562353532303839343763623163373664393131656481526020017f386435643434623734623264303266346537333665663461656637616237633881525090506109e3610b25565b6109ef60008383610c2d565b816040518082805190602001908083835b602083101515610a255780518252602082019150602081019050602083039250610a00565b6001836020036101000a038019825116818451168082178552505050505050905001915050604051809103902060001916600080815481101515610a6557fe5b90600052602060002090600702016002016040518082805460018160011615610100020316600290048015610ad15780601f10610aaf576101008083540402835291820191610ad1565b820191906000526020600020905b815481529060010190602001808311610abd575b5050915050604051809103902060001916141515610aeb57fe5b600080815481101515610afa57fe5b906000526020600020906007020160040160009054906101000a900460ff161515610b2157fe5b5050565b5b600080805490501115610c10576000600160008054905003815481101515610b4a57fe5b9060005260206000209060070201600080820160006101000a81549073ffffffffffffffffffffffffffffffffffffffff0219169055600182016000610b909190611202565b600282016000610ba09190611202565b600382016000610bb09190611202565b6004820160006101000a81549060ff021916905560058201600090556006820160006101000a81549073ffffffffffffffffffffffffffffffffffffffff021916905550506000805480919060019003610c0a919061124a565b50610b26565b610c18610444565b6001610c2261072a565b141515610c2b57fe5b565b60008054905083101515610ca9576040517f08c379a000000000000000000000000000000000000000000000000000000000815260040180806020018281038252600d8152602001807f496e76616c696420696e6465780000000000000000000000000000000000000081525060200191505060405180910390fd5b600083815481101515610cb857fe5b906000526020600020906007020160040160009054906101000a900460ff16151515610d4c576040517f08c379a00000000000000000000000000000000000000000000000000000000081526004018080602001828103825260108152602001807f5265717565737420617070726f7665640000000000000000000000000000000081525060200191505060405180910390fd5b600083815481101515610d5b57fe5b906000526020600020906007020160060160009054906101000a900473ffffffffffffffffffffffffffffffffffffffff1673ffffffffffffffffffffffffffffffffffffffff163373ffffffffffffffffffffffffffffffffffffffff16141515610e2f576040517f08c379a000000000000000000000000000000000000000000000000000000000815260040180806020018281038252600e8152602001807f4e6f742064617461206f776e657200000000000000000000000000000000000081525060200191505060405180910390fd5b60008251111515610e3f57600080fd5b60008151111515610e4f57600080fd5b81600084815481101515610e5f57fe5b90600052602060002090600702016002019080519060200190610e8392919061127c565b5080600084815481101515610e9457fe5b90600052602060002090600702016003019080519060200190610eb892919061127c565b506001600084815481101515610eca57fe5b906000526020600020906007020160040160006101000a81548160ff02191690831515021790555042600084815481101515610f0257fe5b906000526020600020906007020160050181905550505050565b600081815481101515610f2b57fe5b90600052602060002090600702016000915090508060000160009054906101000a900473ffffffffffffffffffffffffffffffffffffffff1690806001018054600181600116156101000203166002900480601f016020809104026020016040519081016040528092919081815260200182805460018160011615610100020316600290048015610ffd5780601f10610fd257610100808354040283529160200191610ffd565b820191906000526020600020905b815481529060010190602001808311610fe057829003601f168201915b505050505090806002018054600181600116156101000203166002900480601f01602080910402602001604051908101604052809291908181526020018280546001816001161561010002031660029004801561109b5780601f106110705761010080835404028352916020019161109b565b820191906000526020600020905b81548152906001019060200180831161107e57829003601f168201915b505050505090806003018054600181600116156101000203166002900480601f0160208091040260200160405190810160405280929190818152602001828054600181600116156101000203166002900480156111395780601f1061110e57610100808354040283529160200191611139565b820191906000526020600020905b81548152906001019060200180831161111c57829003601f168201915b5050505050908060040160009054906101000a900460ff16908060050154908060060160009054906101000a900473ffffffffffffffffffffffffffffffffffffffff16905087565b828054600181600116156101000203166002900490600052602060002090601f016020900481019282601f106111c357805160ff19168380011785556111f1565b828001600101855582156111f1579182015b828111156111f05782518255916020019190600101906111d5565b5b5090506111fe91906112fc565b5090565b50805460018160011615610100020316600290046000825580601f106112285750611247565b601f01602090049060005260206000209081019061124691906112fc565b5b50565b815481835581811115611277576007028160070283600052602060002091820191016112769190611321565b5b505050565b828054600181600116156101000203166002900490600052602060002090601f016020900481019282601f106112bd57805160ff19168380011785556112eb565b828001600101855582156112eb579182015b828111156112ea5782518255916020019190600101906112cf565b5b5090506112f891906112fc565b5090565b61131e91905b8082111561131a576000816000905550600101611302565b5090565b90565b6113d791905b808211156113d357600080820160006101000a81549073ffffffffffffffffffffffffffffffffffffffff02191690556001820160006113679190611202565b6002820160006113779190611202565b6003820160006113879190611202565b6004820160006101000a81549060ff021916905560058201600090556006820160006101000a81549073ffffffffffffffffffffffffffffffffffffffff021916905550600701611327565b5090565b905600a165627a7a72305820416c2978551def14e3f4778c543da249aa82e3ff7400965c6ebd1ba32a304cdc0029",
  "source": "/* For HealthChainHack, Sep 2018\n * Author: Xinghua Liang\n * Copyright: BlockTEST LLC\n */\n pragma solidity ^0.4.24;\n\nimport \"./DataAccess.sol\";\n\ncontract TestDataAccess is DataAccess {\n    function testSendDataRequest() public {\n        uint dataId;\n        address dataOwner = 0xf5b475Fc347C4BA87E863f0b5269db08Af18f248;\n        string memory encryptCode = \"03c57256ec2faf84828287710dfea24e5eeba1c36cb42c92d530aa460b7af1e462\";\n\n        dataId = sendDataRequest(dataOwner, encryptCode);\n        \n        assert(dataId == dataReqPool.length - 1);\n        assert(dataReqPool[dataId].addr == msg.sender);\n        assert(dataReqPool[dataId].dataOwner == dataOwner);\n        assert(keccak256(bytes(dataReqPool[dataId].encryptCode)) == keccak256(bytes(encryptCode)));\n        assert(!dataReqPool[dataId].isApproved);\n    }\n    \n    function testApproveDataRequest() public {\n        string memory dataURL = \"https://drive.google.com/open?id=12345_abcdefg-HIJK\";\n        string memory dataHash = \"c8e1f08945eb55208947cb1c76d911ed8d5d44b74b2d02f4e736ef4aef7ab7c8\";\n        testGetRequestCount();\n        \n        approveDataRequest(0, dataURL, dataHash);\n\n        assert(keccak256(bytes(dataReqPool[0].dataURL)) == keccak256(bytes(dataURL)));\n        assert(dataReqPool[0].isApproved);\n    }\n    \n    function testGetRequestCount() public {\n        while (dataReqPool.length > 0)\n        {\n            delete dataReqPool[dataReqPool.length - 1];\n            dataReqPool.length--;\n        }\n\n        testSendDataRequest();\n        \n        assert(getRequestCount() == 1);\n    }\n}\n\n",
  "sourcePath": "/home/juicebox/test_webpack/contracts/TestDataAccess.sol",
  "compiler": {
    "name": "solc",
    "version": "0.4.24+commit.e67f0147.Emscripten.clang"
  },
  "schemaVersion": "2.0.1",
  "updatedAt": "2018-09-20T19:26:30.028Z"
}