{
  "contractName": "TestLegitimation",
  "abi": [
    {
      "constant": true,
      "inputs": [
        {
          "name": "",
          "type": "address"
        }
      ],
      "name": "LegiFiles",
      "outputs": [
        {
          "name": "fileURL",
          "type": "string"
        },
        {
          "name": "hashCode",
          "type": "string"
        },
        {
          "name": "signature",
          "type": "string"
        },
        {
          "name": "timeStamp",
          "type": "uint256"
        },
        {
          "name": "isSigned",
          "type": "bool"
        }
      ],
      "payable": false,
      "stateMutability": "view",
      "type": "function"
    },
    {
      "constant": false,
      "inputs": [
        {
          "name": "fileURL",
          "type": "string"
        },
        {
          "name": "hashCode",
          "type": "string"
        },
        {
          "name": "signature",
          "type": "string"
        }
      ],
      "name": "signAgreement",
      "outputs": [],
      "payable": false,
      "stateMutability": "nonpayable",
      "type": "function"
    },
    {
      "anonymous": false,
      "inputs": [
        {
          "indexed": true,
          "name": "signee",
          "type": "address"
        },
        {
          "indexed": false,
          "name": "fileName",
          "type": "string"
        },
        {
          "indexed": false,
          "name": "hashCode",
          "type": "string"
        },
        {
          "indexed": false,
          "name": "signature",
          "type": "string"
        },
        {
          "indexed": false,
          "name": "timeStamp",
          "type": "uint256"
        }
      ],
      "name": "SignLawAgreement",
      "type": "event"
    },
    {
      "constant": false,
      "inputs": [],
      "name": "testSignAgreement",
      "outputs": [],
      "payable": false,
      "stateMutability": "nonpayable",
      "type": "function"
    }
  ],
  "bytecode": "0x608060405234801561001057600080fd5b50610d75806100206000396000f300608060405260043610610057576000357c0100000000000000000000000000000000000000000000000000000000900463ffffffff168063159adab01461005c5780634aece5c214610202578063e250c18514610219575b600080fd5b34801561006857600080fd5b5061009d600480360381019080803573ffffffffffffffffffffffffffffffffffffffff16906020019092919050505061030e565b6040518080602001806020018060200186815260200185151515158152602001848103845289818151815260200191508051906020019080838360005b838110156100f55780820151818401526020810190506100da565b50505050905090810190601f1680156101225780820380516001836020036101000a031916815260200191505b50848103835288818151815260200191508051906020019080838360005b8381101561015b578082015181840152602081019050610140565b50505050905090810190601f1680156101885780820380516001836020036101000a031916815260200191505b50848103825287818151815260200191508051906020019080838360005b838110156101c15780820151818401526020810190506101a6565b50505050905090810190601f1680156101ee5780820380516001836020036101000a031916815260200191505b509850505050505050505060405180910390f35b34801561020e57600080fd5b50610217610519565b005b34801561022557600080fd5b5061030c600480360381019080803590602001908201803590602001908080601f0160208091040260200160405190810160405280939291908181526020018383808284378201915050505050509192919290803590602001908201803590602001908080601f0160208091040260200160405190810160405280939291908181526020018383808284378201915050505050509192919290803590602001908201803590602001908080601f016020809104026020016040519081016040528093929190818152602001838380828437820191505050505050919291929050505061085d565b005b6000602052806000526040600020600091509050806000018054600181600116156101000203166002900480601f0160208091040260200160405190810160405280929190818152602001828054600181600116156101000203166002900480156103ba5780601f1061038f576101008083540402835291602001916103ba565b820191906000526020600020905b81548152906001019060200180831161039d57829003601f168201915b505050505090806001018054600181600116156101000203166002900480601f0160208091040260200160405190810160405280929190818152602001828054600181600116156101000203166002900480156104585780601f1061042d57610100808354040283529160200191610458565b820191906000526020600020905b81548152906001019060200180831161043b57829003601f168201915b505050505090806002018054600181600116156101000203166002900480601f0160208091040260200160405190810160405280929190818152602001828054600181600116156101000203166002900480156104f65780601f106104cb576101008083540402835291602001916104f6565b820191906000526020600020905b8154815290600101906020018083116104d957829003601f168201915b5050505050908060030154908060040160009054906101000a900460ff16905085565b60608060608060405190810160405280603381526020017f68747470733a2f2f64726976652e676f6f676c652e636f6d2f6f70656e3f696481526020017f3d31323334355f616263646566672d48494a4b000000000000000000000000008152509250606060405190810160405280604081526020017f633865316630383934356562353532303839343763623163373664393131656481526020017f3864356434346237346232643032663465373336656634616566376162376338815250915060c06040519081016040528060848152602001610cc66084913990506000803373ffffffffffffffffffffffffffffffffffffffff1673ffffffffffffffffffffffffffffffffffffffff16815260200190815260200160002060040160009054906101000a900460ff16156106d9576000803373ffffffffffffffffffffffffffffffffffffffff1673ffffffffffffffffffffffffffffffffffffffff1681526020019081526020016000206000808201600061069a9190610bd8565b6001820160006106aa9190610bd8565b6002820160006106ba9190610bd8565b60038201600090556004820160006101000a81549060ff021916905550505b6106e483838361085d565b826040518082805190602001908083835b60208310151561071a57805182526020820191506020810190506020830392506106f5565b6001836020036101000a0380198251168184511680821785525050505050509050019150506040518091039020600019166000803373ffffffffffffffffffffffffffffffffffffffff1673ffffffffffffffffffffffffffffffffffffffff16815260200190815260200160002060000160405180828054600181600116156101000203166002900480156107e75780601f106107c55761010080835404028352918201916107e7565b820191906000526020600020905b8154815290600101906020018083116107d3575b505091505060405180910390206000191614151561080157fe5b6000803373ffffffffffffffffffffffffffffffffffffffff1673ffffffffffffffffffffffffffffffffffffffff16815260200190815260200160002060040160009054906101000a900460ff16151561085857fe5b505050565b6000803373ffffffffffffffffffffffffffffffffffffffff1673ffffffffffffffffffffffffffffffffffffffff16815260200190815260200160002060040160009054906101000a900460ff16151515610921576040517f08c379a000000000000000000000000000000000000000000000000000000000815260040180806020018281038252600b8152602001807f46696c65207369676e656400000000000000000000000000000000000000000081525060200191505060405180910390fd5b6000835111151561093157600080fd5b6000825111151561094157600080fd5b6000815111151561095157600080fd5b60a060405190810160405280848152602001838152602001828152602001428152602001600115158152506000803373ffffffffffffffffffffffffffffffffffffffff1673ffffffffffffffffffffffffffffffffffffffff16815260200190815260200160002060008201518160000190805190602001906109d6929190610c20565b5060208201518160010190805190602001906109f3929190610c20565b506040820151816002019080519060200190610a10929190610c20565b506060820151816003015560808201518160040160006101000a81548160ff0219169083151502179055509050503373ffffffffffffffffffffffffffffffffffffffff167ffc1b6bdf5e8cb6fb293ae1be4b0fc5a2f6ff21f2a9565ff5c816e91d13bba78f8484844260405180806020018060200180602001858152602001848103845288818151815260200191508051906020019080838360005b83811015610ac8578082015181840152602081019050610aad565b50505050905090810190601f168015610af55780820380516001836020036101000a031916815260200191505b50848103835287818151815260200191508051906020019080838360005b83811015610b2e578082015181840152602081019050610b13565b50505050905090810190601f168015610b5b5780820380516001836020036101000a031916815260200191505b50848103825286818151815260200191508051906020019080838360005b83811015610b94578082015181840152602081019050610b79565b50505050905090810190601f168015610bc15780820380516001836020036101000a031916815260200191505b5097505050505050505060405180910390a2505050565b50805460018160011615610100020316600290046000825580601f10610bfe5750610c1d565b601f016020900490600052602060002090810190610c1c9190610ca0565b5b50565b828054600181600116156101000203166002900490600052602060002090601f016020900481019282601f10610c6157805160ff1916838001178555610c8f565b82800160010185558215610c8f579182015b82811115610c8e578251825591602001919060010190610c73565b5b509050610c9c9190610ca0565b5090565b610cc291905b80821115610cbe576000816000905550600101610ca6565b5090565b905600307864343264643139393630663730666563646235303937373536383134366161343665333363396334326136323035643038666430333536623463306637663130353932636363306632393164383430366662356437363039666264326434626363373262613238663763383462343065356361336438316435343432653161393162a165627a7a7230582057d2d987e95679c2926006b339a10bdfb74fa63fe489efe8eeed76e6d23b79cb0029",
  "source": "/* For HealthChainHack, Sep 2018\n * Author: Xinghua Liang\n * Copyright: BlockTEST LLC\n */\n pragma solidity ^0.4.24;\n\nimport \"./Legitimation.sol\";\n\ncontract TestLegitimation is Legitimation {\n    function testSignAgreement() public {\n        string memory fileURL = \"https://drive.google.com/open?id=12345_abcdefg-HIJK\";\n        string memory hashCode = \"c8e1f08945eb55208947cb1c76d911ed8d5d44b74b2d02f4e736ef4aef7ab7c8\";\n        string memory signature = \"0xd42dd19960f70fecdb50977568146aa46e33c9c42a6205d08fd0356b4c0f7f10592ccc0f291d8406fb5d7609fbd2d4bcc72ba28f7c84b40e5ca3d81d5442e1a91b\";\n        if (LegiFiles[msg.sender].isSigned)\n            delete LegiFiles[msg.sender];\n        \n        signAgreement(fileURL, hashCode, signature);\n        \n        assert(keccak256(bytes(LegiFiles[msg.sender].fileURL)) == keccak256(bytes(fileURL)));\n        assert(LegiFiles[msg.sender].isSigned);\n    }\n}\n",
  "sourcePath": "/home/juicebox/test_webpack/contracts/TestLegitimation.sol",
  "compiler": {
    "name": "solc",
    "version": "0.4.24+commit.e67f0147.Emscripten.clang"
  },
  "schemaVersion": "2.0.1",
  "updatedAt": "2018-09-20T19:26:30.041Z"
}