{
  "_format": "hh-sol-artifact-1",
  "contractName": "BobaTuringCredit",
  "sourceName": "contracts/L2/predeploys/BobaTuringCredit.sol",
  "abi": [
    {
      "inputs": [
        {
          "internalType": "uint256",
          "name": "_turingPrice",
          "type": "uint256"
        }
      ],
      "stateMutability": "nonpayable",
      "type": "constructor"
    },
    {
      "anonymous": false,
      "inputs": [
        {
          "indexed": false,
          "internalType": "address",
          "name": "sender",
          "type": "address"
        },
        {
          "indexed": false,
          "internalType": "uint256",
          "name": "balanceAmount",
          "type": "uint256"
        },
        {
          "indexed": false,
          "internalType": "address",
          "name": "helperContractAddress",
          "type": "address"
        }
      ],
      "name": "AddBalanceTo",
      "type": "event"
    },
    {
      "anonymous": false,
      "inputs": [
        {
          "indexed": false,
          "internalType": "address",
          "name": "oldOwner",
          "type": "address"
        },
        {
          "indexed": false,
          "internalType": "address",
          "name": "newOwner",
          "type": "address"
        }
      ],
      "name": "TransferOwnership",
      "type": "event"
    },
    {
      "anonymous": false,
      "inputs": [
        {
          "indexed": false,
          "internalType": "address",
          "name": "sender",
          "type": "address"
        },
        {
          "indexed": false,
          "internalType": "uint256",
          "name": "withdrawAmount",
          "type": "uint256"
        }
      ],
      "name": "WithdrawRevenue",
      "type": "event"
    },
    {
      "inputs": [
        {
          "internalType": "uint256",
          "name": "_addBalanceAmount",
          "type": "uint256"
        },
        {
          "internalType": "address",
          "name": "_helperContractAddress",
          "type": "address"
        }
      ],
      "name": "addBalanceTo",
      "outputs": [],
      "stateMutability": "nonpayable",
      "type": "function"
    },
    {
      "inputs": [
        {
          "internalType": "address",
          "name": "_helperContractAddress",
          "type": "address"
        }
      ],
      "name": "getCreditAmount",
      "outputs": [
        {
          "internalType": "uint256",
          "name": "",
          "type": "uint256"
        }
      ],
      "stateMutability": "view",
      "type": "function"
    },
    {
      "inputs": [],
      "name": "owner",
      "outputs": [
        {
          "internalType": "address",
          "name": "",
          "type": "address"
        }
      ],
      "stateMutability": "view",
      "type": "function"
    },
    {
      "inputs": [],
      "name": "ownerRevenue",
      "outputs": [
        {
          "internalType": "uint256",
          "name": "",
          "type": "uint256"
        }
      ],
      "stateMutability": "view",
      "type": "function"
    },
    {
      "inputs": [
        {
          "internalType": "address",
          "name": "",
          "type": "address"
        }
      ],
      "name": "prepaidBalance",
      "outputs": [
        {
          "internalType": "uint256",
          "name": "",
          "type": "uint256"
        }
      ],
      "stateMutability": "view",
      "type": "function"
    },
    {
      "inputs": [
        {
          "internalType": "address",
          "name": "_newOwner",
          "type": "address"
        }
      ],
      "name": "transferOwnership",
      "outputs": [],
      "stateMutability": "nonpayable",
      "type": "function"
    },
    {
      "inputs": [],
      "name": "turingPrice",
      "outputs": [
        {
          "internalType": "uint256",
          "name": "",
          "type": "uint256"
        }
      ],
      "stateMutability": "view",
      "type": "function"
    },
    {
      "inputs": [],
      "name": "turingToken",
      "outputs": [
        {
          "internalType": "address",
          "name": "",
          "type": "address"
        }
      ],
      "stateMutability": "view",
      "type": "function"
    },
    {
      "inputs": [
        {
          "internalType": "uint256",
          "name": "_turingPrice",
          "type": "uint256"
        }
      ],
      "name": "updateTuringPrice",
      "outputs": [],
      "stateMutability": "nonpayable",
      "type": "function"
    },
    {
      "inputs": [
        {
          "internalType": "address",
          "name": "_turingToken",
          "type": "address"
        }
      ],
      "name": "updateTuringToken",
      "outputs": [],
      "stateMutability": "nonpayable",
      "type": "function"
    },
    {
      "inputs": [
        {
          "internalType": "uint256",
          "name": "_withdrawAmount",
          "type": "uint256"
        }
      ],
      "name": "withdrawRevenue",
      "outputs": [],
      "stateMutability": "nonpayable",
      "type": "function"
    }
  ],
  "bytecode": "0x608060405234801561001057600080fd5b5060405161118038038061118083398101604081905261002f91610037565b600355610050565b60006020828403121561004957600080fd5b5051919050565b6111218061005f6000396000f3fe608060405234801561001057600080fd5b50600436106100c85760003560e01c80638da5cb5b11610081578063f2fde38b1161005b578063f2fde38b146101b2578063f7cd3be8146101c5578063fd892278146101d857600080fd5b80638da5cb5b14610176578063a52b962d14610196578063e24dfcde146101a957600080fd5b80630ceff204116100b25780630ceff2041461010957806335d6eac41461011e578063853383921461013157600080fd5b8062292526146100cd57806309da3981146100e9575b600080fd5b6100d660045481565b6040519081526020015b60405180910390f35b6100d66100f7366004610f60565b60016020526000908152604090205481565b61011c610117366004610f7b565b6101eb565b005b61011c61012c366004610f60565b6103d2565b6002546101519073ffffffffffffffffffffffffffffffffffffffff1681565b60405173ffffffffffffffffffffffffffffffffffffffff90911681526020016100e0565b6000546101519073ffffffffffffffffffffffffffffffffffffffff1681565b6100d66101a4366004610f60565b610507565b6100d660035481565b61011c6101c0366004610f60565b610594565b61011c6101d3366004610f7b565b6106bc565b61011c6101e6366004610f94565b610749565b60005473ffffffffffffffffffffffffffffffffffffffff16331480610227575060005473ffffffffffffffffffffffffffffffffffffffff16155b6102785760405162461bcd60e51b815260206004820152601760248201527f63616c6c6572206973206e6f7420746865206f776e657200000000000000000060448201526064015b60405180910390fd5b60025473ffffffffffffffffffffffffffffffffffffffff166103035760405162461bcd60e51b815260206004820152602560248201527f436f6e747261637420686173206e6f7420796574206265656e20696e6974696160448201527f6c697a6564000000000000000000000000000000000000000000000000000000606482015260840161026f565b6004548111156103555760405162461bcd60e51b815260206004820152600e60248201527f496e76616c696420416d6f756e74000000000000000000000000000000000000604482015260640161026f565b80600460008282546103679190610fef565b909155505060408051338152602081018390527f447d53be88e315476bdbe2e63cef309461f6305d09aada67641c29e6b897e301910160405180910390a16000546002546103cf9173ffffffffffffffffffffffffffffffffffffffff91821691168361099d565b50565b60005473ffffffffffffffffffffffffffffffffffffffff1633148061040e575060005473ffffffffffffffffffffffffffffffffffffffff16155b61045a5760405162461bcd60e51b815260206004820152601760248201527f63616c6c6572206973206e6f7420746865206f776e6572000000000000000000604482015260640161026f565b60025473ffffffffffffffffffffffffffffffffffffffff16156104c05760405162461bcd60e51b815260206004820152601d60248201527f436f6e747261637420686173206265656e20696e697469616c697a6564000000604482015260640161026f565b600280547fffffffffffffffffffffffff00000000000000000000000000000000000000001673ffffffffffffffffffffffffffffffffffffffff92909216919091179055565b60006003546000141561055c5760405162461bcd60e51b815260206004820152601060248201527f556e6c696d697465642063726564697400000000000000000000000000000000604482015260640161026f565b60035473ffffffffffffffffffffffffffffffffffffffff831660009081526001602052604090205461058e91610a76565b92915050565b60005473ffffffffffffffffffffffffffffffffffffffff163314806105d0575060005473ffffffffffffffffffffffffffffffffffffffff16155b61061c5760405162461bcd60e51b815260206004820152601760248201527f63616c6c6572206973206e6f7420746865206f776e6572000000000000000000604482015260640161026f565b73ffffffffffffffffffffffffffffffffffffffff811661063c57600080fd5b600080547fffffffffffffffffffffffff00000000000000000000000000000000000000001673ffffffffffffffffffffffffffffffffffffffff83169081179091556040805133815260208101929092527f5c486528ec3e3f0ea91181cff8116f02bfa350e03b8b6f12e00765adbb5af85c910160405180910390a150565b60005473ffffffffffffffffffffffffffffffffffffffff163314806106f8575060005473ffffffffffffffffffffffffffffffffffffffff16155b6107445760405162461bcd60e51b815260206004820152601760248201527f63616c6c6572206973206e6f7420746865206f776e6572000000000000000000604482015260640161026f565b600355565b60025473ffffffffffffffffffffffffffffffffffffffff166107d45760405162461bcd60e51b815260206004820152602560248201527f436f6e747261637420686173206e6f7420796574206265656e20696e6974696160448201527f6c697a6564000000000000000000000000000000000000000000000000000000606482015260840161026f565b816108215760405162461bcd60e51b815260206004820152600e60248201527f496e76616c696420616d6f756e74000000000000000000000000000000000000604482015260640161026f565b803b61086f5760405162461bcd60e51b815260206004820152600e60248201527f4164647265737320697320454f41000000000000000000000000000000000000604482015260640161026f565b610899817f2f7adf4300000000000000000000000000000000000000000000000000000000610a89565b6108e55760405162461bcd60e51b815260206004820152601760248201527f496e76616c69642048656c70657220436f6e7472616374000000000000000000604482015260640161026f565b73ffffffffffffffffffffffffffffffffffffffff81166000908152600160205260408120805484929061091a908490611006565b9091555050604080513381526020810184905273ffffffffffffffffffffffffffffffffffffffff83168183015290517f63611f4b2e0fff4acd8e17bd95ebb62a3bc834c76cf85e7a972a502990b6257a9181900360600190a16002546109999073ffffffffffffffffffffffffffffffffffffffff16333085610aa5565b5050565b60405173ffffffffffffffffffffffffffffffffffffffff8316602482015260448101829052610a719084907fa9059cbb00000000000000000000000000000000000000000000000000000000906064015b604080517fffffffffffffffffffffffffffffffffffffffffffffffffffffffffffffffe08184030181529190526020810180517bffffffffffffffffffffffffffffffffffffffffffffffffffffffff167fffffffff0000000000000000000000000000000000000000000000000000000090931692909217909152610b09565b505050565b6000610a82828461101e565b9392505050565b6000610a9483610bfb565b8015610a825750610a828383610c5f565b60405173ffffffffffffffffffffffffffffffffffffffff80851660248301528316604482015260648101829052610b039085907f23b872dd00000000000000000000000000000000000000000000000000000000906084016109ef565b50505050565b6000610b6b826040518060400160405280602081526020017f5361666545524332303a206c6f772d6c6576656c2063616c6c206661696c65648152508573ffffffffffffffffffffffffffffffffffffffff16610d9b9092919063ffffffff16565b805190915015610a715780806020019051810190610b899190611059565b610a715760405162461bcd60e51b815260206004820152602a60248201527f5361666545524332303a204552433230206f7065726174696f6e20646964206e60448201527f6f74207375636365656400000000000000000000000000000000000000000000606482015260840161026f565b6000610c27827f01ffc9a700000000000000000000000000000000000000000000000000000000610c5f565b801561058e5750610c58827fffffffff00000000000000000000000000000000000000000000000000000000610c5f565b1592915050565b604080517fffffffff00000000000000000000000000000000000000000000000000000000831660248083019190915282518083039091018152604490910182526020810180517bffffffffffffffffffffffffffffffffffffffffffffffffffffffff167f01ffc9a7000000000000000000000000000000000000000000000000000000001790529051600091908290819073ffffffffffffffffffffffffffffffffffffffff87169061753090610d199086906110a7565b6000604051808303818686fa925050503d8060008114610d55576040519150601f19603f3d011682016040523d82523d6000602084013e610d5a565b606091505b5091509150602081511015610d75576000935050505061058e565b818015610d91575080806020019051810190610d919190611059565b9695505050505050565b6060610daa8484600085610db2565b949350505050565b606082471015610e2a5760405162461bcd60e51b815260206004820152602660248201527f416464726573733a20696e73756666696369656e742062616c616e636520666f60448201527f722063616c6c0000000000000000000000000000000000000000000000000000606482015260840161026f565b843b610e785760405162461bcd60e51b815260206004820152601d60248201527f416464726573733a2063616c6c20746f206e6f6e2d636f6e7472616374000000604482015260640161026f565b6000808673ffffffffffffffffffffffffffffffffffffffff168587604051610ea191906110a7565b60006040518083038185875af1925050503d8060008114610ede576040519150601f19603f3d011682016040523d82523d6000602084013e610ee3565b606091505b5091509150610ef3828286610efe565b979650505050505050565b60608315610f0d575081610a82565b825115610f1d5782518084602001fd5b8160405162461bcd60e51b815260040161026f91906110c3565b803573ffffffffffffffffffffffffffffffffffffffff81168114610f5b57600080fd5b919050565b600060208284031215610f7257600080fd5b610a8282610f37565b600060208284031215610f8d57600080fd5b5035919050565b60008060408385031215610fa757600080fd5b82359150610fb760208401610f37565b90509250929050565b7f4e487b7100000000000000000000000000000000000000000000000000000000600052601160045260246000fd5b60008282101561100157611001610fc0565b500390565b6000821982111561101957611019610fc0565b500190565b600082611054577f4e487b7100000000000000000000000000000000000000000000000000000000600052601260045260246000fd5b500490565b60006020828403121561106b57600080fd5b81518015158114610a8257600080fd5b60005b8381101561109657818101518382015260200161107e565b83811115610b035750506000910152565b600082516110b981846020870161107b565b9190910192915050565b60208152600082518060208401526110e281604085016020870161107b565b601f017fffffffffffffffffffffffffffffffffffffffffffffffffffffffffffffffe016919091016040019291505056fea164736f6c6343000809000a",
  "linkReferences": {},
  "deployedLinkReferences": {}
}