{
  "contractName": "Election",
  "abi": [
    {
      "constant": true,
      "inputs": [
        {
          "name": "",
          "type": "bytes32"
        }
      ],
      "name": "hasVoted",
      "outputs": [
        {
          "name": "",
          "type": "bool"
        }
      ],
      "payable": false,
      "stateMutability": "view",
      "type": "function"
    },
    {
      "constant": true,
      "inputs": [],
      "name": "endTime",
      "outputs": [
        {
          "name": "",
          "type": "uint256"
        }
      ],
      "payable": false,
      "stateMutability": "view",
      "type": "function"
    },
    {
      "constant": true,
      "inputs": [],
      "name": "voterCount",
      "outputs": [
        {
          "name": "",
          "type": "uint256"
        }
      ],
      "payable": false,
      "stateMutability": "view",
      "type": "function"
    },
    {
      "constant": true,
      "inputs": [
        {
          "name": "",
          "type": "uint256"
        }
      ],
      "name": "parties",
      "outputs": [
        {
          "name": "",
          "type": "string"
        }
      ],
      "payable": false,
      "stateMutability": "view",
      "type": "function"
    },
    {
      "constant": true,
      "inputs": [],
      "name": "beginTime",
      "outputs": [
        {
          "name": "",
          "type": "uint256"
        }
      ],
      "payable": false,
      "stateMutability": "view",
      "type": "function"
    },
    {
      "constant": true,
      "inputs": [
        {
          "name": "",
          "type": "uint256"
        }
      ],
      "name": "constituencies",
      "outputs": [
        {
          "name": "",
          "type": "string"
        }
      ],
      "payable": false,
      "stateMutability": "view",
      "type": "function"
    },
    {
      "constant": true,
      "inputs": [
        {
          "name": "",
          "type": "string"
        },
        {
          "name": "",
          "type": "string"
        }
      ],
      "name": "result",
      "outputs": [
        {
          "name": "",
          "type": "uint256"
        }
      ],
      "payable": false,
      "stateMutability": "view",
      "type": "function"
    },
    {
      "constant": true,
      "inputs": [
        {
          "name": "",
          "type": "address"
        }
      ],
      "name": "ec_officials",
      "outputs": [
        {
          "name": "",
          "type": "bool"
        }
      ],
      "payable": false,
      "stateMutability": "view",
      "type": "function"
    },
    {
      "constant": true,
      "inputs": [],
      "name": "EC_Head",
      "outputs": [
        {
          "name": "",
          "type": "address"
        }
      ],
      "payable": false,
      "stateMutability": "view",
      "type": "function"
    },
    {
      "constant": true,
      "inputs": [
        {
          "name": "",
          "type": "string"
        },
        {
          "name": "",
          "type": "string"
        },
        {
          "name": "",
          "type": "uint256"
        }
      ],
      "name": "vote_hashes",
      "outputs": [
        {
          "name": "",
          "type": "bytes32"
        }
      ],
      "payable": false,
      "stateMutability": "view",
      "type": "function"
    },
    {
      "inputs": [],
      "payable": false,
      "stateMutability": "nonpayable",
      "type": "constructor"
    },
    {
      "constant": false,
      "inputs": [
        {
          "name": "official",
          "type": "address"
        }
      ],
      "name": "addEcOfficial",
      "outputs": [],
      "payable": false,
      "stateMutability": "nonpayable",
      "type": "function"
    },
    {
      "constant": false,
      "inputs": [
        {
          "name": "official",
          "type": "address"
        }
      ],
      "name": "removeEcOfficial",
      "outputs": [],
      "payable": false,
      "stateMutability": "nonpayable",
      "type": "function"
    },
    {
      "constant": false,
      "inputs": [
        {
          "name": "party_name",
          "type": "string"
        }
      ],
      "name": "addParty",
      "outputs": [],
      "payable": false,
      "stateMutability": "nonpayable",
      "type": "function"
    },
    {
      "constant": false,
      "inputs": [
        {
          "name": "constituency",
          "type": "string"
        }
      ],
      "name": "addConstituency",
      "outputs": [],
      "payable": false,
      "stateMutability": "nonpayable",
      "type": "function"
    },
    {
      "constant": true,
      "inputs": [],
      "name": "getConstituencies",
      "outputs": [
        {
          "name": "",
          "type": "string[]"
        }
      ],
      "payable": false,
      "stateMutability": "view",
      "type": "function"
    },
    {
      "constant": true,
      "inputs": [],
      "name": "getParties",
      "outputs": [
        {
          "name": "",
          "type": "string[]"
        }
      ],
      "payable": false,
      "stateMutability": "view",
      "type": "function"
    },
    {
      "constant": false,
      "inputs": [
        {
          "name": "_constituencies",
          "type": "string[]"
        },
        {
          "name": "_parties",
          "type": "string[]"
        }
      ],
      "name": "addElectionDetails",
      "outputs": [],
      "payable": false,
      "stateMutability": "nonpayable",
      "type": "function"
    },
    {
      "constant": false,
      "inputs": [
        {
          "name": "uuid_hash",
          "type": "bytes32"
        },
        {
          "name": "constituency",
          "type": "string"
        },
        {
          "name": "party",
          "type": "string"
        },
        {
          "name": "vote_hash",
          "type": "bytes32"
        }
      ],
      "name": "registerVote",
      "outputs": [],
      "payable": false,
      "stateMutability": "nonpayable",
      "type": "function"
    },
    {
      "constant": false,
      "inputs": [],
      "name": "calculateVotes",
      "outputs": [
        {
          "name": "",
          "type": "bool"
        }
      ],
      "payable": false,
      "stateMutability": "nonpayable",
      "type": "function"
    },
    {
      "constant": true,
      "inputs": [
        {
          "name": "constituency",
          "type": "string"
        }
      ],
      "name": "getWinner",
      "outputs": [
        {
          "name": "",
          "type": "string"
        }
      ],
      "payable": false,
      "stateMutability": "view",
      "type": "function"
    },
    {
      "constant": true,
      "inputs": [
        {
          "name": "constituency",
          "type": "string"
        },
        {
          "name": "party",
          "type": "string"
        }
      ],
      "name": "getVoteHashes",
      "outputs": [
        {
          "name": "",
          "type": "bytes32[]"
        }
      ],
      "payable": false,
      "stateMutability": "view",
      "type": "function"
    },
    {
      "constant": true,
      "inputs": [
        {
          "name": "constituency",
          "type": "string"
        },
        {
          "name": "party",
          "type": "string"
        }
      ],
      "name": "getVoteCount",
      "outputs": [
        {
          "name": "",
          "type": "uint256"
        }
      ],
      "payable": false,
      "stateMutability": "view",
      "type": "function"
    },
    {
      "constant": false,
      "inputs": [],
      "name": "resetElection",
      "outputs": [
        {
          "name": "",
          "type": "bool"
        }
      ],
      "payable": false,
      "stateMutability": "nonpayable",
      "type": "function"
    }
  ],
  "bytecode": "0x608060405234801561001057600080fd5b50336000806101000a81548173ffffffffffffffffffffffffffffffffffffffff021916908373ffffffffffffffffffffffffffffffffffffffff16021790555060018060003373ffffffffffffffffffffffffffffffffffffffff1673ffffffffffffffffffffffffffffffffffffffff16815260200190815260200160002060006101000a81548160ff02191690831515021790555060006005819055506124ac806100bf6000396000f3fe608060405234801561001057600080fd5b506004361061014d5760003560e01c806388149fb9116100c3578063df56ce561161007c578063df56ce56146103c4578063e8b2f84b146103f4578063e8f3052314610410578063e9c8767b1461042e578063f2ba18ed1461044c578063f4ffc69c1461046a5761014d565b806388149fb9146102dc5780639209416a146102fa578063a294d9751461032a578063a8311aa81461035a578063ab38b21914610378578063c8695cb1146103945761014d565b806342169e481161011557806342169e481461020a57806350f10b1f146102285780635b80df90146102445780635df3e2711461027457806370651a1814610290578063796e637f146102c05761014d565b806305a395a5146101525780630b817c381461016e5780631694fa7d1461018c5780631b4613cb146101bc5780633197cbb6146101ec575b600080fd5b61016c60048036036101679190810190611b77565b61049a565b005b610176610568565b6040516101839190612123565b60405180910390f35b6101a660048036036101a19190810190611bb8565b610651565b6040516101b391906121ff565b60405180910390f35b6101d660048036036101d19190810190611abb565b610696565b6040516101e39190612145565b60405180910390f35b6101f46106b6565b60405161020191906121ff565b60405180910390f35b6102126106bc565b60405161021f91906121ff565b60405180910390f35b610242600480360361023d9190810190611ae4565b6106c2565b005b61025e60048036036102599190810190611b77565b6107cb565b60405161026b919061219d565b60405180910390f35b61028e60048036036102899190810190611b77565b61088b565b005b6102aa60048036036102a59190810190611d0f565b610959565b6040516102b7919061217b565b60405180910390f35b6102da60048036036102d59190810190611a4f565b610a12565b005b6102e4610ba3565b6040516102f191906121ff565b60405180910390f35b610314600480360361030f9190810190611d0f565b610ba9565b604051610321919061217b565b60405180910390f35b610344600480360361033f9190810190611c24565b610c62565b60405161035191906121ff565b60405180910390f35b610362610cb3565b60405161036f9190612123565b60405180910390f35b610392600480360361038d9190810190611a26565b610d9c565b005b6103ae60048036036103a99190810190611a26565b610ed5565b6040516103bb9190612145565b60405180910390f35b6103de60048036036103d99190810190611bb8565b610ef5565b6040516103eb9190612101565b60405180910390f35b61040e60048036036104099190810190611a26565b610f88565b005b610418611071565b6040516104259190612145565b60405180910390f35b61043661128b565b60405161044391906120e6565b60405180910390f35b6104546112b0565b6040516104619190612145565b60405180910390f35b610484600480360361047f9190810190611c90565b6116ce565b6040516104919190612160565b60405180910390f35b600160003373ffffffffffffffffffffffffffffffffffffffff1673ffffffffffffffffffffffffffffffffffffffff16815260200190815260200160002060009054906101000a900460ff16610526576040517f08c379a000000000000000000000000000000000000000000000000000000000815260040161051d906121df565b60405180910390fd5b6002819080600181540180825580915050906001820390600052602060002001600090919290919091509080519060200190610563929190611735565b505050565b60606002805480602002602001604051908101604052809291908181526020016000905b82821015610648578382906000526020600020018054600181600116156101000203166002900480601f0160208091040260200160405190810160405280929190818152602001828054600181600116156101000203166002900480156106345780601f1061060957610100808354040283529160200191610634565b820191906000526020600020905b81548152906001019060200180831161061757829003601f168201915b50505050508152602001906001019061058c565b50505050905090565b600060078360405161066391906120b8565b90815260200160405180910390208260405161067f91906120b8565b908152602001604051809103902054905092915050565b60046020528060005260406000206000915054906101000a900460ff1681565b600a5481565b60055481565b6004600085815260200190815260200160002060009054906101000a900460ff1615610723576040517f08c379a000000000000000000000000000000000000000000000000000000000815260040161071a906121bf565b60405180910390fd5b60068360405161073391906120b8565b90815260200160405180910390208260405161074f91906120b8565b908152602001604051809103902081908060018154018082558091505090600182039060005260206000200160009091929091909150555060056000815480929190600101919050555060016004600086815260200190815260200160002060006101000a81548160ff02191690831515021790555050505050565b60606008826040516107dd91906120b8565b90815260200160405180910390208054600181600116156101000203166002900480601f01602080910402602001604051908101604052809291908181526020018280546001816001161561010002031660029004801561087f5780601f106108545761010080835404028352916020019161087f565b820191906000526020600020905b81548152906001019060200180831161086257829003601f168201915b50505050509050919050565b600160003373ffffffffffffffffffffffffffffffffffffffff1673ffffffffffffffffffffffffffffffffffffffff16815260200190815260200160002060009054906101000a900460ff16610917576040517f08c379a000000000000000000000000000000000000000000000000000000000815260040161090e906121df565b60405180910390fd5b6003819080600181540180825580915050906001820390600052602060002001600090919290919091509080519060200190610954929190611735565b505050565b6003818154811061096657fe5b906000526020600020016000915090508054600181600116156101000203166002900480601f016020809104026020016040519081016040528092919081815260200182805460018160011615610100020316600290048015610a0a5780601f106109df57610100808354040283529160200191610a0a565b820191906000526020600020905b8154815290600101906020018083116109ed57829003601f168201915b505050505081565b6000809054906101000a900473ffffffffffffffffffffffffffffffffffffffff1673ffffffffffffffffffffffffffffffffffffffff163373ffffffffffffffffffffffffffffffffffffffff1614610aa1576040517f08c379a0000000000000000000000000000000000000000000000000000000008152600401610a98906121df565b60405180910390fd5b6000600281610ab091906117b5565b506000600381610ac091906117b5565b5060008090505b8251811015610b2f576002838281518110610ade57fe5b60200260200101519080600181540180825580915050906001820390600052602060002001600090919290919091509080519060200190610b20929190611735565b50508080600101915050610ac7565b5060008090505b8151811015610b9e576003828281518110610b4d57fe5b60200260200101519080600181540180825580915050906001820390600052602060002001600090919290919091509080519060200190610b8f929190611735565b50508080600101915050610b36565b505050565b60095481565b60028181548110610bb657fe5b906000526020600020016000915090508054600181600116156101000203166002900480601f016020809104026020016040519081016040528092919081815260200182805460018160011615610100020316600290048015610c5a5780601f10610c2f57610100808354040283529160200191610c5a565b820191906000526020600020905b815481529060010190602001808311610c3d57829003601f168201915b505050505081565b60078280516020810182018051848252602083016020850120818352809550505050505081805160208101820180518482526020830160208501208183528095505050505050600091509150505481565b60606003805480602002602001604051908101604052809291908181526020016000905b82821015610d93578382906000526020600020018054600181600116156101000203166002900480601f016020809104026020016040519081016040528092919081815260200182805460018160011615610100020316600290048015610d7f5780601f10610d5457610100808354040283529160200191610d7f565b820191906000526020600020905b815481529060010190602001808311610d6257829003601f168201915b505050505081526020019060010190610cd7565b50505050905090565b6000809054906101000a900473ffffffffffffffffffffffffffffffffffffffff1673ffffffffffffffffffffffffffffffffffffffff163373ffffffffffffffffffffffffffffffffffffffff1614610e2b576040517f08c379a0000000000000000000000000000000000000000000000000000000008152600401610e22906121df565b60405180910390fd5b6000600160008373ffffffffffffffffffffffffffffffffffffffff1673ffffffffffffffffffffffffffffffffffffffff16815260200190815260200160002060006101000a81548160ff021916908315150217905550600160008273ffffffffffffffffffffffffffffffffffffffff1673ffffffffffffffffffffffffffffffffffffffff16815260200190815260200160002060006101000a81549060ff021916905550565b60016020528060005260406000206000915054906101000a900460ff1681565b6060600683604051610f0791906120b8565b908152602001604051809103902082604051610f2391906120b8565b9081526020016040518091039020805480602002602001604051908101604052809291908181526020018280548015610f7b57602002820191906000526020600020905b815481526020019060010190808311610f67575b5050505050905092915050565b6000809054906101000a900473ffffffffffffffffffffffffffffffffffffffff1673ffffffffffffffffffffffffffffffffffffffff163373ffffffffffffffffffffffffffffffffffffffff1614611017576040517f08c379a000000000000000000000000000000000000000000000000000000000815260040161100e906121df565b60405180910390fd5b60018060008373ffffffffffffffffffffffffffffffffffffffff1673ffffffffffffffffffffffffffffffffffffffff16815260200190815260200160002060006101000a81548160ff02191690831515021790555050565b60008060009054906101000a900473ffffffffffffffffffffffffffffffffffffffff1673ffffffffffffffffffffffffffffffffffffffff163373ffffffffffffffffffffffffffffffffffffffff1614611102576040517f08c379a00000000000000000000000000000000000000000000000000000000081526004016110f9906121df565b60405180910390fd5b60008090505b60028054905081101561127b5760008090505b60038054905081101561121557600060076002848154811061113957fe5b9060005260206000200160405161115091906120cf565b90815260200160405180910390206003838154811061116b57fe5b9060005260206000200160405161118291906120cf565b90815260200160405180910390208190555060006006600284815481106111a557fe5b906000526020600020016040516111bc91906120cf565b9081526020016040518091039020600383815481106111d757fe5b906000526020600020016040516111ee91906120cf565b90815260200160405180910390208161120791906117e1565b50808060010191505061111b565b506040518060200160405280600081525060086002838154811061123557fe5b9060005260206000200160405161124c91906120cf565b9081526020016040518091039020908051906020019061126d929190611735565b508080600101915050611108565b5060006005819055506001905090565b6000809054906101000a900473ffffffffffffffffffffffffffffffffffffffff1681565b60008060009054906101000a900473ffffffffffffffffffffffffffffffffffffffff1673ffffffffffffffffffffffffffffffffffffffff163373ffffffffffffffffffffffffffffffffffffffff1614611341576040517f08c379a0000000000000000000000000000000000000000000000000000000008152600401611338906121df565b60405180910390fd5b606060008090505b6002805490508110156116c557600360008154811061136457fe5b906000526020600020018054600181600116156101000203166002900480601f0160208091040260200160405190810160405280929190818152602001828054600181600116156101000203166002900480156114025780601f106113d757610100808354040283529160200191611402565b820191906000526020600020905b8154815290600101906020018083116113e557829003601f168201915b5050505050915060008090505b60038054905081101561166e5760066002838154811061142b57fe5b9060005260206000200160405161144291906120cf565b90815260200160405180910390206003828154811061145d57fe5b9060005260206000200160405161147491906120cf565b90815260200160405180910390208054905060076002848154811061149557fe5b906000526020600020016040516114ac91906120cf565b9081526020016040518091039020600383815481106114c757fe5b906000526020600020016040516114de91906120cf565b9081526020016040518091039020819055506007600283815481106114ff57fe5b9060005260206000200160405161151691906120cf565b90815260200160405180910390208360405161153291906120b8565b90815260200160405180910390205460076002848154811061155057fe5b9060005260206000200160405161156791906120cf565b90815260200160405180910390206003838154811061158257fe5b9060005260206000200160405161159991906120cf565b908152602001604051809103902054111561166157600381815481106115bb57fe5b906000526020600020018054600181600116156101000203166002900480601f0160208091040260200160405190810160405280929190818152602001828054600181600116156101000203166002900480156116595780601f1061162e57610100808354040283529160200191611659565b820191906000526020600020905b81548152906001019060200180831161163c57829003601f168201915b505050505092505b808060010191505061140f565b508160086002838154811061167f57fe5b9060005260206000200160405161169691906120cf565b908152602001604051809103902090805190602001906116b7929190611735565b508080600101915050611349565b50600191505090565b60068380516020810182018051848252602083016020850120818352809550505050505082805160208101820180518482526020830160208501208183528095505050505050818154811061171f57fe5b9060005260206000200160009250925050505481565b828054600181600116156101000203166002900490600052602060002090601f016020900481019282601f1061177657805160ff19168380011785556117a4565b828001600101855582156117a4579182015b828111156117a3578251825591602001919060010190611788565b5b5090506117b1919061180d565b5090565b8154818355818111156117dc578183600052602060002091820191016117db9190611832565b5b505050565b81548183558181111561180857818360005260206000209182019101611807919061185e565b5b505050565b61182f91905b8082111561182b576000816000905550600101611813565b5090565b90565b61185b91905b80821115611857576000818161184e9190611883565b50600101611838565b5090565b90565b61188091905b8082111561187c576000816000905550600101611864565b5090565b90565b50805460018160011615610100020316600290046000825580601f106118a957506118c8565b601f0160209004906000526020600020908101906118c7919061180d565b5b50565b6000813590506118da8161242d565b92915050565b600082601f8301126118f157600080fd5b81356119046118ff82612247565b61221a565b9150818183526020840193506020810190508360005b8381101561194a57813586016119308882611969565b84526020840193506020830192505060018101905061191a565b5050505092915050565b60008135905061196381612444565b92915050565b600082601f83011261197a57600080fd5b813561198d6119888261226f565b61221a565b915080825260208301602083018583830111156119a957600080fd5b6119b48382846123da565b50505092915050565b600082601f8301126119ce57600080fd5b81356119e16119dc8261229b565b61221a565b915080825260208301602083018583830111156119fd57600080fd5b611a088382846123da565b50505092915050565b600081359050611a208161245b565b92915050565b600060208284031215611a3857600080fd5b6000611a46848285016118cb565b91505092915050565b60008060408385031215611a6257600080fd5b600083013567ffffffffffffffff811115611a7c57600080fd5b611a88858286016118e0565b925050602083013567ffffffffffffffff811115611aa557600080fd5b611ab1858286016118e0565b9150509250929050565b600060208284031215611acd57600080fd5b6000611adb84828501611954565b91505092915050565b60008060008060808587031215611afa57600080fd5b6000611b0887828801611954565b945050602085013567ffffffffffffffff811115611b2557600080fd5b611b31878288016119bd565b935050604085013567ffffffffffffffff811115611b4e57600080fd5b611b5a878288016119bd565b9250506060611b6b87828801611954565b91505092959194509250565b600060208284031215611b8957600080fd5b600082013567ffffffffffffffff811115611ba357600080fd5b611baf848285016119bd565b91505092915050565b60008060408385031215611bcb57600080fd5b600083013567ffffffffffffffff811115611be557600080fd5b611bf1858286016119bd565b925050602083013567ffffffffffffffff811115611c0e57600080fd5b611c1a858286016119bd565b9150509250929050565b60008060408385031215611c3757600080fd5b600083013567ffffffffffffffff811115611c5157600080fd5b611c5d85828601611969565b925050602083013567ffffffffffffffff811115611c7a57600080fd5b611c8685828601611969565b9150509250929050565b600080600060608486031215611ca557600080fd5b600084013567ffffffffffffffff811115611cbf57600080fd5b611ccb86828701611969565b935050602084013567ffffffffffffffff811115611ce857600080fd5b611cf486828701611969565b9250506040611d0586828701611a11565b9150509250925092565b600060208284031215611d2157600080fd5b6000611d2f84828501611a11565b91505092915050565b6000611d448383611e55565b60208301905092915050565b6000611d5c8383611edd565b905092915050565b611d6d81612388565b82525050565b6000611d7e826122f3565b611d888185612339565b9350611d93836122c7565b8060005b83811015611dc4578151611dab8882611d38565b9750611db68361231f565b925050600181019050611d97565b5085935050505092915050565b6000611ddc826122fe565b611de6818561234a565b935083602082028501611df8856122d4565b8060005b85811015611e345784840389528151611e158582611d50565b9450611e208361232c565b925060208a01995050600181019050611dfc565b50829750879550505050505092915050565b611e4f8161239a565b82525050565b611e5e816123a6565b82525050565b611e6d816123a6565b82525050565b6000611e7e82612314565b611e88818561236c565b9350611e988185602086016123e9565b611ea18161241c565b840191505092915050565b6000611eb782612314565b611ec1818561237d565b9350611ed18185602086016123e9565b80840191505092915050565b6000611ee882612309565b611ef2818561235b565b9350611f028185602086016123e9565b611f0b8161241c565b840191505092915050565b6000611f2182612309565b611f2b818561236c565b9350611f3b8185602086016123e9565b611f448161241c565b840191505092915050565b600081546001811660008114611f6c5760018114611f9157611fd5565b607f6002830416611f7d818761237d565b955060ff1983168652808601935050611fd5565b60028204611f9f818761237d565b9550611faa856122e1565b60005b82811015611fcc57815481890152600182019150602081019050611fad565b82880195505050505b505092915050565b6000611fea60268361236c565b91507f54686520766f7465722068617320616c726561647920766f7465642e2041626f60008301527f7274696e672e00000000000000000000000000000000000000000000000000006020830152604082019050919050565b600061205060328361236c565b91507f596f7520617265206e6f7420417574686f72697a656420746f206d616b65207460008301527f6869732066756e6374696f6e2043616c6c2e00000000000000000000000000006020830152604082019050919050565b6120b2816123d0565b82525050565b60006120c48284611eac565b915081905092915050565b60006120db8284611f4f565b915081905092915050565b60006020820190506120fb6000830184611d64565b92915050565b6000602082019050818103600083015261211b8184611d73565b905092915050565b6000602082019050818103600083015261213d8184611dd1565b905092915050565b600060208201905061215a6000830184611e46565b92915050565b60006020820190506121756000830184611e64565b92915050565b600060208201905081810360008301526121958184611f16565b905092915050565b600060208201905081810360008301526121b78184611e73565b905092915050565b600060208201905081810360008301526121d881611fdd565b9050919050565b600060208201905081810360008301526121f881612043565b9050919050565b600060208201905061221460008301846120a9565b92915050565b6000604051905081810181811067ffffffffffffffff8211171561223d57600080fd5b8060405250919050565b600067ffffffffffffffff82111561225e57600080fd5b602082029050602081019050919050565b600067ffffffffffffffff82111561228657600080fd5b601f19601f8301169050602081019050919050565b600067ffffffffffffffff8211156122b257600080fd5b601f19601f8301169050602081019050919050565b6000602082019050919050565b6000602082019050919050565b60008160005260206000209050919050565b600081519050919050565b600081519050919050565b600081519050919050565b600081519050919050565b6000602082019050919050565b6000602082019050919050565b600082825260208201905092915050565b600082825260208201905092915050565b600082825260208201905092915050565b600082825260208201905092915050565b600081905092915050565b6000612393826123b0565b9050919050565b60008115159050919050565b6000819050919050565b600073ffffffffffffffffffffffffffffffffffffffff82169050919050565b6000819050919050565b82818337600083830152505050565b60005b838110156124075780820151818401526020810190506123ec565b83811115612416576000848401525b50505050565b6000601f19601f8301169050919050565b61243681612388565b811461244157600080fd5b50565b61244d816123a6565b811461245857600080fd5b50565b612464816123d0565b811461246f57600080fd5b5056fea265627a7a723058207cc11da6697aa0ddd957bc6d1bd4c79379e8da2b0e49541cd7595d55ddfc9ca86c6578706572696d656e74616cf50037",
  "source": "pragma solidity ^0.5.0;\npragma experimental ABIEncoderV2;\n\n// import \"./VoteVault.sol\";\n\ncontract Election {\n \n    address public EC_Head;\n    mapping(address => bool) public ec_officials;\n\n    // event Approval(address indexed tokenOwner, address indexed spender, uint tokens);\n    // event Transfer(address indexed from, address indexed to, uint tokens);\n\n    string[] public  constituencies;\n    string[] public parties;\n    // mapping(uint8 => string) public partyName;\n    mapping(bytes32 => bool) public hasVoted;\n    \n    uint public voterCount;\n    mapping(string => mapping (string => bytes32[])) public vote_hashes;\n    mapping(string => mapping (string => uint)) public result;\n    mapping(string => string)  winner;\n\n    // Vault opens/opened at this time\n    uint256 public beginTime;\n    \n    // Vault closes/Closed at this times\n    uint256 public endTime;\n    \n   \n\n    using SafeMath for uint;\n    \n    modifier onlyEcHead {\n        require((msg.sender == EC_Head), \"You are not Authorized to make this function Call.\");\n        _;\n    }\n    modifier onlyEcOfficial {\n        require((ec_officials[msg.sender]), \"You are not Authorized to make this function Call.\");\n        _;\n    }\n\n\n   constructor() public {  \n\t\n    EC_Head = msg.sender;\n    ec_officials[msg.sender] = true;\n    voterCount = 0;\n    }  \n\n    function addEcOfficial (address official) public onlyEcHead {\n        ec_officials[official] = true;\n    }\n    function removeEcOfficial(address official) public onlyEcHead {\n        ec_officials[official] = false;\n        delete ec_officials[official];\n    }\n\n    function addParty (string memory party_name) public onlyEcOfficial {\n        // require(!isVaultOpened);\n        // require(beginTime >= uint256(now), \"Cannot add a party after the elections have started.\");\n        parties.push(party_name);\n    }\n    function addConstituency (string memory constituency) public onlyEcOfficial{\n        // require(!isVaultOpened);\n        // require(beginTime >= uint256(now), \"Cannot add a constituency after the elections have started.\");\n        constituencies.push(constituency);\n    }\n\n    function getConstituencies() public view returns(string[] memory){\n        return constituencies;\n    }\n    function getParties() public view returns(string[] memory){\n        return parties;\n    }\n\n    function addElectionDetails(string[] memory _constituencies, string[] memory _parties) public onlyEcHead {\n        constituencies.length = 0;\n        parties.length = 0;\n        for (uint i=0; i<_constituencies.length; i++){\n            constituencies.push(_constituencies[i]);\n        }\n        for (uint i=0; i<_parties.length; i++){\n            parties.push(_parties[i]);\n        }\n        // constituencies = _constituencies;\n        // parties = _parties;\n    }\n\n    function registerVote(bytes32 uuid_hash, string memory constituency, string memory party,  bytes32 vote_hash) public {\n        // require(!vaultSealed);\n        // require(isVaultOpened);\n        // require(beginTime <= uint256(now), \"The elections haven't started yet\");\n        // require(endTime >= uint256(now), \"The election period is over\");\n        require(!(hasVoted[uuid_hash]), \"The voter has already voted. Aborting.\");\n\n        vote_hashes[constituency][party].push(vote_hash);\n        voterCount++;\n        hasVoted[uuid_hash] = true;\n    }\n\n    function calculateVotes() public  onlyEcHead returns (bool) {\n        // require(endTime <= uint256(now), \"The election period is not over. Can't calculate the votes before election ends.\");\n        string memory _winner;\n\n        for (uint i = 0; i < constituencies.length; i++)\n        {\n            _winner = parties[0];\n            for (uint j = 0; j < parties.length; j++){\n                 result[constituencies[i]][parties[j]] = vote_hashes[constituencies[i]][parties[j]].length;\n                if ( result[constituencies[i]][parties[j]] > result[constituencies[i]][_winner]){\n                    _winner = parties[j];\n                }\n            }\n             winner[constituencies[i]] = _winner;\n        }\n        return true;\n    }\n\n    function getWinner(string memory constituency) public view returns (string memory) {\n        return  winner[constituency];\n    }\n    function getVoteHashes(string memory constituency, string memory party) public view returns (bytes32[] memory) {\n        return  vote_hashes[constituency][party];\n    }\n    function getVoteCount(string memory constituency, string memory party) public view returns (uint) {\n        return  result[constituency][party];\n    }\n\n    function resetElection() public onlyEcHead returns(bool){\n        for (uint i = 0; i < constituencies.length; i++)\n        {\n            for (uint j = 0; j < parties.length; j++){\n                 result[constituencies[i]][parties[j]] = 0;\n                 vote_hashes[constituencies[i]][parties[j]].length = 0;\n\n            }\n             winner[constituencies[i]] = \"\";\n        }\n        voterCount = 0;\n        return true;\n    }\n}\n\nlibrary SafeMath { \n    function sub(uint256 a, uint256 b) internal pure returns (uint256) {\n      assert(b <= a);\n      return a - b;\n    }\n    \n    function add(uint256 a, uint256 b) internal pure returns (uint256) {\n      uint256 c = a + b;\n      assert(c >= a);\n      return c;\n    }\n}\n",
  "sourcePath": "/home/tezansahu/Tezan/Github Repos/Excalibur-code-fun-do/Dapp/contracts/Election.sol",
  "compiler": {
    "name": "solc",
    "version": "0.5.8+commit.23d335f2.Emscripten.clang"
  },
  "schemaVersion": "3.0.11",
  "updatedAt": "2020-01-29T11:54:45.037Z",
  "devdoc": {
    "methods": {}
  },
  "userdoc": {
    "methods": {}
  }
}