{
  "address": "0x67E6563968b571d6703A4F7dBa8FF1B4AFCf21F2",
  "abi": [
    {
      "inputs": [
        {
          "internalType": "address",
          "name": "_usdc",
          "type": "address"
        }
      ],
      "stateMutability": "nonpayable",
      "type": "constructor"
    },
    {
      "inputs": [],
      "name": "PM_InsufficientApprovedAmount",
      "type": "error"
    },
    {
      "anonymous": false,
      "inputs": [
        {
          "indexed": true,
          "internalType": "uint256",
          "name": "predictionId",
          "type": "uint256"
        },
        {
          "indexed": false,
          "internalType": "uint256",
          "name": "timestamp",
          "type": "uint256"
        },
        {
          "indexed": false,
          "internalType": "bool",
          "name": "isAbove",
          "type": "bool"
        },
        {
          "indexed": true,
          "internalType": "int224",
          "name": "priceReading",
          "type": "int224"
        },
        {
          "indexed": true,
          "internalType": "int224",
          "name": "priceTarget",
          "type": "int224"
        }
      ],
      "name": "ConcludeFatalError",
      "type": "event"
    },
    {
      "anonymous": false,
      "inputs": [
        {
          "indexed": true,
          "internalType": "uint256",
          "name": "predictionId",
          "type": "uint256"
        },
        {
          "indexed": true,
          "internalType": "address",
          "name": "marketHandler",
          "type": "address"
        },
        {
          "indexed": true,
          "internalType": "address",
          "name": "trader",
          "type": "address"
        },
        {
          "indexed": false,
          "internalType": "int256",
          "name": "amountYes",
          "type": "int256"
        },
        {
          "indexed": false,
          "internalType": "int256",
          "name": "amountNo",
          "type": "int256"
        }
      ],
      "name": "HandlerProgress",
      "type": "event"
    },
    {
      "anonymous": false,
      "inputs": [
        {
          "indexed": true,
          "internalType": "address",
          "name": "previousOwner",
          "type": "address"
        },
        {
          "indexed": true,
          "internalType": "address",
          "name": "newOwner",
          "type": "address"
        }
      ],
      "name": "OwnershipTransferred",
      "type": "event"
    },
    {
      "anonymous": false,
      "inputs": [
        {
          "indexed": true,
          "internalType": "uint256",
          "name": "predictionId",
          "type": "uint256"
        },
        {
          "indexed": false,
          "internalType": "uint256",
          "name": "timestamp",
          "type": "uint256"
        }
      ],
      "name": "PredictionConcluded",
      "type": "event"
    },
    {
      "anonymous": false,
      "inputs": [
        {
          "indexed": true,
          "internalType": "uint256",
          "name": "predictionId",
          "type": "uint256"
        },
        {
          "indexed": true,
          "internalType": "address",
          "name": "marketHandler",
          "type": "address"
        },
        {
          "indexed": false,
          "internalType": "address",
          "name": "creator",
          "type": "address"
        },
        {
          "indexed": false,
          "internalType": "uint256",
          "name": "timestamp",
          "type": "uint256"
        },
        {
          "indexed": true,
          "internalType": "uint256",
          "name": "deadline",
          "type": "uint256"
        }
      ],
      "name": "PredictionCreated",
      "type": "event"
    },
    {
      "stateMutability": "payable",
      "type": "fallback"
    },
    {
      "inputs": [],
      "name": "PLATFORM_FEE",
      "outputs": [
        {
          "internalType": "uint256",
          "name": "",
          "type": "uint256"
        }
      ],
      "stateMutability": "view",
      "type": "function"
    },
    {
      "inputs": [],
      "name": "TRADING_FEE",
      "outputs": [
        {
          "internalType": "uint256",
          "name": "",
          "type": "uint256"
        }
      ],
      "stateMutability": "view",
      "type": "function"
    },
    {
      "inputs": [
        {
          "internalType": "bytes32",
          "name": "_bytes32Data",
          "type": "bytes32"
        }
      ],
      "name": "bytes32ToString",
      "outputs": [
        {
          "internalType": "string",
          "name": "",
          "type": "string"
        }
      ],
      "stateMutability": "pure",
      "type": "function"
    },
    {
      "inputs": [
        {
          "internalType": "uint256",
          "name": "_predictionId",
          "type": "uint256"
        },
        {
          "internalType": "bool",
          "name": "_vote",
          "type": "bool"
        },
        {
          "internalType": "address",
          "name": "_initiator",
          "type": "address"
        },
        {
          "internalType": "int224",
          "name": "_readPrice",
          "type": "int224"
        }
      ],
      "name": "concludePrediction_2",
      "outputs": [],
      "stateMutability": "nonpayable",
      "type": "function"
    },
    {
      "inputs": [
        {
          "internalType": "bytes32",
          "name": "_tokenSymbol",
          "type": "bytes32"
        },
        {
          "internalType": "address",
          "name": "_proxyAddress",
          "type": "address"
        },
        {
          "internalType": "bool",
          "name": "_isAbove",
          "type": "bool"
        },
        {
          "internalType": "int224",
          "name": "_targetPricePoint",
          "type": "int224"
        },
        {
          "internalType": "uint256",
          "name": "_deadline",
          "type": "uint256"
        },
        {
          "internalType": "uint256",
          "name": "_basePrice",
          "type": "uint256"
        }
      ],
      "name": "createPrediction",
      "outputs": [
        {
          "internalType": "uint256",
          "name": "",
          "type": "uint256"
        }
      ],
      "stateMutability": "nonpayable",
      "type": "function"
    },
    {
      "inputs": [],
      "name": "getNextPredictionId",
      "outputs": [
        {
          "internalType": "uint256",
          "name": "",
          "type": "uint256"
        }
      ],
      "stateMutability": "view",
      "type": "function"
    },
    {
      "inputs": [
        {
          "internalType": "uint256",
          "name": "_predictionId",
          "type": "uint256"
        }
      ],
      "name": "getPrediction",
      "outputs": [
        {
          "components": [
            {
              "internalType": "string",
              "name": "tokenSymbol",
              "type": "string"
            },
            {
              "internalType": "int224",
              "name": "targetPricePoint",
              "type": "int224"
            },
            {
              "internalType": "bool",
              "name": "isAbove",
              "type": "bool"
            },
            {
              "internalType": "address",
              "name": "proxyAddress",
              "type": "address"
            },
            {
              "internalType": "uint256",
              "name": "fee",
              "type": "uint256"
            },
            {
              "internalType": "uint256",
              "name": "timestamp",
              "type": "uint256"
            },
            {
              "internalType": "uint256",
              "name": "deadline",
              "type": "uint256"
            },
            {
              "internalType": "bool",
              "name": "isActive",
              "type": "bool"
            },
            {
              "internalType": "address",
              "name": "marketHandler",
              "type": "address"
            },
            {
              "internalType": "uint256",
              "name": "predictionTokenPrice",
              "type": "uint256"
            },
            {
              "internalType": "int224",
              "name": "priceAtConclude",
              "type": "int224"
            }
          ],
          "internalType": "struct Prediction",
          "name": "",
          "type": "tuple"
        }
      ],
      "stateMutability": "view",
      "type": "function"
    },
    {
      "inputs": [
        {
          "internalType": "uint256[]",
          "name": "_ids",
          "type": "uint256[]"
        },
        {
          "internalType": "uint256",
          "name": "_limit",
          "type": "uint256"
        }
      ],
      "name": "getPredictions",
      "outputs": [
        {
          "components": [
            {
              "internalType": "string",
              "name": "tokenSymbol",
              "type": "string"
            },
            {
              "internalType": "int224",
              "name": "targetPricePoint",
              "type": "int224"
            },
            {
              "internalType": "bool",
              "name": "isAbove",
              "type": "bool"
            },
            {
              "internalType": "address",
              "name": "proxyAddress",
              "type": "address"
            },
            {
              "internalType": "uint256",
              "name": "fee",
              "type": "uint256"
            },
            {
              "internalType": "uint256",
              "name": "timestamp",
              "type": "uint256"
            },
            {
              "internalType": "uint256",
              "name": "deadline",
              "type": "uint256"
            },
            {
              "internalType": "bool",
              "name": "isActive",
              "type": "bool"
            },
            {
              "internalType": "address",
              "name": "marketHandler",
              "type": "address"
            },
            {
              "internalType": "uint256",
              "name": "predictionTokenPrice",
              "type": "uint256"
            },
            {
              "internalType": "int224",
              "name": "priceAtConclude",
              "type": "int224"
            }
          ],
          "internalType": "struct Prediction[]",
          "name": "",
          "type": "tuple[]"
        }
      ],
      "stateMutability": "view",
      "type": "function"
    },
    {
      "inputs": [
        {
          "internalType": "uint256[]",
          "name": "_ids",
          "type": "uint256[]"
        },
        {
          "internalType": "uint256",
          "name": "_limit",
          "type": "uint256"
        }
      ],
      "name": "getProxiesForPredictions",
      "outputs": [
        {
          "internalType": "address[]",
          "name": "",
          "type": "address[]"
        }
      ],
      "stateMutability": "view",
      "type": "function"
    },
    {
      "inputs": [
        {
          "internalType": "uint256",
          "name": "_predictionId",
          "type": "uint256"
        }
      ],
      "name": "getProxyForPrediction",
      "outputs": [
        {
          "internalType": "address",
          "name": "",
          "type": "address"
        }
      ],
      "stateMutability": "view",
      "type": "function"
    },
    {
      "inputs": [],
      "name": "owner",
      "outputs": [
        {
          "internalType": "address",
          "name": "",
          "type": "address"
        }
      ],
      "stateMutability": "view",
      "type": "function"
    },
    {
      "inputs": [],
      "name": "renounceOwnership",
      "outputs": [],
      "stateMutability": "nonpayable",
      "type": "function"
    },
    {
      "inputs": [
        {
          "internalType": "address",
          "name": "_settlement",
          "type": "address"
        }
      ],
      "name": "setSettlementAddress",
      "outputs": [],
      "stateMutability": "nonpayable",
      "type": "function"
    },
    {
      "inputs": [
        {
          "internalType": "uint256",
          "name": "_newFee",
          "type": "uint256"
        }
      ],
      "name": "setTradingFee",
      "outputs": [],
      "stateMutability": "nonpayable",
      "type": "function"
    },
    {
      "inputs": [
        {
          "internalType": "address",
          "name": "_vault",
          "type": "address"
        }
      ],
      "name": "setVaultAddress",
      "outputs": [],
      "stateMutability": "nonpayable",
      "type": "function"
    },
    {
      "inputs": [],
      "name": "settlementAddress",
      "outputs": [
        {
          "internalType": "address",
          "name": "",
          "type": "address"
        }
      ],
      "stateMutability": "view",
      "type": "function"
    },
    {
      "inputs": [
        {
          "internalType": "uint256",
          "name": "_id",
          "type": "uint256"
        },
        {
          "internalType": "address",
          "name": "_caller",
          "type": "address"
        },
        {
          "internalType": "int256",
          "name": "_amountYes",
          "type": "int256"
        },
        {
          "internalType": "int256",
          "name": "_amountNo",
          "type": "int256"
        }
      ],
      "name": "trackProgress",
      "outputs": [],
      "stateMutability": "nonpayable",
      "type": "function"
    },
    {
      "inputs": [
        {
          "internalType": "address",
          "name": "newOwner",
          "type": "address"
        }
      ],
      "name": "transferOwnership",
      "outputs": [],
      "stateMutability": "nonpayable",
      "type": "function"
    },
    {
      "inputs": [],
      "name": "vaultAddress",
      "outputs": [
        {
          "internalType": "address",
          "name": "",
          "type": "address"
        }
      ],
      "stateMutability": "view",
      "type": "function"
    },
    {
      "stateMutability": "payable",
      "type": "receive"
    }
  ],
  "transactionHash": "0xa5d9add4e5f85b5acfee0be849dae884e243d72fd1180b399fd83feec9b953b7",
  "args": [
    "0x8Ae887e45d0923f0bb7Cc45C0e6F5737aDC346eC"
  ],
  "numDeployments": 1,
  "solcInputHash": "57ebe01f1f9c27735021162f66e3b0dc",
  "bytecode": "0x60a060405260326002553480156200001657600080fd5b50604051620046ce380380620046ce8339810160408190526200003991620000c9565b620000443362000070565b6001600160a01b038116608052620000696001620000c0602090811b620014b817901c565b50620000fb565b600080546001600160a01b038381166001600160a01b0319831681178455604051919092169283917f8be0079c531659141344cd1fd0a4f28419497f9722a3daafe3b4186f6b6457e09190a35050565b80546001019055565b600060208284031215620000dc57600080fd5b81516001600160a01b0381168114620000f457600080fd5b9392505050565b60805161459b62000133600039600081816108bc0152818161096201528181610a6001528181610db70152610e54015261459b6000f3fe608060405260043610620001155760003560e01c806385535cc511620000a7578063d10d9e061162000069578063d10d9e061462000359578063dcb6b26a146200037e578063f2fde38b14620003a3578063f738c4a714620003c8578063fe83bece14620003ea57005b806385535cc514620002965780638da5cb5b14620002bb5780639201de5514620002db578063b0d54bcf146200030f578063b909f6ba146200033457005b806323531b90146200011f57806334fbc9a1146200014a5780633dcab2381462000164578063430bf08a146200017c578063461d282b14620001b757806360adf22314620001f15780636c9e4d171462000225578063715018a6146200025957806373a3cc23146200027157005b366200011d57005b005b3480156200012c57600080fd5b506200013760025481565b6040519081526020015b60405180910390f35b3480156200015757600080fd5b50620001376302faf08081565b3480156200017157600080fd5b50620001376200041e565b3480156200018957600080fd5b506007546200019e906001600160a01b031681565b6040516001600160a01b03909116815260200162000141565b348015620001c457600080fd5b506200019e620001d63660046200157b565b6000908152600460205260409020546001600160a01b031690565b348015620001fe57600080fd5b506200021662000210366004620015ab565b6200042f565b6040516200014191906200178d565b3480156200023257600080fd5b506200024a62000244366004620015ab565b620005de565b604051620001419190620017f3565b3480156200026657600080fd5b506200011d62000672565b3480156200027e57600080fd5b506200011d620002903660046200185f565b6200068a565b348015620002a357600080fd5b506200011d620002b53660046200185f565b620006b6565b348015620002c857600080fd5b506000546001600160a01b03166200019e565b348015620002e857600080fd5b5062000300620002fa3660046200157b565b620006e2565b60405162000141919062001884565b3480156200031c57600080fd5b506200011d6200032e3660046200157b565b62000775565b3480156200034157600080fd5b506200011d62000353366004620018bb565b62000784565b3480156200036657600080fd5b50620001376200037836600462001911565b62000a2e565b3480156200038b57600080fd5b506200011d6200039d36600462001979565b62001156565b348015620003b057600080fd5b506200011d620003c23660046200185f565b6200129c565b348015620003d557600080fd5b506006546200019e906001600160a01b031681565b348015620003f757600080fd5b506200040f620004093660046200157b565b6200131b565b604051620001419190620019b7565b60006200042a60015490565b905090565b60608060005b83811015620005d65760036000868381518110620004575762000457620019cc565b60200260200101518152602001908152602001600020604051806101600160405290816000820180546200048b90620019e2565b80601f0160208091040260200160405190810160405280929190818152602001828054620004b990620019e2565b80156200050a5780601f10620004de576101008083540402835291602001916200050a565b820191906000526020600020905b815481529060010190602001808311620004ec57829003601f168201915b50505091835250506001820154601b81810b6020840152600160e01b90910460ff9081161515604084015260028401546001600160a01b03908116606085015260038501546080850152600485015460a0850152600585015460c08501526006850154918216151560e0850152610100918290041690830152600783015461012083015260089092015490910b610140909101528251839083908110620005b557620005b5620019cc565b60200260200101819052508080620005cd9062001a1e565b91505062000435565b509392505050565b60608060005b83811015620005d65760046000868381518110620006065762000606620019cc565b6020026020010151815260200190815260200160002060009054906101000a90046001600160a01b0316828281518110620006455762000645620019cc565b6001600160a01b039092166020928302919091019091015280620006698162001a1e565b915050620005e4565b6200067c620014c1565b6200068860006200151d565b565b62000694620014c1565b600680546001600160a01b0319166001600160a01b0392909216919091179055565b620006c0620014c1565b600780546001600160a01b0319166001600160a01b0392909216919091179055565b6040805160208082528183019092526060916000919060208201818036833701905050905060005b60208110156200076e57838160208110620007295762000729620019cc565b1a60f81b828281518110620007425762000742620019cc565b60200101906001600160f81b031916908160001a90535080620007658162001a1e565b9150506200070a565b5092915050565b6200077f620014c1565b600255565b60065433906001600160a01b031681146200079e57600080fd5b600085815260036020526040902060050154421015620007fa5760405162461bcd60e51b815260206004820152601260248201527121b7b731b63ab232af99102330b4b632b21760711b60448201526064015b60405180910390fd5b6000858152600360205260409081902060060154905163086c9a8160e11b815285151560048201526101009091046001600160a01b031690819081906310d9350290602401600060405180830381600087803b1580156200085a57600080fd5b505af11580156200086f573d6000803e3d6000fd5b5050506000888152600360205260409081902060068101805460ff191690556008810180546001600160e01b0319166001600160e01b038916179055905163a9059cbb60e01b81529091507f00000000000000000000000000000000000000000000000000000000000000006001600160a01b03169063a9059cbb90620009019089906302625a009060040162001a46565b6020604051808303816000875af115801562000921573d6000803e3d6000fd5b505050506040513d601f19601f8201168201806040525081019062000947919062001a5f565b5060075460405163a9059cbb60e01b81526001600160a01b037f000000000000000000000000000000000000000000000000000000000000000081169263a9059cbb92620009a2929190911690629896809060040162001a46565b6020604051808303816000875af1158015620009c2573d6000803e3d6000fd5b505050506040513d601f19601f82011682018060405250810190620009e8919062001a5f565b50877f8942a99ecf13e35a279676a3f0e93405df4c4022b90e0649908e349da0c64a5a4260405162000a1c91815260200190565b60405180910390a25050505050505050565b60008033604051636eb1769f60e11b81526001600160a01b0380831660048301523060248301529192506302faf080917f0000000000000000000000000000000000000000000000000000000000000000169063dd62ed3e90604401602060405180830381865afa15801562000aa8573d6000803e3d6000fd5b505050506040513d601f19601f8201168201806040525081019062000ace919062001a7f565b101562000b135760405162461bcd60e51b8152602060048201526012602482015271416c6c6f77616e6365206e6f74207365742160701b6044820152606401620007f1565b6001600160a01b03871662000b835760405162461bcd60e51b815260206004820152602f60248201527f43616e277420686176652061646472657373207a65726f20617320746865207060448201526e3937bc3c93b99030b2323932b9b99760891b6064820152608401620007f1565b42841162000bd45760405162461bcd60e51b815260206004820152601e60248201527f446561646c696e652063616e277420626520696e2074686520706173742e00006044820152606401620007f1565b600062000be060015490565b90506000600360008381526020019081526020016000206040518061016001604052908160008201805462000c1590620019e2565b80601f016020809104026020016040519081016040528092919081815260200182805462000c4390620019e2565b801562000c945780601f1062000c685761010080835404028352916020019162000c94565b820191906000526020600020905b81548152906001019060200180831162000c7657829003601f168201915b50505091835250506001820154601b81810b602084015260ff600160e01b90920482161515604084015260028401546001600160a01b03908116606085015260038501546080850152600485015460a080860191909152600586015460c08601526006860154938416151560e08601526101009384900490911692840192909252600784015461012084015260089093015490920b610140909101528101519091501562000d855760405162461bcd60e51b815260206004820152601a60248201527f50726564696374696f6e20616c7265616479206578697374732e0000000000006044820152606401620007f1565b6040516323b872dd60e01b81526001600160a01b0384811660048301523060248301526302faf08060448301526000917f0000000000000000000000000000000000000000000000000000000000000000909116906323b872dd906064016020604051808303816000875af115801562000e03573d6000803e3d6000fd5b505050506040513d601f19601f8201168201806040525081019062000e29919062001a5f565b90508062000e4a5760405163ca234f3960e01b815260040160405180910390fd5b60008360025489897f0000000000000000000000000000000000000000000000000000000000000000600760009054906101000a90046001600160a01b031660405162000e97906200156d565b9586526020860194909452604085019290925260608401526001600160a01b0390811660808401521660a082015260c001604051809103906000f08015801562000ee5573d6000803e3d6000fd5b509050600060405180610160016040528062000f018f620006e2565b81526020018b601b0b81526020018c151581526020018d6001600160a01b0316815260200160025481526020014281526020018a8152602001600115158152602001836001600160a01b03168152602001898152602001600019601b0b81525090508060036000878152602001908152602001600020600082015181600001908162000f8e919062001aec565b5060208201518160010160006101000a8154816001600160e01b030219169083601b0b6001600160e01b03160217905550604082015181600101601c6101000a81548160ff02191690831515021790555060608201518160020160006101000a8154816001600160a01b0302191690836001600160a01b031602179055506080820151816003015560a0820151816004015560c0820151816005015560e08201518160060160006101000a81548160ff0219169083151502179055506101008201518160060160016101000a8154816001600160a01b0302191690836001600160a01b0316021790555061012082015181600701556101408201518160080160006101000a8154816001600160e01b030219169083601b0b6001600160e01b031602179055509050508b6004600087815260200190815260200160002060006101000a8154816001600160a01b0302191690836001600160a01b03160217905550620010fe600180546001019055565b88826001600160a01b0316867f7bed24594bc69eabc466d2e497d2f8ec45df38dea10026d0c4e0b31cb0a9b9c689426040516200113d92919062001a46565b60405180910390a450929b9a5050505050505050505050565b833360008281526003602052604090206006015461010090046001600160a01b031680620011c05760405162461bcd60e51b8152602060048201526016602482015275496e76616c69642050726564696374696f6e2049642160501b6044820152606401620007f1565b816001600160a01b0316816001600160a01b0316146200122d5760405162461bcd60e51b815260206004820152602160248201527f43616c6c6572206973206e6f7420746865206d61726b65742068616e646c65726044820152601760f91b6064820152608401620007f1565b60008781526003602090815260409182902060060154825188815291820187905261010090046001600160a01b03908116929089169183918b917faa4efaf794e3033902d020af57e79b057692c8db2827c81e7bebe89009630212910160405180910390a45050505050505050565b620012a6620014c1565b6001600160a01b0381166200130d5760405162461bcd60e51b815260206004820152602660248201527f4f776e61626c653a206e6577206f776e657220697320746865207a65726f206160448201526564647265737360d01b6064820152608401620007f1565b62001318816200151d565b50565b6040805161016081018252606080825260006020830181905292820183905281018290526080810182905260a0810182905260c0810182905260e081018290526101008101829052610120810182905261014081019190915260008281526003602052604090819020815161016081019092528054829082906200139f90620019e2565b80601f0160208091040260200160405190810160405280929190818152602001828054620013cd90620019e2565b80156200141e5780601f10620013f2576101008083540402835291602001916200141e565b820191906000526020600020905b8154815290600101906020018083116200140057829003601f168201915b50505091835250506001820154601b81810b6020840152600160e01b90910460ff9081161515604084015260028401546001600160a01b03908116606085015260038501546080850152600485015460a0850152600585015460c08501526006850154918216151560e0850152610100918290041690830152600783015461012083015260089092015490910b6101409091015292915050565b80546001019055565b6000546001600160a01b03163314620006885760405162461bcd60e51b815260206004820181905260248201527f4f776e61626c653a2063616c6c6572206973206e6f7420746865206f776e65726044820152606401620007f1565b600080546001600160a01b038381166001600160a01b0319831681178455604051919092169283917f8be0079c531659141344cd1fd0a4f28419497f9722a3daafe3b4186f6b6457e09190a35050565b6129ac8062001bba83390190565b6000602082840312156200158e57600080fd5b5035919050565b634e487b7160e01b600052604160045260246000fd5b60008060408385031215620015bf57600080fd5b823567ffffffffffffffff80821115620015d857600080fd5b818501915085601f830112620015ed57600080fd5b813560208282111562001604576200160462001595565b8160051b604051601f19603f830116810181811086821117156200162c576200162c62001595565b6040529283528183019350848101820192898411156200164b57600080fd5b948201945b838610156200166b5785358552948201949382019362001650565b9997909101359750505050505050565b6000815180845260005b81811015620016a35760208185018101518683018201520162001685565b506000602082860101526020601f19601f83011685010191505092915050565b60006101608251818552620016db828601826200167b565b9150506020830151620016f36020860182601b0b9052565b50604083015162001708604086018215159052565b5060608301516200172460608601826001600160a01b03169052565b506080830151608085015260a083015160a085015260c083015160c085015260e08301516200175760e086018215159052565b50610100838101516001600160a01b031690850152610120808401519085015261014092830151601b0b92909301919091525090565b6000602080830181845280855180835260408601915060408160051b870101925083870160005b82811015620017e657603f19888603018452620017d3858351620016c3565b94509285019290850190600101620017b4565b5092979650505050505050565b6020808252825182820181905260009190848201906040850190845b81811015620018365783516001600160a01b0316835292840192918401916001016200180f565b50909695505050505050565b80356001600160a01b03811681146200185a57600080fd5b919050565b6000602082840312156200187257600080fd5b6200187d8262001842565b9392505050565b6020815260006200187d60208301846200167b565b80151581146200131857600080fd5b8035601b81900b81146200185a57600080fd5b60008060008060808587031215620018d257600080fd5b843593506020850135620018e68162001899565b9250620018f66040860162001842565b91506200190660608601620018a8565b905092959194509250565b60008060008060008060c087890312156200192b57600080fd5b863595506200193d6020880162001842565b945060408701356200194f8162001899565b93506200195f60608801620018a8565b92506080870135915060a087013590509295509295509295565b600080600080608085870312156200199057600080fd5b84359350620019a26020860162001842565b93969395505050506040820135916060013590565b6020815260006200187d6020830184620016c3565b634e487b7160e01b600052603260045260246000fd5b600181811c90821680620019f757607f821691505b60208210810362001a1857634e487b7160e01b600052602260045260246000fd5b50919050565b60006001820162001a3f57634e487b7160e01b600052601160045260246000fd5b5060010190565b6001600160a01b03929092168252602082015260400190565b60006020828403121562001a7257600080fd5b81516200187d8162001899565b60006020828403121562001a9257600080fd5b5051919050565b601f82111562001ae757600081815260208120601f850160051c8101602086101562001ac25750805b601f850160051c820191505b8181101562001ae35782815560010162001ace565b5050505b505050565b815167ffffffffffffffff81111562001b095762001b0962001595565b62001b218162001b1a8454620019e2565b8462001a99565b602080601f83116001811462001b59576000841562001b405750858301515b600019600386901b1c1916600185901b17855562001ae3565b600085815260208120601f198616915b8281101562001b8a5788860151825594840194600190910190840162001b69565b508582101562001ba95787850151600019600388901b60f8161c191681555b5050505050600190811b0190555056fe6101406040523480156200001257600080fd5b50604051620029ac380380620029ac8339810160408190526200003591620002de565b620000403362000268565b600680546001600160a01b031916331790556080869052620000658361271062000351565b60a05260c0849052600580546001600160a01b03808416620100000262010000600160b01b03199092169190911790915582166101208190526040805163313ce56760e01b8152905184929163313ce5679160048083019260209291908290030181865afa158015620000dc573d6000803e3d6000fd5b505050506040513d601f19601f8201168201806040525081019062000102919062000371565b6200010f90600a62000488565b60e08181525050612710816001600160a01b031663313ce5676040518163ffffffff1660e01b8152600401602060405180830381865afa15801562000158573d6000803e3d6000fd5b505050506040513d601f19601f820116820180604052508101906200017e919062000371565b6200018b90600a62000488565b62000197908862000351565b620001a391906200049d565b6101008181525050620001c26007620002b860201b620020d51760201c565b600c80546001810182556000919091527fdf6966c971051c3d54ec59162606531493a51404a002842f56009d7e5cf4a8c70180546001600160a01b03191690556200021a600b620002b8602090811b620020d517901c565b5050600880546001810182556000919091527ff3f7a9fe364faab93b216da50a3214154f22a0a2b415b23a84c8169e8b636ee30180546001600160a01b031916905550620004c09350505050565b600080546001600160a01b038381166001600160a01b0319831681178455604051919092169283917f8be0079c531659141344cd1fd0a4f28419497f9722a3daafe3b4186f6b6457e09190a35050565b80546001019055565b80516001600160a01b0381168114620002d957600080fd5b919050565b60008060008060008060c08789031215620002f857600080fd5b865195506020870151945060408701519350606087015192506200031f60808801620002c1565b91506200032f60a08801620002c1565b90509295509295509295565b634e487b7160e01b600052601160045260246000fd5b80820281158282048414176200036b576200036b6200033b565b92915050565b6000602082840312156200038457600080fd5b5051919050565b600181815b80851115620003cc578160001904821115620003b057620003b06200033b565b80851615620003be57918102915b93841c939080029062000390565b509250929050565b600082620003e5575060016200036b565b81620003f4575060006200036b565b81600181146200040d5760028114620004185762000438565b60019150506200036b565b60ff8411156200042c576200042c6200033b565b50506001821b6200036b565b5060208310610133831016604e8410600b84101617156200045d575081810a6200036b565b6200046983836200038b565b80600019048211156200048057620004806200033b565b029392505050565b6000620004968383620003d4565b9392505050565b600082620004bb57634e487b7160e01b600052601260045260246000fd5b500490565b60805160a05160c05160e0516101005161012051612384620006286000396000818161052f015281816107f701528181610ad401528181610c9701528181610df20152818161104a0152818161110f015281816111db015281816114fe015281816115c30152818161168f015281816119f201528181611b4d0152611e7e0152600081816103d101526120a00152600081816101fe0152818161069f01528181610be901528181610fea0152818161149e0152818161194401528181611d28015261207c0152600081816104fb015281816105b30152818161065c01528181610ba601528181610f990152818161144d015281816119010152611ce5015260008181610292015281816106c301528181610c0d0152818161100e015281816114c2015281816119680152611d4c0152600081816102db015281816108a601528181610ebe0152818161138c0152818161184001528181611c190152611f2b01526123846000f3fe60806040526004361061017a5760003560e01c80639473223e116100d1578063db29cd3d11610082578063db29cd3d14610474578063dfbf53ae14610494578063e1a51dff146104b3578063e8b2d47f146104e9578063edd347cd1461051d578063efdf3c1714610551578063f2fde38b14610571578063fcee45f41461059157005b80639473223e1461039f578063b5d53709146103bf578063b6e35797146103f3578063b8fe4cfb14610408578063c1ff549b1461041e578063c87b502e1461043e578063ca015b621461045457005b806370bb45b31161012b57806370bb45b3146102b457806370daf9a3146102c9578063715018a6146102fd57806377ed4657146103125780637b0e0820146103275780638da5cb5b146103575780638fb182aa1461038957005b806310d9350214610183578063181a2ea1146101a3578063501ff174146101ec57806353aaf54c14610220578063578a680614610236578063690aa8951461025657806369d5bf6b1461028057005b3661018157005b005b34801561018f57600080fd5b5061018161019e366004612196565b6105b1565b3480156101af57600080fd5b506101d96101be3660046121ba565b6001600160a01b03166000908152600e602052604090205490565b6040519081526020015b60405180910390f35b3480156101f857600080fd5b506101d97f000000000000000000000000000000000000000000000000000000000000000081565b34801561022c57600080fd5b506101d960045481565b34801561024257600080fd5b506101816102513660046121e3565b61065a565b34801561026257600080fd5b506005546102709060ff1681565b60405190151581526020016101e3565b34801561028c57600080fd5b506101d97f000000000000000000000000000000000000000000000000000000000000000081565b3480156102c057600080fd5b50610181610983565b3480156102d557600080fd5b506101d97f000000000000000000000000000000000000000000000000000000000000000081565b34801561030957600080fd5b50610181610b90565b34801561031e57600080fd5b506003546101d9565b34801561033357600080fd5b506102706103423660046121ba565b600f6020526000908152604090205460ff1681565b34801561036357600080fd5b506000546001600160a01b03165b6040516001600160a01b0390911681526020016101e3565b34801561039557600080fd5b506101d960035481565b3480156103ab57600080fd5b506101816103ba3660046121e3565b610ba4565b3480156103cb57600080fd5b506101d97f000000000000000000000000000000000000000000000000000000000000000081565b3480156103ff57600080fd5b506004546101d9565b34801561041457600080fd5b506101d960025481565b34801561042a57600080fd5b506101816104393660046121e3565b610f97565b34801561044a57600080fd5b506101d960015481565b34801561046057600080fd5b5061018161046f3660046121e3565b61144b565b34801561048057600080fd5b5061018161048f3660046121e3565b6118ff565b3480156104a057600080fd5b5060055461027090610100900460ff1681565b3480156104bf57600080fd5b506101d96104ce3660046121ba565b6001600160a01b03166000908152600a602052604090205490565b3480156104f557600080fd5b506101d97f000000000000000000000000000000000000000000000000000000000000000081565b34801561052957600080fd5b506103717f000000000000000000000000000000000000000000000000000000000000000081565b34801561055d57600080fd5b5061018161056c3660046121e3565b611ce3565b34801561057d57600080fd5b5061018161058c3660046121ba565b611ffa565b34801561059d57600080fd5b506101d96105ac3660046121e3565b612078565b7f000000000000000000000000000000000000000000000000000000000000000042116105f157604051632ff820bf60e21b815260040160405180910390fd5b6105f96120de565b600580548215156101000261ff00199091161790556040517f029f9bb82bcc34b8fb93e2f45e19e0db433f6acd8b15ca883f0ef2143b58342c9061064290831515815260200190565b60405180910390a1506005805460ff19166001179055565b7f000000000000000000000000000000000000000000000000000000000000000042111561069b5760405163700ec25b60e01b815260040160405180910390fd5b60007f00000000000000000000000000000000000000000000000000000000000000006106e87f000000000000000000000000000000000000000000000000000000000000000084612212565b6106f29190612229565b905060006106ff82612078565b9050600061070c84612078565b336000908152600e602052604090205490915084111561073e576040516296118960e51b815260040160405180910390fd5b336000908152600e60205260408120805486929061075d90849061224b565b925050819055508260046000828254610776919061224b565b909155506107869050818561224b565b336000908152600a6020526040812080549091906107a590849061225e565b909155506107b59050828461224b565b600360008282546107c6919061225e565b90915550600090506107d8828661224b565b60055460405163a9059cbb60e01b815291925086916001600160a01b037f000000000000000000000000000000000000000000000000000000000000000081169263a9059cbb926108389262010000909204909116908890600401612271565b6020604051808303816000875af1158015610857573d6000803e3d6000fd5b505050506040513d601f19601f8201168201806040525081019061087b919061228a565b50836002600082825461088e919061225e565b90915550506006546001600160a01b031663dcb6b26a7f000000000000000000000000000000000000000000000000000000000000000033856108d3866000196122a7565b6040518563ffffffff1660e01b81526004016108f294939291906122d7565b600060405180830381600087803b15801561090c57600080fd5b505af1158015610920573d6000803e3d6000fd5b5050505061092b3390565b6001600160a01b03167fa19c60f7787bc349d4b0903c435f5372c0ec8bd2ac9878a60fbe838caee3166683610962846000196122a7565b604080519283526020830191909152015b60405180910390a2505050505050565b60055460ff166109a657604051632ceb370f60e01b815260040160405180910390fd5b336000908152600f602052604090205460ff16156109d757604051634b87cbe160e11b815260040160405180910390fd5b60018054600554909160009182918291610100900460ff1615159003610a4757336000908152600a60205260408120549003610a26576040516302ee147360e21b815260040160405180910390fd5b600354336000908152600a6020526040812080549190559093509150610a93565b336000908152600e60205260408120549003610a76576040516302ee147360e21b815260040160405180910390fd5b600454336000908152600e60205260408120805491905590935091505b82610a9e8584612212565b610aa89190612229565b336000818152600f602052604090819020805460ff191660011790555163a9059cbb60e01b81529192507f00000000000000000000000000000000000000000000000000000000000000006001600160a01b03169163a9059cbb91610b11918590600401612271565b6020604051808303816000875af1158015610b30573d6000803e3d6000fd5b505050506040513d601f19601f82011682018060405250810190610b54919061228a565b5060405181815233907fe8354b169cd993d5cdfad1036a9a3f1ea7ed77e430bccb279200fd088243f5959060200160405180910390a250505050565b610b986120de565b610ba26000612138565b565b7f0000000000000000000000000000000000000000000000000000000000000000421115610be55760405163700ec25b60e01b815260040160405180910390fd5b60007f0000000000000000000000000000000000000000000000000000000000000000610c327f000000000000000000000000000000000000000000000000000000000000000084612212565b610c3c9190612229565b336000908152600a6020526040902054909150821115610c6f576040516327905ab760e21b815260040160405180910390fd5b6000610c7a82612078565b60055460405163a9059cbb60e01b81529192506001600160a01b037f000000000000000000000000000000000000000000000000000000000000000081169263a9059cbb92610cd6926201000090910416908590600401612271565b6020604051808303816000875af1158015610cf5573d6000803e3d6000fd5b505050506040513d601f19601f82011682018060405250810190610d19919061228a565b508060026000828254610d2c919061225e565b9091555060009050610d3e828461224b565b336000908152600a6020526040812080549293508692909190610d6290849061224b565b9091555050336000908152600a60205260408120549003610de057336000908152600960205260408120546008805491929183908110610da457610da46122fb565b600091825260208083209190910180546001600160a01b0319166001600160a01b03949094169390931790925533815260099091526040812055505b60405163a9059cbb60e01b81526000907f00000000000000000000000000000000000000000000000000000000000000006001600160a01b03169063a9059cbb90610e319033908690600401612271565b6020604051808303816000875af1158015610e50573d6000803e3d6000fd5b505050506040513d601f19601f82011682018060405250810190610e74919061228a565b905080610e945760405163c98df4e360e01b815260040160405180910390fd5b8360016000828254610ea6919061224b565b90915550506006546001600160a01b031663dcb6b26a7f000000000000000000000000000000000000000000000000000000000000000033610eea896000196122a7565b60006040518563ffffffff1660e01b8152600401610f0b94939291906122d7565b600060405180830381600087803b158015610f2557600080fd5b505af1158015610f39573d6000803e3d6000fd5b50505050610f443390565b6001600160a01b03167fcbc0df49dd88ec0ba5b87a3c77ed66af6480b175df0f21649805ed6201c56145866000604051610f88929190918252602082015260400190565b60405180910390a25050505050565b7f0000000000000000000000000000000000000000000000000000000000000000421115610fd85760405163700ec25b60e01b815260040160405180910390fd5b6001811015610fe657600080fd5b60007f00000000000000000000000000000000000000000000000000000000000000006110337f000000000000000000000000000000000000000000000000000000000000000084612212565b61103d9190612229565b9050806001600160a01b037f00000000000000000000000000000000000000000000000000000000000000001663dd62ed3e336040516001600160e01b031960e084901b1681526001600160a01b039091166004820152306024820152604401602060405180830381865afa1580156110ba573d6000803e3d6000fd5b505050506040513d601f19601f820116820180604052508101906110de9190612311565b10156110fd5760405163ca234f3960e01b815260040160405180910390fd5b6040516323b872dd60e01b81526000907f00000000000000000000000000000000000000000000000000000000000000006001600160a01b0316906323b872dd906111509033903090879060040161232a565b6020604051808303816000875af115801561116f573d6000803e3d6000fd5b505050506040513d601f19601f82011682018060405250810190611193919061228a565b9050806111b35760405163c98df4e360e01b815260040160405180910390fd5b60006111be83612078565b60055460405163a9059cbb60e01b81529192506001600160a01b037f000000000000000000000000000000000000000000000000000000000000000081169263a9059cbb9261121a926201000090910416908590600401612271565b6020604051808303816000875af1158015611239573d6000803e3d6000fd5b505050506040513d601f19601f8201168201806040525081019061125d919061228a565b508060026000828254611270919061225e565b909155506112809050818461224b565b60016000828254611291919061225e565b909155506112a19050818461224b565b600460008282546112b2919061225e565b90915550600090506112c385612078565b6112cd908661224b565b336000908152600e60205260408120805492935083929091906112f190849061225e565b9091555050336000908152600d60205260408120549003611379576000611317600b5490565b336000818152600d6020526040812092909255600c805460018082018355919093527fdf6966c971051c3d54ec59162606531493a51404a002842f56009d7e5cf4a8c790920180546001600160a01b0319169091179055600b80549091019055505b6006546001600160a01b031663dcb6b26a7f0000000000000000000000000000000000000000000000000000000000000000336000856040518563ffffffff1660e01b81526004016113ce94939291906122d7565b600060405180830381600087803b1580156113e857600080fd5b505af11580156113fc573d6000803e3d6000fd5b505050506114073390565b6001600160a01b03167fc28482fd780ce54c9bfc165ed6ce12f1e7e4e07dc6270292223ac3275818dd0d600083604051610f88929190918252602082015260400190565b7f000000000000000000000000000000000000000000000000000000000000000042111561148c5760405163700ec25b60e01b815260040160405180910390fd5b600181101561149a57600080fd5b60007f00000000000000000000000000000000000000000000000000000000000000006114e77f000000000000000000000000000000000000000000000000000000000000000084612212565b6114f19190612229565b9050806001600160a01b037f00000000000000000000000000000000000000000000000000000000000000001663dd62ed3e336040516001600160e01b031960e084901b1681526001600160a01b039091166004820152306024820152604401602060405180830381865afa15801561156e573d6000803e3d6000fd5b505050506040513d601f19601f820116820180604052508101906115929190612311565b10156115b15760405163ca234f3960e01b815260040160405180910390fd5b6040516323b872dd60e01b81526000907f00000000000000000000000000000000000000000000000000000000000000006001600160a01b0316906323b872dd906116049033903090879060040161232a565b6020604051808303816000875af1158015611623573d6000803e3d6000fd5b505050506040513d601f19601f82011682018060405250810190611647919061228a565b9050806116675760405163c98df4e360e01b815260040160405180910390fd5b600061167283612078565b60055460405163a9059cbb60e01b81529192506001600160a01b037f000000000000000000000000000000000000000000000000000000000000000081169263a9059cbb926116ce926201000090910416908590600401612271565b6020604051808303816000875af11580156116ed573d6000803e3d6000fd5b505050506040513d601f19601f82011682018060405250810190611711919061228a565b508060026000828254611724919061225e565b909155506117349050818461224b565b60016000828254611745919061225e565b909155506117559050818461224b565b60036000828254611766919061225e565b909155506000905061177785612078565b611781908661224b565b336000908152600a60205260408120805492935083929091906117a590849061225e565b909155505033600090815260096020526040812054900361182d5760006117cb60075490565b336000818152600960205260408120929092556008805460018082018355919093527ff3f7a9fe364faab93b216da50a3214154f22a0a2b415b23a84c8169e8b636ee390920180546001600160a01b0319169091179055600780549091019055505b6006546001600160a01b031663dcb6b26a7f0000000000000000000000000000000000000000000000000000000000000000338460006040518563ffffffff1660e01b815260040161188294939291906122d7565b600060405180830381600087803b15801561189c57600080fd5b505af11580156118b0573d6000803e3d6000fd5b505050506118bb3390565b6001600160a01b03167fc28482fd780ce54c9bfc165ed6ce12f1e7e4e07dc6270292223ac3275818dd0d826000604051610f88929190918252602082015260400190565b7f00000000000000000000000000000000000000000000000000000000000000004211156119405760405163700ec25b60e01b815260040160405180910390fd5b60007f000000000000000000000000000000000000000000000000000000000000000061198d7f000000000000000000000000000000000000000000000000000000000000000084612212565b6119979190612229565b336000908152600e60205260409020549091508211156119ca576040516327905ab760e21b815260040160405180910390fd5b60006119d582612078565b60055460405163a9059cbb60e01b81529192506001600160a01b037f000000000000000000000000000000000000000000000000000000000000000081169263a9059cbb92611a31926201000090910416908590600401612271565b6020604051808303816000875af1158015611a50573d6000803e3d6000fd5b505050506040513d601f19601f82011682018060405250810190611a74919061228a565b508060026000828254611a87919061225e565b9091555060009050611a99828461224b565b336000908152600e6020526040812080549293508692909190611abd90849061224b565b9091555050336000908152600e60205260408120549003611b3b57336000908152600d6020526040812054600c805491929183908110611aff57611aff6122fb565b600091825260208083209190910180546001600160a01b0319166001600160a01b039490941693909317909255338152600d9091526040812055505b60405163a9059cbb60e01b81526000907f00000000000000000000000000000000000000000000000000000000000000006001600160a01b03169063a9059cbb90611b8c9033908690600401612271565b6020604051808303816000875af1158015611bab573d6000803e3d6000fd5b505050506040513d601f19601f82011682018060405250810190611bcf919061228a565b905080611bef5760405163c98df4e360e01b815260040160405180910390fd5b8360016000828254611c01919061224b565b90915550506006546001600160a01b031663dcb6b26a7f0000000000000000000000000000000000000000000000000000000000000000336000611c478a6000196122a7565b6040518563ffffffff1660e01b8152600401611c6694939291906122d7565b600060405180830381600087803b158015611c8057600080fd5b505af1158015611c94573d6000803e3d6000fd5b50505050611c9f3390565b6001600160a01b03167fcbc0df49dd88ec0ba5b87a3c77ed66af6480b175df0f21649805ed6201c56145600087604051610f88929190918252602082015260400190565b7f0000000000000000000000000000000000000000000000000000000000000000421115611d245760405163700ec25b60e01b815260040160405180910390fd5b60007f0000000000000000000000000000000000000000000000000000000000000000611d717f000000000000000000000000000000000000000000000000000000000000000084612212565b611d7b9190612229565b90506000611d8882612078565b90506000611d9584612078565b336000908152600a6020526040902054909150841115611dc7576040516296118960e51b815260040160405180910390fd5b611dd1818561224b565b336000908152600e602052604081208054909190611df090849061225e565b90915550611e009050828461224b565b60046000828254611e11919061225e565b9091555050336000908152600a602052604081208054869290611e3590849061224b565b925050819055508260036000828254611e4e919061224b565b909155508490506000611e61838361224b565b60055460405163a9059cbb60e01b81529192506001600160a01b037f000000000000000000000000000000000000000000000000000000000000000081169263a9059cbb92611ebd926201000090910416908890600401612271565b6020604051808303816000875af1158015611edc573d6000803e3d6000fd5b505050506040513d601f19601f82011682018060405250810190611f00919061228a565b508360026000828254611f13919061225e565b90915550506006546001600160a01b031663dcb6b26a7f000000000000000000000000000000000000000000000000000000000000000033611f57866000196122a7565b856040518563ffffffff1660e01b8152600401611f7794939291906122d7565b600060405180830381600087803b158015611f9157600080fd5b505af1158015611fa5573d6000803e3d6000fd5b50505050611fb03390565b6001600160a01b03167fa19c60f7787bc349d4b0903c435f5372c0ec8bd2ac9878a60fbe838caee31666611fe6846000196122a7565b604080519182526020820185905201610973565b6120026120de565b6001600160a01b03811661206c5760405162461bcd60e51b815260206004820152602660248201527f4f776e61626c653a206e6577206f776e657220697320746865207a65726f206160448201526564647265737360d01b60648201526084015b60405180910390fd5b61207581612138565b50565b60007f00000000000000000000000000000000000000000000000000000000000000006120c57f000000000000000000000000000000000000000000000000000000000000000084612212565b6120cf9190612229565b92915050565b80546001019055565b6000546001600160a01b03163314610ba25760405162461bcd60e51b815260206004820181905260248201527f4f776e61626c653a2063616c6c6572206973206e6f7420746865206f776e65726044820152606401612063565b600080546001600160a01b038381166001600160a01b0319831681178455604051919092169283917f8be0079c531659141344cd1fd0a4f28419497f9722a3daafe3b4186f6b6457e09190a35050565b801515811461207557600080fd5b6000602082840312156121a857600080fd5b81356121b381612188565b9392505050565b6000602082840312156121cc57600080fd5b81356001600160a01b03811681146121b357600080fd5b6000602082840312156121f557600080fd5b5035919050565b634e487b7160e01b600052601160045260246000fd5b80820281158282048414176120cf576120cf6121fc565b60008261224657634e487b7160e01b600052601260045260246000fd5b500490565b818103818111156120cf576120cf6121fc565b808201808211156120cf576120cf6121fc565b6001600160a01b03929092168252602082015260400190565b60006020828403121561229c57600080fd5b81516121b381612188565b80820260008212600160ff1b841416156122c3576122c36121fc565b81810583148215176120cf576120cf6121fc565b9384526001600160a01b039290921660208401526040830152606082015260800190565b634e487b7160e01b600052603260045260246000fd5b60006020828403121561232357600080fd5b5051919050565b6001600160a01b03938416815291909216602082015260408101919091526060019056fea2646970667358221220fcc1370dcf5013b35d8a6351f52f1c577c23255056076bf5944e30cea8e7cbf764736f6c63430008120033a2646970667358221220c6ad79d7b71882580b34b08ff11c1e9aec3232abe2e5eda8b941110a4bd1dc3a64736f6c63430008120033",
  "devdoc": {
    "events": {
      "ConcludeFatalError(uint256,uint256,bool,int224,int224)": {
        "params": {
          "isAbove": "The target orice was supposed to be above a set limit.",
          "predictionId": "The unique identifier of the prediction.",
          "priceReading": "The current price reading provided by a dAPI.",
          "priceTarget": "The target point that was the base for a prediction.",
          "timestamp": "The timestamp when conclude failed."
        }
      },
      "PredictionCreated(uint256,address,address,uint256,uint256)": {
        "params": {
          "creator": "The creator responsible for creating the prediction.",
          "marketHandler": "The address of the MarketHandler that enables the prediction to be traded upon.",
          "predictionId": "The unique identifier of the prediction.",
          "timestamp": "The timestamp when the prediction was created to be traded upon."
        }
      }
    },
    "kind": "dev",
    "methods": {
      "concludePrediction_2(uint256,bool,address,int224)": {
        "params": {
          "_predictionId": "The unique identifier for each prediction created.",
          "_vote": "The final result of the prediction. vote - True : The target price was predicted to be BELOW/ABOVE a threshold AND IS BELOW/ABOVE the threshold respectively. vote - False : The target price was predicted to be BELOW/ABOVE a threshold BUT IS ABOVE/BELOW the threshold respectively."
        }
      },
      "constructor": {
        "params": {
          "_usdc": "The payment token addresTRADING_FEEs."
        }
      },
      "createPrediction(bytes32,address,bool,int224,uint256,uint256)": {
        "params": {
          "_basePrice": "The minimum cost of one 'Yes' or 'No' token for the prediction market to be created. Is a multiple of 0.01 USD or 1 cent.",
          "_deadline": "The timestamp when the target and current price are to be checked against.",
          "_isAbove": "True if for a prediction the price will go above a set limit and false if otherwise.",
          "_tokenSymbol": "The symbol to represent the asset we are prediction upon. Eg : BTC / ETH / XRP etc."
        }
      },
      "owner()": {
        "details": "Returns the address of the current owner."
      },
      "renounceOwnership()": {
        "details": "Leaves the contract without owner. It will not be possible to call `onlyOwner` functions anymore. Can only be called by the current owner. NOTE: Renouncing ownership will leave the contract without an owner, thereby removing any functionality that is only available to the owner."
      },
      "trackProgress(uint256,address,int256,int256)": {
        "details": "Is important since its harder to track each market handler on 'The Graph' separately."
      },
      "transferOwnership(address)": {
        "details": "Transfers ownership of the contract to a new account (`newOwner`). Can only be called by the current owner."
      }
    },
    "version": 1
  },
  "userdoc": {
    "events": {
      "ConcludeFatalError(uint256,uint256,bool,int224,int224)": {
        "notice": "To track if for some reason a certain prediction was not able to be concluded."
      },
      "PredictionCreated(uint256,address,address,uint256,uint256)": {
        "notice": "Event to declare a prediction market is available to be traded."
      }
    },
    "kind": "user",
    "methods": {
      "PLATFORM_FEE()": {
        "notice": "To avoid DDOS by adding some cost to the creation. Can't be changed once defined."
      },
      "TRADING_FEE()": {
        "notice": "0.01% * 50 = 0.5%."
      },
      "concludePrediction_2(uint256,bool,address,int224)": {
        "notice": "Called by the Settlement contract which concludes the prediction and returns the vote i.e if the prediction was in the favour of 'Yes' or 'No'."
      },
      "createPrediction(bytes32,address,bool,int224,uint256,uint256)": {
        "notice": "Called by the owner on behalf of the _caller and create a market for them.Step necessary to make sure all the parameters are vaild and are true with no manipulation."
      },
      "getNextPredictionId()": {
        "notice": "Getter functions ------"
      },
      "setSettlementAddress(address)": {
        "notice": "Setter functions ------"
      },
      "settlementAddress()": {
        "notice": "The address that starts the chain of concluding a prediction."
      },
      "trackProgress(uint256,address,int256,int256)": {
        "notice": "SPECIAL FUNCTION ====================================================Function provided to act as an aggregator and help track all the things that are happening on all of its child market handlers."
      },
      "vaultAddress()": {
        "notice": "The address responsible for storing the funds collected."
      }
    },
    "notice": "The centre point of Settlement and each new Market Handler",
    "version": 1
  },
  "storageLayout": {
    "storage": [
      {
        "astId": 26,
        "contract": "contracts/common/PredictionMarket.sol:PredictionMarket",
        "label": "_owner",
        "offset": 0,
        "slot": "0",
        "type": "t_address"
      },
      {
        "astId": 997,
        "contract": "contracts/common/PredictionMarket.sol:PredictionMarket",
        "label": "nextPredictionId",
        "offset": 0,
        "slot": "1",
        "type": "t_struct(Counter)849_storage"
      },
      {
        "astId": 1009,
        "contract": "contracts/common/PredictionMarket.sol:PredictionMarket",
        "label": "TRADING_FEE",
        "offset": 0,
        "slot": "2",
        "type": "t_uint256"
      },
      {
        "astId": 1015,
        "contract": "contracts/common/PredictionMarket.sol:PredictionMarket",
        "label": "predictions",
        "offset": 0,
        "slot": "3",
        "type": "t_mapping(t_uint256,t_struct(Prediction)982_storage)"
      },
      {
        "astId": 1020,
        "contract": "contracts/common/PredictionMarket.sol:PredictionMarket",
        "label": "predictionIdToProxy",
        "offset": 0,
        "slot": "4",
        "type": "t_mapping(t_uint256,t_address)"
      },
      {
        "astId": 1025,
        "contract": "contracts/common/PredictionMarket.sol:PredictionMarket",
        "label": "blacklisted",
        "offset": 0,
        "slot": "5",
        "type": "t_mapping(t_address,t_bool)"
      },
      {
        "astId": 1076,
        "contract": "contracts/common/PredictionMarket.sol:PredictionMarket",
        "label": "settlementAddress",
        "offset": 0,
        "slot": "6",
        "type": "t_address"
      },
      {
        "astId": 1079,
        "contract": "contracts/common/PredictionMarket.sol:PredictionMarket",
        "label": "vaultAddress",
        "offset": 0,
        "slot": "7",
        "type": "t_address"
      }
    ],
    "types": {
      "t_address": {
        "encoding": "inplace",
        "label": "address",
        "numberOfBytes": "20"
      },
      "t_bool": {
        "encoding": "inplace",
        "label": "bool",
        "numberOfBytes": "1"
      },
      "t_int224": {
        "encoding": "inplace",
        "label": "int224",
        "numberOfBytes": "28"
      },
      "t_mapping(t_address,t_bool)": {
        "encoding": "mapping",
        "key": "t_address",
        "label": "mapping(address => bool)",
        "numberOfBytes": "32",
        "value": "t_bool"
      },
      "t_mapping(t_uint256,t_address)": {
        "encoding": "mapping",
        "key": "t_uint256",
        "label": "mapping(uint256 => address)",
        "numberOfBytes": "32",
        "value": "t_address"
      },
      "t_mapping(t_uint256,t_struct(Prediction)982_storage)": {
        "encoding": "mapping",
        "key": "t_uint256",
        "label": "mapping(uint256 => struct Prediction)",
        "numberOfBytes": "32",
        "value": "t_struct(Prediction)982_storage"
      },
      "t_string_storage": {
        "encoding": "bytes",
        "label": "string",
        "numberOfBytes": "32"
      },
      "t_struct(Counter)849_storage": {
        "encoding": "inplace",
        "label": "struct Counters.Counter",
        "members": [
          {
            "astId": 848,
            "contract": "contracts/common/PredictionMarket.sol:PredictionMarket",
            "label": "_value",
            "offset": 0,
            "slot": "0",
            "type": "t_uint256"
          }
        ],
        "numberOfBytes": "32"
      },
      "t_struct(Prediction)982_storage": {
        "encoding": "inplace",
        "label": "struct Prediction",
        "members": [
          {
            "astId": 961,
            "contract": "contracts/common/PredictionMarket.sol:PredictionMarket",
            "label": "tokenSymbol",
            "offset": 0,
            "slot": "0",
            "type": "t_string_storage"
          },
          {
            "astId": 963,
            "contract": "contracts/common/PredictionMarket.sol:PredictionMarket",
            "label": "targetPricePoint",
            "offset": 0,
            "slot": "1",
            "type": "t_int224"
          },
          {
            "astId": 965,
            "contract": "contracts/common/PredictionMarket.sol:PredictionMarket",
            "label": "isAbove",
            "offset": 28,
            "slot": "1",
            "type": "t_bool"
          },
          {
            "astId": 967,
            "contract": "contracts/common/PredictionMarket.sol:PredictionMarket",
            "label": "proxyAddress",
            "offset": 0,
            "slot": "2",
            "type": "t_address"
          },
          {
            "astId": 969,
            "contract": "contracts/common/PredictionMarket.sol:PredictionMarket",
            "label": "fee",
            "offset": 0,
            "slot": "3",
            "type": "t_uint256"
          },
          {
            "astId": 971,
            "contract": "contracts/common/PredictionMarket.sol:PredictionMarket",
            "label": "timestamp",
            "offset": 0,
            "slot": "4",
            "type": "t_uint256"
          },
          {
            "astId": 973,
            "contract": "contracts/common/PredictionMarket.sol:PredictionMarket",
            "label": "deadline",
            "offset": 0,
            "slot": "5",
            "type": "t_uint256"
          },
          {
            "astId": 975,
            "contract": "contracts/common/PredictionMarket.sol:PredictionMarket",
            "label": "isActive",
            "offset": 0,
            "slot": "6",
            "type": "t_bool"
          },
          {
            "astId": 977,
            "contract": "contracts/common/PredictionMarket.sol:PredictionMarket",
            "label": "marketHandler",
            "offset": 1,
            "slot": "6",
            "type": "t_address"
          },
          {
            "astId": 979,
            "contract": "contracts/common/PredictionMarket.sol:PredictionMarket",
            "label": "predictionTokenPrice",
            "offset": 0,
            "slot": "7",
            "type": "t_uint256"
          },
          {
            "astId": 981,
            "contract": "contracts/common/PredictionMarket.sol:PredictionMarket",
            "label": "priceAtConclude",
            "offset": 0,
            "slot": "8",
            "type": "t_int224"
          }
        ],
        "numberOfBytes": "288"
      },
      "t_uint256": {
        "encoding": "inplace",
        "label": "uint256",
        "numberOfBytes": "32"
      }
    }
  }
}