{
  "_format": "hh-sol-artifact-1",
  "contractName": "DelayInsurance",
  "sourceName": "contracts/DelayInsurance.sol",
  "abi": [
    {
      "inputs": [
        {
          "internalType": "address",
          "name": "_linkTokenAddress",
          "type": "address"
        }
      ],
      "stateMutability": "nonpayable",
      "type": "constructor"
    },
    {
      "anonymous": false,
      "inputs": [
        {
          "indexed": true,
          "internalType": "bytes32",
          "name": "id",
          "type": "bytes32"
        }
      ],
      "name": "ChainlinkCancelled",
      "type": "event"
    },
    {
      "anonymous": false,
      "inputs": [
        {
          "indexed": true,
          "internalType": "bytes32",
          "name": "id",
          "type": "bytes32"
        }
      ],
      "name": "ChainlinkFulfilled",
      "type": "event"
    },
    {
      "anonymous": false,
      "inputs": [
        {
          "indexed": true,
          "internalType": "bytes32",
          "name": "id",
          "type": "bytes32"
        }
      ],
      "name": "ChainlinkRequested",
      "type": "event"
    },
    {
      "anonymous": false,
      "inputs": [
        {
          "indexed": true,
          "internalType": "address",
          "name": "beneficiary",
          "type": "address"
        },
        {
          "indexed": true,
          "internalType": "uint8",
          "name": "actualNumberOfIncidents",
          "type": "uint8"
        }
      ],
      "name": "IncidentReported",
      "type": "event"
    },
    {
      "anonymous": false,
      "inputs": [
        {
          "indexed": true,
          "internalType": "address",
          "name": "beneficiary",
          "type": "address"
        },
        {
          "indexed": true,
          "internalType": "uint256",
          "name": "id",
          "type": "uint256"
        },
        {
          "indexed": true,
          "internalType": "uint256",
          "name": "shipmentValue",
          "type": "uint256"
        }
      ],
      "name": "PolicyPaidOut",
      "type": "event"
    },
    {
      "anonymous": false,
      "inputs": [
        {
          "indexed": true,
          "internalType": "address",
          "name": "beneficiary",
          "type": "address"
        },
        {
          "indexed": true,
          "internalType": "uint256",
          "name": "id",
          "type": "uint256"
        }
      ],
      "name": "PolicySubscription",
      "type": "event"
    },
    {
      "inputs": [],
      "name": "UpdateContracts",
      "outputs": [],
      "stateMutability": "nonpayable",
      "type": "function"
    },
    {
      "inputs": [
        {
          "internalType": "uint256",
          "name": "",
          "type": "uint256"
        }
      ],
      "name": "addrPolicies",
      "outputs": [
        {
          "internalType": "address",
          "name": "",
          "type": "address"
        }
      ],
      "stateMutability": "view",
      "type": "function"
    },
    {
      "inputs": [],
      "name": "admin",
      "outputs": [
        {
          "internalType": "address",
          "name": "",
          "type": "address"
        }
      ],
      "stateMutability": "view",
      "type": "function"
    },
    {
      "inputs": [
        {
          "internalType": "uint256",
          "name": "_startDate",
          "type": "uint256"
        },
        {
          "internalType": "uint256",
          "name": "_endDate",
          "type": "uint256"
        },
        {
          "internalType": "uint256",
          "name": "_startPort",
          "type": "uint256"
        },
        {
          "internalType": "uint256",
          "name": "_endPort",
          "type": "uint256"
        }
      ],
      "name": "calculateGustThreshold",
      "outputs": [
        {
          "internalType": "uint256",
          "name": "",
          "type": "uint256"
        }
      ],
      "stateMutability": "view",
      "type": "function"
    },
    {
      "inputs": [
        {
          "internalType": "bytes",
          "name": "",
          "type": "bytes"
        }
      ],
      "name": "checkUpkeep",
      "outputs": [
        {
          "internalType": "bool",
          "name": "upkeepNeeded",
          "type": "bool"
        },
        {
          "internalType": "bytes",
          "name": "",
          "type": "bytes"
        }
      ],
      "stateMutability": "nonpayable",
      "type": "function"
    },
    {
      "inputs": [],
      "name": "getAllPolicies",
      "outputs": [
        {
          "components": [
            {
              "internalType": "uint256",
              "name": "policyId",
              "type": "uint256"
            },
            {
              "components": [
                {
                  "internalType": "string",
                  "name": "id",
                  "type": "string"
                },
                {
                  "internalType": "uint256",
                  "name": "shipmentValue",
                  "type": "uint256"
                }
              ],
              "internalType": "struct DelayInsurance.Ship",
              "name": "ship",
              "type": "tuple"
            },
            {
              "components": [
                {
                  "internalType": "address payable",
                  "name": "beneficiary",
                  "type": "address"
                },
                {
                  "internalType": "uint256",
                  "name": "startDate",
                  "type": "uint256"
                },
                {
                  "internalType": "uint256",
                  "name": "endDate",
                  "type": "uint256"
                },
                {
                  "internalType": "uint256",
                  "name": "startPort",
                  "type": "uint256"
                },
                {
                  "internalType": "uint256",
                  "name": "endPort",
                  "type": "uint256"
                },
                {
                  "internalType": "uint256",
                  "name": "premium",
                  "type": "uint256"
                },
                {
                  "internalType": "uint256",
                  "name": "gustThreshold",
                  "type": "uint256"
                },
                {
                  "internalType": "enum DelayInsurance.PolicyStatus",
                  "name": "status",
                  "type": "uint8"
                }
              ],
              "internalType": "struct DelayInsurance.Coverage",
              "name": "coverage",
              "type": "tuple"
            },
            {
              "components": [
                {
                  "internalType": "uint256",
                  "name": "requestId",
                  "type": "uint256"
                },
                {
                  "components": [
                    {
                      "internalType": "string",
                      "name": "lat",
                      "type": "string"
                    },
                    {
                      "internalType": "string",
                      "name": "lng",
                      "type": "string"
                    }
                  ],
                  "internalType": "struct DelayInsurance.Coordinate",
                  "name": "location",
                  "type": "tuple"
                },
                {
                  "internalType": "uint256",
                  "name": "gust",
                  "type": "uint256"
                }
              ],
              "internalType": "struct DelayInsurance.WeatherData",
              "name": "weatherData",
              "type": "tuple"
            },
            {
              "internalType": "uint8",
              "name": "incidents",
              "type": "uint8"
            }
          ],
          "internalType": "struct DelayInsurance.Policy[]",
          "name": "",
          "type": "tuple[]"
        }
      ],
      "stateMutability": "view",
      "type": "function"
    },
    {
      "inputs": [],
      "name": "getGustThreshold",
      "outputs": [
        {
          "internalType": "uint256",
          "name": "",
          "type": "uint256"
        }
      ],
      "stateMutability": "view",
      "type": "function"
    },
    {
      "inputs": [],
      "name": "getIncidentThreshold",
      "outputs": [
        {
          "internalType": "uint256",
          "name": "",
          "type": "uint256"
        }
      ],
      "stateMutability": "view",
      "type": "function"
    },
    {
      "inputs": [],
      "name": "getLatestWeatherData",
      "outputs": [
        {
          "components": [
            {
              "internalType": "uint256",
              "name": "requestId",
              "type": "uint256"
            },
            {
              "components": [
                {
                  "internalType": "string",
                  "name": "lat",
                  "type": "string"
                },
                {
                  "internalType": "string",
                  "name": "lng",
                  "type": "string"
                }
              ],
              "internalType": "struct DelayInsurance.Coordinate",
              "name": "location",
              "type": "tuple"
            },
            {
              "internalType": "uint256",
              "name": "gust",
              "type": "uint256"
            }
          ],
          "internalType": "struct DelayInsurance.WeatherData",
          "name": "",
          "type": "tuple"
        }
      ],
      "stateMutability": "view",
      "type": "function"
    },
    {
      "inputs": [],
      "name": "getOracleDetails",
      "outputs": [
        {
          "internalType": "address",
          "name": "",
          "type": "address"
        },
        {
          "internalType": "bytes32",
          "name": "",
          "type": "bytes32"
        },
        {
          "internalType": "uint256",
          "name": "",
          "type": "uint256"
        }
      ],
      "stateMutability": "view",
      "type": "function"
    },
    {
      "inputs": [],
      "name": "getPolicy",
      "outputs": [
        {
          "components": [
            {
              "internalType": "uint256",
              "name": "policyId",
              "type": "uint256"
            },
            {
              "components": [
                {
                  "internalType": "string",
                  "name": "id",
                  "type": "string"
                },
                {
                  "internalType": "uint256",
                  "name": "shipmentValue",
                  "type": "uint256"
                }
              ],
              "internalType": "struct DelayInsurance.Ship",
              "name": "ship",
              "type": "tuple"
            },
            {
              "components": [
                {
                  "internalType": "address payable",
                  "name": "beneficiary",
                  "type": "address"
                },
                {
                  "internalType": "uint256",
                  "name": "startDate",
                  "type": "uint256"
                },
                {
                  "internalType": "uint256",
                  "name": "endDate",
                  "type": "uint256"
                },
                {
                  "internalType": "uint256",
                  "name": "startPort",
                  "type": "uint256"
                },
                {
                  "internalType": "uint256",
                  "name": "endPort",
                  "type": "uint256"
                },
                {
                  "internalType": "uint256",
                  "name": "premium",
                  "type": "uint256"
                },
                {
                  "internalType": "uint256",
                  "name": "gustThreshold",
                  "type": "uint256"
                },
                {
                  "internalType": "enum DelayInsurance.PolicyStatus",
                  "name": "status",
                  "type": "uint8"
                }
              ],
              "internalType": "struct DelayInsurance.Coverage",
              "name": "coverage",
              "type": "tuple"
            },
            {
              "components": [
                {
                  "internalType": "uint256",
                  "name": "requestId",
                  "type": "uint256"
                },
                {
                  "components": [
                    {
                      "internalType": "string",
                      "name": "lat",
                      "type": "string"
                    },
                    {
                      "internalType": "string",
                      "name": "lng",
                      "type": "string"
                    }
                  ],
                  "internalType": "struct DelayInsurance.Coordinate",
                  "name": "location",
                  "type": "tuple"
                },
                {
                  "internalType": "uint256",
                  "name": "gust",
                  "type": "uint256"
                }
              ],
              "internalType": "struct DelayInsurance.WeatherData",
              "name": "weatherData",
              "type": "tuple"
            },
            {
              "internalType": "uint8",
              "name": "incidents",
              "type": "uint8"
            }
          ],
          "internalType": "struct DelayInsurance.Policy",
          "name": "",
          "type": "tuple"
        }
      ],
      "stateMutability": "view",
      "type": "function"
    },
    {
      "inputs": [],
      "name": "getPolicyStatus",
      "outputs": [
        {
          "internalType": "enum DelayInsurance.PolicyStatus",
          "name": "",
          "type": "uint8"
        }
      ],
      "stateMutability": "view",
      "type": "function"
    },
    {
      "inputs": [],
      "name": "getTotalCapitalInsured",
      "outputs": [
        {
          "internalType": "uint256",
          "name": "",
          "type": "uint256"
        }
      ],
      "stateMutability": "view",
      "type": "function"
    },
    {
      "inputs": [],
      "name": "getTotalPremiums",
      "outputs": [
        {
          "internalType": "uint256",
          "name": "",
          "type": "uint256"
        }
      ],
      "stateMutability": "view",
      "type": "function"
    },
    {
      "inputs": [],
      "name": "getUpdateTimer",
      "outputs": [
        {
          "internalType": "uint256",
          "name": "",
          "type": "uint256"
        }
      ],
      "stateMutability": "view",
      "type": "function"
    },
    {
      "inputs": [
        {
          "internalType": "address",
          "name": "_beneficiary",
          "type": "address"
        }
      ],
      "name": "hasIncident",
      "outputs": [
        {
          "internalType": "bool",
          "name": "",
          "type": "bool"
        }
      ],
      "stateMutability": "nonpayable",
      "type": "function"
    },
    {
      "inputs": [],
      "name": "incidentsThreshold",
      "outputs": [
        {
          "internalType": "uint8",
          "name": "",
          "type": "uint8"
        }
      ],
      "stateMutability": "view",
      "type": "function"
    },
    {
      "inputs": [],
      "name": "lastTimeStamp",
      "outputs": [
        {
          "internalType": "uint256",
          "name": "",
          "type": "uint256"
        }
      ],
      "stateMutability": "view",
      "type": "function"
    },
    {
      "inputs": [
        {
          "internalType": "address",
          "name": "_beneficiary",
          "type": "address"
        }
      ],
      "name": "payOut",
      "outputs": [],
      "stateMutability": "payable",
      "type": "function"
    },
    {
      "inputs": [
        {
          "internalType": "bytes",
          "name": "",
          "type": "bytes"
        }
      ],
      "name": "performUpkeep",
      "outputs": [],
      "stateMutability": "nonpayable",
      "type": "function"
    },
    {
      "inputs": [
        {
          "internalType": "address",
          "name": "",
          "type": "address"
        }
      ],
      "name": "policies",
      "outputs": [
        {
          "internalType": "uint256",
          "name": "policyId",
          "type": "uint256"
        },
        {
          "components": [
            {
              "internalType": "string",
              "name": "id",
              "type": "string"
            },
            {
              "internalType": "uint256",
              "name": "shipmentValue",
              "type": "uint256"
            }
          ],
          "internalType": "struct DelayInsurance.Ship",
          "name": "ship",
          "type": "tuple"
        },
        {
          "components": [
            {
              "internalType": "address payable",
              "name": "beneficiary",
              "type": "address"
            },
            {
              "internalType": "uint256",
              "name": "startDate",
              "type": "uint256"
            },
            {
              "internalType": "uint256",
              "name": "endDate",
              "type": "uint256"
            },
            {
              "internalType": "uint256",
              "name": "startPort",
              "type": "uint256"
            },
            {
              "internalType": "uint256",
              "name": "endPort",
              "type": "uint256"
            },
            {
              "internalType": "uint256",
              "name": "premium",
              "type": "uint256"
            },
            {
              "internalType": "uint256",
              "name": "gustThreshold",
              "type": "uint256"
            },
            {
              "internalType": "enum DelayInsurance.PolicyStatus",
              "name": "status",
              "type": "uint8"
            }
          ],
          "internalType": "struct DelayInsurance.Coverage",
          "name": "coverage",
          "type": "tuple"
        },
        {
          "components": [
            {
              "internalType": "uint256",
              "name": "requestId",
              "type": "uint256"
            },
            {
              "components": [
                {
                  "internalType": "string",
                  "name": "lat",
                  "type": "string"
                },
                {
                  "internalType": "string",
                  "name": "lng",
                  "type": "string"
                }
              ],
              "internalType": "struct DelayInsurance.Coordinate",
              "name": "location",
              "type": "tuple"
            },
            {
              "internalType": "uint256",
              "name": "gust",
              "type": "uint256"
            }
          ],
          "internalType": "struct DelayInsurance.WeatherData",
          "name": "weatherData",
          "type": "tuple"
        },
        {
          "internalType": "uint8",
          "name": "incidents",
          "type": "uint8"
        }
      ],
      "stateMutability": "view",
      "type": "function"
    },
    {
      "inputs": [],
      "name": "policyId",
      "outputs": [
        {
          "internalType": "uint256",
          "name": "",
          "type": "uint256"
        }
      ],
      "stateMutability": "view",
      "type": "function"
    },
    {
      "inputs": [
        {
          "components": [
            {
              "internalType": "string",
              "name": "id",
              "type": "string"
            },
            {
              "internalType": "uint256",
              "name": "shipmentValue",
              "type": "uint256"
            }
          ],
          "internalType": "struct DelayInsurance.Ship",
          "name": "_ship",
          "type": "tuple"
        },
        {
          "internalType": "uint256",
          "name": "_startDate",
          "type": "uint256"
        },
        {
          "internalType": "uint256",
          "name": "_endDate",
          "type": "uint256"
        },
        {
          "internalType": "uint256",
          "name": "_startPort",
          "type": "uint256"
        },
        {
          "internalType": "uint256",
          "name": "_endPort",
          "type": "uint256"
        }
      ],
      "name": "pricePremium",
      "outputs": [
        {
          "internalType": "uint256",
          "name": "",
          "type": "uint256"
        }
      ],
      "stateMutability": "view",
      "type": "function"
    },
    {
      "inputs": [
        {
          "internalType": "bytes32",
          "name": "_requestId",
          "type": "bytes32"
        },
        {
          "internalType": "uint256",
          "name": "_gust",
          "type": "uint256"
        }
      ],
      "name": "receiveWeatherData",
      "outputs": [],
      "stateMutability": "nonpayable",
      "type": "function"
    },
    {
      "inputs": [
        {
          "internalType": "bytes32",
          "name": "",
          "type": "bytes32"
        }
      ],
      "name": "requestToPolicyAddr",
      "outputs": [
        {
          "internalType": "address",
          "name": "",
          "type": "address"
        }
      ],
      "stateMutability": "view",
      "type": "function"
    },
    {
      "inputs": [
        {
          "internalType": "uint8",
          "name": "_incidentsThreshold",
          "type": "uint8"
        }
      ],
      "name": "setIncidentThreshold",
      "outputs": [],
      "stateMutability": "nonpayable",
      "type": "function"
    },
    {
      "inputs": [
        {
          "internalType": "uint8",
          "name": "_incidentsThreshold",
          "type": "uint8"
        },
        {
          "internalType": "uint256",
          "name": "_updateTimer",
          "type": "uint256"
        },
        {
          "internalType": "address",
          "name": "_beneficiary",
          "type": "address"
        },
        {
          "internalType": "uint256",
          "name": "_gustThreshold",
          "type": "uint256"
        }
      ],
      "name": "setInsuranceParameters",
      "outputs": [],
      "stateMutability": "nonpayable",
      "type": "function"
    },
    {
      "inputs": [
        {
          "internalType": "address",
          "name": "_beneficiary",
          "type": "address"
        },
        {
          "internalType": "uint256",
          "name": "_gustThreshold",
          "type": "uint256"
        }
      ],
      "name": "setPolicyThreshold",
      "outputs": [
        {
          "internalType": "uint256",
          "name": "",
          "type": "uint256"
        }
      ],
      "stateMutability": "nonpayable",
      "type": "function"
    },
    {
      "inputs": [
        {
          "internalType": "uint256",
          "name": "_updateTimer",
          "type": "uint256"
        }
      ],
      "name": "setUpdateTimer",
      "outputs": [],
      "stateMutability": "nonpayable",
      "type": "function"
    },
    {
      "inputs": [
        {
          "internalType": "address",
          "name": "_oracleAddress",
          "type": "address"
        },
        {
          "internalType": "string",
          "name": "_jobId",
          "type": "string"
        },
        {
          "internalType": "uint256",
          "name": "_fee",
          "type": "uint256"
        }
      ],
      "name": "setWeatherOracle",
      "outputs": [],
      "stateMutability": "nonpayable",
      "type": "function"
    },
    {
      "inputs": [
        {
          "internalType": "string",
          "name": "_shipId",
          "type": "string"
        },
        {
          "internalType": "uint256",
          "name": "_shipmentValue",
          "type": "uint256"
        },
        {
          "internalType": "uint256",
          "name": "_startDate",
          "type": "uint256"
        },
        {
          "internalType": "uint256",
          "name": "_endDate",
          "type": "uint256"
        },
        {
          "internalType": "uint256",
          "name": "_startPort",
          "type": "uint256"
        },
        {
          "internalType": "uint256",
          "name": "_endPort",
          "type": "uint256"
        }
      ],
      "name": "subscribePolicy",
      "outputs": [],
      "stateMutability": "payable",
      "type": "function"
    },
    {
      "inputs": [],
      "name": "updateTimer",
      "outputs": [
        {
          "internalType": "uint256",
          "name": "",
          "type": "uint256"
        }
      ],
      "stateMutability": "view",
      "type": "function"
    },
    {
      "inputs": [],
      "name": "weatherFee",
      "outputs": [
        {
          "internalType": "uint256",
          "name": "",
          "type": "uint256"
        }
      ],
      "stateMutability": "view",
      "type": "function"
    },
    {
      "inputs": [],
      "name": "weatherJobId",
      "outputs": [
        {
          "internalType": "bytes32",
          "name": "",
          "type": "bytes32"
        }
      ],
      "stateMutability": "view",
      "type": "function"
    },
    {
      "inputs": [],
      "name": "weatherOracle",
      "outputs": [
        {
          "internalType": "address",
          "name": "",
          "type": "address"
        }
      ],
      "stateMutability": "view",
      "type": "function"
    },
    {
      "stateMutability": "payable",
      "type": "receive"
    }
  ],
  "bytecode": "0x608060405260016004553480156200001657600080fd5b50604051620050a7380380620050a783398181016040528101906200003c9190620001e5565b33600b60006101000a81548173ffffffffffffffffffffffffffffffffffffffff021916908373ffffffffffffffffffffffffffffffffffffffff160217905550600073ffffffffffffffffffffffffffffffffffffffff168173ffffffffffffffffffffffffffffffffffffffff161415620000c957620000c3620000e260201b60201c565b620000db565b620000da816200018a60201b60201c565b5b506200026a565b6200018873c89bd4e1632d3a43cb03aaad5262cbe4038bc57173ffffffffffffffffffffffffffffffffffffffff166338cc48316040518163ffffffff1660e01b815260040160206040518083038186803b1580156200014157600080fd5b505afa15801562000156573d6000803e3d6000fd5b505050506040513d601f19601f820116820180604052508101906200017c9190620001e5565b6200018a60201b60201c565b565b80600260006101000a81548173ffffffffffffffffffffffffffffffffffffffff021916908373ffffffffffffffffffffffffffffffffffffffff16021790555050565b600081519050620001df8162000250565b92915050565b600060208284031215620001fe57620001fd6200024b565b5b60006200020e84828501620001ce565b91505092915050565b600062000224826200022b565b9050919050565b600073ffffffffffffffffffffffffffffffffffffffff82169050919050565b600080fd5b6200025b8162000217565b81146200026757600080fd5b50565b614e2d806200027a6000396000f3fe6080604052600436106102085760003560e01c806370fd483e11610118578063b81a64f9116100a0578063d968de4b1161006f578063d968de4b14610767578063e27d4965146107a4578063ee89ef3a146107cf578063f4c5b079146107fa578063f851a440146108235761020f565b8063b81a64f9146106bd578063ca3f3ba3146106e8578063ce1e462614610711578063d0d8013f1461073c5761020f565b8063816d3959116100e7578063816d3959146105e5578063849bed451461060e57806390b4b3e01461063957806391aec90f14610664578063b62d1692146106a15761020f565b806370fd483e1461052957806375bf8aa21461055257806376e164701461058f5780637ee94ef1146105ba5761020f565b80632bb16adf1161019b57806341bc7b1f1161016a57806341bc7b1f1461042d578063457e55211461045a5780634585e33b1461048557806364b39265146104ae5780636e04ff0d146104eb5761020f565b80632bb16adf1461036f57806339277da81461039a5780633ebb2bce146103c55780633f3b3b27146104025761020f565b80631b143cc1116101d75780631b143cc1146102af5780631eb0fc25146102da57806320e986981461030357806321e71570146103445761020f565b80630aa722e81461021457806315e108391461025157806318d39620146102685780631922ff39146102935761020f565b3661020f57005b600080fd5b34801561022057600080fd5b5061023b6004803603810190610236919061389a565b61084e565b60405161024891906141e4565b60405180910390f35b34801561025d57600080fd5b50610266610881565b005b34801561027457600080fd5b5061027d610c0a565b60405161028a9190614460565b60405180910390f35b6102ad60048036038101906102a89190613791565b610c14565b005b3480156102bb57600080fd5b506102c4610d3d565b6040516102d19190614460565b60405180910390f35b3480156102e657600080fd5b5061030160048036038101906102fc9190613a94565b610d43565b005b34801561030f57600080fd5b5061032a60048036038101906103259190613791565b610ddd565b60405161033b95949392919061447b565b60405180910390f35b34801561035057600080fd5b506103596110f4565b6040516103669190614366565b60405180910390f35b34801561037b57600080fd5b506103846110fa565b60405161039191906144df565b60405180910390f35b3480156103a657600080fd5b506103af61110d565b6040516103bc9190614460565b60405180910390f35b3480156103d157600080fd5b506103ec60048036038101906103e7919061382d565b611113565b6040516103f99190614460565b60405180910390f35b34801561040e57600080fd5b506104176111f5565b6040516104249190614460565b60405180910390f35b34801561043957600080fd5b506104426111fb565b604051610451939291906141ff565b60405180910390f35b34801561046657600080fd5b5061046f611234565b60405161047c91906142f9565b60405180910390f35b34801561049157600080fd5b506104ac60048036038101906104a79190613907565b61167d565b005b3480156104ba57600080fd5b506104d560048036038101906104d09190613ac1565b611690565b6040516104e29190614460565b60405180910390f35b3480156104f757600080fd5b50610512600480360381019061050d9190613907565b61169e565b604051610520929190614336565b60405180910390f35b34801561053557600080fd5b50610550600480360381019061054b9190613b28565b6116bd565b005b34801561055e57600080fd5b50610579600480360381019061057491906139fd565b61176b565b6040516105869190614460565b60405180910390f35b34801561059b57600080fd5b506105a4611789565b6040516105b19190614460565b60405180910390f35b3480156105c657600080fd5b506105cf6117a3565b6040516105dc91906141e4565b60405180910390f35b3480156105f157600080fd5b5061060c600480360381019061060791906138c7565b6117c9565b005b34801561061a57600080fd5b50610623611acd565b604051610630919061443e565b60405180910390f35b34801561064557600080fd5b5061064e611c73565b60405161065b9190614460565b60405180910390f35b34801561067057600080fd5b5061068b60048036038101906106869190613791565b611d36565b604051610698919061431b565b60405180910390f35b6106bb60048036038101906106b69190613954565b6120c7565b005b3480156106c957600080fd5b506106d261250b565b6040516106df9190614460565b60405180910390f35b3480156106f457600080fd5b5061070f600480360381019061070a91906137be565b6125ce565b005b34801561071d57600080fd5b506107266126ba565b604051610733919061441c565b60405180910390f35b34801561074857600080fd5b50610751612a2a565b60405161075e9190614381565b60405180910390f35b34801561077357600080fd5b5061078e60048036038101906107899190613a94565b612a84565b60405161079b91906141e4565b60405180910390f35b3480156107b057600080fd5b506107b9612ac3565b6040516107c69190614460565b60405180910390f35b3480156107db57600080fd5b506107e4612b10565b6040516107f19190614460565b60405180910390f35b34801561080657600080fd5b50610821600480360381019061081c9190613b55565b612b16565b005b34801561082f57600080fd5b50610838612b88565b60405161084591906141e4565b60405180910390f35b60076020528060005260406000206000915054906101000a900473ffffffffffffffffffffffffffffffffffffffff1681565b60005b600880549050811015610c07576000600882815481106108a7576108a6614b83565b5b9060005260206000200160009054906101000a900473ffffffffffffffffffffffffffffffffffffffff1690506000600660008373ffffffffffffffffffffffffffffffffffffffff1673ffffffffffffffffffffffffffffffffffffffff168152602001908152602001600020905042816003016001015411158015610935575042816003016002015410155b80156109795750600060048111156109505761094f614b25565b5b8160030160070160009054906101000a900460ff16600481111561097757610976614b25565b5b145b156109b35760018160030160070160006101000a81548160ff021916908360048111156109a9576109a8614b25565b5b0217905550610a38565b428160030160020154108015610a015750600160048111156109d8576109d7614b25565b5b8160030160070160009054906101000a900460ff1660048111156109ff576109fe614b25565b5b145b15610a375760028160030160070160006101000a81548160ff02191690836004811115610a3157610a30614b25565b5b02179055505b5b60016004811115610a4c57610a4b614b25565b5b8160030160070160009054906101000a900460ff166004811115610a7357610a72614b25565b5b1415610bf2576000610a8f600e543063816d395960e01b612bae565b9050610b6a6040518060400160405280600481526020017f7575696400000000000000000000000000000000000000000000000000000000815250836001016000018054610adc90614992565b80601f0160208091040260200160405190810160405280929190818152602001828054610b0890614992565b8015610b555780601f10610b2a57610100808354040283529160200191610b55565b820191906000526020600020905b815481529060010190602001808311610b3857829003601f168201915b505050505083612bdf9092919063ffffffff16565b6000610b9b600d60009054906101000a900473ffffffffffffffffffffffffffffffffffffffff1683600f54612c12565b9050836007600083815260200190815260200160002060006101000a81548173ffffffffffffffffffffffffffffffffffffffff021916908373ffffffffffffffffffffffffffffffffffffffff16021790555050505b50508080610bff906149f5565b915050610884565b50565b6000600954905090565b6000600660008373ffffffffffffffffffffffffffffffffffffffff1673ffffffffffffffffffffffffffffffffffffffff16815260200190815260200160002090508060010160010154471015610c6b57600080fd5b8173ffffffffffffffffffffffffffffffffffffffff166108fc82600101600101549081150290604051600060405180830381858888f19350505050158015610cb8573d6000803e3d6000fd5b5060048160030160070160006101000a81548160ff02191690836004811115610ce457610ce3614b25565b5b0217905550806001016001015481600001548373ffffffffffffffffffffffffffffffffffffffff167f6ca5f83b296a64513a88360d37c658cefcb51bf5b4b41c62a223e44d8f2f2eab60405160405180910390a45050565b600f5481565b3373ffffffffffffffffffffffffffffffffffffffff16600b60009054906101000a900473ffffffffffffffffffffffffffffffffffffffff1673ffffffffffffffffffffffffffffffffffffffff1614610dd3576040517f08c379a0000000000000000000000000000000000000000000000000000000008152600401610dca906143bc565b60405180910390fd5b8060098190555050565b600660205280600052604060002060009150905080600001549080600101604051806040016040529081600082018054610e1690614992565b80601f0160208091040260200160405190810160405280929190818152602001828054610e4290614992565b8015610e8f5780601f10610e6457610100808354040283529160200191610e8f565b820191906000526020600020905b815481529060010190602001808311610e7257829003601f168201915b505050505081526020016001820154815250509080600301604051806101000160405290816000820160009054906101000a900473ffffffffffffffffffffffffffffffffffffffff1673ffffffffffffffffffffffffffffffffffffffff1673ffffffffffffffffffffffffffffffffffffffff1681526020016001820154815260200160028201548152602001600382015481526020016004820154815260200160058201548152602001600682015481526020016007820160009054906101000a900460ff166004811115610f6a57610f69614b25565b5b6004811115610f7c57610f7b614b25565b5b815250509080600b016040518060600160405290816000820154815260200160018201604051806040016040529081600082018054610fba90614992565b80601f0160208091040260200160405190810160405280929190818152602001828054610fe690614992565b80156110335780601f1061100857610100808354040283529160200191611033565b820191906000526020600020905b81548152906001019060200180831161101657829003601f168201915b5050505050815260200160018201805461104c90614992565b80601f016020809104026020016040519081016040528092919081815260200182805461107890614992565b80156110c55780601f1061109a576101008083540402835291602001916110c5565b820191906000526020600020905b8154815290600101906020018083116110a857829003601f168201915b50505050508152505081526020016003820154815250509080600f0160009054906101000a900460ff16905085565b600e5481565b601060009054906101000a900460ff1681565b60095481565b60003373ffffffffffffffffffffffffffffffffffffffff16600b60009054906101000a900473ffffffffffffffffffffffffffffffffffffffff1673ffffffffffffffffffffffffffffffffffffffff16146111a5576040517f08c379a000000000000000000000000000000000000000000000000000000000815260040161119c906143bc565b60405180910390fd5b81600660008573ffffffffffffffffffffffffffffffffffffffff1673ffffffffffffffffffffffffffffffffffffffff1681526020019081526020016000206003016006018190555092915050565b600a5481565b6000806000600d60009054906101000a900473ffffffffffffffffffffffffffffffffffffffff16600e54600f54925092509250909192565b6060600060088054905067ffffffffffffffff81111561125757611256614bb2565b5b60405190808252806020026020018201604052801561129057816020015b61127d6133c0565b8152602001906001900390816112755790505b50905060005b6008805490508110156116755760066000600883815481106112bb576112ba614b83565b5b9060005260206000200160009054906101000a900473ffffffffffffffffffffffffffffffffffffffff1673ffffffffffffffffffffffffffffffffffffffff1673ffffffffffffffffffffffffffffffffffffffff1681526020019081526020016000206040518060a0016040529081600082015481526020016001820160405180604001604052908160008201805461135590614992565b80601f016020809104026020016040519081016040528092919081815260200182805461138190614992565b80156113ce5780601f106113a3576101008083540402835291602001916113ce565b820191906000526020600020905b8154815290600101906020018083116113b157829003601f168201915b50505050508152602001600182015481525050815260200160038201604051806101000160405290816000820160009054906101000a900473ffffffffffffffffffffffffffffffffffffffff1673ffffffffffffffffffffffffffffffffffffffff1673ffffffffffffffffffffffffffffffffffffffff1681526020016001820154815260200160028201548152602001600382015481526020016004820154815260200160058201548152602001600682015481526020016007820160009054906101000a900460ff1660048111156114ad576114ac614b25565b5b60048111156114bf576114be614b25565b5b815250508152602001600b8201604051806060016040529081600082015481526020016001820160405180604001604052908160008201805461150190614992565b80601f016020809104026020016040519081016040528092919081815260200182805461152d90614992565b801561157a5780601f1061154f5761010080835404028352916020019161157a565b820191906000526020600020905b81548152906001019060200180831161155d57829003601f168201915b5050505050815260200160018201805461159390614992565b80601f01602080910402602001604051908101604052809291908181526020018280546115bf90614992565b801561160c5780601f106115e15761010080835404028352916020019161160c565b820191906000526020600020905b8154815290600101906020018083116115ef57829003601f168201915b50505050508152505081526020016003820154815250508152602001600f820160009054906101000a900460ff1660ff1660ff168152505082828151811061165757611656614b83565b5b6020026020010181905250808061166d906149f5565b915050611296565b508091505090565b42600a8190555061168c610881565b5050565b600060649050949350505050565b60006060600954600a54426116b39190614824565b1191509250929050565b3373ffffffffffffffffffffffffffffffffffffffff16600b60009054906101000a900473ffffffffffffffffffffffffffffffffffffffff1673ffffffffffffffffffffffffffffffffffffffff161461174d576040517f08c379a0000000000000000000000000000000000000000000000000000000008152600401611744906143bc565b60405180910390fd5b80601060006101000a81548160ff021916908360ff16021790555050565b600060c8866020015161177e9190614628565b905095945050505050565b6000601060009054906101000a900460ff1660ff16905090565b600d60009054906101000a900473ffffffffffffffffffffffffffffffffffffffff1681565b816005600082815260200190815260200160002060009054906101000a900473ffffffffffffffffffffffffffffffffffffffff1673ffffffffffffffffffffffffffffffffffffffff163373ffffffffffffffffffffffffffffffffffffffff161461186b576040517f08c379a0000000000000000000000000000000000000000000000000000000008152600401611862906143fc565b60405180910390fd5b6005600082815260200190815260200160002060006101000a81549073ffffffffffffffffffffffffffffffffffffffff0219169055807f7cc135e0cebb02c3480ae5d74d377283180a2601f8f644edf7987b009316c63a60405160405180910390a26000600660006007600087815260200190815260200160002060009054906101000a900473ffffffffffffffffffffffffffffffffffffffff1673ffffffffffffffffffffffffffffffffffffffff1673ffffffffffffffffffffffffffffffffffffffff168152602001908152602001600020905060006007600086815260200190815260200160002060009054906101000a900473ffffffffffffffffffffffffffffffffffffffff1690508382600b01600301819055506007600086815260200190815260200160002060006101000a81549073ffffffffffffffffffffffffffffffffffffffff02191690556119c781611d36565b15611a5f5781600f01600081819054906101000a900460ff16809291906119ed90614a3e565b91906101000a81548160ff021916908360ff1602179055505081600f0160009054906101000a900460ff1660ff168173ffffffffffffffffffffffffffffffffffffffff167ff2fc1ab2fe0548a15741db169c5c846fb8da987515272472c520aeb9456d7a3f60405160405180910390a35b601060009054906101000a900460ff1660ff1682600f0160009054906101000a900460ff1660ff1610611ac65760038260030160070160006101000a81548160ff02191690836004811115611ab757611ab6614b25565b5b0217905550611ac581610c14565b5b5050505050565b611ad5613404565b600660003373ffffffffffffffffffffffffffffffffffffffff1673ffffffffffffffffffffffffffffffffffffffff168152602001908152602001600020600b016040518060600160405290816000820154815260200160018201604051806040016040529081600082018054611b4c90614992565b80601f0160208091040260200160405190810160405280929190818152602001828054611b7890614992565b8015611bc55780601f10611b9a57610100808354040283529160200191611bc5565b820191906000526020600020905b815481529060010190602001808311611ba857829003601f168201915b50505050508152602001600182018054611bde90614992565b80601f0160208091040260200160405190810160405280929190818152602001828054611c0a90614992565b8015611c575780601f10611c2c57610100808354040283529160200191611c57565b820191906000526020600020905b815481529060010190602001808311611c3a57829003601f168201915b5050505050815250508152602001600382015481525050905090565b6000806000905060005b600880549050811015611d2e576006600060088381548110611ca257611ca1614b83565b5b9060005260206000200160009054906101000a900473ffffffffffffffffffffffffffffffffffffffff1673ffffffffffffffffffffffffffffffffffffffff1673ffffffffffffffffffffffffffffffffffffffff1681526020019081526020016000206001016001015482611d1991906145d2565b91508080611d26906149f5565b915050611c7d565b508091505090565b600080600660008473ffffffffffffffffffffffffffffffffffffffff1673ffffffffffffffffffffffffffffffffffffffff1681526020019081526020016000206040518060a00160405290816000820154815260200160018201604051806040016040529081600082018054611dad90614992565b80601f0160208091040260200160405190810160405280929190818152602001828054611dd990614992565b8015611e265780601f10611dfb57610100808354040283529160200191611e26565b820191906000526020600020905b815481529060010190602001808311611e0957829003601f168201915b50505050508152602001600182015481525050815260200160038201604051806101000160405290816000820160009054906101000a900473ffffffffffffffffffffffffffffffffffffffff1673ffffffffffffffffffffffffffffffffffffffff1673ffffffffffffffffffffffffffffffffffffffff1681526020016001820154815260200160028201548152602001600382015481526020016004820154815260200160058201548152602001600682015481526020016007820160009054906101000a900460ff166004811115611f0557611f04614b25565b5b6004811115611f1757611f16614b25565b5b815250508152602001600b82016040518060600160405290816000820154815260200160018201604051806040016040529081600082018054611f5990614992565b80601f0160208091040260200160405190810160405280929190818152602001828054611f8590614992565b8015611fd25780601f10611fa757610100808354040283529160200191611fd2565b820191906000526020600020905b815481529060010190602001808311611fb557829003601f168201915b50505050508152602001600182018054611feb90614992565b80601f016020809104026020016040519081016040528092919081815260200182805461201790614992565b80156120645780601f1061203957610100808354040283529160200191612064565b820191906000526020600020905b81548152906001019060200180831161204757829003601f168201915b50505050508152505081526020016003820154815250508152602001600f820160009054906101000a900460ff1660ff1660ff16815250509050806040015160c0015181606001516040015111156120c05760019150506120c2565b505b919050565b6000604051806040016040528088815260200187815250905060006120ef828787878761176b565b9050348114612133576040517f08c379a000000000000000000000000000000000000000000000000000000000815260040161212a906143dc565b60405180910390fd5b600061214187878787611690565b905060006040518061010001604052803373ffffffffffffffffffffffffffffffffffffffff168152602001898152602001888152602001878152602001868152602001848152602001838152602001600060048111156121a5576121a4614b25565b5b8152509050600060405180606001604052806000815260200160405180604001604052806040518060400160405280600181526020017f300000000000000000000000000000000000000000000000000000000000000081525081526020016040518060400160405280600181526020017f300000000000000000000000000000000000000000000000000000000000000081525081525081526020016000815250905060006040518060a00160405280600c548152602001878152602001848152602001838152602001600060ff16815250905080600660003373ffffffffffffffffffffffffffffffffffffffff1673ffffffffffffffffffffffffffffffffffffffff1681526020019081526020016000206000820151816000015560208201518160010160008201518160000190805190602001906122e992919061342b565b5060208201518160010155505060408201518160030160008201518160000160006101000a81548173ffffffffffffffffffffffffffffffffffffffff021916908373ffffffffffffffffffffffffffffffffffffffff1602179055506020820151816001015560408201518160020155606082015181600301556080820151816004015560a0820151816005015560c0820151816006015560e08201518160070160006101000a81548160ff021916908360048111156123ad576123ac614b25565b5b02179055505050606082015181600b016000820151816000015560208201518160010160008201518160000190805190602001906123ec92919061342b565b50602082015181600101908051906020019061240992919061342b565b505050604082015181600301555050608082015181600f0160006101000a81548160ff021916908360ff1602179055509050506008339080600181540180825580915050600190039060005260206000200160009091909190916101000a81548173ffffffffffffffffffffffffffffffffffffffff021916908373ffffffffffffffffffffffffffffffffffffffff160217905550600c543373ffffffffffffffffffffffffffffffffffffffff167f3255df11c94aa2a3efbf0126626774d57fed6283692e37853a78c1b58dabc2ad60405160405180910390a3600c60008154809291906124f8906149f5565b9190505550505050505050505050505050565b6000806000905060005b6008805490508110156125c657600660006008838154811061253a57612539614b83565b5b9060005260206000200160009054906101000a900473ffffffffffffffffffffffffffffffffffffffff1673ffffffffffffffffffffffffffffffffffffffff1673ffffffffffffffffffffffffffffffffffffffff16815260200190815260200160002060030160050154826125b191906145d2565b915080806125be906149f5565b915050612515565b508091505090565b3373ffffffffffffffffffffffffffffffffffffffff16600b60009054906101000a900473ffffffffffffffffffffffffffffffffffffffff1673ffffffffffffffffffffffffffffffffffffffff161461265e576040517f08c379a0000000000000000000000000000000000000000000000000000000008152600401612655906143bc565b60405180910390fd5b82600d60006101000a81548173ffffffffffffffffffffffffffffffffffffffff021916908373ffffffffffffffffffffffffffffffffffffffff1602179055506126a882612c32565b600e8190555080600f81905550505050565b6126c26133c0565b600660003373ffffffffffffffffffffffffffffffffffffffff1673ffffffffffffffffffffffffffffffffffffffff1681526020019081526020016000206040518060a0016040529081600082015481526020016001820160405180604001604052908160008201805461273690614992565b80601f016020809104026020016040519081016040528092919081815260200182805461276290614992565b80156127af5780601f10612784576101008083540402835291602001916127af565b820191906000526020600020905b81548152906001019060200180831161279257829003601f168201915b50505050508152602001600182015481525050815260200160038201604051806101000160405290816000820160009054906101000a900473ffffffffffffffffffffffffffffffffffffffff1673ffffffffffffffffffffffffffffffffffffffff1673ffffffffffffffffffffffffffffffffffffffff1681526020016001820154815260200160028201548152602001600382015481526020016004820154815260200160058201548152602001600682015481526020016007820160009054906101000a900460ff16600481111561288e5761288d614b25565b5b60048111156128a05761289f614b25565b5b815250508152602001600b820160405180606001604052908160008201548152602001600182016040518060400160405290816000820180546128e290614992565b80601f016020809104026020016040519081016040528092919081815260200182805461290e90614992565b801561295b5780601f106129305761010080835404028352916020019161295b565b820191906000526020600020905b81548152906001019060200180831161293e57829003601f168201915b5050505050815260200160018201805461297490614992565b80601f01602080910402602001604051908101604052809291908181526020018280546129a090614992565b80156129ed5780601f106129c2576101008083540402835291602001916129ed565b820191906000526020600020905b8154815290600101906020018083116129d057829003601f168201915b50505050508152505081526020016003820154815250508152602001600f820160009054906101000a900460ff1660ff1660ff1681525050905090565b6000600660003373ffffffffffffffffffffffffffffffffffffffff1673ffffffffffffffffffffffffffffffffffffffff16815260200190815260200160002060030160070160009054906101000a900460ff16905090565b60088181548110612a9457600080fd5b906000526020600020016000915054906101000a900473ffffffffffffffffffffffffffffffffffffffff1681565b6000600660003373ffffffffffffffffffffffffffffffffffffffff1673ffffffffffffffffffffffffffffffffffffffff16815260200190815260200160002060030160060154905090565b600c5481565b83601060006101000a81548160ff021916908360ff1602179055508260098190555080600660008473ffffffffffffffffffffffffffffffffffffffff1673ffffffffffffffffffffffffffffffffffffffff1681526020019081526020016000206003016006018190555050505050565b600b60009054906101000a900473ffffffffffffffffffffffffffffffffffffffff1681565b612bb66134b1565b612bbe6134b1565b612bd585858584612c5c909392919063ffffffff16565b9150509392505050565b612bf6828460800151612d0c90919063ffffffff16565b612c0d818460800151612d0c90919063ffffffff16565b505050565b6000612c298484846001634042994660e01b612d31565b90509392505050565b600080829050600081511415612c4e576000801b915050612c57565b60208301519150505b919050565b612c646134b1565b612c748560800151610100612f99565b508385600001818152505082856020019073ffffffffffffffffffffffffffffffffffffffff16908173ffffffffffffffffffffffffffffffffffffffff16815250508185604001907bffffffffffffffffffffffffffffffffffffffffffffffffffffffff191690817bffffffffffffffffffffffffffffffffffffffffffffffffffffffff191681525050849050949350505050565b612d198260038351613003565b612d2c818361314890919063ffffffff16565b505050565b600030600454604051602001612d489291906141b8565b604051602081830303815290604052805190602001209050600454856060018181525050856005600083815260200190815260200160002060006101000a81548173ffffffffffffffffffffffffffffffffffffffff021916908373ffffffffffffffffffffffffffffffffffffffff160217905550807fb5e6e01e79f91267dc17b4e6314d5d4d03593d2ceee0fbb452b750bd70ea5af960405160405180910390a2600082600080886000015189602001518a604001518b606001518a8d6080015160000151604051602401612e26989796959493929190614236565b604051602081830303815290604052907bffffffffffffffffffffffffffffffffffffffffffffffffffffffff19166020820180517bffffffffffffffffffffffffffffffffffffffffffffffffffffffff83818316178352505050509050600260009054906101000a900473ffffffffffffffffffffffffffffffffffffffff1673ffffffffffffffffffffffffffffffffffffffff16634000aea08887846040518463ffffffff1660e01b8152600401612ee4939291906142bb565b602060405180830381600087803b158015612efe57600080fd5b505af1158015612f12573d6000803e3d6000fd5b505050506040513d601f19601f82011682018060405250810190612f36919061386d565b612f75576040517f08c379a0000000000000000000000000000000000000000000000000000000008152600401612f6c9061439c565b60405180910390fd5b600160046000828254612f8891906145d2565b925050819055505095945050505050565b612fa161351e565b6000602083612fb09190614a96565b14612fdc57602082612fc29190614a96565b6020612fce9190614824565b82612fd991906145d2565b91505b81836020018181525050604051808452600081528281016020016040525082905092915050565b601781116130305761302a8160058460ff16901b60ff16178461316a90919063ffffffff16565b50613143565b60ff811161307257613055601860058460ff16901b178461316a90919063ffffffff16565b5061306c8160018561318a9092919063ffffffff16565b50613142565b61ffff81116130b557613098601960058460ff16901b178461316a90919063ffffffff16565b506130af8160028561318a9092919063ffffffff16565b50613141565b63ffffffff81116130fa576130dd601a60058460ff16901b178461316a90919063ffffffff16565b506130f48160048561318a9092919063ffffffff16565b50613140565b67ffffffffffffffff811161313f57613126601b60058460ff16901b178461316a90919063ffffffff16565b5061313d8160088561318a9092919063ffffffff16565b505b5b5b5b5b505050565b61315061351e565b613162838460000151518485516131ac565b905092915050565b61317261351e565b613182838460000151518461329b565b905092915050565b61319261351e565b6131a38485600001515185856132f2565b90509392505050565b6131b461351e565b82518211156131c257600080fd5b846020015182856131d391906145d2565b1115613208576132078560026131f8886020015188876131f391906145d2565b613380565b61320291906147ca565b61339c565b5b6000808651805187602083010193508088870111156132275787860182525b60208701925050505b6020841061326e578051825260208261324991906145d2565b915060208161325891906145d2565b90506020846132679190614824565b9350613230565b60006001856020036101000a03905080198251168184511681811785525050508692505050949350505050565b6132a361351e565b836020015183106132c9576132c884600286602001516132c391906147ca565b61339c565b5b83518051602085830101848153818614156132e5576001820183525b5050508390509392505050565b6132fa61351e565b8460200151848361330b91906145d2565b111561333357613332856002868561332391906145d2565b61332d91906147ca565b61339c565b5b600060018361010061334591906146ac565b61334f9190614824565b905085518386820101858319825116178152815185880111156133725784870182525b505085915050949350505050565b60008183111561339257829050613396565b8190505b92915050565b6000826000015190506133af8383612f99565b506133ba8382613148565b50505050565b6040518060a00160405280600081526020016133da613538565b81526020016133e7613552565b81526020016133f4613404565b8152602001600060ff1681525090565b60405180606001604052806000815260200161341e6135bf565b8152602001600081525090565b82805461343790614992565b90600052602060002090601f01602090048101928261345957600085556134a0565b82601f1061347257805160ff19168380011785556134a0565b828001600101855582156134a0579182015b8281111561349f578251825591602001919060010190613484565b5b5090506134ad91906135d9565b5090565b6040518060a0016040528060008019168152602001600073ffffffffffffffffffffffffffffffffffffffff16815260200160007bffffffffffffffffffffffffffffffffffffffffffffffffffffffff191681526020016000815260200161351861351e565b81525090565b604051806040016040528060608152602001600081525090565b604051806040016040528060608152602001600081525090565b604051806101000160405280600073ffffffffffffffffffffffffffffffffffffffff168152602001600081526020016000815260200160008152602001600081526020016000815260200160008152602001600060048111156135b9576135b8614b25565b5b81525090565b604051806040016040528060608152602001606081525090565b5b808211156135f25760008160009055506001016135da565b5090565b60006136096136048461451f565b6144fa565b90508281526020810184848401111561362557613624614bfa565b5b613630848285614950565b509392505050565b60008135905061364781614d84565b92915050565b60008151905061365c81614d9b565b92915050565b60008135905061367181614db2565b92915050565b60008083601f84011261368d5761368c614be6565b5b8235905067ffffffffffffffff8111156136aa576136a9614be1565b5b6020830191508360018202830111156136c6576136c5614bf5565b5b9250929050565b600082601f8301126136e2576136e1614be6565b5b81356136f28482602086016135f6565b91505092915050565b60006040828403121561371157613710614beb565b5b61371b60406144fa565b9050600082013567ffffffffffffffff81111561373b5761373a614bf0565b5b613747848285016136cd565b600083015250602061375b84828501613767565b60208301525092915050565b60008135905061377681614dc9565b92915050565b60008135905061378b81614de0565b92915050565b6000602082840312156137a7576137a6614c04565b5b60006137b584828501613638565b91505092915050565b6000806000606084860312156137d7576137d6614c04565b5b60006137e586828701613638565b935050602084013567ffffffffffffffff81111561380657613805614bff565b5b613812868287016136cd565b925050604061382386828701613767565b9150509250925092565b6000806040838503121561384457613843614c04565b5b600061385285828601613638565b925050602061386385828601613767565b9150509250929050565b60006020828403121561388357613882614c04565b5b60006138918482850161364d565b91505092915050565b6000602082840312156138b0576138af614c04565b5b60006138be84828501613662565b91505092915050565b600080604083850312156138de576138dd614c04565b5b60006138ec85828601613662565b92505060206138fd85828601613767565b9150509250929050565b6000806020838503121561391e5761391d614c04565b5b600083013567ffffffffffffffff81111561393c5761393b614bff565b5b61394885828601613677565b92509250509250929050565b60008060008060008060c0878903121561397157613970614c04565b5b600087013567ffffffffffffffff81111561398f5761398e614bff565b5b61399b89828a016136cd565b96505060206139ac89828a01613767565b95505060406139bd89828a01613767565b94505060606139ce89828a01613767565b93505060806139df89828a01613767565b92505060a06139f089828a01613767565b9150509295509295509295565b600080600080600060a08688031215613a1957613a18614c04565b5b600086013567ffffffffffffffff811115613a3757613a36614bff565b5b613a43888289016136fb565b9550506020613a5488828901613767565b9450506040613a6588828901613767565b9350506060613a7688828901613767565b9250506080613a8788828901613767565b9150509295509295909350565b600060208284031215613aaa57613aa9614c04565b5b6000613ab884828501613767565b91505092915050565b60008060008060808587031215613adb57613ada614c04565b5b6000613ae987828801613767565b9450506020613afa87828801613767565b9350506040613b0b87828801613767565b9250506060613b1c87828801613767565b91505092959194509250565b600060208284031215613b3e57613b3d614c04565b5b6000613b4c8482850161377c565b91505092915050565b60008060008060808587031215613b6f57613b6e614c04565b5b6000613b7d8782880161377c565b9450506020613b8e87828801613767565b9350506040613b9f87828801613638565b9250506060613bb087828801613767565b91505092959194509250565b6000613bc88383613f4b565b905092915050565b613bd98161486a565b82525050565b613be881614858565b82525050565b6000613bf982614560565b613c03818561458e565b935083602082028501613c1585614550565b8060005b85811015613c515784840389528151613c328582613bbc565b9450613c3d83614581565b925060208a01995050600181019050613c19565b50829750879550505050505092915050565b613c6c8161487c565b82525050565b613c7b81614888565b82525050565b613c8a81614892565b82525050565b6000613c9b8261456b565b613ca5818561459f565b9350613cb581856020860161495f565b613cbe81614c09565b840191505092915050565b613cda613cd582614908565b614a68565b82525050565b613ce98161491a565b82525050565b613cf88161491a565b82525050565b6000613d0982614576565b613d1381856145b0565b9350613d2381856020860161495f565b613d2c81614c09565b840191505092915050565b6000613d446023836145c1565b9150613d4f82614c34565b604082019050919050565b6000613d676023836145c1565b9150613d7282614c83565b604082019050919050565b6000613d8a6021836145c1565b9150613d9582614cd2565b604082019050919050565b6000613dad6028836145c1565b9150613db882614d21565b604082019050919050565b60006040830160008301518482036000860152613de08282613cfe565b91505060208301518482036020860152613dfa8282613cfe565b9150508091505092915050565b61010082016000820151613e1e6000850182613bd0565b506020820151613e316020850182614165565b506040820151613e446040850182614165565b506060820151613e576060850182614165565b506080820151613e6a6080850182614165565b5060a0820151613e7d60a0850182614165565b5060c0820151613e9060c0850182614165565b5060e0820151613ea360e0850182613ce0565b50505050565b61010082016000820151613ec06000850182613bd0565b506020820151613ed36020850182614165565b506040820151613ee66040850182614165565b506060820151613ef96060850182614165565b506080820151613f0c6080850182614165565b5060a0820151613f1f60a0850182614165565b5060c0820151613f3260c0850182614165565b5060e0820151613f4560e0850182613ce0565b50505050565b600061018083016000830151613f646000860182614165565b5060208301518482036020860152613f7c828261404b565b9150506040830151613f916040860182613e07565b506060830151848203610140860152613faa82826140c5565b9150506080830151613fc061016086018261419a565b508091505092915050565b600061018083016000830151613fe46000860182614165565b5060208301518482036020860152613ffc828261404b565b91505060408301516140116040860182613e07565b50606083015184820361014086015261402a82826140c5565b915050608083015161404061016086018261419a565b508091505092915050565b600060408301600083015184820360008601526140688282613cfe565b915050602083015161407d6020860182614165565b508091505092915050565b600060408301600083015184820360008601526140a58282613cfe565b91505060208301516140ba6020860182614165565b508091505092915050565b60006060830160008301516140dd6000860182614165565b50602083015184820360208601526140f58282613dc3565b915050604083015161410a6040860182614165565b508091505092915050565b600060608301600083015161412d6000860182614165565b50602083015184820360208601526141458282613dc3565b915050604083015161415a6040860182614165565b508091505092915050565b61416e816148f1565b82525050565b61417d816148f1565b82525050565b61419461418f826148f1565b614a8c565b82525050565b6141a3816148fb565b82525050565b6141b2816148fb565b82525050565b60006141c48285613cc9565b6014820191506141d48284614183565b6020820191508190509392505050565b60006020820190506141f96000830184613bdf565b92915050565b60006060820190506142146000830186613bdf565b6142216020830185613c72565b61422e6040830184614174565b949350505050565b60006101008201905061424c600083018b613bdf565b614259602083018a614174565b6142666040830189613c72565b6142736060830188613bdf565b6142806080830187613c81565b61428d60a0830186614174565b61429a60c0830185614174565b81810360e08301526142ac8184613c90565b90509998505050505050505050565b60006060820190506142d06000830186613bdf565b6142dd6020830185614174565b81810360408301526142ef8184613c90565b9050949350505050565b600060208201905081810360008301526143138184613bee565b905092915050565b60006020820190506143306000830184613c63565b92915050565b600060408201905061434b6000830185613c63565b818103602083015261435d8184613c90565b90509392505050565b600060208201905061437b6000830184613c72565b92915050565b60006020820190506143966000830184613cef565b92915050565b600060208201905081810360008301526143b581613d37565b9050919050565b600060208201905081810360008301526143d581613d5a565b9050919050565b600060208201905081810360008301526143f581613d7d565b9050919050565b6000602082019050818103600083015261441581613da0565b9050919050565b600060208201905081810360008301526144368184613fcb565b905092915050565b600060208201905081810360008301526144588184614115565b905092915050565b60006020820190506144756000830184614174565b92915050565b6000610180820190506144916000830188614174565b81810360208301526144a38187614088565b90506144b26040830186613ea9565b8181036101408301526144c58185614115565b90506144d56101608301846141a9565b9695505050505050565b60006020820190506144f460008301846141a9565b92915050565b6000614504614515565b905061451082826149c4565b919050565b6000604051905090565b600067ffffffffffffffff82111561453a57614539614bb2565b5b61454382614c09565b9050602081019050919050565b6000819050602082019050919050565b600081519050919050565b600081519050919050565b600081519050919050565b6000602082019050919050565b600082825260208201905092915050565b600082825260208201905092915050565b600082825260208201905092915050565b600082825260208201905092915050565b60006145dd826148f1565b91506145e8836148f1565b9250827fffffffffffffffffffffffffffffffffffffffffffffffffffffffffffffffff0382111561461d5761461c614ac7565b5b828201905092915050565b6000614633826148f1565b915061463e836148f1565b92508261464e5761464d614af6565b5b828204905092915050565b6000808291508390505b60018511156146a35780860481111561467f5761467e614ac7565b5b600185161561468e5780820291505b808102905061469c85614c27565b9450614663565b94509492505050565b60006146b7826148f1565b91506146c2836148f1565b92506146ef7fffffffffffffffffffffffffffffffffffffffffffffffffffffffffffffffff84846146f7565b905092915050565b60008261470757600190506147c3565b8161471557600090506147c3565b816001811461472b576002811461473557614764565b60019150506147c3565b60ff84111561474757614746614ac7565b5b8360020a91508482111561475e5761475d614ac7565b5b506147c3565b5060208310610133831016604e8410600b84101617156147995782820a90508381111561479457614793614ac7565b5b6147c3565b6147a68484846001614659565b925090508184048111156147bd576147bc614ac7565b5b81810290505b9392505050565b60006147d5826148f1565b91506147e0836148f1565b9250817fffffffffffffffffffffffffffffffffffffffffffffffffffffffffffffffff048311821515161561481957614818614ac7565b5b828202905092915050565b600061482f826148f1565b915061483a836148f1565b92508282101561484d5761484c614ac7565b5b828203905092915050565b6000614863826148d1565b9050919050565b6000614875826148d1565b9050919050565b60008115159050919050565b6000819050919050565b60007fffffffff0000000000000000000000000000000000000000000000000000000082169050919050565b60008190506148cc82614d70565b919050565b600073ffffffffffffffffffffffffffffffffffffffff82169050919050565b6000819050919050565b600060ff82169050919050565b60006149138261492c565b9050919050565b6000614925826148be565b9050919050565b60006149378261493e565b9050919050565b6000614949826148d1565b9050919050565b82818337600083830152505050565b60005b8381101561497d578082015181840152602081019050614962565b8381111561498c576000848401525b50505050565b600060028204905060018216806149aa57607f821691505b602082108114156149be576149bd614b54565b5b50919050565b6149cd82614c09565b810181811067ffffffffffffffff821117156149ec576149eb614bb2565b5b80604052505050565b6000614a00826148f1565b91507fffffffffffffffffffffffffffffffffffffffffffffffffffffffffffffffff821415614a3357614a32614ac7565b5b600182019050919050565b6000614a49826148fb565b915060ff821415614a5d57614a5c614ac7565b5b600182019050919050565b6000614a7382614a7a565b9050919050565b6000614a8582614c1a565b9050919050565b6000819050919050565b6000614aa1826148f1565b9150614aac836148f1565b925082614abc57614abb614af6565b5b828206905092915050565b7f4e487b7100000000000000000000000000000000000000000000000000000000600052601160045260246000fd5b7f4e487b7100000000000000000000000000000000000000000000000000000000600052601260045260246000fd5b7f4e487b7100000000000000000000000000000000000000000000000000000000600052602160045260246000fd5b7f4e487b7100000000000000000000000000000000000000000000000000000000600052602260045260246000fd5b7f4e487b7100000000000000000000000000000000000000000000000000000000600052603260045260246000fd5b7f4e487b7100000000000000000000000000000000000000000000000000000000600052604160045260246000fd5b600080fd5b600080fd5b600080fd5b600080fd5b600080fd5b600080fd5b600080fd5b600080fd5b6000601f19601f8301169050919050565b60008160601b9050919050565b60008160011c9050919050565b7f756e61626c6520746f207472616e73666572416e6443616c6c20746f206f726160008201527f636c650000000000000000000000000000000000000000000000000000000000602082015250565b7f4f6e6c7920496e737572616e63652070726f76696465722063616e20646f207460008201527f6869730000000000000000000000000000000000000000000000000000000000602082015250565b7f596f75206861766520746f2070617920746865206578616374205072656d697560008201527f6d00000000000000000000000000000000000000000000000000000000000000602082015250565b7f536f75726365206d75737420626520746865206f7261636c65206f662074686560008201527f2072657175657374000000000000000000000000000000000000000000000000602082015250565b60058110614d8157614d80614b25565b5b50565b614d8d81614858565b8114614d9857600080fd5b50565b614da48161487c565b8114614daf57600080fd5b50565b614dbb81614888565b8114614dc657600080fd5b50565b614dd2816148f1565b8114614ddd57600080fd5b50565b614de9816148fb565b8114614df457600080fd5b5056fea2646970667358221220ebf285c431b67872c4d7bd35c964fc90c65aa0e43007039da107e6c47ea93c2664736f6c63430008070033",
  "linkReferences": {},
  "deployedLinkReferences": {}
}