{
  "contractName": "Election",
  "abi": [
    {
      "inputs": [],
      "payable": false,
      "stateMutability": "nonpayable",
      "type": "constructor"
    },
    {
      "constant": true,
      "inputs": [
        {
          "internalType": "uint256",
          "name": "",
          "type": "uint256"
        }
      ],
      "name": "commitments",
      "outputs": [
        {
          "internalType": "uint256",
          "name": "",
          "type": "uint256"
        }
      ],
      "payable": false,
      "stateMutability": "view",
      "type": "function"
    },
    {
      "constant": true,
      "inputs": [],
      "name": "owner",
      "outputs": [
        {
          "internalType": "address",
          "name": "",
          "type": "address"
        }
      ],
      "payable": false,
      "stateMutability": "view",
      "type": "function"
    },
    {
      "constant": false,
      "inputs": [
        {
          "internalType": "uint256",
          "name": "_commitment",
          "type": "uint256"
        }
      ],
      "name": "addCommitment",
      "outputs": [],
      "payable": false,
      "stateMutability": "nonpayable",
      "type": "function"
    },
    {
      "constant": false,
      "inputs": [],
      "name": "getCommitments",
      "outputs": [
        {
          "internalType": "uint256[]",
          "name": "",
          "type": "uint256[]"
        }
      ],
      "payable": false,
      "stateMutability": "nonpayable",
      "type": "function"
    }
  ],
  "bytecode": "0x608060405234801561001057600080fd5b50336000806101000a81548173ffffffffffffffffffffffffffffffffffffffff021916908373ffffffffffffffffffffffffffffffffffffffff1602179055506102c2806100606000396000f3fe608060405234801561001057600080fd5b506004361061004c5760003560e01c806349ce899714610051578063797a6890146100935780638da5cb5b146100c1578063f1ea66d41461010b575b600080fd5b61007d6004803603602081101561006757600080fd5b810190808035906020019092919050505061016a565b6040518082815260200191505060405180910390f35b6100bf600480360360208110156100a957600080fd5b810190808035906020019092919050505061018b565b005b6100c9610210565b604051808273ffffffffffffffffffffffffffffffffffffffff1673ffffffffffffffffffffffffffffffffffffffff16815260200191505060405180910390f35b610113610235565b6040518080602001828103825283818151815260200191508051906020019060200280838360005b8381101561015657808201518184015260208101905061013b565b505050509050019250505060405180910390f35b6001818154811061017757fe5b906000526020600020016000915090505481565b6000809054906101000a900473ffffffffffffffffffffffffffffffffffffffff1673ffffffffffffffffffffffffffffffffffffffff163373ffffffffffffffffffffffffffffffffffffffff16141561020d5760018190806001815401808255809150509060018203906000526020600020016000909192909190915055505b50565b6000809054906101000a900473ffffffffffffffffffffffffffffffffffffffff1681565b6060600180548060200260200160405190810160405280929190818152602001828054801561028357602002820191906000526020600020905b81548152602001906001019080831161026f575b505050505090509056fea265627a7a72315820907d6753622f3e6b83706cacfc32866cabc9f3b2a13c1dbcfc8e14c54d31523264736f6c63430005100032",
  "source": "pragma solidity >=0.4.21 <0.6.0;\n\ncontract Election {\n  address public owner;\n  uint[] public commitments;\n\n  constructor() public {\n    owner = msg.sender;\n  }\n\n  modifier restricted() {\n    if (msg.sender == owner) _;\n  }\n\n  function addCommitment(uint _commitment) public restricted {\n    commitments.push(_commitment);\n  }\n\n  function getCommitments() public returns (uint[] memory) {\n      return commitments;\n  }\n\n}\n",
  "sourcePath": "/home/akash/Videos/MIT-Blockchain-Hackathon-2020/zk_library/verify/contracts/Election1.sol",
  "compiler": {
    "name": "solc",
    "version": "0.5.16+commit.9c3226ce.Emscripten.clang"
  },
  "schemaVersion": "3.0.23",
  "updatedAt": "2020-03-08T15:03:58.953Z",
  "devdoc": {
    "methods": {}
  },
  "userdoc": {
    "methods": {}
  }
}