{
  "contractName": "ERC20",
  "abi": [
    {
      "constant": true,
      "inputs": [],
      "name": "_totalSupply",
      "outputs": [
        {
          "name": "",
          "type": "uint256"
        }
      ],
      "payable": false,
      "stateMutability": "view",
      "type": "function"
    },
    {
      "constant": true,
      "inputs": [
        {
          "name": "",
          "type": "address"
        }
      ],
      "name": "_balances",
      "outputs": [
        {
          "name": "",
          "type": "uint256"
        }
      ],
      "payable": false,
      "stateMutability": "view",
      "type": "function"
    },
    {
      "anonymous": false,
      "inputs": [
        {
          "indexed": true,
          "name": "from",
          "type": "address"
        },
        {
          "indexed": true,
          "name": "to",
          "type": "address"
        },
        {
          "indexed": false,
          "name": "value",
          "type": "uint256"
        }
      ],
      "name": "Transfer",
      "type": "event"
    },
    {
      "anonymous": false,
      "inputs": [
        {
          "indexed": true,
          "name": "owner",
          "type": "address"
        },
        {
          "indexed": true,
          "name": "spender",
          "type": "address"
        },
        {
          "indexed": false,
          "name": "value",
          "type": "uint256"
        }
      ],
      "name": "Approval",
      "type": "event"
    },
    {
      "constant": true,
      "inputs": [],
      "name": "totalSupply",
      "outputs": [
        {
          "name": "",
          "type": "uint256"
        }
      ],
      "payable": false,
      "stateMutability": "view",
      "type": "function"
    },
    {
      "constant": true,
      "inputs": [
        {
          "name": "owner",
          "type": "address"
        }
      ],
      "name": "balanceOf",
      "outputs": [
        {
          "name": "",
          "type": "uint256"
        }
      ],
      "payable": false,
      "stateMutability": "view",
      "type": "function"
    },
    {
      "constant": true,
      "inputs": [
        {
          "name": "owner",
          "type": "address"
        },
        {
          "name": "spender",
          "type": "address"
        }
      ],
      "name": "allowance",
      "outputs": [
        {
          "name": "",
          "type": "uint256"
        }
      ],
      "payable": false,
      "stateMutability": "view",
      "type": "function"
    },
    {
      "constant": false,
      "inputs": [
        {
          "name": "to",
          "type": "address"
        },
        {
          "name": "value",
          "type": "uint256"
        }
      ],
      "name": "transfer",
      "outputs": [
        {
          "name": "",
          "type": "bool"
        }
      ],
      "payable": false,
      "stateMutability": "nonpayable",
      "type": "function"
    },
    {
      "constant": false,
      "inputs": [
        {
          "name": "spender",
          "type": "address"
        },
        {
          "name": "value",
          "type": "uint256"
        }
      ],
      "name": "approve",
      "outputs": [
        {
          "name": "",
          "type": "bool"
        }
      ],
      "payable": false,
      "stateMutability": "nonpayable",
      "type": "function"
    },
    {
      "constant": false,
      "inputs": [
        {
          "name": "from",
          "type": "address"
        },
        {
          "name": "to",
          "type": "address"
        },
        {
          "name": "value",
          "type": "uint256"
        }
      ],
      "name": "transferFrom",
      "outputs": [
        {
          "name": "",
          "type": "bool"
        }
      ],
      "payable": false,
      "stateMutability": "nonpayable",
      "type": "function"
    },
    {
      "constant": false,
      "inputs": [
        {
          "name": "spender",
          "type": "address"
        },
        {
          "name": "addedValue",
          "type": "uint256"
        }
      ],
      "name": "increaseAllowance",
      "outputs": [
        {
          "name": "",
          "type": "bool"
        }
      ],
      "payable": false,
      "stateMutability": "nonpayable",
      "type": "function"
    },
    {
      "constant": false,
      "inputs": [
        {
          "name": "spender",
          "type": "address"
        },
        {
          "name": "subtractedValue",
          "type": "uint256"
        }
      ],
      "name": "decreaseAllowance",
      "outputs": [
        {
          "name": "",
          "type": "bool"
        }
      ],
      "payable": false,
      "stateMutability": "nonpayable",
      "type": "function"
    }
  ],
  "bytecode": "0x608060405234801561001057600080fd5b50610e47806100206000396000f3006080604052600436106100a4576000357c0100000000000000000000000000000000000000000000000000000000900463ffffffff168063095ea7b3146100a957806318160ddd1461010e57806323b872dd1461013957806339509351146101be5780633eaaf86b146102235780636ebcf6071461024e57806370a08231146102a5578063a457c2d7146102fc578063a9059cbb14610361578063dd62ed3e146103c6575b600080fd5b3480156100b557600080fd5b506100f4600480360381019080803573ffffffffffffffffffffffffffffffffffffffff1690602001909291908035906020019092919050505061043d565b604051808215151515815260200191505060405180910390f35b34801561011a57600080fd5b5061012361056a565b6040518082815260200191505060405180910390f35b34801561014557600080fd5b506101a4600480360381019080803573ffffffffffffffffffffffffffffffffffffffff169060200190929190803573ffffffffffffffffffffffffffffffffffffffff16906020019092919080359060200190929190505050610574565b604051808215151515815260200191505060405180910390f35b3480156101ca57600080fd5b50610209600480360381019080803573ffffffffffffffffffffffffffffffffffffffff1690602001909291908035906020019092919050505061069b565b604051808215151515815260200191505060405180910390f35b34801561022f57600080fd5b506102386108d2565b6040518082815260200191505060405180910390f35b34801561025a57600080fd5b5061028f600480360381019080803573ffffffffffffffffffffffffffffffffffffffff1690602001909291905050506108d8565b6040518082815260200191505060405180910390f35b3480156102b157600080fd5b506102e6600480360381019080803573ffffffffffffffffffffffffffffffffffffffff1690602001909291905050506108f0565b6040518082815260200191505060405180910390f35b34801561030857600080fd5b50610347600480360381019080803573ffffffffffffffffffffffffffffffffffffffff16906020019092919080359060200190929190505050610938565b604051808215151515815260200191505060405180910390f35b34801561036d57600080fd5b506103ac600480360381019080803573ffffffffffffffffffffffffffffffffffffffff16906020019092919080359060200190929190505050610b6f565b604051808215151515815260200191505060405180910390f35b3480156103d257600080fd5b50610427600480360381019080803573ffffffffffffffffffffffffffffffffffffffff169060200190929190803573ffffffffffffffffffffffffffffffffffffffff169060200190929190505050610b86565b6040518082815260200191505060405180910390f35b60008073ffffffffffffffffffffffffffffffffffffffff168373ffffffffffffffffffffffffffffffffffffffff161415151561047a57600080fd5b81600160003373ffffffffffffffffffffffffffffffffffffffff1673ffffffffffffffffffffffffffffffffffffffff16815260200190815260200160002060008573ffffffffffffffffffffffffffffffffffffffff1673ffffffffffffffffffffffffffffffffffffffff168152602001908152602001600020819055508273ffffffffffffffffffffffffffffffffffffffff163373ffffffffffffffffffffffffffffffffffffffff167f8c5be1e5ebec7d5bd14f71427d1e84f3dd0314c0f7b2291e5b200ac8c7c3b925846040518082815260200191505060405180910390a36001905092915050565b6000600254905090565b600061060582600160008773ffffffffffffffffffffffffffffffffffffffff1673ffffffffffffffffffffffffffffffffffffffff16815260200190815260200160002060003373ffffffffffffffffffffffffffffffffffffffff1673ffffffffffffffffffffffffffffffffffffffff16815260200190815260200160002054610c0d90919063ffffffff16565b600160008673ffffffffffffffffffffffffffffffffffffffff1673ffffffffffffffffffffffffffffffffffffffff16815260200190815260200160002060003373ffffffffffffffffffffffffffffffffffffffff1673ffffffffffffffffffffffffffffffffffffffff16815260200190815260200160002081905550610690848484610c2e565b600190509392505050565b60008073ffffffffffffffffffffffffffffffffffffffff168373ffffffffffffffffffffffffffffffffffffffff16141515156106d857600080fd5b61076782600160003373ffffffffffffffffffffffffffffffffffffffff1673ffffffffffffffffffffffffffffffffffffffff16815260200190815260200160002060008673ffffffffffffffffffffffffffffffffffffffff1673ffffffffffffffffffffffffffffffffffffffff16815260200190815260200160002054610dfa90919063ffffffff16565b600160003373ffffffffffffffffffffffffffffffffffffffff1673ffffffffffffffffffffffffffffffffffffffff16815260200190815260200160002060008573ffffffffffffffffffffffffffffffffffffffff1673ffffffffffffffffffffffffffffffffffffffff168152602001908152602001600020819055508273ffffffffffffffffffffffffffffffffffffffff163373ffffffffffffffffffffffffffffffffffffffff167f8c5be1e5ebec7d5bd14f71427d1e84f3dd0314c0f7b2291e5b200ac8c7c3b925600160003373ffffffffffffffffffffffffffffffffffffffff1673ffffffffffffffffffffffffffffffffffffffff16815260200190815260200160002060008773ffffffffffffffffffffffffffffffffffffffff1673ffffffffffffffffffffffffffffffffffffffff168152602001908152602001600020546040518082815260200191505060405180910390a36001905092915050565b60025481565b60006020528060005260406000206000915090505481565b60008060008373ffffffffffffffffffffffffffffffffffffffff1673ffffffffffffffffffffffffffffffffffffffff168152602001908152602001600020549050919050565b60008073ffffffffffffffffffffffffffffffffffffffff168373ffffffffffffffffffffffffffffffffffffffff161415151561097557600080fd5b610a0482600160003373ffffffffffffffffffffffffffffffffffffffff1673ffffffffffffffffffffffffffffffffffffffff16815260200190815260200160002060008673ffffffffffffffffffffffffffffffffffffffff1673ffffffffffffffffffffffffffffffffffffffff16815260200190815260200160002054610c0d90919063ffffffff16565b600160003373ffffffffffffffffffffffffffffffffffffffff1673ffffffffffffffffffffffffffffffffffffffff16815260200190815260200160002060008573ffffffffffffffffffffffffffffffffffffffff1673ffffffffffffffffffffffffffffffffffffffff168152602001908152602001600020819055508273ffffffffffffffffffffffffffffffffffffffff163373ffffffffffffffffffffffffffffffffffffffff167f8c5be1e5ebec7d5bd14f71427d1e84f3dd0314c0f7b2291e5b200ac8c7c3b925600160003373ffffffffffffffffffffffffffffffffffffffff1673ffffffffffffffffffffffffffffffffffffffff16815260200190815260200160002060008773ffffffffffffffffffffffffffffffffffffffff1673ffffffffffffffffffffffffffffffffffffffff168152602001908152602001600020546040518082815260200191505060405180910390a36001905092915050565b6000610b7c338484610c2e565b6001905092915050565b6000600160008473ffffffffffffffffffffffffffffffffffffffff1673ffffffffffffffffffffffffffffffffffffffff16815260200190815260200160002060008373ffffffffffffffffffffffffffffffffffffffff1673ffffffffffffffffffffffffffffffffffffffff16815260200190815260200160002054905092915050565b600080838311151515610c1f57600080fd5b82840390508091505092915050565b600073ffffffffffffffffffffffffffffffffffffffff168273ffffffffffffffffffffffffffffffffffffffff1614151515610c6a57600080fd5b610cbb816000808673ffffffffffffffffffffffffffffffffffffffff1673ffffffffffffffffffffffffffffffffffffffff16815260200190815260200160002054610c0d90919063ffffffff16565b6000808573ffffffffffffffffffffffffffffffffffffffff1673ffffffffffffffffffffffffffffffffffffffff16815260200190815260200160002081905550610d4e816000808573ffffffffffffffffffffffffffffffffffffffff1673ffffffffffffffffffffffffffffffffffffffff16815260200190815260200160002054610dfa90919063ffffffff16565b6000808473ffffffffffffffffffffffffffffffffffffffff1673ffffffffffffffffffffffffffffffffffffffff168152602001908152602001600020819055508173ffffffffffffffffffffffffffffffffffffffff168373ffffffffffffffffffffffffffffffffffffffff167fddf252ad1be2c89b69c2b068fc378daa952ba7f163c4a11628f55a4df523b3ef836040518082815260200191505060405180910390a3505050565b6000808284019050838110151515610e1157600080fd5b80915050929150505600a165627a7a723058200b6608fd667945eb352e75ea3bb26fa573e116f74ef7cd8199750c6931d006480029",
  "source": "pragma solidity ^0.4.24;\r\n\r\nimport \"./IERC20.sol\";\r\nimport \"./SafeMath.sol\";\r\n\r\ncontract ERC20 is IERC20 {\r\n  using SafeMath for uint256;\r\n\r\n  mapping (address => uint256) public _balances;\r\n\r\n  mapping (address => mapping (address => uint256)) private _allowed;\r\n\r\n  uint256 public _totalSupply;\r\n\r\n  /**\r\n  * @dev Total number of tokens in existence\r\n  */\r\n  function totalSupply() public view returns (uint256) {\r\n    return _totalSupply;\r\n  }\r\n\r\n  /**\r\n  * @dev Gets the balance of the specified address.\r\n  * @param owner The address to query the balance of.\r\n  * @return An uint256 representing the amount owned by the passed address.\r\n  */\r\n  function balanceOf(address owner) public view returns (uint256) {\r\n    return _balances[owner];\r\n  }\r\n\r\n  /**\r\n   * @dev Function to check the amount of tokens that an owner allowed to a spender.\r\n   * @param owner address The address which owns the funds.\r\n   * @param spender address The address which will spend the funds.\r\n   * @return A uint256 specifying the amount of tokens still available for the spender.\r\n   */\r\n  function allowance(\r\n    address owner,\r\n    address spender\r\n   )\r\n    public\r\n    view\r\n    returns (uint256)\r\n  {\r\n    return _allowed[owner][spender];\r\n  }\r\n\r\n  /**\r\n  * @dev Transfer token for a specified address\r\n  * @param to The address to transfer to.\r\n  * @param value The amount to be transferred.\r\n  */\r\n  function transfer(address to, uint256 value) public returns (bool) {\r\n    _transfer(msg.sender, to, value);\r\n    return true;\r\n  }\r\n\r\n  /**\r\n   * @dev Approve the passed address to spend the specified amount of tokens on behalf of msg.sender.\r\n   * Beware that changing an allowance with this method brings the risk that someone may use both the old\r\n   * and the new allowance by unfortunate transaction ordering. One possible solution to mitigate this\r\n   * race condition is to first reduce the spender's allowance to 0 and set the desired value afterwards:\r\n   * https://github.com/ethereum/EIPs/issues/20#issuecomment-263524729\r\n   * @param spender The address which will spend the funds.\r\n   * @param value The amount of tokens to be spent.\r\n   */\r\n  function approve(address spender, uint256 value) public returns (bool) {\r\n    require(spender != address(0));\r\n\r\n    _allowed[msg.sender][spender] = value;\r\n    emit Approval(msg.sender, spender, value);\r\n    return true;\r\n  }\r\n\r\n  /**\r\n   * @dev Transfer tokens from one address to another\r\n   * @param from address The address which you want to send tokens from\r\n   * @param to address The address which you want to transfer to\r\n   * @param value uint256 the amount of tokens to be transferred\r\n   */\r\n  function transferFrom(\r\n    address from,\r\n    address to,\r\n    uint256 value\r\n  )\r\n    public\r\n    returns (bool)\r\n  {\r\n    _allowed[from][msg.sender] = _allowed[from][msg.sender].sub(value);\r\n    _transfer(from, to, value);\r\n    return true;\r\n  }\r\n\r\n  /**\r\n   * @dev Increase the amount of tokens that an owner allowed to a spender.\r\n   * approve should be called when allowed_[_spender] == 0. To increment\r\n   * allowed value is better to use this function to avoid 2 calls (and wait until\r\n   * the first transaction is mined)\r\n   * From MonolithDAO Token.sol\r\n   * @param spender The address which will spend the funds.\r\n   * @param addedValue The amount of tokens to increase the allowance by.\r\n   */\r\n  function increaseAllowance(\r\n    address spender,\r\n    uint256 addedValue\r\n  )\r\n    public\r\n    returns (bool)\r\n  {\r\n    require(spender != address(0));\r\n\r\n    _allowed[msg.sender][spender] = (\r\n      _allowed[msg.sender][spender].add(addedValue));\r\n    emit Approval(msg.sender, spender, _allowed[msg.sender][spender]);\r\n    return true;\r\n  }\r\n\r\n  /**\r\n   * @dev Decrease the amount of tokens that an owner allowed to a spender.\r\n   * approve should be called when allowed_[_spender] == 0. To decrement\r\n   * allowed value is better to use this function to avoid 2 calls (and wait until\r\n   * the first transaction is mined)\r\n   * From MonolithDAO Token.sol\r\n   * @param spender The address which will spend the funds.\r\n   * @param subtractedValue The amount of tokens to decrease the allowance by.\r\n   */\r\n  function decreaseAllowance(\r\n    address spender,\r\n    uint256 subtractedValue\r\n  )\r\n    public\r\n    returns (bool)\r\n  {\r\n    require(spender != address(0));\r\n\r\n    _allowed[msg.sender][spender] = (\r\n      _allowed[msg.sender][spender].sub(subtractedValue));\r\n    emit Approval(msg.sender, spender, _allowed[msg.sender][spender]);\r\n    return true;\r\n  }\r\n\r\n  /**\r\n  * @dev Transfer token for a specified addresses\r\n  * @param from The address to transfer from.\r\n  * @param to The address to transfer to.\r\n  * @param value The amount to be transferred.\r\n  */\r\n  function _transfer(address from, address to, uint256 value) internal {\r\n    require(to != address(0));\r\n\r\n    _balances[from] = _balances[from].sub(value);\r\n    _balances[to] = _balances[to].add(value);\r\n    emit Transfer(from, to, value);\r\n  }\r\n\r\n  /**\r\n   * @dev Internal function that mints an amount of the token and assigns it to\r\n   * an account. This encapsulates the modification of balances such that the\r\n   * proper events are emitted.\r\n   * @param account The account that will receive the created tokens.\r\n   * @param value The amount that will be created.\r\n   */\r\n  function _mint(address account, uint256 value) internal {\r\n    require(account != address(0));\r\n\r\n    _totalSupply = _totalSupply.add(value);\r\n    _balances[account] = _balances[account].add(value);\r\n    emit Transfer(address(0), account, value);\r\n  }\r\n\r\n  /**\r\n   * @dev Internal function that burns an amount of the token of a given\r\n   * account.\r\n   * @param account The account whose tokens will be burnt.\r\n   * @param value The amount that will be burnt.\r\n   */\r\n  function _burn(address account, uint256 value) internal {\r\n    require(account != address(0));\r\n\r\n    _totalSupply = _totalSupply.sub(value);\r\n    _balances[account] = _balances[account].sub(value);\r\n    emit Transfer(account, address(0), value);\r\n  }\r\n\r\n  /**\r\n   * @dev Internal function that burns an amount of the token of a given\r\n   * account, deducting from the sender's allowance for said account. Uses the\r\n   * internal burn function.\r\n   * @param account The account whose tokens will be burnt.\r\n   * @param value The amount that will be burnt.\r\n   */\r\n  function _burnFrom(address account, uint256 value) internal {\r\n    // Should https://github.com/OpenZeppelin/zeppelin-solidity/issues/707 be accepted,\r\n    // this function needs to emit an event with the updated approval.\r\n    _allowed[account][msg.sender] = _allowed[account][msg.sender].sub(\r\n      value);\r\n    _burn(account, value);\r\n  }\r\n}\r\n",
  "sourcePath": "C:\\Hackathon\\Heathchain\\bmb\\contracts\\base\\ERC20.sol",
  "compiler": {
    "name": "solc",
    "version": "0.4.24+commit.e67f0147.Emscripten.clang"
  },
  "schemaVersion": "2.0.1",
  "updatedAt": "2018-11-09T18:55:19.661Z"
}