{
  "contractName": "Token",
  "abi": [
    {
      "constant": true,
      "inputs": [],
      "name": "_totalSupply",
      "outputs": [
        {
          "name": "",
          "type": "uint256"
        }
      ],
      "payable": false,
      "stateMutability": "view",
      "type": "function"
    },
    {
      "constant": true,
      "inputs": [
        {
          "name": "",
          "type": "address"
        }
      ],
      "name": "_balances",
      "outputs": [
        {
          "name": "",
          "type": "uint256"
        }
      ],
      "payable": false,
      "stateMutability": "view",
      "type": "function"
    },
    {
      "anonymous": false,
      "inputs": [
        {
          "indexed": true,
          "name": "from",
          "type": "address"
        },
        {
          "indexed": true,
          "name": "to",
          "type": "address"
        },
        {
          "indexed": false,
          "name": "value",
          "type": "uint256"
        }
      ],
      "name": "Transfer",
      "type": "event"
    },
    {
      "anonymous": false,
      "inputs": [
        {
          "indexed": true,
          "name": "owner",
          "type": "address"
        },
        {
          "indexed": true,
          "name": "spender",
          "type": "address"
        },
        {
          "indexed": false,
          "name": "value",
          "type": "uint256"
        }
      ],
      "name": "Approval",
      "type": "event"
    },
    {
      "constant": false,
      "inputs": [
        {
          "name": "__name",
          "type": "string"
        },
        {
          "name": "__symbol",
          "type": "string"
        },
        {
          "name": "__decimals",
          "type": "uint8"
        },
        {
          "name": "__amount",
          "type": "uint256"
        }
      ],
      "name": "deployToken",
      "outputs": [],
      "payable": false,
      "stateMutability": "nonpayable",
      "type": "function"
    },
    {
      "constant": true,
      "inputs": [],
      "name": "totalSupply",
      "outputs": [
        {
          "name": "",
          "type": "uint256"
        }
      ],
      "payable": false,
      "stateMutability": "view",
      "type": "function"
    },
    {
      "constant": true,
      "inputs": [
        {
          "name": "owner",
          "type": "address"
        }
      ],
      "name": "balanceOf",
      "outputs": [
        {
          "name": "",
          "type": "uint256"
        }
      ],
      "payable": false,
      "stateMutability": "view",
      "type": "function"
    },
    {
      "constant": true,
      "inputs": [
        {
          "name": "owner",
          "type": "address"
        },
        {
          "name": "spender",
          "type": "address"
        }
      ],
      "name": "allowance",
      "outputs": [
        {
          "name": "",
          "type": "uint256"
        }
      ],
      "payable": false,
      "stateMutability": "view",
      "type": "function"
    },
    {
      "constant": false,
      "inputs": [
        {
          "name": "to",
          "type": "address"
        },
        {
          "name": "value",
          "type": "uint256"
        }
      ],
      "name": "transfer",
      "outputs": [
        {
          "name": "",
          "type": "bool"
        }
      ],
      "payable": false,
      "stateMutability": "nonpayable",
      "type": "function"
    },
    {
      "constant": false,
      "inputs": [
        {
          "name": "spender",
          "type": "address"
        },
        {
          "name": "value",
          "type": "uint256"
        }
      ],
      "name": "approve",
      "outputs": [
        {
          "name": "",
          "type": "bool"
        }
      ],
      "payable": false,
      "stateMutability": "nonpayable",
      "type": "function"
    },
    {
      "constant": false,
      "inputs": [
        {
          "name": "from",
          "type": "address"
        },
        {
          "name": "to",
          "type": "address"
        },
        {
          "name": "value",
          "type": "uint256"
        }
      ],
      "name": "transferFrom",
      "outputs": [
        {
          "name": "",
          "type": "bool"
        }
      ],
      "payable": false,
      "stateMutability": "nonpayable",
      "type": "function"
    },
    {
      "constant": false,
      "inputs": [
        {
          "name": "spender",
          "type": "address"
        },
        {
          "name": "addedValue",
          "type": "uint256"
        }
      ],
      "name": "increaseAllowance",
      "outputs": [
        {
          "name": "",
          "type": "bool"
        }
      ],
      "payable": false,
      "stateMutability": "nonpayable",
      "type": "function"
    },
    {
      "constant": false,
      "inputs": [
        {
          "name": "spender",
          "type": "address"
        },
        {
          "name": "subtractedValue",
          "type": "uint256"
        }
      ],
      "name": "decreaseAllowance",
      "outputs": [
        {
          "name": "",
          "type": "bool"
        }
      ],
      "payable": false,
      "stateMutability": "nonpayable",
      "type": "function"
    },
    {
      "constant": true,
      "inputs": [],
      "name": "name",
      "outputs": [
        {
          "name": "",
          "type": "string"
        }
      ],
      "payable": false,
      "stateMutability": "view",
      "type": "function"
    },
    {
      "constant": true,
      "inputs": [],
      "name": "symbol",
      "outputs": [
        {
          "name": "",
          "type": "string"
        }
      ],
      "payable": false,
      "stateMutability": "view",
      "type": "function"
    },
    {
      "constant": true,
      "inputs": [],
      "name": "decimals",
      "outputs": [
        {
          "name": "",
          "type": "uint8"
        }
      ],
      "payable": false,
      "stateMutability": "view",
      "type": "function"
    }
  ],
  "bytecode": "0x608060405234801561001057600080fd5b50611470806100206000396000f3006080604052600436106100d0576000357c0100000000000000000000000000000000000000000000000000000000900463ffffffff16806306fdde03146100d5578063095ea7b31461016557806318160ddd146101ca57806323b872dd146101f5578063313ce5671461027a57806339509351146102ab5780633eaaf86b146103105780636ebcf6071461033b57806370a082311461039257806395d89b41146103e9578063a457c2d714610479578063a9059cbb146104de578063b7d0204414610543578063dd62ed3e14610609575b600080fd5b3480156100e157600080fd5b506100ea610680565b6040518080602001828103825283818151815260200191508051906020019080838360005b8381101561012a57808201518184015260208101905061010f565b50505050905090810190601f1680156101575780820380516001836020036101000a031916815260200191505b509250505060405180910390f35b34801561017157600080fd5b506101b0600480360381019080803573ffffffffffffffffffffffffffffffffffffffff16906020019092919080359060200190929190505050610722565b604051808215151515815260200191505060405180910390f35b3480156101d657600080fd5b506101df61084f565b6040518082815260200191505060405180910390f35b34801561020157600080fd5b50610260600480360381019080803573ffffffffffffffffffffffffffffffffffffffff169060200190929190803573ffffffffffffffffffffffffffffffffffffffff16906020019092919080359060200190929190505050610859565b604051808215151515815260200191505060405180910390f35b34801561028657600080fd5b5061028f610980565b604051808260ff1660ff16815260200191505060405180910390f35b3480156102b757600080fd5b506102f6600480360381019080803573ffffffffffffffffffffffffffffffffffffffff16906020019092919080359060200190929190505050610997565b604051808215151515815260200191505060405180910390f35b34801561031c57600080fd5b50610325610bce565b6040518082815260200191505060405180910390f35b34801561034757600080fd5b5061037c600480360381019080803573ffffffffffffffffffffffffffffffffffffffff169060200190929190505050610bd4565b6040518082815260200191505060405180910390f35b34801561039e57600080fd5b506103d3600480360381019080803573ffffffffffffffffffffffffffffffffffffffff169060200190929190505050610bec565b6040518082815260200191505060405180910390f35b3480156103f557600080fd5b506103fe610c35565b6040518080602001828103825283818151815260200191508051906020019080838360005b8381101561043e578082015181840152602081019050610423565b50505050905090810190601f16801561046b5780820380516001836020036101000a031916815260200191505b509250505060405180910390f35b34801561048557600080fd5b506104c4600480360381019080803573ffffffffffffffffffffffffffffffffffffffff16906020019092919080359060200190929190505050610cd7565b604051808215151515815260200191505060405180910390f35b3480156104ea57600080fd5b50610529600480360381019080803573ffffffffffffffffffffffffffffffffffffffff16906020019092919080359060200190929190505050610f0e565b604051808215151515815260200191505060405180910390f35b34801561054f57600080fd5b50610607600480360381019080803590602001908201803590602001908080601f0160208091040260200160405190810160405280939291908181526020018383808284378201915050505050509192919290803590602001908201803590602001908080601f0160208091040260200160405190810160405280939291908181526020018383808284378201915050505050509192919290803560ff16906020019092919080359060200190929190505050610f25565b005b34801561061557600080fd5b5061066a600480360381019080803573ffffffffffffffffffffffffffffffffffffffff169060200190929190803573ffffffffffffffffffffffffffffffffffffffff1690602001909291905050506110c8565b6040518082815260200191505060405180910390f35b606060008054600181600116156101000203166002900480601f0160208091040260200160405190810160405280929190818152602001828054600181600116156101000203166002900480156107185780601f106106ed57610100808354040283529160200191610718565b820191906000526020600020905b8154815290600101906020018083116106fb57829003601f168201915b5050505050905090565b60008073ffffffffffffffffffffffffffffffffffffffff168373ffffffffffffffffffffffffffffffffffffffff161415151561075f57600080fd5b81600460003373ffffffffffffffffffffffffffffffffffffffff1673ffffffffffffffffffffffffffffffffffffffff16815260200190815260200160002060008573ffffffffffffffffffffffffffffffffffffffff1673ffffffffffffffffffffffffffffffffffffffff168152602001908152602001600020819055508273ffffffffffffffffffffffffffffffffffffffff163373ffffffffffffffffffffffffffffffffffffffff167f8c5be1e5ebec7d5bd14f71427d1e84f3dd0314c0f7b2291e5b200ac8c7c3b925846040518082815260200191505060405180910390a36001905092915050565b6000600554905090565b60006108ea82600460008773ffffffffffffffffffffffffffffffffffffffff1673ffffffffffffffffffffffffffffffffffffffff16815260200190815260200160002060003373ffffffffffffffffffffffffffffffffffffffff1673ffffffffffffffffffffffffffffffffffffffff1681526020019081526020016000205461114f90919063ffffffff16565b600460008673ffffffffffffffffffffffffffffffffffffffff1673ffffffffffffffffffffffffffffffffffffffff16815260200190815260200160002060003373ffffffffffffffffffffffffffffffffffffffff1673ffffffffffffffffffffffffffffffffffffffff16815260200190815260200160002081905550610975848484611170565b600190509392505050565b6000600260009054906101000a900460ff16905090565b60008073ffffffffffffffffffffffffffffffffffffffff168373ffffffffffffffffffffffffffffffffffffffff16141515156109d457600080fd5b610a6382600460003373ffffffffffffffffffffffffffffffffffffffff1673ffffffffffffffffffffffffffffffffffffffff16815260200190815260200160002060008673ffffffffffffffffffffffffffffffffffffffff1673ffffffffffffffffffffffffffffffffffffffff1681526020019081526020016000205461134090919063ffffffff16565b600460003373ffffffffffffffffffffffffffffffffffffffff1673ffffffffffffffffffffffffffffffffffffffff16815260200190815260200160002060008573ffffffffffffffffffffffffffffffffffffffff1673ffffffffffffffffffffffffffffffffffffffff168152602001908152602001600020819055508273ffffffffffffffffffffffffffffffffffffffff163373ffffffffffffffffffffffffffffffffffffffff167f8c5be1e5ebec7d5bd14f71427d1e84f3dd0314c0f7b2291e5b200ac8c7c3b925600460003373ffffffffffffffffffffffffffffffffffffffff1673ffffffffffffffffffffffffffffffffffffffff16815260200190815260200160002060008773ffffffffffffffffffffffffffffffffffffffff1673ffffffffffffffffffffffffffffffffffffffff168152602001908152602001600020546040518082815260200191505060405180910390a36001905092915050565b60055481565b60036020528060005260406000206000915090505481565b6000600360008373ffffffffffffffffffffffffffffffffffffffff1673ffffffffffffffffffffffffffffffffffffffff168152602001908152602001600020549050919050565b606060018054600181600116156101000203166002900480601f016020809104026020016040519081016040528092919081815260200182805460018160011615610100020316600290048015610ccd5780601f10610ca257610100808354040283529160200191610ccd565b820191906000526020600020905b815481529060010190602001808311610cb057829003601f168201915b5050505050905090565b60008073ffffffffffffffffffffffffffffffffffffffff168373ffffffffffffffffffffffffffffffffffffffff1614151515610d1457600080fd5b610da382600460003373ffffffffffffffffffffffffffffffffffffffff1673ffffffffffffffffffffffffffffffffffffffff16815260200190815260200160002060008673ffffffffffffffffffffffffffffffffffffffff1673ffffffffffffffffffffffffffffffffffffffff1681526020019081526020016000205461114f90919063ffffffff16565b600460003373ffffffffffffffffffffffffffffffffffffffff1673ffffffffffffffffffffffffffffffffffffffff16815260200190815260200160002060008573ffffffffffffffffffffffffffffffffffffffff1673ffffffffffffffffffffffffffffffffffffffff168152602001908152602001600020819055508273ffffffffffffffffffffffffffffffffffffffff163373ffffffffffffffffffffffffffffffffffffffff167f8c5be1e5ebec7d5bd14f71427d1e84f3dd0314c0f7b2291e5b200ac8c7c3b925600460003373ffffffffffffffffffffffffffffffffffffffff1673ffffffffffffffffffffffffffffffffffffffff16815260200190815260200160002060008773ffffffffffffffffffffffffffffffffffffffff1673ffffffffffffffffffffffffffffffffffffffff168152602001908152602001600020546040518082815260200191505060405180910390a36001905092915050565b6000610f1b338484611170565b6001905092915050565b600081111515610f9d576040517f08c379a000000000000000000000000000000000000000000000000000000000815260040180806020018281038252601f8152602001807f616d6f756e742068617320746f2062652067726561746572207468616e20300081525060200191505060405180910390fd5b8360009080519060200190610fb392919061139f565b508260019080519060200190610fca92919061139f565b5081600260006101000a81548160ff021916908360ff16021790555061100e600260009054906101000a900460ff1660ff16600a0a8261136190919063ffffffff16565b600581905550600554600360003373ffffffffffffffffffffffffffffffffffffffff1673ffffffffffffffffffffffffffffffffffffffff168152602001908152602001600020819055503373ffffffffffffffffffffffffffffffffffffffff16600073ffffffffffffffffffffffffffffffffffffffff167fddf252ad1be2c89b69c2b068fc378daa952ba7f163c4a11628f55a4df523b3ef6005546040518082815260200191505060405180910390a350505050565b6000600460008473ffffffffffffffffffffffffffffffffffffffff1673ffffffffffffffffffffffffffffffffffffffff16815260200190815260200160002060008373ffffffffffffffffffffffffffffffffffffffff1673ffffffffffffffffffffffffffffffffffffffff16815260200190815260200160002054905092915050565b60008083831115151561116157600080fd5b82840390508091505092915050565b600073ffffffffffffffffffffffffffffffffffffffff168273ffffffffffffffffffffffffffffffffffffffff16141515156111ac57600080fd5b6111fe81600360008673ffffffffffffffffffffffffffffffffffffffff1673ffffffffffffffffffffffffffffffffffffffff1681526020019081526020016000205461114f90919063ffffffff16565b600360008573ffffffffffffffffffffffffffffffffffffffff1673ffffffffffffffffffffffffffffffffffffffff1681526020019081526020016000208190555061129381600360008573ffffffffffffffffffffffffffffffffffffffff1673ffffffffffffffffffffffffffffffffffffffff1681526020019081526020016000205461134090919063ffffffff16565b600360008473ffffffffffffffffffffffffffffffffffffffff1673ffffffffffffffffffffffffffffffffffffffff168152602001908152602001600020819055508173ffffffffffffffffffffffffffffffffffffffff168373ffffffffffffffffffffffffffffffffffffffff167fddf252ad1be2c89b69c2b068fc378daa952ba7f163c4a11628f55a4df523b3ef836040518082815260200191505060405180910390a3505050565b600080828401905083811015151561135757600080fd5b8091505092915050565b60008060008414156113765760009150611398565b828402905082848281151561138757fe5b0414151561139457600080fd5b8091505b5092915050565b828054600181600116156101000203166002900490600052602060002090601f016020900481019282601f106113e057805160ff191683800117855561140e565b8280016001018555821561140e579182015b8281111561140d5782518255916020019190600101906113f2565b5b50905061141b919061141f565b5090565b61144191905b8082111561143d576000816000905550600101611425565b5090565b905600a165627a7a72305820989f2aba1453c6e39aabbc89e7c5dd34d21de1ddd3272faabcfcc65c929ea4f80029",
  "source": "pragma solidity ^0.4.24;\r\n\r\nimport \"./IERC20.sol\";\r\nimport \"./SafeMath.sol\";\r\n\r\ncontract Token is IERC20  {\r\n    using SafeMath for uint256;\r\n\r\n    string private _name;\r\n    string private _symbol;\r\n    uint8 private _decimals;\r\n\r\n    mapping (address => uint256) public _balances;\r\n    mapping (address => mapping (address => uint256)) private _allowed;\r\n\r\n    uint256 public _totalSupply;\r\n\r\n    function deployToken(string __name, string __symbol, uint8 __decimals,uint256 __amount) public {\r\n        require(__amount > 0, \"amount has to be greater than 0\");\r\n        _name = __name;\r\n        _symbol = __symbol;\r\n        _decimals = __decimals;\r\n        _totalSupply = __amount.mul(10 ** uint256(_decimals));\r\n        _balances[msg.sender] = _totalSupply;\r\n        emit Transfer(address(0), msg.sender, _totalSupply);\r\n    }\r\n\r\n    function totalSupply() public view returns (uint256) {\r\n        return _totalSupply;\r\n    }\r\n\r\n    function balanceOf(address owner) public view returns (uint256) {\r\n        return _balances[owner];\r\n    }\r\n\r\n    function allowance(address owner, address spender) public view returns (uint256) {\r\n        return _allowed[owner][spender];\r\n    }\r\n\r\n    function transfer(address to, uint256 value) public returns (bool) {\r\n        _transfer(msg.sender, to, value);\r\n        return true;\r\n    }\r\n\r\n    function approve(address spender, uint256 value) public returns (bool) {\r\n        require(spender != address(0));\r\n        _allowed[msg.sender][spender] = value;\r\n        emit Approval(msg.sender, spender, value);\r\n        return true;\r\n    }\r\n\r\n\r\n    function transferFrom(address from,address to,uint256 value) public returns (bool)\r\n    {\r\n        _allowed[from][msg.sender] = _allowed[from][msg.sender].sub(value);\r\n        _transfer(from, to, value);\r\n        return true;\r\n    }\r\n\r\n    function increaseAllowance(address spender,uint256 addedValue) public returns (bool) {\r\n        require(spender != address(0));\r\n        _allowed[msg.sender][spender] = (_allowed[msg.sender][spender].add(addedValue));\r\n        emit Approval(msg.sender, spender, _allowed[msg.sender][spender]);\r\n        return true;\r\n    }\r\n\r\n    function decreaseAllowance(address spender,uint256 subtractedValue) public returns (bool) {\r\n        require(spender != address(0));\r\n\r\n        _allowed[msg.sender][spender] = (_allowed[msg.sender][spender].sub(subtractedValue));\r\n        emit Approval(msg.sender, spender, _allowed[msg.sender][spender]);\r\n        return true;\r\n    }\r\n\r\n    function _transfer(address from, address to, uint256 value) internal {\r\n        require(to != address(0));\r\n\r\n        _balances[from] = _balances[from].sub(value);\r\n        _balances[to] = _balances[to].add(value);\r\n        emit Transfer(from, to, value);\r\n    }\r\n\r\n    function _mint(address account, uint256 value) internal {\r\n        require(account != address(0));\r\n        _totalSupply = _totalSupply.add(value);\r\n        _balances[account] = _balances[account].add(value);\r\n        emit Transfer(address(0), account, value);\r\n    }\r\n\r\n    function _burn(address account, uint256 value) internal {\r\n        require(account != address(0));\r\n\r\n        _totalSupply = _totalSupply.sub(value);\r\n        _balances[account] = _balances[account].sub(value);\r\n        emit Transfer(account, address(0), value);\r\n    }\r\n\r\n    function _burnFrom(address account, uint256 value) internal {\r\n    \r\n        _allowed[account][msg.sender] = _allowed[account][msg.sender].sub(value);\r\n        _burn(account, value);\r\n    }\r\n\r\n    function name() public view returns(string) {\r\n        return _name;\r\n    }\r\n\r\n    function symbol() public view returns(string) {\r\n        return _symbol;\r\n    }\r\n\r\n    function decimals() public view returns(uint8) {\r\n        return _decimals;\r\n    } \r\n\r\n\r\n\r\n     \r\n}",
  "sourcePath": "C:\\Hackathon\\Heathchain\\bmb\\contracts\\Token.sol",
  "compiler": {
    "name": "solc",
    "version": "0.4.24+commit.e67f0147.Emscripten.clang"
  },
  "schemaVersion": "2.0.1",
  "updatedAt": "2018-11-10T05:26:01.028Z"
}